{
	"contracts/Wedding.sol": {
		"Wedding": {
			"abi": [
				{
					"inputs": [],
					"name": "acceptInvitation",
					"outputs": [],
					"stateMutability": "nonpayable",
					"type": "function"
				},
				{
					"inputs": [],
					"name": "agreeOnParticipants",
					"outputs": [],
					"stateMutability": "nonpayable",
					"type": "function"
				},
				{
					"inputs": [
						{
							"internalType": "uint256",
							"name": "_date",
							"type": "uint256"
						},
						{
							"internalType": "string",
							"name": "_additionalInfo",
							"type": "string"
						}
					],
					"name": "engage",
					"outputs": [],
					"stateMutability": "nonpayable",
					"type": "function"
				},
				{
					"inputs": [
						{
							"internalType": "address",
							"name": "_addr",
							"type": "address"
						}
					],
					"name": "inviteParticipant",
					"outputs": [],
					"stateMutability": "nonpayable",
					"type": "function"
				},
				{
					"inputs": [],
					"name": "revokeEngagement",
					"outputs": [],
					"stateMutability": "nonpayable",
					"type": "function"
				},
				{
					"inputs": [],
					"name": "voteAgainst",
					"outputs": [],
					"stateMutability": "nonpayable",
					"type": "function"
				},
				{
					"inputs": [],
					"name": "wed",
					"outputs": [],
					"stateMutability": "nonpayable",
					"type": "function"
				}
			],
			"devdoc": {
				"kind": "dev",
				"methods": {},
				"version": 1
			},
			"evm": {
				"assembly": "    /* \"contracts/Wedding.sol\":76:5001  contract Wedding {... */\n  mstore(0x40, 0x80)\n  callvalue\n  dup1\n  iszero\n  tag_1\n  jumpi\n  0x00\n  dup1\n  revert\ntag_1:\n  pop\n  dataSize(sub_0)\n  dup1\n  dataOffset(sub_0)\n  0x00\n  codecopy\n  0x00\n  return\nstop\n\nsub_0: assembly {\n        /* \"contracts/Wedding.sol\":76:5001  contract Wedding {... */\n      mstore(0x40, 0x80)\n      callvalue\n      dup1\n      iszero\n      tag_1\n      jumpi\n      0x00\n      dup1\n      revert\n    tag_1:\n      pop\n      jumpi(tag_2, lt(calldatasize, 0x04))\n      shr(0xe0, calldataload(0x00))\n      dup1\n      0x728f1112\n      gt\n      tag_10\n      jumpi\n      dup1\n      0x728f1112\n      eq\n      tag_6\n      jumpi\n      dup1\n      0x7bcd97af\n      eq\n      tag_7\n      jumpi\n      dup1\n      0x9f396cff\n      eq\n      tag_8\n      jumpi\n      dup1\n      0xa64b959f\n      eq\n      tag_9\n      jumpi\n      jump(tag_2)\n    tag_10:\n      dup1\n      0x266ae81c\n      eq\n      tag_3\n      jumpi\n      dup1\n      0x68aee9e8\n      eq\n      tag_4\n      jumpi\n      dup1\n      0x6d955eb5\n      eq\n      tag_5\n      jumpi\n    tag_2:\n      0x00\n      dup1\n      revert\n        /* \"contracts/Wedding.sol\":3208:3339  function inviteParticipant(address _addr) public onlyEngaged {... */\n    tag_3:\n      tag_11\n      0x04\n      dup1\n      calldatasize\n      sub\n      dup2\n      add\n      swap1\n      tag_12\n      swap2\n      swap1\n      tag_13\n      jump\t// in\n    tag_12:\n      tag_14\n      jump\t// in\n    tag_11:\n      stop\n        /* \"contracts/Wedding.sol\":4692:4998  function wed() public onlyEngaged bothAgreedOnParticipants halfHasNotVotedAgainst isTimeValid {... */\n    tag_4:\n      tag_15\n      tag_16\n      jump\t// in\n    tag_15:\n      stop\n        /* \"contracts/Wedding.sol\":4200:4375  function revokeEngagement() public onlyEngaged {... */\n    tag_5:\n      tag_17\n      tag_18\n      jump\t// in\n    tag_17:\n      stop\n        /* \"contracts/Wedding.sol\":3347:3839  function acceptInvitation() public onlyParticipant {... */\n    tag_6:\n      tag_19\n      tag_20\n      jump\t// in\n    tag_19:\n      stop\n        /* \"contracts/Wedding.sol\":2807:3200  function engage(uint256 _date, string memory _additionalInfo) public onlyUnWed {... */\n    tag_7:\n      tag_21\n      0x04\n      dup1\n      calldatasize\n      sub\n      dup2\n      add\n      swap1\n      tag_22\n      swap2\n      swap1\n      tag_23\n      jump\t// in\n    tag_22:\n      tag_24\n      jump\t// in\n    tag_21:\n      stop\n        /* \"contracts/Wedding.sol\":4383:4684  function voteAgainst() public onlyConfirmedParticipant {... */\n    tag_8:\n      tag_25\n      tag_26\n      jump\t// in\n    tag_25:\n      stop\n        /* \"contracts/Wedding.sol\":3847:4192  function agreeOnParticipants() public onlyEngaged {... */\n    tag_9:\n      tag_27\n      tag_28\n      jump\t// in\n    tag_27:\n      stop\n        /* \"contracts/Wedding.sol\":3208:3339  function inviteParticipant(address _addr) public onlyEngaged {... */\n    tag_14:\n        /* \"contracts/Wedding.sol\":984:991  spouse1 */\n      0x00\n        /* \"contracts/Wedding.sol\":984:996  spouse1.addr */\n      dup1\n      add\n      0x00\n      swap1\n      sload\n      swap1\n      0x0100\n      exp\n      swap1\n      div\n      0xffffffffffffffffffffffffffffffffffffffff\n      and\n        /* \"contracts/Wedding.sol\":970:996  msg.sender == spouse1.addr */\n      0xffffffffffffffffffffffffffffffffffffffff\n      and\n        /* \"contracts/Wedding.sol\":970:980  msg.sender */\n      caller\n        /* \"contracts/Wedding.sol\":970:996  msg.sender == spouse1.addr */\n      0xffffffffffffffffffffffffffffffffffffffff\n      and\n      eq\n        /* \"contracts/Wedding.sol\":970:1026  msg.sender == spouse1.addr || msg.sender == spouse2.addr */\n      dup1\n      tag_30\n      jumpi\n      pop\n        /* \"contracts/Wedding.sol\":1014:1021  spouse2 */\n      0x01\n        /* \"contracts/Wedding.sol\":1014:1026  spouse2.addr */\n      0x00\n      add\n      0x00\n      swap1\n      sload\n      swap1\n      0x0100\n      exp\n      swap1\n      div\n      0xffffffffffffffffffffffffffffffffffffffff\n      and\n        /* \"contracts/Wedding.sol\":1000:1026  msg.sender == spouse2.addr */\n      0xffffffffffffffffffffffffffffffffffffffff\n      and\n        /* \"contracts/Wedding.sol\":1000:1010  msg.sender */\n      caller\n        /* \"contracts/Wedding.sol\":1000:1026  msg.sender == spouse2.addr */\n      0xffffffffffffffffffffffffffffffffffffffff\n      and\n      eq\n        /* \"contracts/Wedding.sol\":970:1026  msg.sender == spouse1.addr || msg.sender == spouse2.addr */\n    tag_30:\n        /* \"contracts/Wedding.sol\":962:1044  require(msg.sender == spouse1.addr || msg.sender == spouse2.addr, \"Only engaged.\") */\n      tag_31\n      jumpi\n      mload(0x40)\n      0x08c379a000000000000000000000000000000000000000000000000000000000\n      dup2\n      mstore\n      0x04\n      add\n      tag_32\n      swap1\n      tag_33\n      jump\t// in\n    tag_32:\n      mload(0x40)\n      dup1\n      swap2\n      sub\n      swap1\n      revert\n    tag_31:\n        /* \"contracts/Wedding.sol\":3280:3292  participants */\n      0x04\n        /* \"contracts/Wedding.sol\":3298:3330  Participant(_addr, false, false) */\n      mload(0x40)\n      dup1\n      0x60\n      add\n      0x40\n      mstore\n      dup1\n        /* \"contracts/Wedding.sol\":3310:3315  _addr */\n      dup4\n        /* \"contracts/Wedding.sol\":3298:3330  Participant(_addr, false, false) */\n      0xffffffffffffffffffffffffffffffffffffffff\n      and\n      dup2\n      mstore\n      0x20\n      add\n        /* \"contracts/Wedding.sol\":3317:3322  false */\n      0x00\n        /* \"contracts/Wedding.sol\":3298:3330  Participant(_addr, false, false) */\n      iszero\n      iszero\n      dup2\n      mstore\n      0x20\n      add\n        /* \"contracts/Wedding.sol\":3324:3329  false */\n      0x00\n        /* \"contracts/Wedding.sol\":3298:3330  Participant(_addr, false, false) */\n      iszero\n      iszero\n      dup2\n      mstore\n      pop\n        /* \"contracts/Wedding.sol\":3280:3331  participants.push(Participant(_addr, false, false)) */\n      swap1\n      dup1\n      0x01\n      dup2\n      sload\n      add\n      dup1\n      dup3\n      sstore\n      dup1\n      swap2\n      pop\n      pop\n      0x01\n      swap1\n      sub\n      swap1\n      0x00\n      mstore\n      keccak256(0x00, 0x20)\n      add\n      0x00\n      swap1\n      swap2\n      swap1\n      swap2\n      swap1\n      swap2\n      pop\n      0x00\n      dup3\n      add\n      mload\n      dup2\n      0x00\n      add\n      exp(0x0100, 0x00)\n      dup2\n      sload\n      dup2\n      0xffffffffffffffffffffffffffffffffffffffff\n      mul\n      not\n      and\n      swap1\n      dup4\n      0xffffffffffffffffffffffffffffffffffffffff\n      and\n      mul\n      or\n      swap1\n      sstore\n      pop\n      0x20\n      dup3\n      add\n      mload\n      dup2\n      0x00\n      add\n      exp(0x0100, 0x14)\n      dup2\n      sload\n      dup2\n      0xff\n      mul\n      not\n      and\n      swap1\n      dup4\n      iszero\n      iszero\n      mul\n      or\n      swap1\n      sstore\n      pop\n      0x40\n      dup3\n      add\n      mload\n      dup2\n      0x00\n      add\n      exp(0x0100, 0x15)\n      dup2\n      sload\n      dup2\n      0xff\n      mul\n      not\n      and\n      swap1\n      dup4\n      iszero\n      iszero\n      mul\n      or\n      swap1\n      sstore\n      pop\n      pop\n      pop\n        /* \"contracts/Wedding.sol\":3208:3339  function inviteParticipant(address _addr) public onlyEngaged {... */\n      pop\n      jump\t// out\n        /* \"contracts/Wedding.sol\":4692:4998  function wed() public onlyEngaged bothAgreedOnParticipants halfHasNotVotedAgainst isTimeValid {... */\n    tag_16:\n        /* \"contracts/Wedding.sol\":984:991  spouse1 */\n      0x00\n        /* \"contracts/Wedding.sol\":984:996  spouse1.addr */\n      dup1\n      add\n      0x00\n      swap1\n      sload\n      swap1\n      0x0100\n      exp\n      swap1\n      div\n      0xffffffffffffffffffffffffffffffffffffffff\n      and\n        /* \"contracts/Wedding.sol\":970:996  msg.sender == spouse1.addr */\n      0xffffffffffffffffffffffffffffffffffffffff\n      and\n        /* \"contracts/Wedding.sol\":970:980  msg.sender */\n      caller\n        /* \"contracts/Wedding.sol\":970:996  msg.sender == spouse1.addr */\n      0xffffffffffffffffffffffffffffffffffffffff\n      and\n      eq\n        /* \"contracts/Wedding.sol\":970:1026  msg.sender == spouse1.addr || msg.sender == spouse2.addr */\n      dup1\n      tag_37\n      jumpi\n      pop\n        /* \"contracts/Wedding.sol\":1014:1021  spouse2 */\n      0x01\n        /* \"contracts/Wedding.sol\":1014:1026  spouse2.addr */\n      0x00\n      add\n      0x00\n      swap1\n      sload\n      swap1\n      0x0100\n      exp\n      swap1\n      div\n      0xffffffffffffffffffffffffffffffffffffffff\n      and\n        /* \"contracts/Wedding.sol\":1000:1026  msg.sender == spouse2.addr */\n      0xffffffffffffffffffffffffffffffffffffffff\n      and\n        /* \"contracts/Wedding.sol\":1000:1010  msg.sender */\n      caller\n        /* \"contracts/Wedding.sol\":1000:1026  msg.sender == spouse2.addr */\n      0xffffffffffffffffffffffffffffffffffffffff\n      and\n      eq\n        /* \"contracts/Wedding.sol\":970:1026  msg.sender == spouse1.addr || msg.sender == spouse2.addr */\n    tag_37:\n        /* \"contracts/Wedding.sol\":962:1044  require(msg.sender == spouse1.addr || msg.sender == spouse2.addr, \"Only engaged.\") */\n      tag_38\n      jumpi\n      mload(0x40)\n      0x08c379a000000000000000000000000000000000000000000000000000000000\n      dup2\n      mstore\n      0x04\n      add\n      tag_39\n      swap1\n      tag_33\n      jump\t// in\n    tag_39:\n      mload(0x40)\n      dup1\n      swap2\n      sub\n      swap1\n      revert\n    tag_38:\n        /* \"contracts/Wedding.sol\":1421:1428  spouse1 */\n      0x00\n        /* \"contracts/Wedding.sol\":1421:1449  spouse1.agreedOnParticipants */\n      dup1\n      add\n      0x15\n      swap1\n      sload\n      swap1\n      0x0100\n      exp\n      swap1\n      div\n      0xff\n      and\n        /* \"contracts/Wedding.sol\":1413:1491  require(spouse1.agreedOnParticipants, \"Address 1 must agree on participants.\") */\n      tag_41\n      jumpi\n      mload(0x40)\n      0x08c379a000000000000000000000000000000000000000000000000000000000\n      dup2\n      mstore\n      0x04\n      add\n      tag_42\n      swap1\n      tag_43\n      jump\t// in\n    tag_42:\n      mload(0x40)\n      dup1\n      swap2\n      sub\n      swap1\n      revert\n    tag_41:\n        /* \"contracts/Wedding.sol\":1510:1517  spouse2 */\n      0x01\n        /* \"contracts/Wedding.sol\":1510:1538  spouse2.agreedOnParticipants */\n      0x00\n      add\n      0x15\n      swap1\n      sload\n      swap1\n      0x0100\n      exp\n      swap1\n      div\n      0xff\n      and\n        /* \"contracts/Wedding.sol\":1502:1580  require(spouse2.agreedOnParticipants, \"Address 2 must agree on participants.\") */\n      tag_44\n      jumpi\n      mload(0x40)\n      0x08c379a000000000000000000000000000000000000000000000000000000000\n      dup2\n      mstore\n      0x04\n      add\n      tag_45\n      swap1\n      tag_46\n      jump\t// in\n    tag_45:\n      mload(0x40)\n      dup1\n      swap2\n      sub\n      swap1\n      revert\n    tag_44:\n        /* \"contracts/Wedding.sol\":1653:1667  uint voteCount */\n      0x00\n        /* \"contracts/Wedding.sol\":1682:1701  uint confirmedCount */\n      dup1\n        /* \"contracts/Wedding.sol\":1723:1729  uint i */\n      0x00\n        /* \"contracts/Wedding.sol\":1718:1975  for (uint i; i < participants.length; i++) {... */\n    tag_48:\n        /* \"contracts/Wedding.sol\":1735:1747  participants */\n      0x04\n        /* \"contracts/Wedding.sol\":1735:1754  participants.length */\n      dup1\n      sload\n      swap1\n      pop\n        /* \"contracts/Wedding.sol\":1731:1732  i */\n      dup2\n        /* \"contracts/Wedding.sol\":1731:1754  i < participants.length */\n      lt\n        /* \"contracts/Wedding.sol\":1718:1975  for (uint i; i < participants.length; i++) {... */\n      iszero\n      tag_49\n      jumpi\n        /* \"contracts/Wedding.sol\":1780:1792  participants */\n      0x04\n        /* \"contracts/Wedding.sol\":1793:1794  i */\n      dup2\n        /* \"contracts/Wedding.sol\":1780:1795  participants[i] */\n      dup2\n      sload\n      dup2\n      lt\n      tag_51\n      jumpi\n      tag_52\n      tag_53\n      jump\t// in\n    tag_52:\n    tag_51:\n      swap1\n      0x00\n      mstore\n      keccak256(0x00, 0x20)\n      add\n        /* \"contracts/Wedding.sol\":1780:1805  participants[i].confirmed */\n      0x00\n      add\n      0x14\n      swap1\n      sload\n      swap1\n      0x0100\n      exp\n      swap1\n      div\n      0xff\n      and\n        /* \"contracts/Wedding.sol\":1776:1964  if (participants[i].confirmed) {... */\n      iszero\n      tag_55\n      jumpi\n        /* \"contracts/Wedding.sol\":1826:1842  confirmedCount++ */\n      dup2\n      dup1\n      tag_56\n      swap1\n      tag_57\n      jump\t// in\n    tag_56:\n      swap3\n      pop\n      pop\n        /* \"contracts/Wedding.sol\":1865:1877  participants */\n      0x04\n        /* \"contracts/Wedding.sol\":1878:1879  i */\n      dup2\n        /* \"contracts/Wedding.sol\":1865:1880  participants[i] */\n      dup2\n      sload\n      dup2\n      lt\n      tag_58\n      jumpi\n      tag_59\n      tag_53\n      jump\t// in\n    tag_59:\n    tag_58:\n      swap1\n      0x00\n      mstore\n      keccak256(0x00, 0x20)\n      add\n        /* \"contracts/Wedding.sol\":1865:1893  participants[i].votedAgainst */\n      0x00\n      add\n      0x15\n      swap1\n      sload\n      swap1\n      0x0100\n      exp\n      swap1\n      div\n      0xff\n      and\n        /* \"contracts/Wedding.sol\":1861:1949  if (participants[i].votedAgainst) {... */\n      iszero\n      tag_61\n      jumpi\n        /* \"contracts/Wedding.sol\":1918:1929  voteCount++ */\n      dup3\n      dup1\n      tag_62\n      swap1\n      tag_57\n      jump\t// in\n    tag_62:\n      swap4\n      pop\n      pop\n        /* \"contracts/Wedding.sol\":1861:1949  if (participants[i].votedAgainst) {... */\n    tag_61:\n        /* \"contracts/Wedding.sol\":1776:1964  if (participants[i].confirmed) {... */\n    tag_55:\n        /* \"contracts/Wedding.sol\":1756:1759  i++ */\n      dup1\n      dup1\n      tag_63\n      swap1\n      tag_57\n      jump\t// in\n    tag_63:\n      swap2\n      pop\n      pop\n        /* \"contracts/Wedding.sol\":1718:1975  for (uint i; i < participants.length; i++) {... */\n      jump(tag_48)\n    tag_49:\n      pop\n        /* \"contracts/Wedding.sol\":2009:2023  confirmedCount */\n      dup1\n        /* \"contracts/Wedding.sol\":2005:2006  2 */\n      0x02\n        /* \"contracts/Wedding.sol\":1995:2004  voteCount */\n      dup4\n        /* \"contracts/Wedding.sol\":1995:2006  voteCount*2 */\n      tag_64\n      swap2\n      swap1\n      tag_65\n      jump\t// in\n    tag_64:\n        /* \"contracts/Wedding.sol\":1995:2023  voteCount*2 < confirmedCount */\n      lt\n        /* \"contracts/Wedding.sol\":1987:2047  require(voteCount*2 < confirmedCount, \"Half voted against.\") */\n      tag_66\n      jumpi\n      mload(0x40)\n      0x08c379a000000000000000000000000000000000000000000000000000000000\n      dup2\n      mstore\n      0x04\n      add\n      tag_67\n      swap1\n      tag_68\n      jump\t// in\n    tag_67:\n      mload(0x40)\n      dup1\n      swap2\n      sub\n      swap1\n      revert\n    tag_66:\n        /* \"contracts/Wedding.sol\":2136:2140  date */\n      sload(0x02)\n        /* \"contracts/Wedding.sol\":2117:2132  block.timestamp */\n      timestamp\n        /* \"contracts/Wedding.sol\":2117:2140  block.timestamp >= date */\n      lt\n      iszero\n        /* \"contracts/Wedding.sol\":2109:2161  require(block.timestamp >= date, \"Too early, mate.\") */\n      tag_70\n      jumpi\n      mload(0x40)\n      0x08c379a000000000000000000000000000000000000000000000000000000000\n      dup2\n      mstore\n      0x04\n      add\n      tag_71\n      swap1\n      tag_72\n      jump\t// in\n    tag_71:\n      mload(0x40)\n      dup1\n      swap2\n      sub\n      swap1\n      revert\n    tag_70:\n        /* \"contracts/Wedding.sol\":4807:4888  Spouse(spouse1.addr, true, spouse1.agreedOnParticipants, spouse1.agreedOnWedding) */\n      mload(0x40)\n      dup1\n      0x80\n      add\n      0x40\n      mstore\n      dup1\n        /* \"contracts/Wedding.sol\":4814:4821  spouse1 */\n      0x00\n        /* \"contracts/Wedding.sol\":4814:4826  spouse1.addr */\n      dup1\n      add\n      0x00\n      swap1\n      sload\n      swap1\n      0x0100\n      exp\n      swap1\n      div\n      0xffffffffffffffffffffffffffffffffffffffff\n      and\n        /* \"contracts/Wedding.sol\":4807:4888  Spouse(spouse1.addr, true, spouse1.agreedOnParticipants, spouse1.agreedOnWedding) */\n      0xffffffffffffffffffffffffffffffffffffffff\n      and\n      dup2\n      mstore\n      0x20\n      add\n        /* \"contracts/Wedding.sol\":4828:4832  true */\n      0x01\n        /* \"contracts/Wedding.sol\":4807:4888  Spouse(spouse1.addr, true, spouse1.agreedOnParticipants, spouse1.agreedOnWedding) */\n      iszero\n      iszero\n      dup2\n      mstore\n      0x20\n      add\n        /* \"contracts/Wedding.sol\":4834:4841  spouse1 */\n      0x00\n        /* \"contracts/Wedding.sol\":4834:4862  spouse1.agreedOnParticipants */\n      dup1\n      add\n      0x15\n      swap1\n      sload\n      swap1\n      0x0100\n      exp\n      swap1\n      div\n      0xff\n      and\n        /* \"contracts/Wedding.sol\":4807:4888  Spouse(spouse1.addr, true, spouse1.agreedOnParticipants, spouse1.agreedOnWedding) */\n      iszero\n      iszero\n      dup2\n      mstore\n      0x20\n      add\n        /* \"contracts/Wedding.sol\":4864:4871  spouse1 */\n      0x00\n        /* \"contracts/Wedding.sol\":4864:4887  spouse1.agreedOnWedding */\n      dup1\n      add\n      0x16\n      swap1\n      sload\n      swap1\n      0x0100\n      exp\n      swap1\n      div\n      0xff\n      and\n        /* \"contracts/Wedding.sol\":4807:4888  Spouse(spouse1.addr, true, spouse1.agreedOnParticipants, spouse1.agreedOnWedding) */\n      iszero\n      iszero\n      dup2\n      mstore\n      pop\n        /* \"contracts/Wedding.sol\":4797:4804  spouse1 */\n      0x00\n        /* \"contracts/Wedding.sol\":4797:4888  spouse1 = Spouse(spouse1.addr, true, spouse1.agreedOnParticipants, spouse1.agreedOnWedding) */\n      dup1\n      dup3\n      add\n      mload\n      dup2\n      0x00\n      add\n      exp(0x0100, 0x00)\n      dup2\n      sload\n      dup2\n      0xffffffffffffffffffffffffffffffffffffffff\n      mul\n      not\n      and\n      swap1\n      dup4\n      0xffffffffffffffffffffffffffffffffffffffff\n      and\n      mul\n      or\n      swap1\n      sstore\n      pop\n      0x20\n      dup3\n      add\n      mload\n      dup2\n      0x00\n      add\n      exp(0x0100, 0x14)\n      dup2\n      sload\n      dup2\n      0xff\n      mul\n      not\n      and\n      swap1\n      dup4\n      iszero\n      iszero\n      mul\n      or\n      swap1\n      sstore\n      pop\n      0x40\n      dup3\n      add\n      mload\n      dup2\n      0x00\n      add\n      exp(0x0100, 0x15)\n      dup2\n      sload\n      dup2\n      0xff\n      mul\n      not\n      and\n      swap1\n      dup4\n      iszero\n      iszero\n      mul\n      or\n      swap1\n      sstore\n      pop\n      0x60\n      dup3\n      add\n      mload\n      dup2\n      0x00\n      add\n      exp(0x0100, 0x16)\n      dup2\n      sload\n      dup2\n      0xff\n      mul\n      not\n      and\n      swap1\n      dup4\n      iszero\n      iszero\n      mul\n      or\n      swap1\n      sstore\n      pop\n      swap1\n      pop\n      pop\n        /* \"contracts/Wedding.sol\":4909:4990  Spouse(spouse2.addr, true, spouse2.agreedOnParticipants, spouse2.agreedOnWedding) */\n      mload(0x40)\n      dup1\n      0x80\n      add\n      0x40\n      mstore\n      dup1\n        /* \"contracts/Wedding.sol\":4916:4923  spouse2 */\n      0x01\n        /* \"contracts/Wedding.sol\":4916:4928  spouse2.addr */\n      0x00\n      add\n      0x00\n      swap1\n      sload\n      swap1\n      0x0100\n      exp\n      swap1\n      div\n      0xffffffffffffffffffffffffffffffffffffffff\n      and\n        /* \"contracts/Wedding.sol\":4909:4990  Spouse(spouse2.addr, true, spouse2.agreedOnParticipants, spouse2.agreedOnWedding) */\n      0xffffffffffffffffffffffffffffffffffffffff\n      and\n      dup2\n      mstore\n      0x20\n      add\n        /* \"contracts/Wedding.sol\":4930:4934  true */\n      0x01\n        /* \"contracts/Wedding.sol\":4909:4990  Spouse(spouse2.addr, true, spouse2.agreedOnParticipants, spouse2.agreedOnWedding) */\n      iszero\n      iszero\n      dup2\n      mstore\n      0x20\n      add\n        /* \"contracts/Wedding.sol\":4936:4943  spouse2 */\n      0x01\n        /* \"contracts/Wedding.sol\":4936:4964  spouse2.agreedOnParticipants */\n      0x00\n      add\n      0x15\n      swap1\n      sload\n      swap1\n      0x0100\n      exp\n      swap1\n      div\n      0xff\n      and\n        /* \"contracts/Wedding.sol\":4909:4990  Spouse(spouse2.addr, true, spouse2.agreedOnParticipants, spouse2.agreedOnWedding) */\n      iszero\n      iszero\n      dup2\n      mstore\n      0x20\n      add\n        /* \"contracts/Wedding.sol\":4966:4973  spouse2 */\n      0x01\n        /* \"contracts/Wedding.sol\":4966:4989  spouse2.agreedOnWedding */\n      0x00\n      add\n      0x16\n      swap1\n      sload\n      swap1\n      0x0100\n      exp\n      swap1\n      div\n      0xff\n      and\n        /* \"contracts/Wedding.sol\":4909:4990  Spouse(spouse2.addr, true, spouse2.agreedOnParticipants, spouse2.agreedOnWedding) */\n      iszero\n      iszero\n      dup2\n      mstore\n      pop\n        /* \"contracts/Wedding.sol\":4899:4906  spouse2 */\n      0x01\n        /* \"contracts/Wedding.sol\":4899:4990  spouse2 = Spouse(spouse2.addr, true, spouse2.agreedOnParticipants, spouse2.agreedOnWedding) */\n      0x00\n      dup3\n      add\n      mload\n      dup2\n      0x00\n      add\n      exp(0x0100, 0x00)\n      dup2\n      sload\n      dup2\n      0xffffffffffffffffffffffffffffffffffffffff\n      mul\n      not\n      and\n      swap1\n      dup4\n      0xffffffffffffffffffffffffffffffffffffffff\n      and\n      mul\n      or\n      swap1\n      sstore\n      pop\n      0x20\n      dup3\n      add\n      mload\n      dup2\n      0x00\n      add\n      exp(0x0100, 0x14)\n      dup2\n      sload\n      dup2\n      0xff\n      mul\n      not\n      and\n      swap1\n      dup4\n      iszero\n      iszero\n      mul\n      or\n      swap1\n      sstore\n      pop\n      0x40\n      dup3\n      add\n      mload\n      dup2\n      0x00\n      add\n      exp(0x0100, 0x15)\n      dup2\n      sload\n      dup2\n      0xff\n      mul\n      not\n      and\n      swap1\n      dup4\n      iszero\n      iszero\n      mul\n      or\n      swap1\n      sstore\n      pop\n      0x60\n      dup3\n      add\n      mload\n      dup2\n      0x00\n      add\n      exp(0x0100, 0x16)\n      dup2\n      sload\n      dup2\n      0xff\n      mul\n      not\n      and\n      swap1\n      dup4\n      iszero\n      iszero\n      mul\n      or\n      swap1\n      sstore\n      pop\n      swap1\n      pop\n      pop\n        /* \"contracts/Wedding.sol\":1642:2067  {... */\n      pop\n      pop\n        /* \"contracts/Wedding.sol\":4692:4998  function wed() public onlyEngaged bothAgreedOnParticipants halfHasNotVotedAgainst isTimeValid {... */\n      jump\t// out\n        /* \"contracts/Wedding.sol\":4200:4375  function revokeEngagement() public onlyEngaged {... */\n    tag_18:\n        /* \"contracts/Wedding.sol\":984:991  spouse1 */\n      0x00\n        /* \"contracts/Wedding.sol\":984:996  spouse1.addr */\n      dup1\n      add\n      0x00\n      swap1\n      sload\n      swap1\n      0x0100\n      exp\n      swap1\n      div\n      0xffffffffffffffffffffffffffffffffffffffff\n      and\n        /* \"contracts/Wedding.sol\":970:996  msg.sender == spouse1.addr */\n      0xffffffffffffffffffffffffffffffffffffffff\n      and\n        /* \"contracts/Wedding.sol\":970:980  msg.sender */\n      caller\n        /* \"contracts/Wedding.sol\":970:996  msg.sender == spouse1.addr */\n      0xffffffffffffffffffffffffffffffffffffffff\n      and\n      eq\n        /* \"contracts/Wedding.sol\":970:1026  msg.sender == spouse1.addr || msg.sender == spouse2.addr */\n      dup1\n      tag_75\n      jumpi\n      pop\n        /* \"contracts/Wedding.sol\":1014:1021  spouse2 */\n      0x01\n        /* \"contracts/Wedding.sol\":1014:1026  spouse2.addr */\n      0x00\n      add\n      0x00\n      swap1\n      sload\n      swap1\n      0x0100\n      exp\n      swap1\n      div\n      0xffffffffffffffffffffffffffffffffffffffff\n      and\n        /* \"contracts/Wedding.sol\":1000:1026  msg.sender == spouse2.addr */\n      0xffffffffffffffffffffffffffffffffffffffff\n      and\n        /* \"contracts/Wedding.sol\":1000:1010  msg.sender */\n      caller\n        /* \"contracts/Wedding.sol\":1000:1026  msg.sender == spouse2.addr */\n      0xffffffffffffffffffffffffffffffffffffffff\n      and\n      eq\n        /* \"contracts/Wedding.sol\":970:1026  msg.sender == spouse1.addr || msg.sender == spouse2.addr */\n    tag_75:\n        /* \"contracts/Wedding.sol\":962:1044  require(msg.sender == spouse1.addr || msg.sender == spouse2.addr, \"Only engaged.\") */\n      tag_76\n      jumpi\n      mload(0x40)\n      0x08c379a000000000000000000000000000000000000000000000000000000000\n      dup2\n      mstore\n      0x04\n      add\n      tag_77\n      swap1\n      tag_33\n      jump\t// in\n    tag_77:\n      mload(0x40)\n      dup1\n      swap2\n      sub\n      swap1\n      revert\n    tag_76:\n        /* \"contracts/Wedding.sol\":4268:4307  Spouse(address(0), false, false, false) */\n      mload(0x40)\n      dup1\n      0x80\n      add\n      0x40\n      mstore\n      dup1\n        /* \"contracts/Wedding.sol\":4283:4284  0 */\n      0x00\n        /* \"contracts/Wedding.sol\":4268:4307  Spouse(address(0), false, false, false) */\n      0xffffffffffffffffffffffffffffffffffffffff\n      and\n      dup2\n      mstore\n      0x20\n      add\n        /* \"contracts/Wedding.sol\":4287:4292  false */\n      0x00\n        /* \"contracts/Wedding.sol\":4268:4307  Spouse(address(0), false, false, false) */\n      iszero\n      iszero\n      dup2\n      mstore\n      0x20\n      add\n        /* \"contracts/Wedding.sol\":4294:4299  false */\n      0x00\n        /* \"contracts/Wedding.sol\":4268:4307  Spouse(address(0), false, false, false) */\n      iszero\n      iszero\n      dup2\n      mstore\n      0x20\n      add\n        /* \"contracts/Wedding.sol\":4301:4306  false */\n      0x00\n        /* \"contracts/Wedding.sol\":4268:4307  Spouse(address(0), false, false, false) */\n      iszero\n      iszero\n      dup2\n      mstore\n      pop\n        /* \"contracts/Wedding.sol\":4258:4265  spouse1 */\n      0x00\n        /* \"contracts/Wedding.sol\":4258:4307  spouse1 = Spouse(address(0), false, false, false) */\n      dup1\n      dup3\n      add\n      mload\n      dup2\n      0x00\n      add\n      exp(0x0100, 0x00)\n      dup2\n      sload\n      dup2\n      0xffffffffffffffffffffffffffffffffffffffff\n      mul\n      not\n      and\n      swap1\n      dup4\n      0xffffffffffffffffffffffffffffffffffffffff\n      and\n      mul\n      or\n      swap1\n      sstore\n      pop\n      0x20\n      dup3\n      add\n      mload\n      dup2\n      0x00\n      add\n      exp(0x0100, 0x14)\n      dup2\n      sload\n      dup2\n      0xff\n      mul\n      not\n      and\n      swap1\n      dup4\n      iszero\n      iszero\n      mul\n      or\n      swap1\n      sstore\n      pop\n      0x40\n      dup3\n      add\n      mload\n      dup2\n      0x00\n      add\n      exp(0x0100, 0x15)\n      dup2\n      sload\n      dup2\n      0xff\n      mul\n      not\n      and\n      swap1\n      dup4\n      iszero\n      iszero\n      mul\n      or\n      swap1\n      sstore\n      pop\n      0x60\n      dup3\n      add\n      mload\n      dup2\n      0x00\n      add\n      exp(0x0100, 0x16)\n      dup2\n      sload\n      dup2\n      0xff\n      mul\n      not\n      and\n      swap1\n      dup4\n      iszero\n      iszero\n      mul\n      or\n      swap1\n      sstore\n      pop\n      swap1\n      pop\n      pop\n        /* \"contracts/Wedding.sol\":4328:4367  Spouse(address(0), false, false, false) */\n      mload(0x40)\n      dup1\n      0x80\n      add\n      0x40\n      mstore\n      dup1\n        /* \"contracts/Wedding.sol\":4343:4344  0 */\n      0x00\n        /* \"contracts/Wedding.sol\":4328:4367  Spouse(address(0), false, false, false) */\n      0xffffffffffffffffffffffffffffffffffffffff\n      and\n      dup2\n      mstore\n      0x20\n      add\n        /* \"contracts/Wedding.sol\":4347:4352  false */\n      0x00\n        /* \"contracts/Wedding.sol\":4328:4367  Spouse(address(0), false, false, false) */\n      iszero\n      iszero\n      dup2\n      mstore\n      0x20\n      add\n        /* \"contracts/Wedding.sol\":4354:4359  false */\n      0x00\n        /* \"contracts/Wedding.sol\":4328:4367  Spouse(address(0), false, false, false) */\n      iszero\n      iszero\n      dup2\n      mstore\n      0x20\n      add\n        /* \"contracts/Wedding.sol\":4361:4366  false */\n      0x00\n        /* \"contracts/Wedding.sol\":4328:4367  Spouse(address(0), false, false, false) */\n      iszero\n      iszero\n      dup2\n      mstore\n      pop\n        /* \"contracts/Wedding.sol\":4318:4325  spouse2 */\n      0x01\n        /* \"contracts/Wedding.sol\":4318:4367  spouse2 = Spouse(address(0), false, false, false) */\n      0x00\n      dup3\n      add\n      mload\n      dup2\n      0x00\n      add\n      exp(0x0100, 0x00)\n      dup2\n      sload\n      dup2\n      0xffffffffffffffffffffffffffffffffffffffff\n      mul\n      not\n      and\n      swap1\n      dup4\n      0xffffffffffffffffffffffffffffffffffffffff\n      and\n      mul\n      or\n      swap1\n      sstore\n      pop\n      0x20\n      dup3\n      add\n      mload\n      dup2\n      0x00\n      add\n      exp(0x0100, 0x14)\n      dup2\n      sload\n      dup2\n      0xff\n      mul\n      not\n      and\n      swap1\n      dup4\n      iszero\n      iszero\n      mul\n      or\n      swap1\n      sstore\n      pop\n      0x40\n      dup3\n      add\n      mload\n      dup2\n      0x00\n      add\n      exp(0x0100, 0x15)\n      dup2\n      sload\n      dup2\n      0xff\n      mul\n      not\n      and\n      swap1\n      dup4\n      iszero\n      iszero\n      mul\n      or\n      swap1\n      sstore\n      pop\n      0x60\n      dup3\n      add\n      mload\n      dup2\n      0x00\n      add\n      exp(0x0100, 0x16)\n      dup2\n      sload\n      dup2\n      0xff\n      mul\n      not\n      and\n      swap1\n      dup4\n      iszero\n      iszero\n      mul\n      or\n      swap1\n      sstore\n      pop\n      swap1\n      pop\n      pop\n        /* \"contracts/Wedding.sol\":4200:4375  function revokeEngagement() public onlyEngaged {... */\n      jump\t// out\n        /* \"contracts/Wedding.sol\":3347:3839  function acceptInvitation() public onlyParticipant {... */\n    tag_20:\n        /* \"contracts/Wedding.sol\":1162:1163  0 */\n      0x00\n        /* \"contracts/Wedding.sol\":1119:1164  getParticipant(msg.sender).addr != address(0) */\n      0xffffffffffffffffffffffffffffffffffffffff\n      and\n        /* \"contracts/Wedding.sol\":1119:1145  getParticipant(msg.sender) */\n      tag_80\n        /* \"contracts/Wedding.sol\":1134:1144  msg.sender */\n      caller\n        /* \"contracts/Wedding.sol\":1119:1133  getParticipant */\n      tag_81\n        /* \"contracts/Wedding.sol\":1119:1145  getParticipant(msg.sender) */\n      jump\t// in\n    tag_80:\n        /* \"contracts/Wedding.sol\":1119:1150  getParticipant(msg.sender).addr */\n      0x00\n      add\n      mload\n        /* \"contracts/Wedding.sol\":1119:1164  getParticipant(msg.sender).addr != address(0) */\n      0xffffffffffffffffffffffffffffffffffffffff\n      and\n      sub\n        /* \"contracts/Wedding.sol\":1111:1186  require(getParticipant(msg.sender).addr != address(0), \"Only participant.\") */\n      tag_82\n      jumpi\n      mload(0x40)\n      0x08c379a000000000000000000000000000000000000000000000000000000000\n      dup2\n      mstore\n      0x04\n      add\n      tag_83\n      swap1\n      tag_84\n      jump\t// in\n    tag_83:\n      mload(0x40)\n      dup1\n      swap2\n      sub\n      swap1\n      revert\n    tag_82:\n        /* \"contracts/Wedding.sol\":3409:3429  Participant memory p */\n      0x00\n        /* \"contracts/Wedding.sol\":3432:3458  getParticipant(msg.sender) */\n      tag_86\n        /* \"contracts/Wedding.sol\":3447:3457  msg.sender */\n      caller\n        /* \"contracts/Wedding.sol\":3432:3446  getParticipant */\n      tag_81\n        /* \"contracts/Wedding.sol\":3432:3458  getParticipant(msg.sender) */\n      jump\t// in\n    tag_86:\n        /* \"contracts/Wedding.sol\":3409:3458  Participant memory p = getParticipant(msg.sender) */\n      swap1\n      pop\n        /* \"contracts/Wedding.sol\":3469:3476  uint pi */\n      0x00\n        /* \"contracts/Wedding.sol\":3479:3510  getParticipantIndex(msg.sender) */\n      tag_87\n        /* \"contracts/Wedding.sol\":3499:3509  msg.sender */\n      caller\n        /* \"contracts/Wedding.sol\":3479:3498  getParticipantIndex */\n      tag_88\n        /* \"contracts/Wedding.sol\":3479:3510  getParticipantIndex(msg.sender) */\n      jump\t// in\n    tag_87:\n        /* \"contracts/Wedding.sol\":3469:3510  uint pi = getParticipantIndex(msg.sender) */\n      swap1\n      pop\n        /* \"contracts/Wedding.sol\":3540:3552  participants */\n      0x04\n        /* \"contracts/Wedding.sol\":3540:3559  participants.length */\n      dup1\n      sload\n      swap1\n      pop\n        /* \"contracts/Wedding.sol\":3535:3537  pi */\n      dup2\n        /* \"contracts/Wedding.sol\":3535:3559  pi < participants.length */\n      lt\n        /* \"contracts/Wedding.sol\":3531:3832  if (pi < participants.length) {... */\n      iszero\n      tag_89\n      jumpi\n        /* \"contracts/Wedding.sol\":3595:3636  Participant(p.addr, true, p.votedAgainst) */\n      mload(0x40)\n      dup1\n      0x60\n      add\n      0x40\n      mstore\n      dup1\n        /* \"contracts/Wedding.sol\":3607:3608  p */\n      dup4\n        /* \"contracts/Wedding.sol\":3607:3613  p.addr */\n      0x00\n      add\n      mload\n        /* \"contracts/Wedding.sol\":3595:3636  Participant(p.addr, true, p.votedAgainst) */\n      0xffffffffffffffffffffffffffffffffffffffff\n      and\n      dup2\n      mstore\n      0x20\n      add\n        /* \"contracts/Wedding.sol\":3615:3619  true */\n      0x01\n        /* \"contracts/Wedding.sol\":3595:3636  Participant(p.addr, true, p.votedAgainst) */\n      iszero\n      iszero\n      dup2\n      mstore\n      0x20\n      add\n        /* \"contracts/Wedding.sol\":3621:3622  p */\n      dup4\n        /* \"contracts/Wedding.sol\":3621:3635  p.votedAgainst */\n      0x40\n      add\n      mload\n        /* \"contracts/Wedding.sol\":3595:3636  Participant(p.addr, true, p.votedAgainst) */\n      iszero\n      iszero\n      dup2\n      mstore\n      pop\n        /* \"contracts/Wedding.sol\":3576:3588  participants */\n      0x04\n        /* \"contracts/Wedding.sol\":3589:3591  pi */\n      dup3\n        /* \"contracts/Wedding.sol\":3576:3592  participants[pi] */\n      dup2\n      sload\n      dup2\n      lt\n      tag_90\n      jumpi\n      tag_91\n      tag_53\n      jump\t// in\n    tag_91:\n    tag_90:\n      swap1\n      0x00\n      mstore\n      keccak256(0x00, 0x20)\n      add\n        /* \"contracts/Wedding.sol\":3576:3636  participants[pi] = Participant(p.addr, true, p.votedAgainst) */\n      0x00\n      dup3\n      add\n      mload\n      dup2\n      0x00\n      add\n      exp(0x0100, 0x00)\n      dup2\n      sload\n      dup2\n      0xffffffffffffffffffffffffffffffffffffffff\n      mul\n      not\n      and\n      swap1\n      dup4\n      0xffffffffffffffffffffffffffffffffffffffff\n      and\n      mul\n      or\n      swap1\n      sstore\n      pop\n      0x20\n      dup3\n      add\n      mload\n      dup2\n      0x00\n      add\n      exp(0x0100, 0x14)\n      dup2\n      sload\n      dup2\n      0xff\n      mul\n      not\n      and\n      swap1\n      dup4\n      iszero\n      iszero\n      mul\n      or\n      swap1\n      sstore\n      pop\n      0x40\n      dup3\n      add\n      mload\n      dup2\n      0x00\n      add\n      exp(0x0100, 0x15)\n      dup2\n      sload\n      dup2\n      0xff\n      mul\n      not\n      and\n      swap1\n      dup4\n      iszero\n      iszero\n      mul\n      or\n      swap1\n      sstore\n      pop\n      swap1\n      pop\n      pop\n        /* \"contracts/Wedding.sol\":3661:3728  Spouse(spouse1.addr, spouse1.isWed, false, spouse1.agreedOnWedding) */\n      mload(0x40)\n      dup1\n      0x80\n      add\n      0x40\n      mstore\n      dup1\n        /* \"contracts/Wedding.sol\":3668:3675  spouse1 */\n      0x00\n        /* \"contracts/Wedding.sol\":3668:3680  spouse1.addr */\n      dup1\n      add\n      0x00\n      swap1\n      sload\n      swap1\n      0x0100\n      exp\n      swap1\n      div\n      0xffffffffffffffffffffffffffffffffffffffff\n      and\n        /* \"contracts/Wedding.sol\":3661:3728  Spouse(spouse1.addr, spouse1.isWed, false, spouse1.agreedOnWedding) */\n      0xffffffffffffffffffffffffffffffffffffffff\n      and\n      dup2\n      mstore\n      0x20\n      add\n        /* \"contracts/Wedding.sol\":3682:3689  spouse1 */\n      0x00\n        /* \"contracts/Wedding.sol\":3682:3695  spouse1.isWed */\n      dup1\n      add\n      0x14\n      swap1\n      sload\n      swap1\n      0x0100\n      exp\n      swap1\n      div\n      0xff\n      and\n        /* \"contracts/Wedding.sol\":3661:3728  Spouse(spouse1.addr, spouse1.isWed, false, spouse1.agreedOnWedding) */\n      iszero\n      iszero\n      dup2\n      mstore\n      0x20\n      add\n        /* \"contracts/Wedding.sol\":3697:3702  false */\n      0x00\n        /* \"contracts/Wedding.sol\":3661:3728  Spouse(spouse1.addr, spouse1.isWed, false, spouse1.agreedOnWedding) */\n      iszero\n      iszero\n      dup2\n      mstore\n      0x20\n      add\n        /* \"contracts/Wedding.sol\":3704:3711  spouse1 */\n      0x00\n        /* \"contracts/Wedding.sol\":3704:3727  spouse1.agreedOnWedding */\n      dup1\n      add\n      0x16\n      swap1\n      sload\n      swap1\n      0x0100\n      exp\n      swap1\n      div\n      0xff\n      and\n        /* \"contracts/Wedding.sol\":3661:3728  Spouse(spouse1.addr, spouse1.isWed, false, spouse1.agreedOnWedding) */\n      iszero\n      iszero\n      dup2\n      mstore\n      pop\n        /* \"contracts/Wedding.sol\":3651:3658  spouse1 */\n      0x00\n        /* \"contracts/Wedding.sol\":3651:3728  spouse1 = Spouse(spouse1.addr, spouse1.isWed, false, spouse1.agreedOnWedding) */\n      dup1\n      dup3\n      add\n      mload\n      dup2\n      0x00\n      add\n      exp(0x0100, 0x00)\n      dup2\n      sload\n      dup2\n      0xffffffffffffffffffffffffffffffffffffffff\n      mul\n      not\n      and\n      swap1\n      dup4\n      0xffffffffffffffffffffffffffffffffffffffff\n      and\n      mul\n      or\n      swap1\n      sstore\n      pop\n      0x20\n      dup3\n      add\n      mload\n      dup2\n      0x00\n      add\n      exp(0x0100, 0x14)\n      dup2\n      sload\n      dup2\n      0xff\n      mul\n      not\n      and\n      swap1\n      dup4\n      iszero\n      iszero\n      mul\n      or\n      swap1\n      sstore\n      pop\n      0x40\n      dup3\n      add\n      mload\n      dup2\n      0x00\n      add\n      exp(0x0100, 0x15)\n      dup2\n      sload\n      dup2\n      0xff\n      mul\n      not\n      and\n      swap1\n      dup4\n      iszero\n      iszero\n      mul\n      or\n      swap1\n      sstore\n      pop\n      0x60\n      dup3\n      add\n      mload\n      dup2\n      0x00\n      add\n      exp(0x0100, 0x16)\n      dup2\n      sload\n      dup2\n      0xff\n      mul\n      not\n      and\n      swap1\n      dup4\n      iszero\n      iszero\n      mul\n      or\n      swap1\n      sstore\n      pop\n      swap1\n      pop\n      pop\n        /* \"contracts/Wedding.sol\":3753:3820  Spouse(spouse2.addr, spouse2.isWed, false, spouse2.agreedOnWedding) */\n      mload(0x40)\n      dup1\n      0x80\n      add\n      0x40\n      mstore\n      dup1\n        /* \"contracts/Wedding.sol\":3760:3767  spouse2 */\n      0x01\n        /* \"contracts/Wedding.sol\":3760:3772  spouse2.addr */\n      0x00\n      add\n      0x00\n      swap1\n      sload\n      swap1\n      0x0100\n      exp\n      swap1\n      div\n      0xffffffffffffffffffffffffffffffffffffffff\n      and\n        /* \"contracts/Wedding.sol\":3753:3820  Spouse(spouse2.addr, spouse2.isWed, false, spouse2.agreedOnWedding) */\n      0xffffffffffffffffffffffffffffffffffffffff\n      and\n      dup2\n      mstore\n      0x20\n      add\n        /* \"contracts/Wedding.sol\":3774:3781  spouse2 */\n      0x01\n        /* \"contracts/Wedding.sol\":3774:3787  spouse2.isWed */\n      0x00\n      add\n      0x14\n      swap1\n      sload\n      swap1\n      0x0100\n      exp\n      swap1\n      div\n      0xff\n      and\n        /* \"contracts/Wedding.sol\":3753:3820  Spouse(spouse2.addr, spouse2.isWed, false, spouse2.agreedOnWedding) */\n      iszero\n      iszero\n      dup2\n      mstore\n      0x20\n      add\n        /* \"contracts/Wedding.sol\":3789:3794  false */\n      0x00\n        /* \"contracts/Wedding.sol\":3753:3820  Spouse(spouse2.addr, spouse2.isWed, false, spouse2.agreedOnWedding) */\n      iszero\n      iszero\n      dup2\n      mstore\n      0x20\n      add\n        /* \"contracts/Wedding.sol\":3796:3803  spouse2 */\n      0x01\n        /* \"contracts/Wedding.sol\":3796:3819  spouse2.agreedOnWedding */\n      0x00\n      add\n      0x16\n      swap1\n      sload\n      swap1\n      0x0100\n      exp\n      swap1\n      div\n      0xff\n      and\n        /* \"contracts/Wedding.sol\":3753:3820  Spouse(spouse2.addr, spouse2.isWed, false, spouse2.agreedOnWedding) */\n      iszero\n      iszero\n      dup2\n      mstore\n      pop\n        /* \"contracts/Wedding.sol\":3743:3750  spouse2 */\n      0x01\n        /* \"contracts/Wedding.sol\":3743:3820  spouse2 = Spouse(spouse2.addr, spouse2.isWed, false, spouse2.agreedOnWedding) */\n      0x00\n      dup3\n      add\n      mload\n      dup2\n      0x00\n      add\n      exp(0x0100, 0x00)\n      dup2\n      sload\n      dup2\n      0xffffffffffffffffffffffffffffffffffffffff\n      mul\n      not\n      and\n      swap1\n      dup4\n      0xffffffffffffffffffffffffffffffffffffffff\n      and\n      mul\n      or\n      swap1\n      sstore\n      pop\n      0x20\n      dup3\n      add\n      mload\n      dup2\n      0x00\n      add\n      exp(0x0100, 0x14)\n      dup2\n      sload\n      dup2\n      0xff\n      mul\n      not\n      and\n      swap1\n      dup4\n      iszero\n      iszero\n      mul\n      or\n      swap1\n      sstore\n      pop\n      0x40\n      dup3\n      add\n      mload\n      dup2\n      0x00\n      add\n      exp(0x0100, 0x15)\n      dup2\n      sload\n      dup2\n      0xff\n      mul\n      not\n      and\n      swap1\n      dup4\n      iszero\n      iszero\n      mul\n      or\n      swap1\n      sstore\n      pop\n      0x60\n      dup3\n      add\n      mload\n      dup2\n      0x00\n      add\n      exp(0x0100, 0x16)\n      dup2\n      sload\n      dup2\n      0xff\n      mul\n      not\n      and\n      swap1\n      dup4\n      iszero\n      iszero\n      mul\n      or\n      swap1\n      sstore\n      pop\n      swap1\n      pop\n      pop\n        /* \"contracts/Wedding.sol\":3531:3832  if (pi < participants.length) {... */\n    tag_89:\n        /* \"contracts/Wedding.sol\":3398:3839  {... */\n      pop\n      pop\n        /* \"contracts/Wedding.sol\":3347:3839  function acceptInvitation() public onlyParticipant {... */\n      jump\t// out\n        /* \"contracts/Wedding.sol\":2807:3200  function engage(uint256 _date, string memory _additionalInfo) public onlyUnWed {... */\n    tag_24:\n        /* \"contracts/Wedding.sol\":661:671  bool isWed */\n      0x00\n        /* \"contracts/Wedding.sol\":710:717  spouse1 */\n      dup1\n        /* \"contracts/Wedding.sol\":710:722  spouse1.addr */\n      dup1\n      add\n      0x00\n      swap1\n      sload\n      swap1\n      0x0100\n      exp\n      swap1\n      div\n      0xffffffffffffffffffffffffffffffffffffffff\n      and\n        /* \"contracts/Wedding.sol\":696:722  msg.sender == spouse1.addr */\n      0xffffffffffffffffffffffffffffffffffffffff\n      and\n        /* \"contracts/Wedding.sol\":696:706  msg.sender */\n      caller\n        /* \"contracts/Wedding.sol\":696:722  msg.sender == spouse1.addr */\n      0xffffffffffffffffffffffffffffffffffffffff\n      and\n      sub\n        /* \"contracts/Wedding.sol\":692:858  if (msg.sender == spouse1.addr) {... */\n      tag_94\n      jumpi\n        /* \"contracts/Wedding.sol\":747:754  spouse1 */\n      0x00\n        /* \"contracts/Wedding.sol\":747:760  spouse1.isWed */\n      dup1\n      add\n      0x14\n      swap1\n      sload\n      swap1\n      0x0100\n      exp\n      swap1\n      div\n      0xff\n      and\n        /* \"contracts/Wedding.sol\":739:760  isWed = spouse1.isWed */\n      swap1\n      pop\n        /* \"contracts/Wedding.sol\":692:858  if (msg.sender == spouse1.addr) {... */\n      jump(tag_95)\n    tag_94:\n        /* \"contracts/Wedding.sol\":796:803  spouse2 */\n      0x01\n        /* \"contracts/Wedding.sol\":796:808  spouse2.addr */\n      0x00\n      add\n      0x00\n      swap1\n      sload\n      swap1\n      0x0100\n      exp\n      swap1\n      div\n      0xffffffffffffffffffffffffffffffffffffffff\n      and\n        /* \"contracts/Wedding.sol\":782:808  msg.sender == spouse2.addr */\n      0xffffffffffffffffffffffffffffffffffffffff\n      and\n        /* \"contracts/Wedding.sol\":782:792  msg.sender */\n      caller\n        /* \"contracts/Wedding.sol\":782:808  msg.sender == spouse2.addr */\n      0xffffffffffffffffffffffffffffffffffffffff\n      and\n      sub\n        /* \"contracts/Wedding.sol\":778:858  if (msg.sender == spouse2.addr) {... */\n      tag_96\n      jumpi\n        /* \"contracts/Wedding.sol\":833:840  spouse2 */\n      0x01\n        /* \"contracts/Wedding.sol\":833:846  spouse2.isWed */\n      0x00\n      add\n      0x14\n      swap1\n      sload\n      swap1\n      0x0100\n      exp\n      swap1\n      div\n      0xff\n      and\n        /* \"contracts/Wedding.sol\":825:846  isWed = spouse2.isWed */\n      swap1\n      pop\n        /* \"contracts/Wedding.sol\":778:858  if (msg.sender == spouse2.addr) {... */\n    tag_96:\n        /* \"contracts/Wedding.sol\":692:858  if (msg.sender == spouse1.addr) {... */\n    tag_95:\n        /* \"contracts/Wedding.sol\":879:884  isWed */\n      dup1\n        /* \"contracts/Wedding.sol\":878:884  !isWed */\n      iszero\n        /* \"contracts/Wedding.sol\":870:900  require(!isWed, \"Only unwed.\") */\n      tag_97\n      jumpi\n      mload(0x40)\n      0x08c379a000000000000000000000000000000000000000000000000000000000\n      dup2\n      mstore\n      0x04\n      add\n      tag_98\n      swap1\n      tag_99\n      jump\t// in\n    tag_98:\n      mload(0x40)\n      dup1\n      swap2\n      sub\n      swap1\n      revert\n    tag_97:\n        /* \"contracts/Wedding.sol\":2925:2926  0 */\n      0x00\n        /* \"contracts/Wedding.sol\":2901:2927  spouse1.addr == address(0) */\n      0xffffffffffffffffffffffffffffffffffffffff\n      and\n        /* \"contracts/Wedding.sol\":2901:2908  spouse1 */\n      0x00\n        /* \"contracts/Wedding.sol\":2901:2913  spouse1.addr */\n      dup1\n      add\n      0x00\n      swap1\n      sload\n      swap1\n      0x0100\n      exp\n      swap1\n      div\n      0xffffffffffffffffffffffffffffffffffffffff\n      and\n        /* \"contracts/Wedding.sol\":2901:2927  spouse1.addr == address(0) */\n      0xffffffffffffffffffffffffffffffffffffffff\n      and\n      sub\n        /* \"contracts/Wedding.sol\":2897:3193  if (spouse1.addr == address(0)) {... */\n      tag_101\n      jumpi\n        /* \"contracts/Wedding.sol\":2954:2993  Spouse(msg.sender, false, false, false) */\n      mload(0x40)\n      dup1\n      0x80\n      add\n      0x40\n      mstore\n      dup1\n        /* \"contracts/Wedding.sol\":2961:2971  msg.sender */\n      caller\n        /* \"contracts/Wedding.sol\":2954:2993  Spouse(msg.sender, false, false, false) */\n      0xffffffffffffffffffffffffffffffffffffffff\n      and\n      dup2\n      mstore\n      0x20\n      add\n        /* \"contracts/Wedding.sol\":2973:2978  false */\n      0x00\n        /* \"contracts/Wedding.sol\":2954:2993  Spouse(msg.sender, false, false, false) */\n      iszero\n      iszero\n      dup2\n      mstore\n      0x20\n      add\n        /* \"contracts/Wedding.sol\":2980:2985  false */\n      0x00\n        /* \"contracts/Wedding.sol\":2954:2993  Spouse(msg.sender, false, false, false) */\n      iszero\n      iszero\n      dup2\n      mstore\n      0x20\n      add\n        /* \"contracts/Wedding.sol\":2987:2992  false */\n      0x00\n        /* \"contracts/Wedding.sol\":2954:2993  Spouse(msg.sender, false, false, false) */\n      iszero\n      iszero\n      dup2\n      mstore\n      pop\n        /* \"contracts/Wedding.sol\":2944:2951  spouse1 */\n      0x00\n        /* \"contracts/Wedding.sol\":2944:2993  spouse1 = Spouse(msg.sender, false, false, false) */\n      dup1\n      dup3\n      add\n      mload\n      dup2\n      0x00\n      add\n      exp(0x0100, 0x00)\n      dup2\n      sload\n      dup2\n      0xffffffffffffffffffffffffffffffffffffffff\n      mul\n      not\n      and\n      swap1\n      dup4\n      0xffffffffffffffffffffffffffffffffffffffff\n      and\n      mul\n      or\n      swap1\n      sstore\n      pop\n      0x20\n      dup3\n      add\n      mload\n      dup2\n      0x00\n      add\n      exp(0x0100, 0x14)\n      dup2\n      sload\n      dup2\n      0xff\n      mul\n      not\n      and\n      swap1\n      dup4\n      iszero\n      iszero\n      mul\n      or\n      swap1\n      sstore\n      pop\n      0x40\n      dup3\n      add\n      mload\n      dup2\n      0x00\n      add\n      exp(0x0100, 0x15)\n      dup2\n      sload\n      dup2\n      0xff\n      mul\n      not\n      and\n      swap1\n      dup4\n      iszero\n      iszero\n      mul\n      or\n      swap1\n      sstore\n      pop\n      0x60\n      dup3\n      add\n      mload\n      dup2\n      0x00\n      add\n      exp(0x0100, 0x16)\n      dup2\n      sload\n      dup2\n      0xff\n      mul\n      not\n      and\n      swap1\n      dup4\n      iszero\n      iszero\n      mul\n      or\n      swap1\n      sstore\n      pop\n      swap1\n      pop\n      pop\n        /* \"contracts/Wedding.sol\":3015:3020  _date */\n      dup3\n        /* \"contracts/Wedding.sol\":3008:3012  date */\n      0x02\n        /* \"contracts/Wedding.sol\":3008:3020  date = _date */\n      dup2\n      swap1\n      sstore\n      pop\n        /* \"contracts/Wedding.sol\":3052:3067  _additionalInfo */\n      dup2\n        /* \"contracts/Wedding.sol\":3035:3049  additionalInfo */\n      0x03\n        /* \"contracts/Wedding.sol\":3035:3067  additionalInfo = _additionalInfo */\n      swap1\n      dup2\n      tag_102\n      swap2\n      swap1\n      tag_103\n      jump\t// in\n    tag_102:\n      pop\n        /* \"contracts/Wedding.sol\":2897:3193  if (spouse1.addr == address(0)) {... */\n      jump(tag_104)\n    tag_101:\n        /* \"contracts/Wedding.sol\":3113:3114  0 */\n      0x00\n        /* \"contracts/Wedding.sol\":3089:3115  spouse2.addr == address(0) */\n      0xffffffffffffffffffffffffffffffffffffffff\n      and\n        /* \"contracts/Wedding.sol\":3089:3096  spouse2 */\n      0x01\n        /* \"contracts/Wedding.sol\":3089:3101  spouse2.addr */\n      0x00\n      add\n      0x00\n      swap1\n      sload\n      swap1\n      0x0100\n      exp\n      swap1\n      div\n      0xffffffffffffffffffffffffffffffffffffffff\n      and\n        /* \"contracts/Wedding.sol\":3089:3115  spouse2.addr == address(0) */\n      0xffffffffffffffffffffffffffffffffffffffff\n      and\n      sub\n        /* \"contracts/Wedding.sol\":3085:3193  if (spouse2.addr == address(0)) {... */\n      tag_105\n      jumpi\n        /* \"contracts/Wedding.sol\":3142:3181  Spouse(msg.sender, false, false, false) */\n      mload(0x40)\n      dup1\n      0x80\n      add\n      0x40\n      mstore\n      dup1\n        /* \"contracts/Wedding.sol\":3149:3159  msg.sender */\n      caller\n        /* \"contracts/Wedding.sol\":3142:3181  Spouse(msg.sender, false, false, false) */\n      0xffffffffffffffffffffffffffffffffffffffff\n      and\n      dup2\n      mstore\n      0x20\n      add\n        /* \"contracts/Wedding.sol\":3161:3166  false */\n      0x00\n        /* \"contracts/Wedding.sol\":3142:3181  Spouse(msg.sender, false, false, false) */\n      iszero\n      iszero\n      dup2\n      mstore\n      0x20\n      add\n        /* \"contracts/Wedding.sol\":3168:3173  false */\n      0x00\n        /* \"contracts/Wedding.sol\":3142:3181  Spouse(msg.sender, false, false, false) */\n      iszero\n      iszero\n      dup2\n      mstore\n      0x20\n      add\n        /* \"contracts/Wedding.sol\":3175:3180  false */\n      0x00\n        /* \"contracts/Wedding.sol\":3142:3181  Spouse(msg.sender, false, false, false) */\n      iszero\n      iszero\n      dup2\n      mstore\n      pop\n        /* \"contracts/Wedding.sol\":3132:3139  spouse2 */\n      0x01\n        /* \"contracts/Wedding.sol\":3132:3181  spouse2 = Spouse(msg.sender, false, false, false) */\n      0x00\n      dup3\n      add\n      mload\n      dup2\n      0x00\n      add\n      exp(0x0100, 0x00)\n      dup2\n      sload\n      dup2\n      0xffffffffffffffffffffffffffffffffffffffff\n      mul\n      not\n      and\n      swap1\n      dup4\n      0xffffffffffffffffffffffffffffffffffffffff\n      and\n      mul\n      or\n      swap1\n      sstore\n      pop\n      0x20\n      dup3\n      add\n      mload\n      dup2\n      0x00\n      add\n      exp(0x0100, 0x14)\n      dup2\n      sload\n      dup2\n      0xff\n      mul\n      not\n      and\n      swap1\n      dup4\n      iszero\n      iszero\n      mul\n      or\n      swap1\n      sstore\n      pop\n      0x40\n      dup3\n      add\n      mload\n      dup2\n      0x00\n      add\n      exp(0x0100, 0x15)\n      dup2\n      sload\n      dup2\n      0xff\n      mul\n      not\n      and\n      swap1\n      dup4\n      iszero\n      iszero\n      mul\n      or\n      swap1\n      sstore\n      pop\n      0x60\n      dup3\n      add\n      mload\n      dup2\n      0x00\n      add\n      exp(0x0100, 0x16)\n      dup2\n      sload\n      dup2\n      0xff\n      mul\n      not\n      and\n      swap1\n      dup4\n      iszero\n      iszero\n      mul\n      or\n      swap1\n      sstore\n      pop\n      swap1\n      pop\n      pop\n        /* \"contracts/Wedding.sol\":3085:3193  if (spouse2.addr == address(0)) {... */\n    tag_105:\n        /* \"contracts/Wedding.sol\":2897:3193  if (spouse1.addr == address(0)) {... */\n    tag_104:\n        /* \"contracts/Wedding.sol\":650:920  {... */\n      pop\n        /* \"contracts/Wedding.sol\":2807:3200  function engage(uint256 _date, string memory _additionalInfo) public onlyUnWed {... */\n      pop\n      pop\n      jump\t// out\n        /* \"contracts/Wedding.sol\":4383:4684  function voteAgainst() public onlyConfirmedParticipant {... */\n    tag_26:\n        /* \"contracts/Wedding.sol\":1269:1295  getParticipant(msg.sender) */\n      tag_107\n        /* \"contracts/Wedding.sol\":1284:1294  msg.sender */\n      caller\n        /* \"contracts/Wedding.sol\":1269:1283  getParticipant */\n      tag_81\n        /* \"contracts/Wedding.sol\":1269:1295  getParticipant(msg.sender) */\n      jump\t// in\n    tag_107:\n        /* \"contracts/Wedding.sol\":1269:1305  getParticipant(msg.sender).confirmed */\n      0x20\n      add\n      mload\n        /* \"contracts/Wedding.sol\":1261:1338  require(getParticipant(msg.sender).confirmed, \"Only confirmed participants.\") */\n      tag_108\n      jumpi\n      mload(0x40)\n      0x08c379a000000000000000000000000000000000000000000000000000000000\n      dup2\n      mstore\n      0x04\n      add\n      tag_109\n      swap1\n      tag_110\n      jump\t// in\n    tag_109:\n      mload(0x40)\n      dup1\n      swap2\n      sub\n      swap1\n      revert\n    tag_108:\n        /* \"contracts/Wedding.sol\":4449:4469  Participant memory p */\n      0x00\n        /* \"contracts/Wedding.sol\":4472:4498  getParticipant(msg.sender) */\n      tag_112\n        /* \"contracts/Wedding.sol\":4487:4497  msg.sender */\n      caller\n        /* \"contracts/Wedding.sol\":4472:4486  getParticipant */\n      tag_81\n        /* \"contracts/Wedding.sol\":4472:4498  getParticipant(msg.sender) */\n      jump\t// in\n    tag_112:\n        /* \"contracts/Wedding.sol\":4449:4498  Participant memory p = getParticipant(msg.sender) */\n      swap1\n      pop\n        /* \"contracts/Wedding.sol\":4509:4516  uint pi */\n      0x00\n        /* \"contracts/Wedding.sol\":4519:4550  getParticipantIndex(msg.sender) */\n      tag_113\n        /* \"contracts/Wedding.sol\":4539:4549  msg.sender */\n      caller\n        /* \"contracts/Wedding.sol\":4519:4538  getParticipantIndex */\n      tag_88\n        /* \"contracts/Wedding.sol\":4519:4550  getParticipantIndex(msg.sender) */\n      jump\t// in\n    tag_113:\n        /* \"contracts/Wedding.sol\":4509:4550  uint pi = getParticipantIndex(msg.sender) */\n      swap1\n      pop\n        /* \"contracts/Wedding.sol\":4572:4584  participants */\n      0x04\n        /* \"contracts/Wedding.sol\":4572:4591  participants.length */\n      dup1\n      sload\n      swap1\n      pop\n        /* \"contracts/Wedding.sol\":4567:4569  pi */\n      dup2\n        /* \"contracts/Wedding.sol\":4567:4591  pi < participants.length */\n      lt\n        /* \"contracts/Wedding.sol\":4563:4677  if (pi < participants.length) {... */\n      iszero\n      tag_114\n      jumpi\n        /* \"contracts/Wedding.sol\":4627:4665  Participant(p.addr, p.confirmed, true) */\n      mload(0x40)\n      dup1\n      0x60\n      add\n      0x40\n      mstore\n      dup1\n        /* \"contracts/Wedding.sol\":4639:4640  p */\n      dup4\n        /* \"contracts/Wedding.sol\":4639:4645  p.addr */\n      0x00\n      add\n      mload\n        /* \"contracts/Wedding.sol\":4627:4665  Participant(p.addr, p.confirmed, true) */\n      0xffffffffffffffffffffffffffffffffffffffff\n      and\n      dup2\n      mstore\n      0x20\n      add\n        /* \"contracts/Wedding.sol\":4647:4648  p */\n      dup4\n        /* \"contracts/Wedding.sol\":4647:4658  p.confirmed */\n      0x20\n      add\n      mload\n        /* \"contracts/Wedding.sol\":4627:4665  Participant(p.addr, p.confirmed, true) */\n      iszero\n      iszero\n      dup2\n      mstore\n      0x20\n      add\n        /* \"contracts/Wedding.sol\":4660:4664  true */\n      0x01\n        /* \"contracts/Wedding.sol\":4627:4665  Participant(p.addr, p.confirmed, true) */\n      iszero\n      iszero\n      dup2\n      mstore\n      pop\n        /* \"contracts/Wedding.sol\":4608:4620  participants */\n      0x04\n        /* \"contracts/Wedding.sol\":4621:4623  pi */\n      dup3\n        /* \"contracts/Wedding.sol\":4608:4624  participants[pi] */\n      dup2\n      sload\n      dup2\n      lt\n      tag_115\n      jumpi\n      tag_116\n      tag_53\n      jump\t// in\n    tag_116:\n    tag_115:\n      swap1\n      0x00\n      mstore\n      keccak256(0x00, 0x20)\n      add\n        /* \"contracts/Wedding.sol\":4608:4665  participants[pi] = Participant(p.addr, p.confirmed, true) */\n      0x00\n      dup3\n      add\n      mload\n      dup2\n      0x00\n      add\n      exp(0x0100, 0x00)\n      dup2\n      sload\n      dup2\n      0xffffffffffffffffffffffffffffffffffffffff\n      mul\n      not\n      and\n      swap1\n      dup4\n      0xffffffffffffffffffffffffffffffffffffffff\n      and\n      mul\n      or\n      swap1\n      sstore\n      pop\n      0x20\n      dup3\n      add\n      mload\n      dup2\n      0x00\n      add\n      exp(0x0100, 0x14)\n      dup2\n      sload\n      dup2\n      0xff\n      mul\n      not\n      and\n      swap1\n      dup4\n      iszero\n      iszero\n      mul\n      or\n      swap1\n      sstore\n      pop\n      0x40\n      dup3\n      add\n      mload\n      dup2\n      0x00\n      add\n      exp(0x0100, 0x15)\n      dup2\n      sload\n      dup2\n      0xff\n      mul\n      not\n      and\n      swap1\n      dup4\n      iszero\n      iszero\n      mul\n      or\n      swap1\n      sstore\n      pop\n      swap1\n      pop\n      pop\n        /* \"contracts/Wedding.sol\":4563:4677  if (pi < participants.length) {... */\n    tag_114:\n        /* \"contracts/Wedding.sol\":4438:4684  {... */\n      pop\n      pop\n        /* \"contracts/Wedding.sol\":4383:4684  function voteAgainst() public onlyConfirmedParticipant {... */\n      jump\t// out\n        /* \"contracts/Wedding.sol\":3847:4192  function agreeOnParticipants() public onlyEngaged {... */\n    tag_28:\n        /* \"contracts/Wedding.sol\":984:991  spouse1 */\n      0x00\n        /* \"contracts/Wedding.sol\":984:996  spouse1.addr */\n      dup1\n      add\n      0x00\n      swap1\n      sload\n      swap1\n      0x0100\n      exp\n      swap1\n      div\n      0xffffffffffffffffffffffffffffffffffffffff\n      and\n        /* \"contracts/Wedding.sol\":970:996  msg.sender == spouse1.addr */\n      0xffffffffffffffffffffffffffffffffffffffff\n      and\n        /* \"contracts/Wedding.sol\":970:980  msg.sender */\n      caller\n        /* \"contracts/Wedding.sol\":970:996  msg.sender == spouse1.addr */\n      0xffffffffffffffffffffffffffffffffffffffff\n      and\n      eq\n        /* \"contracts/Wedding.sol\":970:1026  msg.sender == spouse1.addr || msg.sender == spouse2.addr */\n      dup1\n      tag_119\n      jumpi\n      pop\n        /* \"contracts/Wedding.sol\":1014:1021  spouse2 */\n      0x01\n        /* \"contracts/Wedding.sol\":1014:1026  spouse2.addr */\n      0x00\n      add\n      0x00\n      swap1\n      sload\n      swap1\n      0x0100\n      exp\n      swap1\n      div\n      0xffffffffffffffffffffffffffffffffffffffff\n      and\n        /* \"contracts/Wedding.sol\":1000:1026  msg.sender == spouse2.addr */\n      0xffffffffffffffffffffffffffffffffffffffff\n      and\n        /* \"contracts/Wedding.sol\":1000:1010  msg.sender */\n      caller\n        /* \"contracts/Wedding.sol\":1000:1026  msg.sender == spouse2.addr */\n      0xffffffffffffffffffffffffffffffffffffffff\n      and\n      eq\n        /* \"contracts/Wedding.sol\":970:1026  msg.sender == spouse1.addr || msg.sender == spouse2.addr */\n    tag_119:\n        /* \"contracts/Wedding.sol\":962:1044  require(msg.sender == spouse1.addr || msg.sender == spouse2.addr, \"Only engaged.\") */\n      tag_120\n      jumpi\n      mload(0x40)\n      0x08c379a000000000000000000000000000000000000000000000000000000000\n      dup2\n      mstore\n      0x04\n      add\n      tag_121\n      swap1\n      tag_33\n      jump\t// in\n    tag_121:\n      mload(0x40)\n      dup1\n      swap2\n      sub\n      swap1\n      revert\n    tag_120:\n        /* \"contracts/Wedding.sol\":3913:3920  spouse1 */\n      0x00\n        /* \"contracts/Wedding.sol\":3913:3941  spouse1.agreedOnParticipants */\n      dup1\n      add\n      0x15\n      swap1\n      sload\n      swap1\n      0x0100\n      exp\n      swap1\n      div\n      0xff\n      and\n        /* \"contracts/Wedding.sol\":3912:3941  !spouse1.agreedOnParticipants */\n      iszero\n        /* \"contracts/Wedding.sol\":3912:3971  !spouse1.agreedOnParticipants && msg.sender == spouse1.addr */\n      dup1\n      iszero\n      tag_123\n      jumpi\n      pop\n        /* \"contracts/Wedding.sol\":3959:3966  spouse1 */\n      0x00\n        /* \"contracts/Wedding.sol\":3959:3971  spouse1.addr */\n      dup1\n      add\n      0x00\n      swap1\n      sload\n      swap1\n      0x0100\n      exp\n      swap1\n      div\n      0xffffffffffffffffffffffffffffffffffffffff\n      and\n        /* \"contracts/Wedding.sol\":3945:3971  msg.sender == spouse1.addr */\n      0xffffffffffffffffffffffffffffffffffffffff\n      and\n        /* \"contracts/Wedding.sol\":3945:3955  msg.sender */\n      caller\n        /* \"contracts/Wedding.sol\":3945:3971  msg.sender == spouse1.addr */\n      0xffffffffffffffffffffffffffffffffffffffff\n      and\n      eq\n        /* \"contracts/Wedding.sol\":3912:3971  !spouse1.agreedOnParticipants && msg.sender == spouse1.addr */\n    tag_123:\n        /* \"contracts/Wedding.sol\":3908:4185  if (!spouse1.agreedOnParticipants && msg.sender == spouse1.addr) {... */\n      iszero\n      tag_124\n      jumpi\n        /* \"contracts/Wedding.sol\":3998:4064  Spouse(spouse1.addr, spouse1.isWed, true, spouse1.agreedOnWedding) */\n      mload(0x40)\n      dup1\n      0x80\n      add\n      0x40\n      mstore\n      dup1\n        /* \"contracts/Wedding.sol\":4005:4012  spouse1 */\n      0x00\n        /* \"contracts/Wedding.sol\":4005:4017  spouse1.addr */\n      dup1\n      add\n      0x00\n      swap1\n      sload\n      swap1\n      0x0100\n      exp\n      swap1\n      div\n      0xffffffffffffffffffffffffffffffffffffffff\n      and\n        /* \"contracts/Wedding.sol\":3998:4064  Spouse(spouse1.addr, spouse1.isWed, true, spouse1.agreedOnWedding) */\n      0xffffffffffffffffffffffffffffffffffffffff\n      and\n      dup2\n      mstore\n      0x20\n      add\n        /* \"contracts/Wedding.sol\":4019:4026  spouse1 */\n      0x00\n        /* \"contracts/Wedding.sol\":4019:4032  spouse1.isWed */\n      dup1\n      add\n      0x14\n      swap1\n      sload\n      swap1\n      0x0100\n      exp\n      swap1\n      div\n      0xff\n      and\n        /* \"contracts/Wedding.sol\":3998:4064  Spouse(spouse1.addr, spouse1.isWed, true, spouse1.agreedOnWedding) */\n      iszero\n      iszero\n      dup2\n      mstore\n      0x20\n      add\n        /* \"contracts/Wedding.sol\":4034:4038  true */\n      0x01\n        /* \"contracts/Wedding.sol\":3998:4064  Spouse(spouse1.addr, spouse1.isWed, true, spouse1.agreedOnWedding) */\n      iszero\n      iszero\n      dup2\n      mstore\n      0x20\n      add\n        /* \"contracts/Wedding.sol\":4040:4047  spouse1 */\n      0x00\n        /* \"contracts/Wedding.sol\":4040:4063  spouse1.agreedOnWedding */\n      dup1\n      add\n      0x16\n      swap1\n      sload\n      swap1\n      0x0100\n      exp\n      swap1\n      div\n      0xff\n      and\n        /* \"contracts/Wedding.sol\":3998:4064  Spouse(spouse1.addr, spouse1.isWed, true, spouse1.agreedOnWedding) */\n      iszero\n      iszero\n      dup2\n      mstore\n      pop\n        /* \"contracts/Wedding.sol\":3988:3995  spouse1 */\n      0x00\n        /* \"contracts/Wedding.sol\":3988:4064  spouse1 = Spouse(spouse1.addr, spouse1.isWed, true, spouse1.agreedOnWedding) */\n      dup1\n      dup3\n      add\n      mload\n      dup2\n      0x00\n      add\n      exp(0x0100, 0x00)\n      dup2\n      sload\n      dup2\n      0xffffffffffffffffffffffffffffffffffffffff\n      mul\n      not\n      and\n      swap1\n      dup4\n      0xffffffffffffffffffffffffffffffffffffffff\n      and\n      mul\n      or\n      swap1\n      sstore\n      pop\n      0x20\n      dup3\n      add\n      mload\n      dup2\n      0x00\n      add\n      exp(0x0100, 0x14)\n      dup2\n      sload\n      dup2\n      0xff\n      mul\n      not\n      and\n      swap1\n      dup4\n      iszero\n      iszero\n      mul\n      or\n      swap1\n      sstore\n      pop\n      0x40\n      dup3\n      add\n      mload\n      dup2\n      0x00\n      add\n      exp(0x0100, 0x15)\n      dup2\n      sload\n      dup2\n      0xff\n      mul\n      not\n      and\n      swap1\n      dup4\n      iszero\n      iszero\n      mul\n      or\n      swap1\n      sstore\n      pop\n      0x60\n      dup3\n      add\n      mload\n      dup2\n      0x00\n      add\n      exp(0x0100, 0x16)\n      dup2\n      sload\n      dup2\n      0xff\n      mul\n      not\n      and\n      swap1\n      dup4\n      iszero\n      iszero\n      mul\n      or\n      swap1\n      sstore\n      pop\n      swap1\n      pop\n      pop\n        /* \"contracts/Wedding.sol\":3908:4185  if (!spouse1.agreedOnParticipants && msg.sender == spouse1.addr) {... */\n      jump(tag_125)\n    tag_124:\n        /* \"contracts/Wedding.sol\":4107:4173  Spouse(spouse2.addr, spouse2.isWed, true, spouse2.agreedOnWedding) */\n      mload(0x40)\n      dup1\n      0x80\n      add\n      0x40\n      mstore\n      dup1\n        /* \"contracts/Wedding.sol\":4114:4121  spouse2 */\n      0x01\n        /* \"contracts/Wedding.sol\":4114:4126  spouse2.addr */\n      0x00\n      add\n      0x00\n      swap1\n      sload\n      swap1\n      0x0100\n      exp\n      swap1\n      div\n      0xffffffffffffffffffffffffffffffffffffffff\n      and\n        /* \"contracts/Wedding.sol\":4107:4173  Spouse(spouse2.addr, spouse2.isWed, true, spouse2.agreedOnWedding) */\n      0xffffffffffffffffffffffffffffffffffffffff\n      and\n      dup2\n      mstore\n      0x20\n      add\n        /* \"contracts/Wedding.sol\":4128:4135  spouse2 */\n      0x01\n        /* \"contracts/Wedding.sol\":4128:4141  spouse2.isWed */\n      0x00\n      add\n      0x14\n      swap1\n      sload\n      swap1\n      0x0100\n      exp\n      swap1\n      div\n      0xff\n      and\n        /* \"contracts/Wedding.sol\":4107:4173  Spouse(spouse2.addr, spouse2.isWed, true, spouse2.agreedOnWedding) */\n      iszero\n      iszero\n      dup2\n      mstore\n      0x20\n      add\n        /* \"contracts/Wedding.sol\":4143:4147  true */\n      0x01\n        /* \"contracts/Wedding.sol\":4107:4173  Spouse(spouse2.addr, spouse2.isWed, true, spouse2.agreedOnWedding) */\n      iszero\n      iszero\n      dup2\n      mstore\n      0x20\n      add\n        /* \"contracts/Wedding.sol\":4149:4156  spouse2 */\n      0x01\n        /* \"contracts/Wedding.sol\":4149:4172  spouse2.agreedOnWedding */\n      0x00\n      add\n      0x16\n      swap1\n      sload\n      swap1\n      0x0100\n      exp\n      swap1\n      div\n      0xff\n      and\n        /* \"contracts/Wedding.sol\":4107:4173  Spouse(spouse2.addr, spouse2.isWed, true, spouse2.agreedOnWedding) */\n      iszero\n      iszero\n      dup2\n      mstore\n      pop\n        /* \"contracts/Wedding.sol\":4097:4104  spouse2 */\n      0x01\n        /* \"contracts/Wedding.sol\":4097:4173  spouse2 = Spouse(spouse2.addr, spouse2.isWed, true, spouse2.agreedOnWedding) */\n      0x00\n      dup3\n      add\n      mload\n      dup2\n      0x00\n      add\n      exp(0x0100, 0x00)\n      dup2\n      sload\n      dup2\n      0xffffffffffffffffffffffffffffffffffffffff\n      mul\n      not\n      and\n      swap1\n      dup4\n      0xffffffffffffffffffffffffffffffffffffffff\n      and\n      mul\n      or\n      swap1\n      sstore\n      pop\n      0x20\n      dup3\n      add\n      mload\n      dup2\n      0x00\n      add\n      exp(0x0100, 0x14)\n      dup2\n      sload\n      dup2\n      0xff\n      mul\n      not\n      and\n      swap1\n      dup4\n      iszero\n      iszero\n      mul\n      or\n      swap1\n      sstore\n      pop\n      0x40\n      dup3\n      add\n      mload\n      dup2\n      0x00\n      add\n      exp(0x0100, 0x15)\n      dup2\n      sload\n      dup2\n      0xff\n      mul\n      not\n      and\n      swap1\n      dup4\n      iszero\n      iszero\n      mul\n      or\n      swap1\n      sstore\n      pop\n      0x60\n      dup3\n      add\n      mload\n      dup2\n      0x00\n      add\n      exp(0x0100, 0x16)\n      dup2\n      sload\n      dup2\n      0xff\n      mul\n      not\n      and\n      swap1\n      dup4\n      iszero\n      iszero\n      mul\n      or\n      swap1\n      sstore\n      pop\n      swap1\n      pop\n      pop\n        /* \"contracts/Wedding.sol\":3908:4185  if (!spouse1.agreedOnParticipants && msg.sender == spouse1.addr) {... */\n    tag_125:\n        /* \"contracts/Wedding.sol\":3847:4192  function agreeOnParticipants() public onlyEngaged {... */\n      jump\t// out\n        /* \"contracts/Wedding.sol\":2189:2511  function getParticipant(address _addr) view  private returns (Participant memory) {... */\n    tag_81:\n        /* \"contracts/Wedding.sol\":2251:2269  Participant memory */\n      tag_126\n      tag_127\n      jump\t// in\n    tag_126:\n        /* \"contracts/Wedding.sol\":2287:2293  uint i */\n      0x00\n        /* \"contracts/Wedding.sol\":2282:2447  for (uint i = 0; i < participants.length; i++) {... */\n    tag_129:\n        /* \"contracts/Wedding.sol\":2303:2315  participants */\n      0x04\n        /* \"contracts/Wedding.sol\":2303:2322  participants.length */\n      dup1\n      sload\n      swap1\n      pop\n        /* \"contracts/Wedding.sol\":2299:2300  i */\n      dup2\n        /* \"contracts/Wedding.sol\":2299:2322  i < participants.length */\n      lt\n        /* \"contracts/Wedding.sol\":2282:2447  for (uint i = 0; i < participants.length; i++) {... */\n      iszero\n      tag_130\n      jumpi\n        /* \"contracts/Wedding.sol\":2372:2377  _addr */\n      dup3\n        /* \"contracts/Wedding.sol\":2348:2377  participants[i].addr == _addr */\n      0xffffffffffffffffffffffffffffffffffffffff\n      and\n        /* \"contracts/Wedding.sol\":2348:2360  participants */\n      0x04\n        /* \"contracts/Wedding.sol\":2361:2362  i */\n      dup3\n        /* \"contracts/Wedding.sol\":2348:2363  participants[i] */\n      dup2\n      sload\n      dup2\n      lt\n      tag_132\n      jumpi\n      tag_133\n      tag_53\n      jump\t// in\n    tag_133:\n    tag_132:\n      swap1\n      0x00\n      mstore\n      keccak256(0x00, 0x20)\n      add\n        /* \"contracts/Wedding.sol\":2348:2368  participants[i].addr */\n      0x00\n      add\n      0x00\n      swap1\n      sload\n      swap1\n      0x0100\n      exp\n      swap1\n      div\n      0xffffffffffffffffffffffffffffffffffffffff\n      and\n        /* \"contracts/Wedding.sol\":2348:2377  participants[i].addr == _addr */\n      0xffffffffffffffffffffffffffffffffffffffff\n      and\n      sub\n        /* \"contracts/Wedding.sol\":2344:2436  if (participants[i].addr == _addr) {... */\n      tag_135\n      jumpi\n        /* \"contracts/Wedding.sol\":2405:2417  participants */\n      0x04\n        /* \"contracts/Wedding.sol\":2418:2419  i */\n      dup2\n        /* \"contracts/Wedding.sol\":2405:2420  participants[i] */\n      dup2\n      sload\n      dup2\n      lt\n      tag_136\n      jumpi\n      tag_137\n      tag_53\n      jump\t// in\n    tag_137:\n    tag_136:\n      swap1\n      0x00\n      mstore\n      keccak256(0x00, 0x20)\n      add\n        /* \"contracts/Wedding.sol\":2398:2420  return participants[i] */\n      mload(0x40)\n      dup1\n      0x60\n      add\n      0x40\n      mstore\n      swap1\n      dup2\n      0x00\n      dup3\n      add\n      0x00\n      swap1\n      sload\n      swap1\n      0x0100\n      exp\n      swap1\n      div\n      0xffffffffffffffffffffffffffffffffffffffff\n      and\n      0xffffffffffffffffffffffffffffffffffffffff\n      and\n      0xffffffffffffffffffffffffffffffffffffffff\n      and\n      dup2\n      mstore\n      0x20\n      add\n      0x00\n      dup3\n      add\n      0x14\n      swap1\n      sload\n      swap1\n      0x0100\n      exp\n      swap1\n      div\n      0xff\n      and\n      iszero\n      iszero\n      iszero\n      iszero\n      dup2\n      mstore\n      0x20\n      add\n      0x00\n      dup3\n      add\n      0x15\n      swap1\n      sload\n      swap1\n      0x0100\n      exp\n      swap1\n      div\n      0xff\n      and\n      iszero\n      iszero\n      iszero\n      iszero\n      dup2\n      mstore\n      pop\n      pop\n      swap2\n      pop\n      pop\n      jump(tag_128)\n        /* \"contracts/Wedding.sol\":2344:2436  if (participants[i].addr == _addr) {... */\n    tag_135:\n        /* \"contracts/Wedding.sol\":2324:2327  i++ */\n      dup1\n      dup1\n      tag_139\n      swap1\n      tag_57\n      jump\t// in\n    tag_139:\n      swap2\n      pop\n      pop\n        /* \"contracts/Wedding.sol\":2282:2447  for (uint i = 0; i < participants.length; i++) {... */\n      jump(tag_129)\n    tag_130:\n      pop\n        /* \"contracts/Wedding.sol\":2466:2503  Participant(address(0), false, false) */\n      mload(0x40)\n      dup1\n      0x60\n      add\n      0x40\n      mstore\n      dup1\n        /* \"contracts/Wedding.sol\":2486:2487  0 */\n      0x00\n        /* \"contracts/Wedding.sol\":2466:2503  Participant(address(0), false, false) */\n      0xffffffffffffffffffffffffffffffffffffffff\n      and\n      dup2\n      mstore\n      0x20\n      add\n        /* \"contracts/Wedding.sol\":2490:2495  false */\n      0x00\n        /* \"contracts/Wedding.sol\":2466:2503  Participant(address(0), false, false) */\n      iszero\n      iszero\n      dup2\n      mstore\n      0x20\n      add\n        /* \"contracts/Wedding.sol\":2497:2502  false */\n      0x00\n        /* \"contracts/Wedding.sol\":2466:2503  Participant(address(0), false, false) */\n      iszero\n      iszero\n      dup2\n      mstore\n      pop\n        /* \"contracts/Wedding.sol\":2459:2503  return Participant(address(0), false, false) */\n      swap1\n      pop\n        /* \"contracts/Wedding.sol\":2189:2511  function getParticipant(address _addr) view  private returns (Participant memory) {... */\n    tag_128:\n      swap2\n      swap1\n      pop\n      jump\t// out\n        /* \"contracts/Wedding.sol\":2519:2799  function getParticipantIndex(address _addr) view private returns (uint) {... */\n    tag_88:\n        /* \"contracts/Wedding.sol\":2585:2589  uint */\n      0x00\n        /* \"contracts/Wedding.sol\":2607:2613  uint i */\n      dup1\n        /* \"contracts/Wedding.sol\":2616:2617  0 */\n      0x00\n        /* \"contracts/Wedding.sol\":2607:2617  uint i = 0 */\n      swap1\n      pop\n        /* \"contracts/Wedding.sol\":2602:2753  for (uint i = 0; i < participants.length; i++) {... */\n    tag_141:\n        /* \"contracts/Wedding.sol\":2623:2635  participants */\n      0x04\n        /* \"contracts/Wedding.sol\":2623:2642  participants.length */\n      dup1\n      sload\n      swap1\n      pop\n        /* \"contracts/Wedding.sol\":2619:2620  i */\n      dup2\n        /* \"contracts/Wedding.sol\":2619:2642  i < participants.length */\n      lt\n        /* \"contracts/Wedding.sol\":2602:2753  for (uint i = 0; i < participants.length; i++) {... */\n      iszero\n      tag_142\n      jumpi\n        /* \"contracts/Wedding.sol\":2692:2697  _addr */\n      dup3\n        /* \"contracts/Wedding.sol\":2668:2697  participants[i].addr == _addr */\n      0xffffffffffffffffffffffffffffffffffffffff\n      and\n        /* \"contracts/Wedding.sol\":2668:2680  participants */\n      0x04\n        /* \"contracts/Wedding.sol\":2681:2682  i */\n      dup3\n        /* \"contracts/Wedding.sol\":2668:2683  participants[i] */\n      dup2\n      sload\n      dup2\n      lt\n      tag_144\n      jumpi\n      tag_145\n      tag_53\n      jump\t// in\n    tag_145:\n    tag_144:\n      swap1\n      0x00\n      mstore\n      keccak256(0x00, 0x20)\n      add\n        /* \"contracts/Wedding.sol\":2668:2688  participants[i].addr */\n      0x00\n      add\n      0x00\n      swap1\n      sload\n      swap1\n      0x0100\n      exp\n      swap1\n      div\n      0xffffffffffffffffffffffffffffffffffffffff\n      and\n        /* \"contracts/Wedding.sol\":2668:2697  participants[i].addr == _addr */\n      0xffffffffffffffffffffffffffffffffffffffff\n      and\n      sub\n        /* \"contracts/Wedding.sol\":2664:2742  if (participants[i].addr == _addr) {... */\n      tag_147\n      jumpi\n        /* \"contracts/Wedding.sol\":2725:2726  i */\n      dup1\n        /* \"contracts/Wedding.sol\":2718:2726  return i */\n      swap2\n      pop\n      pop\n      jump(tag_140)\n        /* \"contracts/Wedding.sol\":2664:2742  if (participants[i].addr == _addr) {... */\n    tag_147:\n        /* \"contracts/Wedding.sol\":2644:2647  i++ */\n      dup1\n      dup1\n      tag_148\n      swap1\n      tag_57\n      jump\t// in\n    tag_148:\n      swap2\n      pop\n      pop\n        /* \"contracts/Wedding.sol\":2602:2753  for (uint i = 0; i < participants.length; i++) {... */\n      jump(tag_141)\n    tag_142:\n      pop\n        /* \"contracts/Wedding.sol\":2772:2784  participants */\n      0x04\n        /* \"contracts/Wedding.sol\":2772:2791  participants.length */\n      dup1\n      sload\n      swap1\n      pop\n        /* \"contracts/Wedding.sol\":2765:2791  return participants.length */\n      swap1\n      pop\n        /* \"contracts/Wedding.sol\":2519:2799  function getParticipantIndex(address _addr) view private returns (uint) {... */\n    tag_140:\n      swap2\n      swap1\n      pop\n      jump\t// out\n    tag_127:\n      mload(0x40)\n      dup1\n      0x60\n      add\n      0x40\n      mstore\n      dup1\n      and(0xffffffffffffffffffffffffffffffffffffffff, 0x00)\n      dup2\n      mstore\n      0x20\n      add\n      iszero(iszero(0x00))\n      dup2\n      mstore\n      0x20\n      add\n      iszero(iszero(0x00))\n      dup2\n      mstore\n      pop\n      swap1\n      jump\t// out\n        /* \"#utility.yul\":7:82   */\n    tag_149:\n        /* \"#utility.yul\":40:46   */\n      0x00\n        /* \"#utility.yul\":73:75   */\n      0x40\n        /* \"#utility.yul\":67:76   */\n      mload\n        /* \"#utility.yul\":57:76   */\n      swap1\n      pop\n        /* \"#utility.yul\":7:82   */\n      swap1\n      jump\t// out\n        /* \"#utility.yul\":88:205   */\n    tag_150:\n        /* \"#utility.yul\":197:198   */\n      0x00\n        /* \"#utility.yul\":194:195   */\n      dup1\n        /* \"#utility.yul\":187:199   */\n      revert\n        /* \"#utility.yul\":211:328   */\n    tag_151:\n        /* \"#utility.yul\":320:321   */\n      0x00\n        /* \"#utility.yul\":317:318   */\n      dup1\n        /* \"#utility.yul\":310:322   */\n      revert\n        /* \"#utility.yul\":334:460   */\n    tag_152:\n        /* \"#utility.yul\":371:378   */\n      0x00\n        /* \"#utility.yul\":411:453   */\n      0xffffffffffffffffffffffffffffffffffffffff\n        /* \"#utility.yul\":404:409   */\n      dup3\n        /* \"#utility.yul\":400:454   */\n      and\n        /* \"#utility.yul\":389:454   */\n      swap1\n      pop\n        /* \"#utility.yul\":334:460   */\n      swap2\n      swap1\n      pop\n      jump\t// out\n        /* \"#utility.yul\":466:562   */\n    tag_153:\n        /* \"#utility.yul\":503:510   */\n      0x00\n        /* \"#utility.yul\":532:556   */\n      tag_211\n        /* \"#utility.yul\":550:555   */\n      dup3\n        /* \"#utility.yul\":532:556   */\n      tag_152\n      jump\t// in\n    tag_211:\n        /* \"#utility.yul\":521:556   */\n      swap1\n      pop\n        /* \"#utility.yul\":466:562   */\n      swap2\n      swap1\n      pop\n      jump\t// out\n        /* \"#utility.yul\":568:690   */\n    tag_154:\n        /* \"#utility.yul\":641:665   */\n      tag_213\n        /* \"#utility.yul\":659:664   */\n      dup2\n        /* \"#utility.yul\":641:665   */\n      tag_153\n      jump\t// in\n    tag_213:\n        /* \"#utility.yul\":634:639   */\n      dup2\n        /* \"#utility.yul\":631:666   */\n      eq\n        /* \"#utility.yul\":621:684   */\n      tag_214\n      jumpi\n        /* \"#utility.yul\":680:681   */\n      0x00\n        /* \"#utility.yul\":677:678   */\n      dup1\n        /* \"#utility.yul\":670:682   */\n      revert\n        /* \"#utility.yul\":621:684   */\n    tag_214:\n        /* \"#utility.yul\":568:690   */\n      pop\n      jump\t// out\n        /* \"#utility.yul\":696:835   */\n    tag_155:\n        /* \"#utility.yul\":742:747   */\n      0x00\n        /* \"#utility.yul\":780:786   */\n      dup2\n        /* \"#utility.yul\":767:787   */\n      calldataload\n        /* \"#utility.yul\":758:787   */\n      swap1\n      pop\n        /* \"#utility.yul\":796:829   */\n      tag_216\n        /* \"#utility.yul\":823:828   */\n      dup2\n        /* \"#utility.yul\":796:829   */\n      tag_154\n      jump\t// in\n    tag_216:\n        /* \"#utility.yul\":696:835   */\n      swap3\n      swap2\n      pop\n      pop\n      jump\t// out\n        /* \"#utility.yul\":841:1170   */\n    tag_13:\n        /* \"#utility.yul\":900:906   */\n      0x00\n        /* \"#utility.yul\":949:951   */\n      0x20\n        /* \"#utility.yul\":937:946   */\n      dup3\n        /* \"#utility.yul\":928:935   */\n      dup5\n        /* \"#utility.yul\":924:947   */\n      sub\n        /* \"#utility.yul\":920:952   */\n      slt\n        /* \"#utility.yul\":917:1036   */\n      iszero\n      tag_218\n      jumpi\n        /* \"#utility.yul\":955:1034   */\n      tag_219\n      tag_150\n      jump\t// in\n    tag_219:\n        /* \"#utility.yul\":917:1036   */\n    tag_218:\n        /* \"#utility.yul\":1075:1076   */\n      0x00\n        /* \"#utility.yul\":1100:1153   */\n      tag_220\n        /* \"#utility.yul\":1145:1152   */\n      dup5\n        /* \"#utility.yul\":1136:1142   */\n      dup3\n        /* \"#utility.yul\":1125:1134   */\n      dup6\n        /* \"#utility.yul\":1121:1143   */\n      add\n        /* \"#utility.yul\":1100:1153   */\n      tag_155\n      jump\t// in\n    tag_220:\n        /* \"#utility.yul\":1090:1153   */\n      swap2\n      pop\n        /* \"#utility.yul\":1046:1163   */\n      pop\n        /* \"#utility.yul\":841:1170   */\n      swap3\n      swap2\n      pop\n      pop\n      jump\t// out\n        /* \"#utility.yul\":1176:1253   */\n    tag_156:\n        /* \"#utility.yul\":1213:1220   */\n      0x00\n        /* \"#utility.yul\":1242:1247   */\n      dup2\n        /* \"#utility.yul\":1231:1247   */\n      swap1\n      pop\n        /* \"#utility.yul\":1176:1253   */\n      swap2\n      swap1\n      pop\n      jump\t// out\n        /* \"#utility.yul\":1259:1381   */\n    tag_157:\n        /* \"#utility.yul\":1332:1356   */\n      tag_223\n        /* \"#utility.yul\":1350:1355   */\n      dup2\n        /* \"#utility.yul\":1332:1356   */\n      tag_156\n      jump\t// in\n    tag_223:\n        /* \"#utility.yul\":1325:1330   */\n      dup2\n        /* \"#utility.yul\":1322:1357   */\n      eq\n        /* \"#utility.yul\":1312:1375   */\n      tag_224\n      jumpi\n        /* \"#utility.yul\":1371:1372   */\n      0x00\n        /* \"#utility.yul\":1368:1369   */\n      dup1\n        /* \"#utility.yul\":1361:1373   */\n      revert\n        /* \"#utility.yul\":1312:1375   */\n    tag_224:\n        /* \"#utility.yul\":1259:1381   */\n      pop\n      jump\t// out\n        /* \"#utility.yul\":1387:1526   */\n    tag_158:\n        /* \"#utility.yul\":1433:1438   */\n      0x00\n        /* \"#utility.yul\":1471:1477   */\n      dup2\n        /* \"#utility.yul\":1458:1478   */\n      calldataload\n        /* \"#utility.yul\":1449:1478   */\n      swap1\n      pop\n        /* \"#utility.yul\":1487:1520   */\n      tag_226\n        /* \"#utility.yul\":1514:1519   */\n      dup2\n        /* \"#utility.yul\":1487:1520   */\n      tag_157\n      jump\t// in\n    tag_226:\n        /* \"#utility.yul\":1387:1526   */\n      swap3\n      swap2\n      pop\n      pop\n      jump\t// out\n        /* \"#utility.yul\":1532:1649   */\n    tag_159:\n        /* \"#utility.yul\":1641:1642   */\n      0x00\n        /* \"#utility.yul\":1638:1639   */\n      dup1\n        /* \"#utility.yul\":1631:1643   */\n      revert\n        /* \"#utility.yul\":1655:1772   */\n    tag_160:\n        /* \"#utility.yul\":1764:1765   */\n      0x00\n        /* \"#utility.yul\":1761:1762   */\n      dup1\n        /* \"#utility.yul\":1754:1766   */\n      revert\n        /* \"#utility.yul\":1778:1880   */\n    tag_161:\n        /* \"#utility.yul\":1819:1825   */\n      0x00\n        /* \"#utility.yul\":1870:1872   */\n      0x1f\n        /* \"#utility.yul\":1866:1873   */\n      not\n        /* \"#utility.yul\":1861:1863   */\n      0x1f\n        /* \"#utility.yul\":1854:1859   */\n      dup4\n        /* \"#utility.yul\":1850:1864   */\n      add\n        /* \"#utility.yul\":1846:1874   */\n      and\n        /* \"#utility.yul\":1836:1874   */\n      swap1\n      pop\n        /* \"#utility.yul\":1778:1880   */\n      swap2\n      swap1\n      pop\n      jump\t// out\n        /* \"#utility.yul\":1886:2066   */\n    tag_162:\n        /* \"#utility.yul\":1934:2011   */\n      0x4e487b7100000000000000000000000000000000000000000000000000000000\n        /* \"#utility.yul\":1931:1932   */\n      0x00\n        /* \"#utility.yul\":1924:2012   */\n      mstore\n        /* \"#utility.yul\":2031:2035   */\n      0x41\n        /* \"#utility.yul\":2028:2029   */\n      0x04\n        /* \"#utility.yul\":2021:2036   */\n      mstore\n        /* \"#utility.yul\":2055:2059   */\n      0x24\n        /* \"#utility.yul\":2052:2053   */\n      0x00\n        /* \"#utility.yul\":2045:2060   */\n      revert\n        /* \"#utility.yul\":2072:2353   */\n    tag_163:\n        /* \"#utility.yul\":2155:2182   */\n      tag_232\n        /* \"#utility.yul\":2177:2181   */\n      dup3\n        /* \"#utility.yul\":2155:2182   */\n      tag_161\n      jump\t// in\n    tag_232:\n        /* \"#utility.yul\":2147:2153   */\n      dup2\n        /* \"#utility.yul\":2143:2183   */\n      add\n        /* \"#utility.yul\":2285:2291   */\n      dup2\n        /* \"#utility.yul\":2273:2283   */\n      dup2\n        /* \"#utility.yul\":2270:2292   */\n      lt\n        /* \"#utility.yul\":2249:2267   */\n      0xffffffffffffffff\n        /* \"#utility.yul\":2237:2247   */\n      dup3\n        /* \"#utility.yul\":2234:2268   */\n      gt\n        /* \"#utility.yul\":2231:2293   */\n      or\n        /* \"#utility.yul\":2228:2316   */\n      iszero\n      tag_233\n      jumpi\n        /* \"#utility.yul\":2296:2314   */\n      tag_234\n      tag_162\n      jump\t// in\n    tag_234:\n        /* \"#utility.yul\":2228:2316   */\n    tag_233:\n        /* \"#utility.yul\":2336:2346   */\n      dup1\n        /* \"#utility.yul\":2332:2334   */\n      0x40\n        /* \"#utility.yul\":2325:2347   */\n      mstore\n        /* \"#utility.yul\":2115:2353   */\n      pop\n        /* \"#utility.yul\":2072:2353   */\n      pop\n      pop\n      jump\t// out\n        /* \"#utility.yul\":2359:2488   */\n    tag_164:\n        /* \"#utility.yul\":2393:2399   */\n      0x00\n        /* \"#utility.yul\":2420:2440   */\n      tag_236\n      tag_149\n      jump\t// in\n    tag_236:\n        /* \"#utility.yul\":2410:2440   */\n      swap1\n      pop\n        /* \"#utility.yul\":2449:2482   */\n      tag_237\n        /* \"#utility.yul\":2477:2481   */\n      dup3\n        /* \"#utility.yul\":2469:2475   */\n      dup3\n        /* \"#utility.yul\":2449:2482   */\n      tag_163\n      jump\t// in\n    tag_237:\n        /* \"#utility.yul\":2359:2488   */\n      swap2\n      swap1\n      pop\n      jump\t// out\n        /* \"#utility.yul\":2494:2802   */\n    tag_165:\n        /* \"#utility.yul\":2556:2560   */\n      0x00\n        /* \"#utility.yul\":2646:2664   */\n      0xffffffffffffffff\n        /* \"#utility.yul\":2638:2644   */\n      dup3\n        /* \"#utility.yul\":2635:2665   */\n      gt\n        /* \"#utility.yul\":2632:2688   */\n      iszero\n      tag_239\n      jumpi\n        /* \"#utility.yul\":2668:2686   */\n      tag_240\n      tag_162\n      jump\t// in\n    tag_240:\n        /* \"#utility.yul\":2632:2688   */\n    tag_239:\n        /* \"#utility.yul\":2706:2735   */\n      tag_241\n        /* \"#utility.yul\":2728:2734   */\n      dup3\n        /* \"#utility.yul\":2706:2735   */\n      tag_161\n      jump\t// in\n    tag_241:\n        /* \"#utility.yul\":2698:2735   */\n      swap1\n      pop\n        /* \"#utility.yul\":2790:2794   */\n      0x20\n        /* \"#utility.yul\":2784:2788   */\n      dup2\n        /* \"#utility.yul\":2780:2795   */\n      add\n        /* \"#utility.yul\":2772:2795   */\n      swap1\n      pop\n        /* \"#utility.yul\":2494:2802   */\n      swap2\n      swap1\n      pop\n      jump\t// out\n        /* \"#utility.yul\":2808:2954   */\n    tag_166:\n        /* \"#utility.yul\":2905:2911   */\n      dup3\n        /* \"#utility.yul\":2900:2903   */\n      dup2\n        /* \"#utility.yul\":2895:2898   */\n      dup4\n        /* \"#utility.yul\":2882:2912   */\n      calldatacopy\n        /* \"#utility.yul\":2946:2947   */\n      0x00\n        /* \"#utility.yul\":2937:2943   */\n      dup4\n        /* \"#utility.yul\":2932:2935   */\n      dup4\n        /* \"#utility.yul\":2928:2944   */\n      add\n        /* \"#utility.yul\":2921:2948   */\n      mstore\n        /* \"#utility.yul\":2808:2954   */\n      pop\n      pop\n      pop\n      jump\t// out\n        /* \"#utility.yul\":2960:3385   */\n    tag_167:\n        /* \"#utility.yul\":3038:3043   */\n      0x00\n        /* \"#utility.yul\":3063:3129   */\n      tag_244\n        /* \"#utility.yul\":3079:3128   */\n      tag_245\n        /* \"#utility.yul\":3121:3127   */\n      dup5\n        /* \"#utility.yul\":3079:3128   */\n      tag_165\n      jump\t// in\n    tag_245:\n        /* \"#utility.yul\":3063:3129   */\n      tag_164\n      jump\t// in\n    tag_244:\n        /* \"#utility.yul\":3054:3129   */\n      swap1\n      pop\n        /* \"#utility.yul\":3152:3158   */\n      dup3\n        /* \"#utility.yul\":3145:3150   */\n      dup2\n        /* \"#utility.yul\":3138:3159   */\n      mstore\n        /* \"#utility.yul\":3190:3194   */\n      0x20\n        /* \"#utility.yul\":3183:3188   */\n      dup2\n        /* \"#utility.yul\":3179:3195   */\n      add\n        /* \"#utility.yul\":3228:3231   */\n      dup5\n        /* \"#utility.yul\":3219:3225   */\n      dup5\n        /* \"#utility.yul\":3214:3217   */\n      dup5\n        /* \"#utility.yul\":3210:3226   */\n      add\n        /* \"#utility.yul\":3207:3232   */\n      gt\n        /* \"#utility.yul\":3204:3316   */\n      iszero\n      tag_246\n      jumpi\n        /* \"#utility.yul\":3235:3314   */\n      tag_247\n      tag_160\n      jump\t// in\n    tag_247:\n        /* \"#utility.yul\":3204:3316   */\n    tag_246:\n        /* \"#utility.yul\":3325:3379   */\n      tag_248\n        /* \"#utility.yul\":3372:3378   */\n      dup5\n        /* \"#utility.yul\":3367:3370   */\n      dup3\n        /* \"#utility.yul\":3362:3365   */\n      dup6\n        /* \"#utility.yul\":3325:3379   */\n      tag_166\n      jump\t// in\n    tag_248:\n        /* \"#utility.yul\":3044:3385   */\n      pop\n        /* \"#utility.yul\":2960:3385   */\n      swap4\n      swap3\n      pop\n      pop\n      pop\n      jump\t// out\n        /* \"#utility.yul\":3405:3745   */\n    tag_168:\n        /* \"#utility.yul\":3461:3466   */\n      0x00\n        /* \"#utility.yul\":3510:3513   */\n      dup3\n        /* \"#utility.yul\":3503:3507   */\n      0x1f\n        /* \"#utility.yul\":3495:3501   */\n      dup4\n        /* \"#utility.yul\":3491:3508   */\n      add\n        /* \"#utility.yul\":3487:3514   */\n      slt\n        /* \"#utility.yul\":3477:3599   */\n      tag_250\n      jumpi\n        /* \"#utility.yul\":3518:3597   */\n      tag_251\n      tag_159\n      jump\t// in\n    tag_251:\n        /* \"#utility.yul\":3477:3599   */\n    tag_250:\n        /* \"#utility.yul\":3635:3641   */\n      dup2\n        /* \"#utility.yul\":3622:3642   */\n      calldataload\n        /* \"#utility.yul\":3660:3739   */\n      tag_252\n        /* \"#utility.yul\":3735:3738   */\n      dup5\n        /* \"#utility.yul\":3727:3733   */\n      dup3\n        /* \"#utility.yul\":3720:3724   */\n      0x20\n        /* \"#utility.yul\":3712:3718   */\n      dup7\n        /* \"#utility.yul\":3708:3725   */\n      add\n        /* \"#utility.yul\":3660:3739   */\n      tag_167\n      jump\t// in\n    tag_252:\n        /* \"#utility.yul\":3651:3739   */\n      swap2\n      pop\n        /* \"#utility.yul\":3467:3745   */\n      pop\n        /* \"#utility.yul\":3405:3745   */\n      swap3\n      swap2\n      pop\n      pop\n      jump\t// out\n        /* \"#utility.yul\":3751:4405   */\n    tag_23:\n        /* \"#utility.yul\":3829:3835   */\n      0x00\n        /* \"#utility.yul\":3837:3843   */\n      dup1\n        /* \"#utility.yul\":3886:3888   */\n      0x40\n        /* \"#utility.yul\":3874:3883   */\n      dup4\n        /* \"#utility.yul\":3865:3872   */\n      dup6\n        /* \"#utility.yul\":3861:3884   */\n      sub\n        /* \"#utility.yul\":3857:3889   */\n      slt\n        /* \"#utility.yul\":3854:3973   */\n      iszero\n      tag_254\n      jumpi\n        /* \"#utility.yul\":3892:3971   */\n      tag_255\n      tag_150\n      jump\t// in\n    tag_255:\n        /* \"#utility.yul\":3854:3973   */\n    tag_254:\n        /* \"#utility.yul\":4012:4013   */\n      0x00\n        /* \"#utility.yul\":4037:4090   */\n      tag_256\n        /* \"#utility.yul\":4082:4089   */\n      dup6\n        /* \"#utility.yul\":4073:4079   */\n      dup3\n        /* \"#utility.yul\":4062:4071   */\n      dup7\n        /* \"#utility.yul\":4058:4080   */\n      add\n        /* \"#utility.yul\":4037:4090   */\n      tag_158\n      jump\t// in\n    tag_256:\n        /* \"#utility.yul\":4027:4090   */\n      swap3\n      pop\n        /* \"#utility.yul\":3983:4100   */\n      pop\n        /* \"#utility.yul\":4167:4169   */\n      0x20\n        /* \"#utility.yul\":4156:4165   */\n      dup4\n        /* \"#utility.yul\":4152:4170   */\n      add\n        /* \"#utility.yul\":4139:4171   */\n      calldataload\n        /* \"#utility.yul\":4198:4216   */\n      0xffffffffffffffff\n        /* \"#utility.yul\":4190:4196   */\n      dup2\n        /* \"#utility.yul\":4187:4217   */\n      gt\n        /* \"#utility.yul\":4184:4301   */\n      iszero\n      tag_257\n      jumpi\n        /* \"#utility.yul\":4220:4299   */\n      tag_258\n      tag_151\n      jump\t// in\n    tag_258:\n        /* \"#utility.yul\":4184:4301   */\n    tag_257:\n        /* \"#utility.yul\":4325:4388   */\n      tag_259\n        /* \"#utility.yul\":4380:4387   */\n      dup6\n        /* \"#utility.yul\":4371:4377   */\n      dup3\n        /* \"#utility.yul\":4360:4369   */\n      dup7\n        /* \"#utility.yul\":4356:4378   */\n      add\n        /* \"#utility.yul\":4325:4388   */\n      tag_168\n      jump\t// in\n    tag_259:\n        /* \"#utility.yul\":4315:4388   */\n      swap2\n      pop\n        /* \"#utility.yul\":4110:4398   */\n      pop\n        /* \"#utility.yul\":3751:4405   */\n      swap3\n      pop\n      swap3\n      swap1\n      pop\n      jump\t// out\n        /* \"#utility.yul\":4411:4580   */\n    tag_169:\n        /* \"#utility.yul\":4495:4506   */\n      0x00\n        /* \"#utility.yul\":4529:4535   */\n      dup3\n        /* \"#utility.yul\":4524:4527   */\n      dup3\n        /* \"#utility.yul\":4517:4536   */\n      mstore\n        /* \"#utility.yul\":4569:4573   */\n      0x20\n        /* \"#utility.yul\":4564:4567   */\n      dup3\n        /* \"#utility.yul\":4560:4574   */\n      add\n        /* \"#utility.yul\":4545:4574   */\n      swap1\n      pop\n        /* \"#utility.yul\":4411:4580   */\n      swap3\n      swap2\n      pop\n      pop\n      jump\t// out\n        /* \"#utility.yul\":4586:4749   */\n    tag_170:\n        /* \"#utility.yul\":4726:4741   */\n      0x4f6e6c7920656e67616765642e00000000000000000000000000000000000000\n        /* \"#utility.yul\":4722:4723   */\n      0x00\n        /* \"#utility.yul\":4714:4720   */\n      dup3\n        /* \"#utility.yul\":4710:4724   */\n      add\n        /* \"#utility.yul\":4703:4742   */\n      mstore\n        /* \"#utility.yul\":4586:4749   */\n      pop\n      jump\t// out\n        /* \"#utility.yul\":4755:5121   */\n    tag_171:\n        /* \"#utility.yul\":4897:4900   */\n      0x00\n        /* \"#utility.yul\":4918:4985   */\n      tag_263\n        /* \"#utility.yul\":4982:4984   */\n      0x0d\n        /* \"#utility.yul\":4977:4980   */\n      dup4\n        /* \"#utility.yul\":4918:4985   */\n      tag_169\n      jump\t// in\n    tag_263:\n        /* \"#utility.yul\":4911:4985   */\n      swap2\n      pop\n        /* \"#utility.yul\":4994:5087   */\n      tag_264\n        /* \"#utility.yul\":5083:5086   */\n      dup3\n        /* \"#utility.yul\":4994:5087   */\n      tag_170\n      jump\t// in\n    tag_264:\n        /* \"#utility.yul\":5112:5114   */\n      0x20\n        /* \"#utility.yul\":5107:5110   */\n      dup3\n        /* \"#utility.yul\":5103:5115   */\n      add\n        /* \"#utility.yul\":5096:5115   */\n      swap1\n      pop\n        /* \"#utility.yul\":4755:5121   */\n      swap2\n      swap1\n      pop\n      jump\t// out\n        /* \"#utility.yul\":5127:5546   */\n    tag_33:\n        /* \"#utility.yul\":5293:5297   */\n      0x00\n        /* \"#utility.yul\":5331:5333   */\n      0x20\n        /* \"#utility.yul\":5320:5329   */\n      dup3\n        /* \"#utility.yul\":5316:5334   */\n      add\n        /* \"#utility.yul\":5308:5334   */\n      swap1\n      pop\n        /* \"#utility.yul\":5380:5389   */\n      dup2\n        /* \"#utility.yul\":5374:5378   */\n      dup2\n        /* \"#utility.yul\":5370:5390   */\n      sub\n        /* \"#utility.yul\":5366:5367   */\n      0x00\n        /* \"#utility.yul\":5355:5364   */\n      dup4\n        /* \"#utility.yul\":5351:5368   */\n      add\n        /* \"#utility.yul\":5344:5391   */\n      mstore\n        /* \"#utility.yul\":5408:5539   */\n      tag_266\n        /* \"#utility.yul\":5534:5538   */\n      dup2\n        /* \"#utility.yul\":5408:5539   */\n      tag_171\n      jump\t// in\n    tag_266:\n        /* \"#utility.yul\":5400:5539   */\n      swap1\n      pop\n        /* \"#utility.yul\":5127:5546   */\n      swap2\n      swap1\n      pop\n      jump\t// out\n        /* \"#utility.yul\":5552:5776   */\n    tag_172:\n        /* \"#utility.yul\":5692:5726   */\n      0x416464726573732031206d757374206167726565206f6e207061727469636970\n        /* \"#utility.yul\":5688:5689   */\n      0x00\n        /* \"#utility.yul\":5680:5686   */\n      dup3\n        /* \"#utility.yul\":5676:5690   */\n      add\n        /* \"#utility.yul\":5669:5727   */\n      mstore\n        /* \"#utility.yul\":5761:5768   */\n      0x616e74732e000000000000000000000000000000000000000000000000000000\n        /* \"#utility.yul\":5756:5758   */\n      0x20\n        /* \"#utility.yul\":5748:5754   */\n      dup3\n        /* \"#utility.yul\":5744:5759   */\n      add\n        /* \"#utility.yul\":5737:5769   */\n      mstore\n        /* \"#utility.yul\":5552:5776   */\n      pop\n      jump\t// out\n        /* \"#utility.yul\":5782:6148   */\n    tag_173:\n        /* \"#utility.yul\":5924:5927   */\n      0x00\n        /* \"#utility.yul\":5945:6012   */\n      tag_269\n        /* \"#utility.yul\":6009:6011   */\n      0x25\n        /* \"#utility.yul\":6004:6007   */\n      dup4\n        /* \"#utility.yul\":5945:6012   */\n      tag_169\n      jump\t// in\n    tag_269:\n        /* \"#utility.yul\":5938:6012   */\n      swap2\n      pop\n        /* \"#utility.yul\":6021:6114   */\n      tag_270\n        /* \"#utility.yul\":6110:6113   */\n      dup3\n        /* \"#utility.yul\":6021:6114   */\n      tag_172\n      jump\t// in\n    tag_270:\n        /* \"#utility.yul\":6139:6141   */\n      0x40\n        /* \"#utility.yul\":6134:6137   */\n      dup3\n        /* \"#utility.yul\":6130:6142   */\n      add\n        /* \"#utility.yul\":6123:6142   */\n      swap1\n      pop\n        /* \"#utility.yul\":5782:6148   */\n      swap2\n      swap1\n      pop\n      jump\t// out\n        /* \"#utility.yul\":6154:6573   */\n    tag_43:\n        /* \"#utility.yul\":6320:6324   */\n      0x00\n        /* \"#utility.yul\":6358:6360   */\n      0x20\n        /* \"#utility.yul\":6347:6356   */\n      dup3\n        /* \"#utility.yul\":6343:6361   */\n      add\n        /* \"#utility.yul\":6335:6361   */\n      swap1\n      pop\n        /* \"#utility.yul\":6407:6416   */\n      dup2\n        /* \"#utility.yul\":6401:6405   */\n      dup2\n        /* \"#utility.yul\":6397:6417   */\n      sub\n        /* \"#utility.yul\":6393:6394   */\n      0x00\n        /* \"#utility.yul\":6382:6391   */\n      dup4\n        /* \"#utility.yul\":6378:6395   */\n      add\n        /* \"#utility.yul\":6371:6418   */\n      mstore\n        /* \"#utility.yul\":6435:6566   */\n      tag_272\n        /* \"#utility.yul\":6561:6565   */\n      dup2\n        /* \"#utility.yul\":6435:6566   */\n      tag_173\n      jump\t// in\n    tag_272:\n        /* \"#utility.yul\":6427:6566   */\n      swap1\n      pop\n        /* \"#utility.yul\":6154:6573   */\n      swap2\n      swap1\n      pop\n      jump\t// out\n        /* \"#utility.yul\":6579:6803   */\n    tag_174:\n        /* \"#utility.yul\":6719:6753   */\n      0x416464726573732032206d757374206167726565206f6e207061727469636970\n        /* \"#utility.yul\":6715:6716   */\n      0x00\n        /* \"#utility.yul\":6707:6713   */\n      dup3\n        /* \"#utility.yul\":6703:6717   */\n      add\n        /* \"#utility.yul\":6696:6754   */\n      mstore\n        /* \"#utility.yul\":6788:6795   */\n      0x616e74732e000000000000000000000000000000000000000000000000000000\n        /* \"#utility.yul\":6783:6785   */\n      0x20\n        /* \"#utility.yul\":6775:6781   */\n      dup3\n        /* \"#utility.yul\":6771:6786   */\n      add\n        /* \"#utility.yul\":6764:6796   */\n      mstore\n        /* \"#utility.yul\":6579:6803   */\n      pop\n      jump\t// out\n        /* \"#utility.yul\":6809:7175   */\n    tag_175:\n        /* \"#utility.yul\":6951:6954   */\n      0x00\n        /* \"#utility.yul\":6972:7039   */\n      tag_275\n        /* \"#utility.yul\":7036:7038   */\n      0x25\n        /* \"#utility.yul\":7031:7034   */\n      dup4\n        /* \"#utility.yul\":6972:7039   */\n      tag_169\n      jump\t// in\n    tag_275:\n        /* \"#utility.yul\":6965:7039   */\n      swap2\n      pop\n        /* \"#utility.yul\":7048:7141   */\n      tag_276\n        /* \"#utility.yul\":7137:7140   */\n      dup3\n        /* \"#utility.yul\":7048:7141   */\n      tag_174\n      jump\t// in\n    tag_276:\n        /* \"#utility.yul\":7166:7168   */\n      0x40\n        /* \"#utility.yul\":7161:7164   */\n      dup3\n        /* \"#utility.yul\":7157:7169   */\n      add\n        /* \"#utility.yul\":7150:7169   */\n      swap1\n      pop\n        /* \"#utility.yul\":6809:7175   */\n      swap2\n      swap1\n      pop\n      jump\t// out\n        /* \"#utility.yul\":7181:7600   */\n    tag_46:\n        /* \"#utility.yul\":7347:7351   */\n      0x00\n        /* \"#utility.yul\":7385:7387   */\n      0x20\n        /* \"#utility.yul\":7374:7383   */\n      dup3\n        /* \"#utility.yul\":7370:7388   */\n      add\n        /* \"#utility.yul\":7362:7388   */\n      swap1\n      pop\n        /* \"#utility.yul\":7434:7443   */\n      dup2\n        /* \"#utility.yul\":7428:7432   */\n      dup2\n        /* \"#utility.yul\":7424:7444   */\n      sub\n        /* \"#utility.yul\":7420:7421   */\n      0x00\n        /* \"#utility.yul\":7409:7418   */\n      dup4\n        /* \"#utility.yul\":7405:7422   */\n      add\n        /* \"#utility.yul\":7398:7445   */\n      mstore\n        /* \"#utility.yul\":7462:7593   */\n      tag_278\n        /* \"#utility.yul\":7588:7592   */\n      dup2\n        /* \"#utility.yul\":7462:7593   */\n      tag_175\n      jump\t// in\n    tag_278:\n        /* \"#utility.yul\":7454:7593   */\n      swap1\n      pop\n        /* \"#utility.yul\":7181:7600   */\n      swap2\n      swap1\n      pop\n      jump\t// out\n        /* \"#utility.yul\":7606:7786   */\n    tag_53:\n        /* \"#utility.yul\":7654:7731   */\n      0x4e487b7100000000000000000000000000000000000000000000000000000000\n        /* \"#utility.yul\":7651:7652   */\n      0x00\n        /* \"#utility.yul\":7644:7732   */\n      mstore\n        /* \"#utility.yul\":7751:7755   */\n      0x32\n        /* \"#utility.yul\":7748:7749   */\n      0x04\n        /* \"#utility.yul\":7741:7756   */\n      mstore\n        /* \"#utility.yul\":7775:7779   */\n      0x24\n        /* \"#utility.yul\":7772:7773   */\n      0x00\n        /* \"#utility.yul\":7765:7780   */\n      revert\n        /* \"#utility.yul\":7792:7972   */\n    tag_176:\n        /* \"#utility.yul\":7840:7917   */\n      0x4e487b7100000000000000000000000000000000000000000000000000000000\n        /* \"#utility.yul\":7837:7838   */\n      0x00\n        /* \"#utility.yul\":7830:7918   */\n      mstore\n        /* \"#utility.yul\":7937:7941   */\n      0x11\n        /* \"#utility.yul\":7934:7935   */\n      0x04\n        /* \"#utility.yul\":7927:7942   */\n      mstore\n        /* \"#utility.yul\":7961:7965   */\n      0x24\n        /* \"#utility.yul\":7958:7959   */\n      0x00\n        /* \"#utility.yul\":7951:7966   */\n      revert\n        /* \"#utility.yul\":7978:8211   */\n    tag_57:\n        /* \"#utility.yul\":8017:8020   */\n      0x00\n        /* \"#utility.yul\":8040:8064   */\n      tag_282\n        /* \"#utility.yul\":8058:8063   */\n      dup3\n        /* \"#utility.yul\":8040:8064   */\n      tag_156\n      jump\t// in\n    tag_282:\n        /* \"#utility.yul\":8031:8064   */\n      swap2\n      pop\n        /* \"#utility.yul\":8086:8152   */\n      0xffffffffffffffffffffffffffffffffffffffffffffffffffffffffffffffff\n        /* \"#utility.yul\":8079:8084   */\n      dup3\n        /* \"#utility.yul\":8076:8153   */\n      sub\n        /* \"#utility.yul\":8073:8176   */\n      tag_283\n      jumpi\n        /* \"#utility.yul\":8156:8174   */\n      tag_284\n      tag_176\n      jump\t// in\n    tag_284:\n        /* \"#utility.yul\":8073:8176   */\n    tag_283:\n        /* \"#utility.yul\":8203:8204   */\n      0x01\n        /* \"#utility.yul\":8196:8201   */\n      dup3\n        /* \"#utility.yul\":8192:8205   */\n      add\n        /* \"#utility.yul\":8185:8205   */\n      swap1\n      pop\n        /* \"#utility.yul\":7978:8211   */\n      swap2\n      swap1\n      pop\n      jump\t// out\n        /* \"#utility.yul\":8217:8627   */\n    tag_65:\n        /* \"#utility.yul\":8257:8264   */\n      0x00\n        /* \"#utility.yul\":8280:8300   */\n      tag_286\n        /* \"#utility.yul\":8298:8299   */\n      dup3\n        /* \"#utility.yul\":8280:8300   */\n      tag_156\n      jump\t// in\n    tag_286:\n        /* \"#utility.yul\":8275:8300   */\n      swap2\n      pop\n        /* \"#utility.yul\":8314:8334   */\n      tag_287\n        /* \"#utility.yul\":8332:8333   */\n      dup4\n        /* \"#utility.yul\":8314:8334   */\n      tag_156\n      jump\t// in\n    tag_287:\n        /* \"#utility.yul\":8309:8334   */\n      swap3\n      pop\n        /* \"#utility.yul\":8369:8370   */\n      dup3\n        /* \"#utility.yul\":8366:8367   */\n      dup3\n        /* \"#utility.yul\":8362:8371   */\n      mul\n        /* \"#utility.yul\":8391:8421   */\n      tag_288\n        /* \"#utility.yul\":8409:8420   */\n      dup2\n        /* \"#utility.yul\":8391:8421   */\n      tag_156\n      jump\t// in\n    tag_288:\n        /* \"#utility.yul\":8380:8421   */\n      swap2\n      pop\n        /* \"#utility.yul\":8570:8571   */\n      dup3\n        /* \"#utility.yul\":8561:8568   */\n      dup3\n        /* \"#utility.yul\":8557:8572   */\n      div\n        /* \"#utility.yul\":8554:8555   */\n      dup5\n        /* \"#utility.yul\":8551:8573   */\n      eq\n        /* \"#utility.yul\":8531:8532   */\n      dup4\n        /* \"#utility.yul\":8524:8533   */\n      iszero\n        /* \"#utility.yul\":8504:8587   */\n      or\n        /* \"#utility.yul\":8481:8620   */\n      tag_289\n      jumpi\n        /* \"#utility.yul\":8600:8618   */\n      tag_290\n      tag_176\n      jump\t// in\n    tag_290:\n        /* \"#utility.yul\":8481:8620   */\n    tag_289:\n        /* \"#utility.yul\":8265:8627   */\n      pop\n        /* \"#utility.yul\":8217:8627   */\n      swap3\n      swap2\n      pop\n      pop\n      jump\t// out\n        /* \"#utility.yul\":8633:8802   */\n    tag_177:\n        /* \"#utility.yul\":8773:8794   */\n      0x48616c6620766f74656420616761696e73742e00000000000000000000000000\n        /* \"#utility.yul\":8769:8770   */\n      0x00\n        /* \"#utility.yul\":8761:8767   */\n      dup3\n        /* \"#utility.yul\":8757:8771   */\n      add\n        /* \"#utility.yul\":8750:8795   */\n      mstore\n        /* \"#utility.yul\":8633:8802   */\n      pop\n      jump\t// out\n        /* \"#utility.yul\":8808:9174   */\n    tag_178:\n        /* \"#utility.yul\":8950:8953   */\n      0x00\n        /* \"#utility.yul\":8971:9038   */\n      tag_293\n        /* \"#utility.yul\":9035:9037   */\n      0x13\n        /* \"#utility.yul\":9030:9033   */\n      dup4\n        /* \"#utility.yul\":8971:9038   */\n      tag_169\n      jump\t// in\n    tag_293:\n        /* \"#utility.yul\":8964:9038   */\n      swap2\n      pop\n        /* \"#utility.yul\":9047:9140   */\n      tag_294\n        /* \"#utility.yul\":9136:9139   */\n      dup3\n        /* \"#utility.yul\":9047:9140   */\n      tag_177\n      jump\t// in\n    tag_294:\n        /* \"#utility.yul\":9165:9167   */\n      0x20\n        /* \"#utility.yul\":9160:9163   */\n      dup3\n        /* \"#utility.yul\":9156:9168   */\n      add\n        /* \"#utility.yul\":9149:9168   */\n      swap1\n      pop\n        /* \"#utility.yul\":8808:9174   */\n      swap2\n      swap1\n      pop\n      jump\t// out\n        /* \"#utility.yul\":9180:9599   */\n    tag_68:\n        /* \"#utility.yul\":9346:9350   */\n      0x00\n        /* \"#utility.yul\":9384:9386   */\n      0x20\n        /* \"#utility.yul\":9373:9382   */\n      dup3\n        /* \"#utility.yul\":9369:9387   */\n      add\n        /* \"#utility.yul\":9361:9387   */\n      swap1\n      pop\n        /* \"#utility.yul\":9433:9442   */\n      dup2\n        /* \"#utility.yul\":9427:9431   */\n      dup2\n        /* \"#utility.yul\":9423:9443   */\n      sub\n        /* \"#utility.yul\":9419:9420   */\n      0x00\n        /* \"#utility.yul\":9408:9417   */\n      dup4\n        /* \"#utility.yul\":9404:9421   */\n      add\n        /* \"#utility.yul\":9397:9444   */\n      mstore\n        /* \"#utility.yul\":9461:9592   */\n      tag_296\n        /* \"#utility.yul\":9587:9591   */\n      dup2\n        /* \"#utility.yul\":9461:9592   */\n      tag_178\n      jump\t// in\n    tag_296:\n        /* \"#utility.yul\":9453:9592   */\n      swap1\n      pop\n        /* \"#utility.yul\":9180:9599   */\n      swap2\n      swap1\n      pop\n      jump\t// out\n        /* \"#utility.yul\":9605:9771   */\n    tag_179:\n        /* \"#utility.yul\":9745:9763   */\n      0x546f6f206561726c792c206d6174652e00000000000000000000000000000000\n        /* \"#utility.yul\":9741:9742   */\n      0x00\n        /* \"#utility.yul\":9733:9739   */\n      dup3\n        /* \"#utility.yul\":9729:9743   */\n      add\n        /* \"#utility.yul\":9722:9764   */\n      mstore\n        /* \"#utility.yul\":9605:9771   */\n      pop\n      jump\t// out\n        /* \"#utility.yul\":9777:10143   */\n    tag_180:\n        /* \"#utility.yul\":9919:9922   */\n      0x00\n        /* \"#utility.yul\":9940:10007   */\n      tag_299\n        /* \"#utility.yul\":10004:10006   */\n      0x10\n        /* \"#utility.yul\":9999:10002   */\n      dup4\n        /* \"#utility.yul\":9940:10007   */\n      tag_169\n      jump\t// in\n    tag_299:\n        /* \"#utility.yul\":9933:10007   */\n      swap2\n      pop\n        /* \"#utility.yul\":10016:10109   */\n      tag_300\n        /* \"#utility.yul\":10105:10108   */\n      dup3\n        /* \"#utility.yul\":10016:10109   */\n      tag_179\n      jump\t// in\n    tag_300:\n        /* \"#utility.yul\":10134:10136   */\n      0x20\n        /* \"#utility.yul\":10129:10132   */\n      dup3\n        /* \"#utility.yul\":10125:10137   */\n      add\n        /* \"#utility.yul\":10118:10137   */\n      swap1\n      pop\n        /* \"#utility.yul\":9777:10143   */\n      swap2\n      swap1\n      pop\n      jump\t// out\n        /* \"#utility.yul\":10149:10568   */\n    tag_72:\n        /* \"#utility.yul\":10315:10319   */\n      0x00\n        /* \"#utility.yul\":10353:10355   */\n      0x20\n        /* \"#utility.yul\":10342:10351   */\n      dup3\n        /* \"#utility.yul\":10338:10356   */\n      add\n        /* \"#utility.yul\":10330:10356   */\n      swap1\n      pop\n        /* \"#utility.yul\":10402:10411   */\n      dup2\n        /* \"#utility.yul\":10396:10400   */\n      dup2\n        /* \"#utility.yul\":10392:10412   */\n      sub\n        /* \"#utility.yul\":10388:10389   */\n      0x00\n        /* \"#utility.yul\":10377:10386   */\n      dup4\n        /* \"#utility.yul\":10373:10390   */\n      add\n        /* \"#utility.yul\":10366:10413   */\n      mstore\n        /* \"#utility.yul\":10430:10561   */\n      tag_302\n        /* \"#utility.yul\":10556:10560   */\n      dup2\n        /* \"#utility.yul\":10430:10561   */\n      tag_180\n      jump\t// in\n    tag_302:\n        /* \"#utility.yul\":10422:10561   */\n      swap1\n      pop\n        /* \"#utility.yul\":10149:10568   */\n      swap2\n      swap1\n      pop\n      jump\t// out\n        /* \"#utility.yul\":10574:10741   */\n    tag_181:\n        /* \"#utility.yul\":10714:10733   */\n      0x4f6e6c79207061727469636970616e742e000000000000000000000000000000\n        /* \"#utility.yul\":10710:10711   */\n      0x00\n        /* \"#utility.yul\":10702:10708   */\n      dup3\n        /* \"#utility.yul\":10698:10712   */\n      add\n        /* \"#utility.yul\":10691:10734   */\n      mstore\n        /* \"#utility.yul\":10574:10741   */\n      pop\n      jump\t// out\n        /* \"#utility.yul\":10747:11113   */\n    tag_182:\n        /* \"#utility.yul\":10889:10892   */\n      0x00\n        /* \"#utility.yul\":10910:10977   */\n      tag_305\n        /* \"#utility.yul\":10974:10976   */\n      0x11\n        /* \"#utility.yul\":10969:10972   */\n      dup4\n        /* \"#utility.yul\":10910:10977   */\n      tag_169\n      jump\t// in\n    tag_305:\n        /* \"#utility.yul\":10903:10977   */\n      swap2\n      pop\n        /* \"#utility.yul\":10986:11079   */\n      tag_306\n        /* \"#utility.yul\":11075:11078   */\n      dup3\n        /* \"#utility.yul\":10986:11079   */\n      tag_181\n      jump\t// in\n    tag_306:\n        /* \"#utility.yul\":11104:11106   */\n      0x20\n        /* \"#utility.yul\":11099:11102   */\n      dup3\n        /* \"#utility.yul\":11095:11107   */\n      add\n        /* \"#utility.yul\":11088:11107   */\n      swap1\n      pop\n        /* \"#utility.yul\":10747:11113   */\n      swap2\n      swap1\n      pop\n      jump\t// out\n        /* \"#utility.yul\":11119:11538   */\n    tag_84:\n        /* \"#utility.yul\":11285:11289   */\n      0x00\n        /* \"#utility.yul\":11323:11325   */\n      0x20\n        /* \"#utility.yul\":11312:11321   */\n      dup3\n        /* \"#utility.yul\":11308:11326   */\n      add\n        /* \"#utility.yul\":11300:11326   */\n      swap1\n      pop\n        /* \"#utility.yul\":11372:11381   */\n      dup2\n        /* \"#utility.yul\":11366:11370   */\n      dup2\n        /* \"#utility.yul\":11362:11382   */\n      sub\n        /* \"#utility.yul\":11358:11359   */\n      0x00\n        /* \"#utility.yul\":11347:11356   */\n      dup4\n        /* \"#utility.yul\":11343:11360   */\n      add\n        /* \"#utility.yul\":11336:11383   */\n      mstore\n        /* \"#utility.yul\":11400:11531   */\n      tag_308\n        /* \"#utility.yul\":11526:11530   */\n      dup2\n        /* \"#utility.yul\":11400:11531   */\n      tag_182\n      jump\t// in\n    tag_308:\n        /* \"#utility.yul\":11392:11531   */\n      swap1\n      pop\n        /* \"#utility.yul\":11119:11538   */\n      swap2\n      swap1\n      pop\n      jump\t// out\n        /* \"#utility.yul\":11544:11705   */\n    tag_183:\n        /* \"#utility.yul\":11684:11697   */\n      0x4f6e6c7920756e7765642e000000000000000000000000000000000000000000\n        /* \"#utility.yul\":11680:11681   */\n      0x00\n        /* \"#utility.yul\":11672:11678   */\n      dup3\n        /* \"#utility.yul\":11668:11682   */\n      add\n        /* \"#utility.yul\":11661:11698   */\n      mstore\n        /* \"#utility.yul\":11544:11705   */\n      pop\n      jump\t// out\n        /* \"#utility.yul\":11711:12077   */\n    tag_184:\n        /* \"#utility.yul\":11853:11856   */\n      0x00\n        /* \"#utility.yul\":11874:11941   */\n      tag_311\n        /* \"#utility.yul\":11938:11940   */\n      0x0b\n        /* \"#utility.yul\":11933:11936   */\n      dup4\n        /* \"#utility.yul\":11874:11941   */\n      tag_169\n      jump\t// in\n    tag_311:\n        /* \"#utility.yul\":11867:11941   */\n      swap2\n      pop\n        /* \"#utility.yul\":11950:12043   */\n      tag_312\n        /* \"#utility.yul\":12039:12042   */\n      dup3\n        /* \"#utility.yul\":11950:12043   */\n      tag_183\n      jump\t// in\n    tag_312:\n        /* \"#utility.yul\":12068:12070   */\n      0x20\n        /* \"#utility.yul\":12063:12066   */\n      dup3\n        /* \"#utility.yul\":12059:12071   */\n      add\n        /* \"#utility.yul\":12052:12071   */\n      swap1\n      pop\n        /* \"#utility.yul\":11711:12077   */\n      swap2\n      swap1\n      pop\n      jump\t// out\n        /* \"#utility.yul\":12083:12502   */\n    tag_99:\n        /* \"#utility.yul\":12249:12253   */\n      0x00\n        /* \"#utility.yul\":12287:12289   */\n      0x20\n        /* \"#utility.yul\":12276:12285   */\n      dup3\n        /* \"#utility.yul\":12272:12290   */\n      add\n        /* \"#utility.yul\":12264:12290   */\n      swap1\n      pop\n        /* \"#utility.yul\":12336:12345   */\n      dup2\n        /* \"#utility.yul\":12330:12334   */\n      dup2\n        /* \"#utility.yul\":12326:12346   */\n      sub\n        /* \"#utility.yul\":12322:12323   */\n      0x00\n        /* \"#utility.yul\":12311:12320   */\n      dup4\n        /* \"#utility.yul\":12307:12324   */\n      add\n        /* \"#utility.yul\":12300:12347   */\n      mstore\n        /* \"#utility.yul\":12364:12495   */\n      tag_314\n        /* \"#utility.yul\":12490:12494   */\n      dup2\n        /* \"#utility.yul\":12364:12495   */\n      tag_184\n      jump\t// in\n    tag_314:\n        /* \"#utility.yul\":12356:12495   */\n      swap1\n      pop\n        /* \"#utility.yul\":12083:12502   */\n      swap2\n      swap1\n      pop\n      jump\t// out\n        /* \"#utility.yul\":12508:12607   */\n    tag_185:\n        /* \"#utility.yul\":12560:12566   */\n      0x00\n        /* \"#utility.yul\":12594:12599   */\n      dup2\n        /* \"#utility.yul\":12588:12600   */\n      mload\n        /* \"#utility.yul\":12578:12600   */\n      swap1\n      pop\n        /* \"#utility.yul\":12508:12607   */\n      swap2\n      swap1\n      pop\n      jump\t// out\n        /* \"#utility.yul\":12613:12793   */\n    tag_186:\n        /* \"#utility.yul\":12661:12738   */\n      0x4e487b7100000000000000000000000000000000000000000000000000000000\n        /* \"#utility.yul\":12658:12659   */\n      0x00\n        /* \"#utility.yul\":12651:12739   */\n      mstore\n        /* \"#utility.yul\":12758:12762   */\n      0x22\n        /* \"#utility.yul\":12755:12756   */\n      0x04\n        /* \"#utility.yul\":12748:12763   */\n      mstore\n        /* \"#utility.yul\":12782:12786   */\n      0x24\n        /* \"#utility.yul\":12779:12780   */\n      0x00\n        /* \"#utility.yul\":12772:12787   */\n      revert\n        /* \"#utility.yul\":12799:13119   */\n    tag_187:\n        /* \"#utility.yul\":12843:12849   */\n      0x00\n        /* \"#utility.yul\":12880:12881   */\n      0x02\n        /* \"#utility.yul\":12874:12878   */\n      dup3\n        /* \"#utility.yul\":12870:12882   */\n      div\n        /* \"#utility.yul\":12860:12882   */\n      swap1\n      pop\n        /* \"#utility.yul\":12927:12928   */\n      0x01\n        /* \"#utility.yul\":12921:12925   */\n      dup3\n        /* \"#utility.yul\":12917:12929   */\n      and\n        /* \"#utility.yul\":12948:12966   */\n      dup1\n        /* \"#utility.yul\":12938:13019   */\n      tag_318\n      jumpi\n        /* \"#utility.yul\":13004:13008   */\n      0x7f\n        /* \"#utility.yul\":12996:13002   */\n      dup3\n        /* \"#utility.yul\":12992:13009   */\n      and\n        /* \"#utility.yul\":12982:13009   */\n      swap2\n      pop\n        /* \"#utility.yul\":12938:13019   */\n    tag_318:\n        /* \"#utility.yul\":13066:13068   */\n      0x20\n        /* \"#utility.yul\":13058:13064   */\n      dup3\n        /* \"#utility.yul\":13055:13069   */\n      lt\n        /* \"#utility.yul\":13035:13053   */\n      dup2\n        /* \"#utility.yul\":13032:13070   */\n      sub\n        /* \"#utility.yul\":13029:13113   */\n      tag_319\n      jumpi\n        /* \"#utility.yul\":13085:13103   */\n      tag_320\n      tag_186\n      jump\t// in\n    tag_320:\n        /* \"#utility.yul\":13029:13113   */\n    tag_319:\n        /* \"#utility.yul\":12850:13119   */\n      pop\n        /* \"#utility.yul\":12799:13119   */\n      swap2\n      swap1\n      pop\n      jump\t// out\n        /* \"#utility.yul\":13125:13266   */\n    tag_188:\n        /* \"#utility.yul\":13174:13178   */\n      0x00\n        /* \"#utility.yul\":13197:13200   */\n      dup2\n        /* \"#utility.yul\":13189:13200   */\n      swap1\n      pop\n        /* \"#utility.yul\":13220:13223   */\n      dup2\n        /* \"#utility.yul\":13217:13218   */\n      0x00\n        /* \"#utility.yul\":13210:13224   */\n      mstore\n        /* \"#utility.yul\":13254:13258   */\n      0x20\n        /* \"#utility.yul\":13251:13252   */\n      0x00\n        /* \"#utility.yul\":13241:13259   */\n      keccak256\n        /* \"#utility.yul\":13233:13259   */\n      swap1\n      pop\n        /* \"#utility.yul\":13125:13266   */\n      swap2\n      swap1\n      pop\n      jump\t// out\n        /* \"#utility.yul\":13272:13365   */\n    tag_189:\n        /* \"#utility.yul\":13309:13315   */\n      0x00\n        /* \"#utility.yul\":13356:13358   */\n      0x20\n        /* \"#utility.yul\":13351:13353   */\n      0x1f\n        /* \"#utility.yul\":13344:13349   */\n      dup4\n        /* \"#utility.yul\":13340:13354   */\n      add\n        /* \"#utility.yul\":13336:13359   */\n      div\n        /* \"#utility.yul\":13326:13359   */\n      swap1\n      pop\n        /* \"#utility.yul\":13272:13365   */\n      swap2\n      swap1\n      pop\n      jump\t// out\n        /* \"#utility.yul\":13371:13478   */\n    tag_190:\n        /* \"#utility.yul\":13415:13423   */\n      0x00\n        /* \"#utility.yul\":13465:13470   */\n      dup3\n        /* \"#utility.yul\":13459:13463   */\n      dup3\n        /* \"#utility.yul\":13455:13471   */\n      shl\n        /* \"#utility.yul\":13434:13471   */\n      swap1\n      pop\n        /* \"#utility.yul\":13371:13478   */\n      swap3\n      swap2\n      pop\n      pop\n      jump\t// out\n        /* \"#utility.yul\":13484:13877   */\n    tag_191:\n        /* \"#utility.yul\":13553:13559   */\n      0x00\n        /* \"#utility.yul\":13603:13604   */\n      0x08\n        /* \"#utility.yul\":13591:13601   */\n      dup4\n        /* \"#utility.yul\":13587:13605   */\n      mul\n        /* \"#utility.yul\":13626:13723   */\n      tag_325\n        /* \"#utility.yul\":13656:13722   */\n      0xffffffffffffffffffffffffffffffffffffffffffffffffffffffffffffffff\n        /* \"#utility.yul\":13645:13654   */\n      dup3\n        /* \"#utility.yul\":13626:13723   */\n      tag_190\n      jump\t// in\n    tag_325:\n        /* \"#utility.yul\":13744:13783   */\n      tag_326\n        /* \"#utility.yul\":13774:13782   */\n      dup7\n        /* \"#utility.yul\":13763:13772   */\n      dup4\n        /* \"#utility.yul\":13744:13783   */\n      tag_190\n      jump\t// in\n    tag_326:\n        /* \"#utility.yul\":13732:13783   */\n      swap6\n      pop\n        /* \"#utility.yul\":13816:13820   */\n      dup1\n        /* \"#utility.yul\":13812:13821   */\n      not\n        /* \"#utility.yul\":13805:13810   */\n      dup5\n        /* \"#utility.yul\":13801:13822   */\n      and\n        /* \"#utility.yul\":13792:13822   */\n      swap4\n      pop\n        /* \"#utility.yul\":13865:13869   */\n      dup1\n        /* \"#utility.yul\":13855:13863   */\n      dup7\n        /* \"#utility.yul\":13851:13870   */\n      and\n        /* \"#utility.yul\":13844:13849   */\n      dup5\n        /* \"#utility.yul\":13841:13871   */\n      or\n        /* \"#utility.yul\":13831:13871   */\n      swap3\n      pop\n        /* \"#utility.yul\":13560:13877   */\n      pop\n      pop\n        /* \"#utility.yul\":13484:13877   */\n      swap4\n      swap3\n      pop\n      pop\n      pop\n      jump\t// out\n        /* \"#utility.yul\":13883:13943   */\n    tag_192:\n        /* \"#utility.yul\":13911:13914   */\n      0x00\n        /* \"#utility.yul\":13932:13937   */\n      dup2\n        /* \"#utility.yul\":13925:13937   */\n      swap1\n      pop\n        /* \"#utility.yul\":13883:13943   */\n      swap2\n      swap1\n      pop\n      jump\t// out\n        /* \"#utility.yul\":13949:14091   */\n    tag_193:\n        /* \"#utility.yul\":13999:14008   */\n      0x00\n        /* \"#utility.yul\":14032:14085   */\n      tag_329\n        /* \"#utility.yul\":14050:14084   */\n      tag_330\n        /* \"#utility.yul\":14059:14083   */\n      tag_331\n        /* \"#utility.yul\":14077:14082   */\n      dup5\n        /* \"#utility.yul\":14059:14083   */\n      tag_156\n      jump\t// in\n    tag_331:\n        /* \"#utility.yul\":14050:14084   */\n      tag_192\n      jump\t// in\n    tag_330:\n        /* \"#utility.yul\":14032:14085   */\n      tag_156\n      jump\t// in\n    tag_329:\n        /* \"#utility.yul\":14019:14085   */\n      swap1\n      pop\n        /* \"#utility.yul\":13949:14091   */\n      swap2\n      swap1\n      pop\n      jump\t// out\n        /* \"#utility.yul\":14097:14172   */\n    tag_194:\n        /* \"#utility.yul\":14140:14143   */\n      0x00\n        /* \"#utility.yul\":14161:14166   */\n      dup2\n        /* \"#utility.yul\":14154:14166   */\n      swap1\n      pop\n        /* \"#utility.yul\":14097:14172   */\n      swap2\n      swap1\n      pop\n      jump\t// out\n        /* \"#utility.yul\":14178:14447   */\n    tag_195:\n        /* \"#utility.yul\":14288:14327   */\n      tag_334\n        /* \"#utility.yul\":14319:14326   */\n      dup4\n        /* \"#utility.yul\":14288:14327   */\n      tag_193\n      jump\t// in\n    tag_334:\n        /* \"#utility.yul\":14349:14440   */\n      tag_335\n        /* \"#utility.yul\":14398:14439   */\n      tag_336\n        /* \"#utility.yul\":14422:14438   */\n      dup3\n        /* \"#utility.yul\":14398:14439   */\n      tag_194\n      jump\t// in\n    tag_336:\n        /* \"#utility.yul\":14390:14396   */\n      dup5\n        /* \"#utility.yul\":14383:14387   */\n      dup5\n        /* \"#utility.yul\":14377:14388   */\n      sload\n        /* \"#utility.yul\":14349:14440   */\n      tag_191\n      jump\t// in\n    tag_335:\n        /* \"#utility.yul\":14343:14347   */\n      dup3\n        /* \"#utility.yul\":14336:14441   */\n      sstore\n        /* \"#utility.yul\":14254:14447   */\n      pop\n        /* \"#utility.yul\":14178:14447   */\n      pop\n      pop\n      pop\n      jump\t// out\n        /* \"#utility.yul\":14453:14526   */\n    tag_196:\n        /* \"#utility.yul\":14498:14501   */\n      0x00\n        /* \"#utility.yul\":14453:14526   */\n      swap1\n      jump\t// out\n        /* \"#utility.yul\":14532:14721   */\n    tag_197:\n        /* \"#utility.yul\":14609:14641   */\n      tag_339\n      tag_196\n      jump\t// in\n    tag_339:\n        /* \"#utility.yul\":14650:14715   */\n      tag_340\n        /* \"#utility.yul\":14708:14714   */\n      dup2\n        /* \"#utility.yul\":14700:14706   */\n      dup5\n        /* \"#utility.yul\":14694:14698   */\n      dup5\n        /* \"#utility.yul\":14650:14715   */\n      tag_195\n      jump\t// in\n    tag_340:\n        /* \"#utility.yul\":14585:14721   */\n      pop\n        /* \"#utility.yul\":14532:14721   */\n      pop\n      pop\n      jump\t// out\n        /* \"#utility.yul\":14727:14913   */\n    tag_198:\n        /* \"#utility.yul\":14787:14907   */\n    tag_342:\n        /* \"#utility.yul\":14804:14807   */\n      dup2\n        /* \"#utility.yul\":14797:14802   */\n      dup2\n        /* \"#utility.yul\":14794:14808   */\n      lt\n        /* \"#utility.yul\":14787:14907   */\n      iszero\n      tag_344\n      jumpi\n        /* \"#utility.yul\":14858:14897   */\n      tag_345\n        /* \"#utility.yul\":14895:14896   */\n      0x00\n        /* \"#utility.yul\":14888:14893   */\n      dup3\n        /* \"#utility.yul\":14858:14897   */\n      tag_197\n      jump\t// in\n    tag_345:\n        /* \"#utility.yul\":14831:14832   */\n      0x01\n        /* \"#utility.yul\":14824:14829   */\n      dup2\n        /* \"#utility.yul\":14820:14833   */\n      add\n        /* \"#utility.yul\":14811:14833   */\n      swap1\n      pop\n        /* \"#utility.yul\":14787:14907   */\n      jump(tag_342)\n    tag_344:\n        /* \"#utility.yul\":14727:14913   */\n      pop\n      pop\n      jump\t// out\n        /* \"#utility.yul\":14919:15462   */\n    tag_199:\n        /* \"#utility.yul\":15020:15022   */\n      0x1f\n        /* \"#utility.yul\":15015:15018   */\n      dup3\n        /* \"#utility.yul\":15012:15023   */\n      gt\n        /* \"#utility.yul\":15009:15455   */\n      iszero\n      tag_347\n      jumpi\n        /* \"#utility.yul\":15054:15092   */\n      tag_348\n        /* \"#utility.yul\":15086:15091   */\n      dup2\n        /* \"#utility.yul\":15054:15092   */\n      tag_188\n      jump\t// in\n    tag_348:\n        /* \"#utility.yul\":15138:15167   */\n      tag_349\n        /* \"#utility.yul\":15156:15166   */\n      dup5\n        /* \"#utility.yul\":15138:15167   */\n      tag_189\n      jump\t// in\n    tag_349:\n        /* \"#utility.yul\":15128:15136   */\n      dup2\n        /* \"#utility.yul\":15124:15168   */\n      add\n        /* \"#utility.yul\":15321:15323   */\n      0x20\n        /* \"#utility.yul\":15309:15319   */\n      dup6\n        /* \"#utility.yul\":15306:15324   */\n      lt\n        /* \"#utility.yul\":15303:15352   */\n      iszero\n      tag_350\n      jumpi\n        /* \"#utility.yul\":15342:15350   */\n      dup2\n        /* \"#utility.yul\":15327:15350   */\n      swap1\n      pop\n        /* \"#utility.yul\":15303:15352   */\n    tag_350:\n        /* \"#utility.yul\":15365:15445   */\n      tag_351\n        /* \"#utility.yul\":15421:15443   */\n      tag_352\n        /* \"#utility.yul\":15439:15442   */\n      dup6\n        /* \"#utility.yul\":15421:15443   */\n      tag_189\n      jump\t// in\n    tag_352:\n        /* \"#utility.yul\":15411:15419   */\n      dup4\n        /* \"#utility.yul\":15407:15444   */\n      add\n        /* \"#utility.yul\":15394:15405   */\n      dup3\n        /* \"#utility.yul\":15365:15445   */\n      tag_198\n      jump\t// in\n    tag_351:\n        /* \"#utility.yul\":15024:15455   */\n      pop\n      pop\n        /* \"#utility.yul\":15009:15455   */\n    tag_347:\n        /* \"#utility.yul\":14919:15462   */\n      pop\n      pop\n      pop\n      jump\t// out\n        /* \"#utility.yul\":15468:15585   */\n    tag_200:\n        /* \"#utility.yul\":15522:15530   */\n      0x00\n        /* \"#utility.yul\":15572:15577   */\n      dup3\n        /* \"#utility.yul\":15566:15570   */\n      dup3\n        /* \"#utility.yul\":15562:15578   */\n      shr\n        /* \"#utility.yul\":15541:15578   */\n      swap1\n      pop\n        /* \"#utility.yul\":15468:15585   */\n      swap3\n      swap2\n      pop\n      pop\n      jump\t// out\n        /* \"#utility.yul\":15591:15760   */\n    tag_201:\n        /* \"#utility.yul\":15635:15641   */\n      0x00\n        /* \"#utility.yul\":15668:15719   */\n      tag_355\n        /* \"#utility.yul\":15716:15717   */\n      0x00\n        /* \"#utility.yul\":15712:15718   */\n      not\n        /* \"#utility.yul\":15704:15709   */\n      dup5\n        /* \"#utility.yul\":15701:15702   */\n      0x08\n        /* \"#utility.yul\":15697:15710   */\n      mul\n        /* \"#utility.yul\":15668:15719   */\n      tag_200\n      jump\t// in\n    tag_355:\n        /* \"#utility.yul\":15664:15720   */\n      not\n        /* \"#utility.yul\":15749:15753   */\n      dup1\n        /* \"#utility.yul\":15743:15747   */\n      dup4\n        /* \"#utility.yul\":15739:15754   */\n      and\n        /* \"#utility.yul\":15729:15754   */\n      swap2\n      pop\n        /* \"#utility.yul\":15642:15760   */\n      pop\n        /* \"#utility.yul\":15591:15760   */\n      swap3\n      swap2\n      pop\n      pop\n      jump\t// out\n        /* \"#utility.yul\":15765:16060   */\n    tag_202:\n        /* \"#utility.yul\":15841:15845   */\n      0x00\n        /* \"#utility.yul\":15987:16016   */\n      tag_357\n        /* \"#utility.yul\":16012:16015   */\n      dup4\n        /* \"#utility.yul\":16006:16010   */\n      dup4\n        /* \"#utility.yul\":15987:16016   */\n      tag_201\n      jump\t// in\n    tag_357:\n        /* \"#utility.yul\":15979:16016   */\n      swap2\n      pop\n        /* \"#utility.yul\":16049:16052   */\n      dup3\n        /* \"#utility.yul\":16046:16047   */\n      0x02\n        /* \"#utility.yul\":16042:16053   */\n      mul\n        /* \"#utility.yul\":16036:16040   */\n      dup3\n        /* \"#utility.yul\":16033:16054   */\n      or\n        /* \"#utility.yul\":16025:16054   */\n      swap1\n      pop\n        /* \"#utility.yul\":15765:16060   */\n      swap3\n      swap2\n      pop\n      pop\n      jump\t// out\n        /* \"#utility.yul\":16065:17460   */\n    tag_103:\n        /* \"#utility.yul\":16182:16219   */\n      tag_359\n        /* \"#utility.yul\":16215:16218   */\n      dup3\n        /* \"#utility.yul\":16182:16219   */\n      tag_185\n      jump\t// in\n    tag_359:\n        /* \"#utility.yul\":16284:16302   */\n      0xffffffffffffffff\n        /* \"#utility.yul\":16276:16282   */\n      dup2\n        /* \"#utility.yul\":16273:16303   */\n      gt\n        /* \"#utility.yul\":16270:16326   */\n      iszero\n      tag_360\n      jumpi\n        /* \"#utility.yul\":16306:16324   */\n      tag_361\n      tag_162\n      jump\t// in\n    tag_361:\n        /* \"#utility.yul\":16270:16326   */\n    tag_360:\n        /* \"#utility.yul\":16350:16388   */\n      tag_362\n        /* \"#utility.yul\":16382:16386   */\n      dup3\n        /* \"#utility.yul\":16376:16387   */\n      sload\n        /* \"#utility.yul\":16350:16388   */\n      tag_187\n      jump\t// in\n    tag_362:\n        /* \"#utility.yul\":16435:16502   */\n      tag_363\n        /* \"#utility.yul\":16495:16501   */\n      dup3\n        /* \"#utility.yul\":16487:16493   */\n      dup3\n        /* \"#utility.yul\":16481:16485   */\n      dup6\n        /* \"#utility.yul\":16435:16502   */\n      tag_199\n      jump\t// in\n    tag_363:\n        /* \"#utility.yul\":16529:16530   */\n      0x00\n        /* \"#utility.yul\":16553:16557   */\n      0x20\n        /* \"#utility.yul\":16540:16557   */\n      swap1\n      pop\n        /* \"#utility.yul\":16585:16587   */\n      0x1f\n        /* \"#utility.yul\":16577:16583   */\n      dup4\n        /* \"#utility.yul\":16574:16588   */\n      gt\n        /* \"#utility.yul\":16602:16603   */\n      0x01\n        /* \"#utility.yul\":16597:17215   */\n      dup2\n      eq\n      tag_365\n      jumpi\n        /* \"#utility.yul\":17259:17260   */\n      0x00\n        /* \"#utility.yul\":17276:17282   */\n      dup5\n        /* \"#utility.yul\":17273:17350   */\n      iszero\n      tag_366\n      jumpi\n        /* \"#utility.yul\":17325:17334   */\n      dup3\n        /* \"#utility.yul\":17320:17323   */\n      dup8\n        /* \"#utility.yul\":17316:17335   */\n      add\n        /* \"#utility.yul\":17310:17336   */\n      mload\n        /* \"#utility.yul\":17301:17336   */\n      swap1\n      pop\n        /* \"#utility.yul\":17273:17350   */\n    tag_366:\n        /* \"#utility.yul\":17376:17443   */\n      tag_367\n        /* \"#utility.yul\":17436:17442   */\n      dup6\n        /* \"#utility.yul\":17429:17434   */\n      dup3\n        /* \"#utility.yul\":17376:17443   */\n      tag_202\n      jump\t// in\n    tag_367:\n        /* \"#utility.yul\":17370:17374   */\n      dup7\n        /* \"#utility.yul\":17363:17444   */\n      sstore\n        /* \"#utility.yul\":17232:17454   */\n      pop\n        /* \"#utility.yul\":16567:17454   */\n      jump(tag_364)\n        /* \"#utility.yul\":16597:17215   */\n    tag_365:\n        /* \"#utility.yul\":16649:16653   */\n      0x1f\n        /* \"#utility.yul\":16645:16654   */\n      not\n        /* \"#utility.yul\":16637:16643   */\n      dup5\n        /* \"#utility.yul\":16633:16655   */\n      and\n        /* \"#utility.yul\":16683:16720   */\n      tag_368\n        /* \"#utility.yul\":16715:16719   */\n      dup7\n        /* \"#utility.yul\":16683:16720   */\n      tag_188\n      jump\t// in\n    tag_368:\n        /* \"#utility.yul\":16742:16743   */\n      0x00\n        /* \"#utility.yul\":16756:16964   */\n    tag_369:\n        /* \"#utility.yul\":16770:16777   */\n      dup3\n        /* \"#utility.yul\":16767:16768   */\n      dup2\n        /* \"#utility.yul\":16764:16778   */\n      lt\n        /* \"#utility.yul\":16756:16964   */\n      iszero\n      tag_371\n      jumpi\n        /* \"#utility.yul\":16849:16858   */\n      dup5\n        /* \"#utility.yul\":16844:16847   */\n      dup10\n        /* \"#utility.yul\":16840:16859   */\n      add\n        /* \"#utility.yul\":16834:16860   */\n      mload\n        /* \"#utility.yul\":16826:16832   */\n      dup3\n        /* \"#utility.yul\":16819:16861   */\n      sstore\n        /* \"#utility.yul\":16900:16901   */\n      0x01\n        /* \"#utility.yul\":16892:16898   */\n      dup3\n        /* \"#utility.yul\":16888:16902   */\n      add\n        /* \"#utility.yul\":16878:16902   */\n      swap2\n      pop\n        /* \"#utility.yul\":16947:16949   */\n      0x20\n        /* \"#utility.yul\":16936:16945   */\n      dup6\n        /* \"#utility.yul\":16932:16950   */\n      add\n        /* \"#utility.yul\":16919:16950   */\n      swap5\n      pop\n        /* \"#utility.yul\":16793:16797   */\n      0x20\n        /* \"#utility.yul\":16790:16791   */\n      dup2\n        /* \"#utility.yul\":16786:16798   */\n      add\n        /* \"#utility.yul\":16781:16798   */\n      swap1\n      pop\n        /* \"#utility.yul\":16756:16964   */\n      jump(tag_369)\n    tag_371:\n        /* \"#utility.yul\":16992:16998   */\n      dup7\n        /* \"#utility.yul\":16983:16990   */\n      dup4\n        /* \"#utility.yul\":16980:16999   */\n      lt\n        /* \"#utility.yul\":16977:17156   */\n      iszero\n      tag_372\n      jumpi\n        /* \"#utility.yul\":17050:17059   */\n      dup5\n        /* \"#utility.yul\":17045:17048   */\n      dup10\n        /* \"#utility.yul\":17041:17060   */\n      add\n        /* \"#utility.yul\":17035:17061   */\n      mload\n        /* \"#utility.yul\":17093:17141   */\n      tag_373\n        /* \"#utility.yul\":17135:17139   */\n      0x1f\n        /* \"#utility.yul\":17127:17133   */\n      dup10\n        /* \"#utility.yul\":17123:17140   */\n      and\n        /* \"#utility.yul\":17112:17121   */\n      dup3\n        /* \"#utility.yul\":17093:17141   */\n      tag_201\n      jump\t// in\n    tag_373:\n        /* \"#utility.yul\":17085:17091   */\n      dup4\n        /* \"#utility.yul\":17078:17142   */\n      sstore\n        /* \"#utility.yul\":17000:17156   */\n      pop\n        /* \"#utility.yul\":16977:17156   */\n    tag_372:\n        /* \"#utility.yul\":17202:17203   */\n      0x01\n        /* \"#utility.yul\":17198:17199   */\n      0x02\n        /* \"#utility.yul\":17190:17196   */\n      dup9\n        /* \"#utility.yul\":17186:17200   */\n      mul\n        /* \"#utility.yul\":17182:17204   */\n      add\n        /* \"#utility.yul\":17176:17180   */\n      dup9\n        /* \"#utility.yul\":17169:17205   */\n      sstore\n        /* \"#utility.yul\":16604:17215   */\n      pop\n      pop\n      pop\n        /* \"#utility.yul\":16567:17454   */\n    tag_364:\n      pop\n        /* \"#utility.yul\":16157:17460   */\n      pop\n      pop\n      pop\n        /* \"#utility.yul\":16065:17460   */\n      pop\n      pop\n      jump\t// out\n        /* \"#utility.yul\":17466:17644   */\n    tag_203:\n        /* \"#utility.yul\":17606:17636   */\n      0x4f6e6c7920636f6e6669726d6564207061727469636970616e74732e00000000\n        /* \"#utility.yul\":17602:17603   */\n      0x00\n        /* \"#utility.yul\":17594:17600   */\n      dup3\n        /* \"#utility.yul\":17590:17604   */\n      add\n        /* \"#utility.yul\":17583:17637   */\n      mstore\n        /* \"#utility.yul\":17466:17644   */\n      pop\n      jump\t// out\n        /* \"#utility.yul\":17650:18016   */\n    tag_204:\n        /* \"#utility.yul\":17792:17795   */\n      0x00\n        /* \"#utility.yul\":17813:17880   */\n      tag_376\n        /* \"#utility.yul\":17877:17879   */\n      0x1c\n        /* \"#utility.yul\":17872:17875   */\n      dup4\n        /* \"#utility.yul\":17813:17880   */\n      tag_169\n      jump\t// in\n    tag_376:\n        /* \"#utility.yul\":17806:17880   */\n      swap2\n      pop\n        /* \"#utility.yul\":17889:17982   */\n      tag_377\n        /* \"#utility.yul\":17978:17981   */\n      dup3\n        /* \"#utility.yul\":17889:17982   */\n      tag_203\n      jump\t// in\n    tag_377:\n        /* \"#utility.yul\":18007:18009   */\n      0x20\n        /* \"#utility.yul\":18002:18005   */\n      dup3\n        /* \"#utility.yul\":17998:18010   */\n      add\n        /* \"#utility.yul\":17991:18010   */\n      swap1\n      pop\n        /* \"#utility.yul\":17650:18016   */\n      swap2\n      swap1\n      pop\n      jump\t// out\n        /* \"#utility.yul\":18022:18441   */\n    tag_110:\n        /* \"#utility.yul\":18188:18192   */\n      0x00\n        /* \"#utility.yul\":18226:18228   */\n      0x20\n        /* \"#utility.yul\":18215:18224   */\n      dup3\n        /* \"#utility.yul\":18211:18229   */\n      add\n        /* \"#utility.yul\":18203:18229   */\n      swap1\n      pop\n        /* \"#utility.yul\":18275:18284   */\n      dup2\n        /* \"#utility.yul\":18269:18273   */\n      dup2\n        /* \"#utility.yul\":18265:18285   */\n      sub\n        /* \"#utility.yul\":18261:18262   */\n      0x00\n        /* \"#utility.yul\":18250:18259   */\n      dup4\n        /* \"#utility.yul\":18246:18263   */\n      add\n        /* \"#utility.yul\":18239:18286   */\n      mstore\n        /* \"#utility.yul\":18303:18434   */\n      tag_379\n        /* \"#utility.yul\":18429:18433   */\n      dup2\n        /* \"#utility.yul\":18303:18434   */\n      tag_204\n      jump\t// in\n    tag_379:\n        /* \"#utility.yul\":18295:18434   */\n      swap1\n      pop\n        /* \"#utility.yul\":18022:18441   */\n      swap2\n      swap1\n      pop\n      jump\t// out\n\n    auxdata: 0xa2646970667358221220144dd7feb9f2647d303dfa3c483587ef773552c0914dba823f605098001f1c2c64736f6c63430008120033\n}\n",
				"bytecode": {
					"linkReferences": {},
					"object": "608060405234801561001057600080fd5b5061246b806100206000396000f3fe608060405234801561001057600080fd5b506004361061007d5760003560e01c8063728f11121161005b578063728f1112146100b25780637bcd97af146100bc5780639f396cff146100d8578063a64b959f146100e25761007d565b8063266ae81c1461008257806368aee9e81461009e5780636d955eb5146100a8575b600080fd5b61009c60048036038101906100979190611aa2565b6100ec565b005b6100a66102c3565b005b6100b06107f9565b005b6100ba610ac1565b005b6100d660048036038101906100d19190611c4b565b610eb0565b005b6100e061127c565b005b6100ea6113da565b005b6000800160009054906101000a900473ffffffffffffffffffffffffffffffffffffffff1673ffffffffffffffffffffffffffffffffffffffff163373ffffffffffffffffffffffffffffffffffffffff16148061019a5750600160000160009054906101000a900473ffffffffffffffffffffffffffffffffffffffff1673ffffffffffffffffffffffffffffffffffffffff163373ffffffffffffffffffffffffffffffffffffffff16145b6101d9576040517f08c379a00000000000000000000000000000000000000000000000000000000081526004016101d090611d04565b60405180910390fd5b600460405180606001604052808373ffffffffffffffffffffffffffffffffffffffff168152602001600015158152602001600015158152509080600181540180825580915050600190039060005260206000200160009091909190915060008201518160000160006101000a81548173ffffffffffffffffffffffffffffffffffffffff021916908373ffffffffffffffffffffffffffffffffffffffff16021790555060208201518160000160146101000a81548160ff02191690831515021790555060408201518160000160156101000a81548160ff021916908315150217905550505050565b6000800160009054906101000a900473ffffffffffffffffffffffffffffffffffffffff1673ffffffffffffffffffffffffffffffffffffffff163373ffffffffffffffffffffffffffffffffffffffff1614806103715750600160000160009054906101000a900473ffffffffffffffffffffffffffffffffffffffff1673ffffffffffffffffffffffffffffffffffffffff163373ffffffffffffffffffffffffffffffffffffffff16145b6103b0576040517f08c379a00000000000000000000000000000000000000000000000000000000081526004016103a790611d04565b60405180910390fd5b6000800160159054906101000a900460ff16610401576040517f08c379a00000000000000000000000000000000000000000000000000000000081526004016103f890611d96565b60405180910390fd5b600160000160159054906101000a900460ff16610453576040517f08c379a000000000000000000000000000000000000000000000000000000000815260040161044a90611e28565b60405180910390fd5b60008060005b6004805490508110156104ff576004818154811061047a57610479611e48565b5b9060005260206000200160000160149054906101000a900460ff16156104ec5781806104a590611ea6565b925050600481815481106104bc576104bb611e48565b5b9060005260206000200160000160159054906101000a900460ff16156104eb5782806104e790611ea6565b9350505b5b80806104f790611ea6565b915050610459565b508060028361050e9190611eee565b1061054e576040517f08c379a000000000000000000000000000000000000000000000000000000000815260040161054590611f7c565b60405180910390fd5b600254421015610593576040517f08c379a000000000000000000000000000000000000000000000000000000000815260040161058a90611fe8565b60405180910390fd5b60405180608001604052806000800160009054906101000a900473ffffffffffffffffffffffffffffffffffffffff1673ffffffffffffffffffffffffffffffffffffffff1681526020016001151581526020016000800160159054906101000a900460ff16151581526020016000800160169054906101000a900460ff1615158152506000808201518160000160006101000a81548173ffffffffffffffffffffffffffffffffffffffff021916908373ffffffffffffffffffffffffffffffffffffffff16021790555060208201518160000160146101000a81548160ff02191690831515021790555060408201518160000160156101000a81548160ff02191690831515021790555060608201518160000160166101000a81548160ff0219169083151502179055509050506040518060800160405280600160000160009054906101000a900473ffffffffffffffffffffffffffffffffffffffff1673ffffffffffffffffffffffffffffffffffffffff168152602001600115158152602001600160000160159054906101000a900460ff1615158152602001600160000160169054906101000a900460ff161515815250600160008201518160000160006101000a81548173ffffffffffffffffffffffffffffffffffffffff021916908373ffffffffffffffffffffffffffffffffffffffff16021790555060208201518160000160146101000a81548160ff02191690831515021790555060408201518160000160156101000a81548160ff02191690831515021790555060608201518160000160166101000a81548160ff0219169083151502179055509050505050565b6000800160009054906101000a900473ffffffffffffffffffffffffffffffffffffffff1673ffffffffffffffffffffffffffffffffffffffff163373ffffffffffffffffffffffffffffffffffffffff1614806108a75750600160000160009054906101000a900473ffffffffffffffffffffffffffffffffffffffff1673ffffffffffffffffffffffffffffffffffffffff163373ffffffffffffffffffffffffffffffffffffffff16145b6108e6576040517f08c379a00000000000000000000000000000000000000000000000000000000081526004016108dd90611d04565b60405180910390fd5b6040518060800160405280600073ffffffffffffffffffffffffffffffffffffffff168152602001600015158152602001600015158152602001600015158152506000808201518160000160006101000a81548173ffffffffffffffffffffffffffffffffffffffff021916908373ffffffffffffffffffffffffffffffffffffffff16021790555060208201518160000160146101000a81548160ff02191690831515021790555060408201518160000160156101000a81548160ff02191690831515021790555060608201518160000160166101000a81548160ff0219169083151502179055509050506040518060800160405280600073ffffffffffffffffffffffffffffffffffffffff16815260200160001515815260200160001515815260200160001515815250600160008201518160000160006101000a81548173ffffffffffffffffffffffffffffffffffffffff021916908373ffffffffffffffffffffffffffffffffffffffff16021790555060208201518160000160146101000a81548160ff02191690831515021790555060408201518160000160156101000a81548160ff02191690831515021790555060608201518160000160166101000a81548160ff021916908315150217905550905050565b600073ffffffffffffffffffffffffffffffffffffffff16610ae2336117a4565b6000015173ffffffffffffffffffffffffffffffffffffffff1603610b3c576040517f08c379a0000000000000000000000000000000000000000000000000000000008152600401610b3390612054565b60405180910390fd5b6000610b47336117a4565b90506000610b5433611941565b9050600480549050811015610eac576040518060600160405280836000015173ffffffffffffffffffffffffffffffffffffffff1681526020016001151581526020018360400151151581525060048281548110610bb557610bb4611e48565b5b9060005260206000200160008201518160000160006101000a81548173ffffffffffffffffffffffffffffffffffffffff021916908373ffffffffffffffffffffffffffffffffffffffff16021790555060208201518160000160146101000a81548160ff02191690831515021790555060408201518160000160156101000a81548160ff02191690831515021790555090505060405180608001604052806000800160009054906101000a900473ffffffffffffffffffffffffffffffffffffffff1673ffffffffffffffffffffffffffffffffffffffff1681526020016000800160149054906101000a900460ff16151581526020016000151581526020016000800160169054906101000a900460ff1615158152506000808201518160000160006101000a81548173ffffffffffffffffffffffffffffffffffffffff021916908373ffffffffffffffffffffffffffffffffffffffff16021790555060208201518160000160146101000a81548160ff02191690831515021790555060408201518160000160156101000a81548160ff02191690831515021790555060608201518160000160166101000a81548160ff0219169083151502179055509050506040518060800160405280600160000160009054906101000a900473ffffffffffffffffffffffffffffffffffffffff1673ffffffffffffffffffffffffffffffffffffffff168152602001600160000160149054906101000a900460ff1615158152602001600015158152602001600160000160169054906101000a900460ff161515815250600160008201518160000160006101000a81548173ffffffffffffffffffffffffffffffffffffffff021916908373ffffffffffffffffffffffffffffffffffffffff16021790555060208201518160000160146101000a81548160ff02191690831515021790555060408201518160000160156101000a81548160ff02191690831515021790555060608201518160000160166101000a81548160ff0219169083151502179055509050505b5050565b600080800160009054906101000a900473ffffffffffffffffffffffffffffffffffffffff1673ffffffffffffffffffffffffffffffffffffffff163373ffffffffffffffffffffffffffffffffffffffff1603610f21576000800160149054906101000a900460ff169050610f90565b600160000160009054906101000a900473ffffffffffffffffffffffffffffffffffffffff1673ffffffffffffffffffffffffffffffffffffffff163373ffffffffffffffffffffffffffffffffffffffff1603610f8f57600160000160149054906101000a900460ff1690505b5b8015610fd1576040517f08c379a0000000000000000000000000000000000000000000000000000000008152600401610fc8906120c0565b60405180910390fd5b600073ffffffffffffffffffffffffffffffffffffffff166000800160009054906101000a900473ffffffffffffffffffffffffffffffffffffffff1673ffffffffffffffffffffffffffffffffffffffff16036111305760405180608001604052803373ffffffffffffffffffffffffffffffffffffffff168152602001600015158152602001600015158152602001600015158152506000808201518160000160006101000a81548173ffffffffffffffffffffffffffffffffffffffff021916908373ffffffffffffffffffffffffffffffffffffffff16021790555060208201518160000160146101000a81548160ff02191690831515021790555060408201518160000160156101000a81548160ff02191690831515021790555060608201518160000160166101000a81548160ff02191690831515021790555090505082600281905550816003908161112a91906122f7565b50611277565b600073ffffffffffffffffffffffffffffffffffffffff16600160000160009054906101000a900473ffffffffffffffffffffffffffffffffffffffff1673ffffffffffffffffffffffffffffffffffffffff16036112765760405180608001604052803373ffffffffffffffffffffffffffffffffffffffff16815260200160001515815260200160001515815260200160001515815250600160008201518160000160006101000a81548173ffffffffffffffffffffffffffffffffffffffff021916908373ffffffffffffffffffffffffffffffffffffffff16021790555060208201518160000160146101000a81548160ff02191690831515021790555060408201518160000160156101000a81548160ff02191690831515021790555060608201518160000160166101000a81548160ff0219169083151502179055509050505b5b505050565b611285336117a4565b602001516112c8576040517f08c379a00000000000000000000000000000000000000000000000000000000081526004016112bf90612415565b60405180910390fd5b60006112d3336117a4565b905060006112e033611941565b90506004805490508110156113d6576040518060600160405280836000015173ffffffffffffffffffffffffffffffffffffffff168152602001836020015115158152602001600115158152506004828154811061134157611340611e48565b5b9060005260206000200160008201518160000160006101000a81548173ffffffffffffffffffffffffffffffffffffffff021916908373ffffffffffffffffffffffffffffffffffffffff16021790555060208201518160000160146101000a81548160ff02191690831515021790555060408201518160000160156101000a81548160ff0219169083151502179055509050505b5050565b6000800160009054906101000a900473ffffffffffffffffffffffffffffffffffffffff1673ffffffffffffffffffffffffffffffffffffffff163373ffffffffffffffffffffffffffffffffffffffff1614806114885750600160000160009054906101000a900473ffffffffffffffffffffffffffffffffffffffff1673ffffffffffffffffffffffffffffffffffffffff163373ffffffffffffffffffffffffffffffffffffffff16145b6114c7576040517f08c379a00000000000000000000000000000000000000000000000000000000081526004016114be90611d04565b60405180910390fd5b6000800160159054906101000a900460ff1615801561153557506000800160009054906101000a900473ffffffffffffffffffffffffffffffffffffffff1673ffffffffffffffffffffffffffffffffffffffff163373ffffffffffffffffffffffffffffffffffffffff16145b1561166e5760405180608001604052806000800160009054906101000a900473ffffffffffffffffffffffffffffffffffffffff1673ffffffffffffffffffffffffffffffffffffffff1681526020016000800160149054906101000a900460ff16151581526020016001151581526020016000800160169054906101000a900460ff1615158152506000808201518160000160006101000a81548173ffffffffffffffffffffffffffffffffffffffff021916908373ffffffffffffffffffffffffffffffffffffffff16021790555060208201518160000160146101000a81548160ff02191690831515021790555060408201518160000160156101000a81548160ff02191690831515021790555060608201518160000160166101000a81548160ff0219169083151502179055509050506117a2565b6040518060800160405280600160000160009054906101000a900473ffffffffffffffffffffffffffffffffffffffff1673ffffffffffffffffffffffffffffffffffffffff168152602001600160000160149054906101000a900460ff1615158152602001600115158152602001600160000160169054906101000a900460ff161515815250600160008201518160000160006101000a81548173ffffffffffffffffffffffffffffffffffffffff021916908373ffffffffffffffffffffffffffffffffffffffff16021790555060208201518160000160146101000a81548160ff02191690831515021790555060408201518160000160156101000a81548160ff02191690831515021790555060608201518160000160166101000a81548160ff0219169083151502179055509050505b565b6117ac6119f5565b60005b600480549050811015611900578273ffffffffffffffffffffffffffffffffffffffff16600482815481106117e7576117e6611e48565b5b9060005260206000200160000160009054906101000a900473ffffffffffffffffffffffffffffffffffffffff1673ffffffffffffffffffffffffffffffffffffffff16036118ed576004818154811061184457611843611e48565b5b906000526020600020016040518060600160405290816000820160009054906101000a900473ffffffffffffffffffffffffffffffffffffffff1673ffffffffffffffffffffffffffffffffffffffff1673ffffffffffffffffffffffffffffffffffffffff1681526020016000820160149054906101000a900460ff161515151581526020016000820160159054906101000a900460ff16151515158152505091505061193c565b80806118f890611ea6565b9150506117af565b506040518060600160405280600073ffffffffffffffffffffffffffffffffffffffff1681526020016000151581526020016000151581525090505b919050565b600080600090505b6004805490508110156119e6578273ffffffffffffffffffffffffffffffffffffffff166004828154811061198157611980611e48565b5b9060005260206000200160000160009054906101000a900473ffffffffffffffffffffffffffffffffffffffff1673ffffffffffffffffffffffffffffffffffffffff16036119d357809150506119f0565b80806119de90611ea6565b915050611949565b5060048054905090505b919050565b6040518060600160405280600073ffffffffffffffffffffffffffffffffffffffff1681526020016000151581526020016000151581525090565b6000604051905090565b600080fd5b600080fd5b600073ffffffffffffffffffffffffffffffffffffffff82169050919050565b6000611a6f82611a44565b9050919050565b611a7f81611a64565b8114611a8a57600080fd5b50565b600081359050611a9c81611a76565b92915050565b600060208284031215611ab857611ab7611a3a565b5b6000611ac684828501611a8d565b91505092915050565b6000819050919050565b611ae281611acf565b8114611aed57600080fd5b50565b600081359050611aff81611ad9565b92915050565b600080fd5b600080fd5b6000601f19601f8301169050919050565b7f4e487b7100000000000000000000000000000000000000000000000000000000600052604160045260246000fd5b611b5882611b0f565b810181811067ffffffffffffffff82111715611b7757611b76611b20565b5b80604052505050565b6000611b8a611a30565b9050611b968282611b4f565b919050565b600067ffffffffffffffff821115611bb657611bb5611b20565b5b611bbf82611b0f565b9050602081019050919050565b82818337600083830152505050565b6000611bee611be984611b9b565b611b80565b905082815260208101848484011115611c0a57611c09611b0a565b5b611c15848285611bcc565b509392505050565b600082601f830112611c3257611c31611b05565b5b8135611c42848260208601611bdb565b91505092915050565b60008060408385031215611c6257611c61611a3a565b5b6000611c7085828601611af0565b925050602083013567ffffffffffffffff811115611c9157611c90611a3f565b5b611c9d85828601611c1d565b9150509250929050565b600082825260208201905092915050565b7f4f6e6c7920656e67616765642e00000000000000000000000000000000000000600082015250565b6000611cee600d83611ca7565b9150611cf982611cb8565b602082019050919050565b60006020820190508181036000830152611d1d81611ce1565b9050919050565b7f416464726573732031206d757374206167726565206f6e20706172746963697060008201527f616e74732e000000000000000000000000000000000000000000000000000000602082015250565b6000611d80602583611ca7565b9150611d8b82611d24565b604082019050919050565b60006020820190508181036000830152611daf81611d73565b9050919050565b7f416464726573732032206d757374206167726565206f6e20706172746963697060008201527f616e74732e000000000000000000000000000000000000000000000000000000602082015250565b6000611e12602583611ca7565b9150611e1d82611db6565b604082019050919050565b60006020820190508181036000830152611e4181611e05565b9050919050565b7f4e487b7100000000000000000000000000000000000000000000000000000000600052603260045260246000fd5b7f4e487b7100000000000000000000000000000000000000000000000000000000600052601160045260246000fd5b6000611eb182611acf565b91507fffffffffffffffffffffffffffffffffffffffffffffffffffffffffffffffff8203611ee357611ee2611e77565b5b600182019050919050565b6000611ef982611acf565b9150611f0483611acf565b9250828202611f1281611acf565b91508282048414831517611f2957611f28611e77565b5b5092915050565b7f48616c6620766f74656420616761696e73742e00000000000000000000000000600082015250565b6000611f66601383611ca7565b9150611f7182611f30565b602082019050919050565b60006020820190508181036000830152611f9581611f59565b9050919050565b7f546f6f206561726c792c206d6174652e00000000000000000000000000000000600082015250565b6000611fd2601083611ca7565b9150611fdd82611f9c565b602082019050919050565b6000602082019050818103600083015261200181611fc5565b9050919050565b7f4f6e6c79207061727469636970616e742e000000000000000000000000000000600082015250565b600061203e601183611ca7565b915061204982612008565b602082019050919050565b6000602082019050818103600083015261206d81612031565b9050919050565b7f4f6e6c7920756e7765642e000000000000000000000000000000000000000000600082015250565b60006120aa600b83611ca7565b91506120b582612074565b602082019050919050565b600060208201905081810360008301526120d98161209d565b9050919050565b600081519050919050565b7f4e487b7100000000000000000000000000000000000000000000000000000000600052602260045260246000fd5b6000600282049050600182168061213257607f821691505b602082108103612145576121446120eb565b5b50919050565b60008190508160005260206000209050919050565b60006020601f8301049050919050565b600082821b905092915050565b6000600883026121ad7fffffffffffffffffffffffffffffffffffffffffffffffffffffffffffffffff82612170565b6121b78683612170565b95508019841693508086168417925050509392505050565b6000819050919050565b60006121f46121ef6121ea84611acf565b6121cf565b611acf565b9050919050565b6000819050919050565b61220e836121d9565b61222261221a826121fb565b84845461217d565b825550505050565b600090565b61223761222a565b612242818484612205565b505050565b5b818110156122665761225b60008261222f565b600181019050612248565b5050565b601f8211156122ab5761227c8161214b565b61228584612160565b81016020851015612294578190505b6122a86122a085612160565b830182612247565b50505b505050565b600082821c905092915050565b60006122ce600019846008026122b0565b1980831691505092915050565b60006122e783836122bd565b9150826002028217905092915050565b612300826120e0565b67ffffffffffffffff81111561231957612318611b20565b5b612323825461211a565b61232e82828561226a565b600060209050601f831160018114612361576000841561234f578287015190505b61235985826122db565b8655506123c1565b601f19841661236f8661214b565b60005b8281101561239757848901518255600182019150602085019450602081019050612372565b868310156123b457848901516123b0601f8916826122bd565b8355505b6001600288020188555050505b505050505050565b7f4f6e6c7920636f6e6669726d6564207061727469636970616e74732e00000000600082015250565b60006123ff601c83611ca7565b915061240a826123c9565b602082019050919050565b6000602082019050818103600083015261242e816123f2565b905091905056fea2646970667358221220144dd7feb9f2647d303dfa3c483587ef773552c0914dba823f605098001f1c2c64736f6c63430008120033",
					"opcodes": "PUSH1 0x80 PUSH1 0x40 MSTORE CALLVALUE DUP1 ISZERO PUSH2 0x10 JUMPI PUSH1 0x0 DUP1 REVERT JUMPDEST POP PUSH2 0x246B DUP1 PUSH2 0x20 PUSH1 0x0 CODECOPY PUSH1 0x0 RETURN INVALID PUSH1 0x80 PUSH1 0x40 MSTORE CALLVALUE DUP1 ISZERO PUSH2 0x10 JUMPI PUSH1 0x0 DUP1 REVERT JUMPDEST POP PUSH1 0x4 CALLDATASIZE LT PUSH2 0x7D JUMPI PUSH1 0x0 CALLDATALOAD PUSH1 0xE0 SHR DUP1 PUSH4 0x728F1112 GT PUSH2 0x5B JUMPI DUP1 PUSH4 0x728F1112 EQ PUSH2 0xB2 JUMPI DUP1 PUSH4 0x7BCD97AF EQ PUSH2 0xBC JUMPI DUP1 PUSH4 0x9F396CFF EQ PUSH2 0xD8 JUMPI DUP1 PUSH4 0xA64B959F EQ PUSH2 0xE2 JUMPI PUSH2 0x7D JUMP JUMPDEST DUP1 PUSH4 0x266AE81C EQ PUSH2 0x82 JUMPI DUP1 PUSH4 0x68AEE9E8 EQ PUSH2 0x9E JUMPI DUP1 PUSH4 0x6D955EB5 EQ PUSH2 0xA8 JUMPI JUMPDEST PUSH1 0x0 DUP1 REVERT JUMPDEST PUSH2 0x9C PUSH1 0x4 DUP1 CALLDATASIZE SUB DUP2 ADD SWAP1 PUSH2 0x97 SWAP2 SWAP1 PUSH2 0x1AA2 JUMP JUMPDEST PUSH2 0xEC JUMP JUMPDEST STOP JUMPDEST PUSH2 0xA6 PUSH2 0x2C3 JUMP JUMPDEST STOP JUMPDEST PUSH2 0xB0 PUSH2 0x7F9 JUMP JUMPDEST STOP JUMPDEST PUSH2 0xBA PUSH2 0xAC1 JUMP JUMPDEST STOP JUMPDEST PUSH2 0xD6 PUSH1 0x4 DUP1 CALLDATASIZE SUB DUP2 ADD SWAP1 PUSH2 0xD1 SWAP2 SWAP1 PUSH2 0x1C4B JUMP JUMPDEST PUSH2 0xEB0 JUMP JUMPDEST STOP JUMPDEST PUSH2 0xE0 PUSH2 0x127C JUMP JUMPDEST STOP JUMPDEST PUSH2 0xEA PUSH2 0x13DA JUMP JUMPDEST STOP JUMPDEST PUSH1 0x0 DUP1 ADD PUSH1 0x0 SWAP1 SLOAD SWAP1 PUSH2 0x100 EXP SWAP1 DIV PUSH20 0xFFFFFFFFFFFFFFFFFFFFFFFFFFFFFFFFFFFFFFFF AND PUSH20 0xFFFFFFFFFFFFFFFFFFFFFFFFFFFFFFFFFFFFFFFF AND CALLER PUSH20 0xFFFFFFFFFFFFFFFFFFFFFFFFFFFFFFFFFFFFFFFF AND EQ DUP1 PUSH2 0x19A JUMPI POP PUSH1 0x1 PUSH1 0x0 ADD PUSH1 0x0 SWAP1 SLOAD SWAP1 PUSH2 0x100 EXP SWAP1 DIV PUSH20 0xFFFFFFFFFFFFFFFFFFFFFFFFFFFFFFFFFFFFFFFF AND PUSH20 0xFFFFFFFFFFFFFFFFFFFFFFFFFFFFFFFFFFFFFFFF AND CALLER PUSH20 0xFFFFFFFFFFFFFFFFFFFFFFFFFFFFFFFFFFFFFFFF AND EQ JUMPDEST PUSH2 0x1D9 JUMPI PUSH1 0x40 MLOAD PUSH32 0x8C379A000000000000000000000000000000000000000000000000000000000 DUP2 MSTORE PUSH1 0x4 ADD PUSH2 0x1D0 SWAP1 PUSH2 0x1D04 JUMP JUMPDEST PUSH1 0x40 MLOAD DUP1 SWAP2 SUB SWAP1 REVERT JUMPDEST PUSH1 0x4 PUSH1 0x40 MLOAD DUP1 PUSH1 0x60 ADD PUSH1 0x40 MSTORE DUP1 DUP4 PUSH20 0xFFFFFFFFFFFFFFFFFFFFFFFFFFFFFFFFFFFFFFFF AND DUP2 MSTORE PUSH1 0x20 ADD PUSH1 0x0 ISZERO ISZERO DUP2 MSTORE PUSH1 0x20 ADD PUSH1 0x0 ISZERO ISZERO DUP2 MSTORE POP SWAP1 DUP1 PUSH1 0x1 DUP2 SLOAD ADD DUP1 DUP3 SSTORE DUP1 SWAP2 POP POP PUSH1 0x1 SWAP1 SUB SWAP1 PUSH1 0x0 MSTORE PUSH1 0x20 PUSH1 0x0 KECCAK256 ADD PUSH1 0x0 SWAP1 SWAP2 SWAP1 SWAP2 SWAP1 SWAP2 POP PUSH1 0x0 DUP3 ADD MLOAD DUP2 PUSH1 0x0 ADD PUSH1 0x0 PUSH2 0x100 EXP DUP2 SLOAD DUP2 PUSH20 0xFFFFFFFFFFFFFFFFFFFFFFFFFFFFFFFFFFFFFFFF MUL NOT AND SWAP1 DUP4 PUSH20 0xFFFFFFFFFFFFFFFFFFFFFFFFFFFFFFFFFFFFFFFF AND MUL OR SWAP1 SSTORE POP PUSH1 0x20 DUP3 ADD MLOAD DUP2 PUSH1 0x0 ADD PUSH1 0x14 PUSH2 0x100 EXP DUP2 SLOAD DUP2 PUSH1 0xFF MUL NOT AND SWAP1 DUP4 ISZERO ISZERO MUL OR SWAP1 SSTORE POP PUSH1 0x40 DUP3 ADD MLOAD DUP2 PUSH1 0x0 ADD PUSH1 0x15 PUSH2 0x100 EXP DUP2 SLOAD DUP2 PUSH1 0xFF MUL NOT AND SWAP1 DUP4 ISZERO ISZERO MUL OR SWAP1 SSTORE POP POP POP POP JUMP JUMPDEST PUSH1 0x0 DUP1 ADD PUSH1 0x0 SWAP1 SLOAD SWAP1 PUSH2 0x100 EXP SWAP1 DIV PUSH20 0xFFFFFFFFFFFFFFFFFFFFFFFFFFFFFFFFFFFFFFFF AND PUSH20 0xFFFFFFFFFFFFFFFFFFFFFFFFFFFFFFFFFFFFFFFF AND CALLER PUSH20 0xFFFFFFFFFFFFFFFFFFFFFFFFFFFFFFFFFFFFFFFF AND EQ DUP1 PUSH2 0x371 JUMPI POP PUSH1 0x1 PUSH1 0x0 ADD PUSH1 0x0 SWAP1 SLOAD SWAP1 PUSH2 0x100 EXP SWAP1 DIV PUSH20 0xFFFFFFFFFFFFFFFFFFFFFFFFFFFFFFFFFFFFFFFF AND PUSH20 0xFFFFFFFFFFFFFFFFFFFFFFFFFFFFFFFFFFFFFFFF AND CALLER PUSH20 0xFFFFFFFFFFFFFFFFFFFFFFFFFFFFFFFFFFFFFFFF AND EQ JUMPDEST PUSH2 0x3B0 JUMPI PUSH1 0x40 MLOAD PUSH32 0x8C379A000000000000000000000000000000000000000000000000000000000 DUP2 MSTORE PUSH1 0x4 ADD PUSH2 0x3A7 SWAP1 PUSH2 0x1D04 JUMP JUMPDEST PUSH1 0x40 MLOAD DUP1 SWAP2 SUB SWAP1 REVERT JUMPDEST PUSH1 0x0 DUP1 ADD PUSH1 0x15 SWAP1 SLOAD SWAP1 PUSH2 0x100 EXP SWAP1 DIV PUSH1 0xFF AND PUSH2 0x401 JUMPI PUSH1 0x40 MLOAD PUSH32 0x8C379A000000000000000000000000000000000000000000000000000000000 DUP2 MSTORE PUSH1 0x4 ADD PUSH2 0x3F8 SWAP1 PUSH2 0x1D96 JUMP JUMPDEST PUSH1 0x40 MLOAD DUP1 SWAP2 SUB SWAP1 REVERT JUMPDEST PUSH1 0x1 PUSH1 0x0 ADD PUSH1 0x15 SWAP1 SLOAD SWAP1 PUSH2 0x100 EXP SWAP1 DIV PUSH1 0xFF AND PUSH2 0x453 JUMPI PUSH1 0x40 MLOAD PUSH32 0x8C379A000000000000000000000000000000000000000000000000000000000 DUP2 MSTORE PUSH1 0x4 ADD PUSH2 0x44A SWAP1 PUSH2 0x1E28 JUMP JUMPDEST PUSH1 0x40 MLOAD DUP1 SWAP2 SUB SWAP1 REVERT JUMPDEST PUSH1 0x0 DUP1 PUSH1 0x0 JUMPDEST PUSH1 0x4 DUP1 SLOAD SWAP1 POP DUP2 LT ISZERO PUSH2 0x4FF JUMPI PUSH1 0x4 DUP2 DUP2 SLOAD DUP2 LT PUSH2 0x47A JUMPI PUSH2 0x479 PUSH2 0x1E48 JUMP JUMPDEST JUMPDEST SWAP1 PUSH1 0x0 MSTORE PUSH1 0x20 PUSH1 0x0 KECCAK256 ADD PUSH1 0x0 ADD PUSH1 0x14 SWAP1 SLOAD SWAP1 PUSH2 0x100 EXP SWAP1 DIV PUSH1 0xFF AND ISZERO PUSH2 0x4EC JUMPI DUP2 DUP1 PUSH2 0x4A5 SWAP1 PUSH2 0x1EA6 JUMP JUMPDEST SWAP3 POP POP PUSH1 0x4 DUP2 DUP2 SLOAD DUP2 LT PUSH2 0x4BC JUMPI PUSH2 0x4BB PUSH2 0x1E48 JUMP JUMPDEST JUMPDEST SWAP1 PUSH1 0x0 MSTORE PUSH1 0x20 PUSH1 0x0 KECCAK256 ADD PUSH1 0x0 ADD PUSH1 0x15 SWAP1 SLOAD SWAP1 PUSH2 0x100 EXP SWAP1 DIV PUSH1 0xFF AND ISZERO PUSH2 0x4EB JUMPI DUP3 DUP1 PUSH2 0x4E7 SWAP1 PUSH2 0x1EA6 JUMP JUMPDEST SWAP4 POP POP JUMPDEST JUMPDEST DUP1 DUP1 PUSH2 0x4F7 SWAP1 PUSH2 0x1EA6 JUMP JUMPDEST SWAP2 POP POP PUSH2 0x459 JUMP JUMPDEST POP DUP1 PUSH1 0x2 DUP4 PUSH2 0x50E SWAP2 SWAP1 PUSH2 0x1EEE JUMP JUMPDEST LT PUSH2 0x54E JUMPI PUSH1 0x40 MLOAD PUSH32 0x8C379A000000000000000000000000000000000000000000000000000000000 DUP2 MSTORE PUSH1 0x4 ADD PUSH2 0x545 SWAP1 PUSH2 0x1F7C JUMP JUMPDEST PUSH1 0x40 MLOAD DUP1 SWAP2 SUB SWAP1 REVERT JUMPDEST PUSH1 0x2 SLOAD TIMESTAMP LT ISZERO PUSH2 0x593 JUMPI PUSH1 0x40 MLOAD PUSH32 0x8C379A000000000000000000000000000000000000000000000000000000000 DUP2 MSTORE PUSH1 0x4 ADD PUSH2 0x58A SWAP1 PUSH2 0x1FE8 JUMP JUMPDEST PUSH1 0x40 MLOAD DUP1 SWAP2 SUB SWAP1 REVERT JUMPDEST PUSH1 0x40 MLOAD DUP1 PUSH1 0x80 ADD PUSH1 0x40 MSTORE DUP1 PUSH1 0x0 DUP1 ADD PUSH1 0x0 SWAP1 SLOAD SWAP1 PUSH2 0x100 EXP SWAP1 DIV PUSH20 0xFFFFFFFFFFFFFFFFFFFFFFFFFFFFFFFFFFFFFFFF AND PUSH20 0xFFFFFFFFFFFFFFFFFFFFFFFFFFFFFFFFFFFFFFFF AND DUP2 MSTORE PUSH1 0x20 ADD PUSH1 0x1 ISZERO ISZERO DUP2 MSTORE PUSH1 0x20 ADD PUSH1 0x0 DUP1 ADD PUSH1 0x15 SWAP1 SLOAD SWAP1 PUSH2 0x100 EXP SWAP1 DIV PUSH1 0xFF AND ISZERO ISZERO DUP2 MSTORE PUSH1 0x20 ADD PUSH1 0x0 DUP1 ADD PUSH1 0x16 SWAP1 SLOAD SWAP1 PUSH2 0x100 EXP SWAP1 DIV PUSH1 0xFF AND ISZERO ISZERO DUP2 MSTORE POP PUSH1 0x0 DUP1 DUP3 ADD MLOAD DUP2 PUSH1 0x0 ADD PUSH1 0x0 PUSH2 0x100 EXP DUP2 SLOAD DUP2 PUSH20 0xFFFFFFFFFFFFFFFFFFFFFFFFFFFFFFFFFFFFFFFF MUL NOT AND SWAP1 DUP4 PUSH20 0xFFFFFFFFFFFFFFFFFFFFFFFFFFFFFFFFFFFFFFFF AND MUL OR SWAP1 SSTORE POP PUSH1 0x20 DUP3 ADD MLOAD DUP2 PUSH1 0x0 ADD PUSH1 0x14 PUSH2 0x100 EXP DUP2 SLOAD DUP2 PUSH1 0xFF MUL NOT AND SWAP1 DUP4 ISZERO ISZERO MUL OR SWAP1 SSTORE POP PUSH1 0x40 DUP3 ADD MLOAD DUP2 PUSH1 0x0 ADD PUSH1 0x15 PUSH2 0x100 EXP DUP2 SLOAD DUP2 PUSH1 0xFF MUL NOT AND SWAP1 DUP4 ISZERO ISZERO MUL OR SWAP1 SSTORE POP PUSH1 0x60 DUP3 ADD MLOAD DUP2 PUSH1 0x0 ADD PUSH1 0x16 PUSH2 0x100 EXP DUP2 SLOAD DUP2 PUSH1 0xFF MUL NOT AND SWAP1 DUP4 ISZERO ISZERO MUL OR SWAP1 SSTORE POP SWAP1 POP POP PUSH1 0x40 MLOAD DUP1 PUSH1 0x80 ADD PUSH1 0x40 MSTORE DUP1 PUSH1 0x1 PUSH1 0x0 ADD PUSH1 0x0 SWAP1 SLOAD SWAP1 PUSH2 0x100 EXP SWAP1 DIV PUSH20 0xFFFFFFFFFFFFFFFFFFFFFFFFFFFFFFFFFFFFFFFF AND PUSH20 0xFFFFFFFFFFFFFFFFFFFFFFFFFFFFFFFFFFFFFFFF AND DUP2 MSTORE PUSH1 0x20 ADD PUSH1 0x1 ISZERO ISZERO DUP2 MSTORE PUSH1 0x20 ADD PUSH1 0x1 PUSH1 0x0 ADD PUSH1 0x15 SWAP1 SLOAD SWAP1 PUSH2 0x100 EXP SWAP1 DIV PUSH1 0xFF AND ISZERO ISZERO DUP2 MSTORE PUSH1 0x20 ADD PUSH1 0x1 PUSH1 0x0 ADD PUSH1 0x16 SWAP1 SLOAD SWAP1 PUSH2 0x100 EXP SWAP1 DIV PUSH1 0xFF AND ISZERO ISZERO DUP2 MSTORE POP PUSH1 0x1 PUSH1 0x0 DUP3 ADD MLOAD DUP2 PUSH1 0x0 ADD PUSH1 0x0 PUSH2 0x100 EXP DUP2 SLOAD DUP2 PUSH20 0xFFFFFFFFFFFFFFFFFFFFFFFFFFFFFFFFFFFFFFFF MUL NOT AND SWAP1 DUP4 PUSH20 0xFFFFFFFFFFFFFFFFFFFFFFFFFFFFFFFFFFFFFFFF AND MUL OR SWAP1 SSTORE POP PUSH1 0x20 DUP3 ADD MLOAD DUP2 PUSH1 0x0 ADD PUSH1 0x14 PUSH2 0x100 EXP DUP2 SLOAD DUP2 PUSH1 0xFF MUL NOT AND SWAP1 DUP4 ISZERO ISZERO MUL OR SWAP1 SSTORE POP PUSH1 0x40 DUP3 ADD MLOAD DUP2 PUSH1 0x0 ADD PUSH1 0x15 PUSH2 0x100 EXP DUP2 SLOAD DUP2 PUSH1 0xFF MUL NOT AND SWAP1 DUP4 ISZERO ISZERO MUL OR SWAP1 SSTORE POP PUSH1 0x60 DUP3 ADD MLOAD DUP2 PUSH1 0x0 ADD PUSH1 0x16 PUSH2 0x100 EXP DUP2 SLOAD DUP2 PUSH1 0xFF MUL NOT AND SWAP1 DUP4 ISZERO ISZERO MUL OR SWAP1 SSTORE POP SWAP1 POP POP POP POP JUMP JUMPDEST PUSH1 0x0 DUP1 ADD PUSH1 0x0 SWAP1 SLOAD SWAP1 PUSH2 0x100 EXP SWAP1 DIV PUSH20 0xFFFFFFFFFFFFFFFFFFFFFFFFFFFFFFFFFFFFFFFF AND PUSH20 0xFFFFFFFFFFFFFFFFFFFFFFFFFFFFFFFFFFFFFFFF AND CALLER PUSH20 0xFFFFFFFFFFFFFFFFFFFFFFFFFFFFFFFFFFFFFFFF AND EQ DUP1 PUSH2 0x8A7 JUMPI POP PUSH1 0x1 PUSH1 0x0 ADD PUSH1 0x0 SWAP1 SLOAD SWAP1 PUSH2 0x100 EXP SWAP1 DIV PUSH20 0xFFFFFFFFFFFFFFFFFFFFFFFFFFFFFFFFFFFFFFFF AND PUSH20 0xFFFFFFFFFFFFFFFFFFFFFFFFFFFFFFFFFFFFFFFF AND CALLER PUSH20 0xFFFFFFFFFFFFFFFFFFFFFFFFFFFFFFFFFFFFFFFF AND EQ JUMPDEST PUSH2 0x8E6 JUMPI PUSH1 0x40 MLOAD PUSH32 0x8C379A000000000000000000000000000000000000000000000000000000000 DUP2 MSTORE PUSH1 0x4 ADD PUSH2 0x8DD SWAP1 PUSH2 0x1D04 JUMP JUMPDEST PUSH1 0x40 MLOAD DUP1 SWAP2 SUB SWAP1 REVERT JUMPDEST PUSH1 0x40 MLOAD DUP1 PUSH1 0x80 ADD PUSH1 0x40 MSTORE DUP1 PUSH1 0x0 PUSH20 0xFFFFFFFFFFFFFFFFFFFFFFFFFFFFFFFFFFFFFFFF AND DUP2 MSTORE PUSH1 0x20 ADD PUSH1 0x0 ISZERO ISZERO DUP2 MSTORE PUSH1 0x20 ADD PUSH1 0x0 ISZERO ISZERO DUP2 MSTORE PUSH1 0x20 ADD PUSH1 0x0 ISZERO ISZERO DUP2 MSTORE POP PUSH1 0x0 DUP1 DUP3 ADD MLOAD DUP2 PUSH1 0x0 ADD PUSH1 0x0 PUSH2 0x100 EXP DUP2 SLOAD DUP2 PUSH20 0xFFFFFFFFFFFFFFFFFFFFFFFFFFFFFFFFFFFFFFFF MUL NOT AND SWAP1 DUP4 PUSH20 0xFFFFFFFFFFFFFFFFFFFFFFFFFFFFFFFFFFFFFFFF AND MUL OR SWAP1 SSTORE POP PUSH1 0x20 DUP3 ADD MLOAD DUP2 PUSH1 0x0 ADD PUSH1 0x14 PUSH2 0x100 EXP DUP2 SLOAD DUP2 PUSH1 0xFF MUL NOT AND SWAP1 DUP4 ISZERO ISZERO MUL OR SWAP1 SSTORE POP PUSH1 0x40 DUP3 ADD MLOAD DUP2 PUSH1 0x0 ADD PUSH1 0x15 PUSH2 0x100 EXP DUP2 SLOAD DUP2 PUSH1 0xFF MUL NOT AND SWAP1 DUP4 ISZERO ISZERO MUL OR SWAP1 SSTORE POP PUSH1 0x60 DUP3 ADD MLOAD DUP2 PUSH1 0x0 ADD PUSH1 0x16 PUSH2 0x100 EXP DUP2 SLOAD DUP2 PUSH1 0xFF MUL NOT AND SWAP1 DUP4 ISZERO ISZERO MUL OR SWAP1 SSTORE POP SWAP1 POP POP PUSH1 0x40 MLOAD DUP1 PUSH1 0x80 ADD PUSH1 0x40 MSTORE DUP1 PUSH1 0x0 PUSH20 0xFFFFFFFFFFFFFFFFFFFFFFFFFFFFFFFFFFFFFFFF AND DUP2 MSTORE PUSH1 0x20 ADD PUSH1 0x0 ISZERO ISZERO DUP2 MSTORE PUSH1 0x20 ADD PUSH1 0x0 ISZERO ISZERO DUP2 MSTORE PUSH1 0x20 ADD PUSH1 0x0 ISZERO ISZERO DUP2 MSTORE POP PUSH1 0x1 PUSH1 0x0 DUP3 ADD MLOAD DUP2 PUSH1 0x0 ADD PUSH1 0x0 PUSH2 0x100 EXP DUP2 SLOAD DUP2 PUSH20 0xFFFFFFFFFFFFFFFFFFFFFFFFFFFFFFFFFFFFFFFF MUL NOT AND SWAP1 DUP4 PUSH20 0xFFFFFFFFFFFFFFFFFFFFFFFFFFFFFFFFFFFFFFFF AND MUL OR SWAP1 SSTORE POP PUSH1 0x20 DUP3 ADD MLOAD DUP2 PUSH1 0x0 ADD PUSH1 0x14 PUSH2 0x100 EXP DUP2 SLOAD DUP2 PUSH1 0xFF MUL NOT AND SWAP1 DUP4 ISZERO ISZERO MUL OR SWAP1 SSTORE POP PUSH1 0x40 DUP3 ADD MLOAD DUP2 PUSH1 0x0 ADD PUSH1 0x15 PUSH2 0x100 EXP DUP2 SLOAD DUP2 PUSH1 0xFF MUL NOT AND SWAP1 DUP4 ISZERO ISZERO MUL OR SWAP1 SSTORE POP PUSH1 0x60 DUP3 ADD MLOAD DUP2 PUSH1 0x0 ADD PUSH1 0x16 PUSH2 0x100 EXP DUP2 SLOAD DUP2 PUSH1 0xFF MUL NOT AND SWAP1 DUP4 ISZERO ISZERO MUL OR SWAP1 SSTORE POP SWAP1 POP POP JUMP JUMPDEST PUSH1 0x0 PUSH20 0xFFFFFFFFFFFFFFFFFFFFFFFFFFFFFFFFFFFFFFFF AND PUSH2 0xAE2 CALLER PUSH2 0x17A4 JUMP JUMPDEST PUSH1 0x0 ADD MLOAD PUSH20 0xFFFFFFFFFFFFFFFFFFFFFFFFFFFFFFFFFFFFFFFF AND SUB PUSH2 0xB3C JUMPI PUSH1 0x40 MLOAD PUSH32 0x8C379A000000000000000000000000000000000000000000000000000000000 DUP2 MSTORE PUSH1 0x4 ADD PUSH2 0xB33 SWAP1 PUSH2 0x2054 JUMP JUMPDEST PUSH1 0x40 MLOAD DUP1 SWAP2 SUB SWAP1 REVERT JUMPDEST PUSH1 0x0 PUSH2 0xB47 CALLER PUSH2 0x17A4 JUMP JUMPDEST SWAP1 POP PUSH1 0x0 PUSH2 0xB54 CALLER PUSH2 0x1941 JUMP JUMPDEST SWAP1 POP PUSH1 0x4 DUP1 SLOAD SWAP1 POP DUP2 LT ISZERO PUSH2 0xEAC JUMPI PUSH1 0x40 MLOAD DUP1 PUSH1 0x60 ADD PUSH1 0x40 MSTORE DUP1 DUP4 PUSH1 0x0 ADD MLOAD PUSH20 0xFFFFFFFFFFFFFFFFFFFFFFFFFFFFFFFFFFFFFFFF AND DUP2 MSTORE PUSH1 0x20 ADD PUSH1 0x1 ISZERO ISZERO DUP2 MSTORE PUSH1 0x20 ADD DUP4 PUSH1 0x40 ADD MLOAD ISZERO ISZERO DUP2 MSTORE POP PUSH1 0x4 DUP3 DUP2 SLOAD DUP2 LT PUSH2 0xBB5 JUMPI PUSH2 0xBB4 PUSH2 0x1E48 JUMP JUMPDEST JUMPDEST SWAP1 PUSH1 0x0 MSTORE PUSH1 0x20 PUSH1 0x0 KECCAK256 ADD PUSH1 0x0 DUP3 ADD MLOAD DUP2 PUSH1 0x0 ADD PUSH1 0x0 PUSH2 0x100 EXP DUP2 SLOAD DUP2 PUSH20 0xFFFFFFFFFFFFFFFFFFFFFFFFFFFFFFFFFFFFFFFF MUL NOT AND SWAP1 DUP4 PUSH20 0xFFFFFFFFFFFFFFFFFFFFFFFFFFFFFFFFFFFFFFFF AND MUL OR SWAP1 SSTORE POP PUSH1 0x20 DUP3 ADD MLOAD DUP2 PUSH1 0x0 ADD PUSH1 0x14 PUSH2 0x100 EXP DUP2 SLOAD DUP2 PUSH1 0xFF MUL NOT AND SWAP1 DUP4 ISZERO ISZERO MUL OR SWAP1 SSTORE POP PUSH1 0x40 DUP3 ADD MLOAD DUP2 PUSH1 0x0 ADD PUSH1 0x15 PUSH2 0x100 EXP DUP2 SLOAD DUP2 PUSH1 0xFF MUL NOT AND SWAP1 DUP4 ISZERO ISZERO MUL OR SWAP1 SSTORE POP SWAP1 POP POP PUSH1 0x40 MLOAD DUP1 PUSH1 0x80 ADD PUSH1 0x40 MSTORE DUP1 PUSH1 0x0 DUP1 ADD PUSH1 0x0 SWAP1 SLOAD SWAP1 PUSH2 0x100 EXP SWAP1 DIV PUSH20 0xFFFFFFFFFFFFFFFFFFFFFFFFFFFFFFFFFFFFFFFF AND PUSH20 0xFFFFFFFFFFFFFFFFFFFFFFFFFFFFFFFFFFFFFFFF AND DUP2 MSTORE PUSH1 0x20 ADD PUSH1 0x0 DUP1 ADD PUSH1 0x14 SWAP1 SLOAD SWAP1 PUSH2 0x100 EXP SWAP1 DIV PUSH1 0xFF AND ISZERO ISZERO DUP2 MSTORE PUSH1 0x20 ADD PUSH1 0x0 ISZERO ISZERO DUP2 MSTORE PUSH1 0x20 ADD PUSH1 0x0 DUP1 ADD PUSH1 0x16 SWAP1 SLOAD SWAP1 PUSH2 0x100 EXP SWAP1 DIV PUSH1 0xFF AND ISZERO ISZERO DUP2 MSTORE POP PUSH1 0x0 DUP1 DUP3 ADD MLOAD DUP2 PUSH1 0x0 ADD PUSH1 0x0 PUSH2 0x100 EXP DUP2 SLOAD DUP2 PUSH20 0xFFFFFFFFFFFFFFFFFFFFFFFFFFFFFFFFFFFFFFFF MUL NOT AND SWAP1 DUP4 PUSH20 0xFFFFFFFFFFFFFFFFFFFFFFFFFFFFFFFFFFFFFFFF AND MUL OR SWAP1 SSTORE POP PUSH1 0x20 DUP3 ADD MLOAD DUP2 PUSH1 0x0 ADD PUSH1 0x14 PUSH2 0x100 EXP DUP2 SLOAD DUP2 PUSH1 0xFF MUL NOT AND SWAP1 DUP4 ISZERO ISZERO MUL OR SWAP1 SSTORE POP PUSH1 0x40 DUP3 ADD MLOAD DUP2 PUSH1 0x0 ADD PUSH1 0x15 PUSH2 0x100 EXP DUP2 SLOAD DUP2 PUSH1 0xFF MUL NOT AND SWAP1 DUP4 ISZERO ISZERO MUL OR SWAP1 SSTORE POP PUSH1 0x60 DUP3 ADD MLOAD DUP2 PUSH1 0x0 ADD PUSH1 0x16 PUSH2 0x100 EXP DUP2 SLOAD DUP2 PUSH1 0xFF MUL NOT AND SWAP1 DUP4 ISZERO ISZERO MUL OR SWAP1 SSTORE POP SWAP1 POP POP PUSH1 0x40 MLOAD DUP1 PUSH1 0x80 ADD PUSH1 0x40 MSTORE DUP1 PUSH1 0x1 PUSH1 0x0 ADD PUSH1 0x0 SWAP1 SLOAD SWAP1 PUSH2 0x100 EXP SWAP1 DIV PUSH20 0xFFFFFFFFFFFFFFFFFFFFFFFFFFFFFFFFFFFFFFFF AND PUSH20 0xFFFFFFFFFFFFFFFFFFFFFFFFFFFFFFFFFFFFFFFF AND DUP2 MSTORE PUSH1 0x20 ADD PUSH1 0x1 PUSH1 0x0 ADD PUSH1 0x14 SWAP1 SLOAD SWAP1 PUSH2 0x100 EXP SWAP1 DIV PUSH1 0xFF AND ISZERO ISZERO DUP2 MSTORE PUSH1 0x20 ADD PUSH1 0x0 ISZERO ISZERO DUP2 MSTORE PUSH1 0x20 ADD PUSH1 0x1 PUSH1 0x0 ADD PUSH1 0x16 SWAP1 SLOAD SWAP1 PUSH2 0x100 EXP SWAP1 DIV PUSH1 0xFF AND ISZERO ISZERO DUP2 MSTORE POP PUSH1 0x1 PUSH1 0x0 DUP3 ADD MLOAD DUP2 PUSH1 0x0 ADD PUSH1 0x0 PUSH2 0x100 EXP DUP2 SLOAD DUP2 PUSH20 0xFFFFFFFFFFFFFFFFFFFFFFFFFFFFFFFFFFFFFFFF MUL NOT AND SWAP1 DUP4 PUSH20 0xFFFFFFFFFFFFFFFFFFFFFFFFFFFFFFFFFFFFFFFF AND MUL OR SWAP1 SSTORE POP PUSH1 0x20 DUP3 ADD MLOAD DUP2 PUSH1 0x0 ADD PUSH1 0x14 PUSH2 0x100 EXP DUP2 SLOAD DUP2 PUSH1 0xFF MUL NOT AND SWAP1 DUP4 ISZERO ISZERO MUL OR SWAP1 SSTORE POP PUSH1 0x40 DUP3 ADD MLOAD DUP2 PUSH1 0x0 ADD PUSH1 0x15 PUSH2 0x100 EXP DUP2 SLOAD DUP2 PUSH1 0xFF MUL NOT AND SWAP1 DUP4 ISZERO ISZERO MUL OR SWAP1 SSTORE POP PUSH1 0x60 DUP3 ADD MLOAD DUP2 PUSH1 0x0 ADD PUSH1 0x16 PUSH2 0x100 EXP DUP2 SLOAD DUP2 PUSH1 0xFF MUL NOT AND SWAP1 DUP4 ISZERO ISZERO MUL OR SWAP1 SSTORE POP SWAP1 POP POP JUMPDEST POP POP JUMP JUMPDEST PUSH1 0x0 DUP1 DUP1 ADD PUSH1 0x0 SWAP1 SLOAD SWAP1 PUSH2 0x100 EXP SWAP1 DIV PUSH20 0xFFFFFFFFFFFFFFFFFFFFFFFFFFFFFFFFFFFFFFFF AND PUSH20 0xFFFFFFFFFFFFFFFFFFFFFFFFFFFFFFFFFFFFFFFF AND CALLER PUSH20 0xFFFFFFFFFFFFFFFFFFFFFFFFFFFFFFFFFFFFFFFF AND SUB PUSH2 0xF21 JUMPI PUSH1 0x0 DUP1 ADD PUSH1 0x14 SWAP1 SLOAD SWAP1 PUSH2 0x100 EXP SWAP1 DIV PUSH1 0xFF AND SWAP1 POP PUSH2 0xF90 JUMP JUMPDEST PUSH1 0x1 PUSH1 0x0 ADD PUSH1 0x0 SWAP1 SLOAD SWAP1 PUSH2 0x100 EXP SWAP1 DIV PUSH20 0xFFFFFFFFFFFFFFFFFFFFFFFFFFFFFFFFFFFFFFFF AND PUSH20 0xFFFFFFFFFFFFFFFFFFFFFFFFFFFFFFFFFFFFFFFF AND CALLER PUSH20 0xFFFFFFFFFFFFFFFFFFFFFFFFFFFFFFFFFFFFFFFF AND SUB PUSH2 0xF8F JUMPI PUSH1 0x1 PUSH1 0x0 ADD PUSH1 0x14 SWAP1 SLOAD SWAP1 PUSH2 0x100 EXP SWAP1 DIV PUSH1 0xFF AND SWAP1 POP JUMPDEST JUMPDEST DUP1 ISZERO PUSH2 0xFD1 JUMPI PUSH1 0x40 MLOAD PUSH32 0x8C379A000000000000000000000000000000000000000000000000000000000 DUP2 MSTORE PUSH1 0x4 ADD PUSH2 0xFC8 SWAP1 PUSH2 0x20C0 JUMP JUMPDEST PUSH1 0x40 MLOAD DUP1 SWAP2 SUB SWAP1 REVERT JUMPDEST PUSH1 0x0 PUSH20 0xFFFFFFFFFFFFFFFFFFFFFFFFFFFFFFFFFFFFFFFF AND PUSH1 0x0 DUP1 ADD PUSH1 0x0 SWAP1 SLOAD SWAP1 PUSH2 0x100 EXP SWAP1 DIV PUSH20 0xFFFFFFFFFFFFFFFFFFFFFFFFFFFFFFFFFFFFFFFF AND PUSH20 0xFFFFFFFFFFFFFFFFFFFFFFFFFFFFFFFFFFFFFFFF AND SUB PUSH2 0x1130 JUMPI PUSH1 0x40 MLOAD DUP1 PUSH1 0x80 ADD PUSH1 0x40 MSTORE DUP1 CALLER PUSH20 0xFFFFFFFFFFFFFFFFFFFFFFFFFFFFFFFFFFFFFFFF AND DUP2 MSTORE PUSH1 0x20 ADD PUSH1 0x0 ISZERO ISZERO DUP2 MSTORE PUSH1 0x20 ADD PUSH1 0x0 ISZERO ISZERO DUP2 MSTORE PUSH1 0x20 ADD PUSH1 0x0 ISZERO ISZERO DUP2 MSTORE POP PUSH1 0x0 DUP1 DUP3 ADD MLOAD DUP2 PUSH1 0x0 ADD PUSH1 0x0 PUSH2 0x100 EXP DUP2 SLOAD DUP2 PUSH20 0xFFFFFFFFFFFFFFFFFFFFFFFFFFFFFFFFFFFFFFFF MUL NOT AND SWAP1 DUP4 PUSH20 0xFFFFFFFFFFFFFFFFFFFFFFFFFFFFFFFFFFFFFFFF AND MUL OR SWAP1 SSTORE POP PUSH1 0x20 DUP3 ADD MLOAD DUP2 PUSH1 0x0 ADD PUSH1 0x14 PUSH2 0x100 EXP DUP2 SLOAD DUP2 PUSH1 0xFF MUL NOT AND SWAP1 DUP4 ISZERO ISZERO MUL OR SWAP1 SSTORE POP PUSH1 0x40 DUP3 ADD MLOAD DUP2 PUSH1 0x0 ADD PUSH1 0x15 PUSH2 0x100 EXP DUP2 SLOAD DUP2 PUSH1 0xFF MUL NOT AND SWAP1 DUP4 ISZERO ISZERO MUL OR SWAP1 SSTORE POP PUSH1 0x60 DUP3 ADD MLOAD DUP2 PUSH1 0x0 ADD PUSH1 0x16 PUSH2 0x100 EXP DUP2 SLOAD DUP2 PUSH1 0xFF MUL NOT AND SWAP1 DUP4 ISZERO ISZERO MUL OR SWAP1 SSTORE POP SWAP1 POP POP DUP3 PUSH1 0x2 DUP2 SWAP1 SSTORE POP DUP2 PUSH1 0x3 SWAP1 DUP2 PUSH2 0x112A SWAP2 SWAP1 PUSH2 0x22F7 JUMP JUMPDEST POP PUSH2 0x1277 JUMP JUMPDEST PUSH1 0x0 PUSH20 0xFFFFFFFFFFFFFFFFFFFFFFFFFFFFFFFFFFFFFFFF AND PUSH1 0x1 PUSH1 0x0 ADD PUSH1 0x0 SWAP1 SLOAD SWAP1 PUSH2 0x100 EXP SWAP1 DIV PUSH20 0xFFFFFFFFFFFFFFFFFFFFFFFFFFFFFFFFFFFFFFFF AND PUSH20 0xFFFFFFFFFFFFFFFFFFFFFFFFFFFFFFFFFFFFFFFF AND SUB PUSH2 0x1276 JUMPI PUSH1 0x40 MLOAD DUP1 PUSH1 0x80 ADD PUSH1 0x40 MSTORE DUP1 CALLER PUSH20 0xFFFFFFFFFFFFFFFFFFFFFFFFFFFFFFFFFFFFFFFF AND DUP2 MSTORE PUSH1 0x20 ADD PUSH1 0x0 ISZERO ISZERO DUP2 MSTORE PUSH1 0x20 ADD PUSH1 0x0 ISZERO ISZERO DUP2 MSTORE PUSH1 0x20 ADD PUSH1 0x0 ISZERO ISZERO DUP2 MSTORE POP PUSH1 0x1 PUSH1 0x0 DUP3 ADD MLOAD DUP2 PUSH1 0x0 ADD PUSH1 0x0 PUSH2 0x100 EXP DUP2 SLOAD DUP2 PUSH20 0xFFFFFFFFFFFFFFFFFFFFFFFFFFFFFFFFFFFFFFFF MUL NOT AND SWAP1 DUP4 PUSH20 0xFFFFFFFFFFFFFFFFFFFFFFFFFFFFFFFFFFFFFFFF AND MUL OR SWAP1 SSTORE POP PUSH1 0x20 DUP3 ADD MLOAD DUP2 PUSH1 0x0 ADD PUSH1 0x14 PUSH2 0x100 EXP DUP2 SLOAD DUP2 PUSH1 0xFF MUL NOT AND SWAP1 DUP4 ISZERO ISZERO MUL OR SWAP1 SSTORE POP PUSH1 0x40 DUP3 ADD MLOAD DUP2 PUSH1 0x0 ADD PUSH1 0x15 PUSH2 0x100 EXP DUP2 SLOAD DUP2 PUSH1 0xFF MUL NOT AND SWAP1 DUP4 ISZERO ISZERO MUL OR SWAP1 SSTORE POP PUSH1 0x60 DUP3 ADD MLOAD DUP2 PUSH1 0x0 ADD PUSH1 0x16 PUSH2 0x100 EXP DUP2 SLOAD DUP2 PUSH1 0xFF MUL NOT AND SWAP1 DUP4 ISZERO ISZERO MUL OR SWAP1 SSTORE POP SWAP1 POP POP JUMPDEST JUMPDEST POP POP POP JUMP JUMPDEST PUSH2 0x1285 CALLER PUSH2 0x17A4 JUMP JUMPDEST PUSH1 0x20 ADD MLOAD PUSH2 0x12C8 JUMPI PUSH1 0x40 MLOAD PUSH32 0x8C379A000000000000000000000000000000000000000000000000000000000 DUP2 MSTORE PUSH1 0x4 ADD PUSH2 0x12BF SWAP1 PUSH2 0x2415 JUMP JUMPDEST PUSH1 0x40 MLOAD DUP1 SWAP2 SUB SWAP1 REVERT JUMPDEST PUSH1 0x0 PUSH2 0x12D3 CALLER PUSH2 0x17A4 JUMP JUMPDEST SWAP1 POP PUSH1 0x0 PUSH2 0x12E0 CALLER PUSH2 0x1941 JUMP JUMPDEST SWAP1 POP PUSH1 0x4 DUP1 SLOAD SWAP1 POP DUP2 LT ISZERO PUSH2 0x13D6 JUMPI PUSH1 0x40 MLOAD DUP1 PUSH1 0x60 ADD PUSH1 0x40 MSTORE DUP1 DUP4 PUSH1 0x0 ADD MLOAD PUSH20 0xFFFFFFFFFFFFFFFFFFFFFFFFFFFFFFFFFFFFFFFF AND DUP2 MSTORE PUSH1 0x20 ADD DUP4 PUSH1 0x20 ADD MLOAD ISZERO ISZERO DUP2 MSTORE PUSH1 0x20 ADD PUSH1 0x1 ISZERO ISZERO DUP2 MSTORE POP PUSH1 0x4 DUP3 DUP2 SLOAD DUP2 LT PUSH2 0x1341 JUMPI PUSH2 0x1340 PUSH2 0x1E48 JUMP JUMPDEST JUMPDEST SWAP1 PUSH1 0x0 MSTORE PUSH1 0x20 PUSH1 0x0 KECCAK256 ADD PUSH1 0x0 DUP3 ADD MLOAD DUP2 PUSH1 0x0 ADD PUSH1 0x0 PUSH2 0x100 EXP DUP2 SLOAD DUP2 PUSH20 0xFFFFFFFFFFFFFFFFFFFFFFFFFFFFFFFFFFFFFFFF MUL NOT AND SWAP1 DUP4 PUSH20 0xFFFFFFFFFFFFFFFFFFFFFFFFFFFFFFFFFFFFFFFF AND MUL OR SWAP1 SSTORE POP PUSH1 0x20 DUP3 ADD MLOAD DUP2 PUSH1 0x0 ADD PUSH1 0x14 PUSH2 0x100 EXP DUP2 SLOAD DUP2 PUSH1 0xFF MUL NOT AND SWAP1 DUP4 ISZERO ISZERO MUL OR SWAP1 SSTORE POP PUSH1 0x40 DUP3 ADD MLOAD DUP2 PUSH1 0x0 ADD PUSH1 0x15 PUSH2 0x100 EXP DUP2 SLOAD DUP2 PUSH1 0xFF MUL NOT AND SWAP1 DUP4 ISZERO ISZERO MUL OR SWAP1 SSTORE POP SWAP1 POP POP JUMPDEST POP POP JUMP JUMPDEST PUSH1 0x0 DUP1 ADD PUSH1 0x0 SWAP1 SLOAD SWAP1 PUSH2 0x100 EXP SWAP1 DIV PUSH20 0xFFFFFFFFFFFFFFFFFFFFFFFFFFFFFFFFFFFFFFFF AND PUSH20 0xFFFFFFFFFFFFFFFFFFFFFFFFFFFFFFFFFFFFFFFF AND CALLER PUSH20 0xFFFFFFFFFFFFFFFFFFFFFFFFFFFFFFFFFFFFFFFF AND EQ DUP1 PUSH2 0x1488 JUMPI POP PUSH1 0x1 PUSH1 0x0 ADD PUSH1 0x0 SWAP1 SLOAD SWAP1 PUSH2 0x100 EXP SWAP1 DIV PUSH20 0xFFFFFFFFFFFFFFFFFFFFFFFFFFFFFFFFFFFFFFFF AND PUSH20 0xFFFFFFFFFFFFFFFFFFFFFFFFFFFFFFFFFFFFFFFF AND CALLER PUSH20 0xFFFFFFFFFFFFFFFFFFFFFFFFFFFFFFFFFFFFFFFF AND EQ JUMPDEST PUSH2 0x14C7 JUMPI PUSH1 0x40 MLOAD PUSH32 0x8C379A000000000000000000000000000000000000000000000000000000000 DUP2 MSTORE PUSH1 0x4 ADD PUSH2 0x14BE SWAP1 PUSH2 0x1D04 JUMP JUMPDEST PUSH1 0x40 MLOAD DUP1 SWAP2 SUB SWAP1 REVERT JUMPDEST PUSH1 0x0 DUP1 ADD PUSH1 0x15 SWAP1 SLOAD SWAP1 PUSH2 0x100 EXP SWAP1 DIV PUSH1 0xFF AND ISZERO DUP1 ISZERO PUSH2 0x1535 JUMPI POP PUSH1 0x0 DUP1 ADD PUSH1 0x0 SWAP1 SLOAD SWAP1 PUSH2 0x100 EXP SWAP1 DIV PUSH20 0xFFFFFFFFFFFFFFFFFFFFFFFFFFFFFFFFFFFFFFFF AND PUSH20 0xFFFFFFFFFFFFFFFFFFFFFFFFFFFFFFFFFFFFFFFF AND CALLER PUSH20 0xFFFFFFFFFFFFFFFFFFFFFFFFFFFFFFFFFFFFFFFF AND EQ JUMPDEST ISZERO PUSH2 0x166E JUMPI PUSH1 0x40 MLOAD DUP1 PUSH1 0x80 ADD PUSH1 0x40 MSTORE DUP1 PUSH1 0x0 DUP1 ADD PUSH1 0x0 SWAP1 SLOAD SWAP1 PUSH2 0x100 EXP SWAP1 DIV PUSH20 0xFFFFFFFFFFFFFFFFFFFFFFFFFFFFFFFFFFFFFFFF AND PUSH20 0xFFFFFFFFFFFFFFFFFFFFFFFFFFFFFFFFFFFFFFFF AND DUP2 MSTORE PUSH1 0x20 ADD PUSH1 0x0 DUP1 ADD PUSH1 0x14 SWAP1 SLOAD SWAP1 PUSH2 0x100 EXP SWAP1 DIV PUSH1 0xFF AND ISZERO ISZERO DUP2 MSTORE PUSH1 0x20 ADD PUSH1 0x1 ISZERO ISZERO DUP2 MSTORE PUSH1 0x20 ADD PUSH1 0x0 DUP1 ADD PUSH1 0x16 SWAP1 SLOAD SWAP1 PUSH2 0x100 EXP SWAP1 DIV PUSH1 0xFF AND ISZERO ISZERO DUP2 MSTORE POP PUSH1 0x0 DUP1 DUP3 ADD MLOAD DUP2 PUSH1 0x0 ADD PUSH1 0x0 PUSH2 0x100 EXP DUP2 SLOAD DUP2 PUSH20 0xFFFFFFFFFFFFFFFFFFFFFFFFFFFFFFFFFFFFFFFF MUL NOT AND SWAP1 DUP4 PUSH20 0xFFFFFFFFFFFFFFFFFFFFFFFFFFFFFFFFFFFFFFFF AND MUL OR SWAP1 SSTORE POP PUSH1 0x20 DUP3 ADD MLOAD DUP2 PUSH1 0x0 ADD PUSH1 0x14 PUSH2 0x100 EXP DUP2 SLOAD DUP2 PUSH1 0xFF MUL NOT AND SWAP1 DUP4 ISZERO ISZERO MUL OR SWAP1 SSTORE POP PUSH1 0x40 DUP3 ADD MLOAD DUP2 PUSH1 0x0 ADD PUSH1 0x15 PUSH2 0x100 EXP DUP2 SLOAD DUP2 PUSH1 0xFF MUL NOT AND SWAP1 DUP4 ISZERO ISZERO MUL OR SWAP1 SSTORE POP PUSH1 0x60 DUP3 ADD MLOAD DUP2 PUSH1 0x0 ADD PUSH1 0x16 PUSH2 0x100 EXP DUP2 SLOAD DUP2 PUSH1 0xFF MUL NOT AND SWAP1 DUP4 ISZERO ISZERO MUL OR SWAP1 SSTORE POP SWAP1 POP POP PUSH2 0x17A2 JUMP JUMPDEST PUSH1 0x40 MLOAD DUP1 PUSH1 0x80 ADD PUSH1 0x40 MSTORE DUP1 PUSH1 0x1 PUSH1 0x0 ADD PUSH1 0x0 SWAP1 SLOAD SWAP1 PUSH2 0x100 EXP SWAP1 DIV PUSH20 0xFFFFFFFFFFFFFFFFFFFFFFFFFFFFFFFFFFFFFFFF AND PUSH20 0xFFFFFFFFFFFFFFFFFFFFFFFFFFFFFFFFFFFFFFFF AND DUP2 MSTORE PUSH1 0x20 ADD PUSH1 0x1 PUSH1 0x0 ADD PUSH1 0x14 SWAP1 SLOAD SWAP1 PUSH2 0x100 EXP SWAP1 DIV PUSH1 0xFF AND ISZERO ISZERO DUP2 MSTORE PUSH1 0x20 ADD PUSH1 0x1 ISZERO ISZERO DUP2 MSTORE PUSH1 0x20 ADD PUSH1 0x1 PUSH1 0x0 ADD PUSH1 0x16 SWAP1 SLOAD SWAP1 PUSH2 0x100 EXP SWAP1 DIV PUSH1 0xFF AND ISZERO ISZERO DUP2 MSTORE POP PUSH1 0x1 PUSH1 0x0 DUP3 ADD MLOAD DUP2 PUSH1 0x0 ADD PUSH1 0x0 PUSH2 0x100 EXP DUP2 SLOAD DUP2 PUSH20 0xFFFFFFFFFFFFFFFFFFFFFFFFFFFFFFFFFFFFFFFF MUL NOT AND SWAP1 DUP4 PUSH20 0xFFFFFFFFFFFFFFFFFFFFFFFFFFFFFFFFFFFFFFFF AND MUL OR SWAP1 SSTORE POP PUSH1 0x20 DUP3 ADD MLOAD DUP2 PUSH1 0x0 ADD PUSH1 0x14 PUSH2 0x100 EXP DUP2 SLOAD DUP2 PUSH1 0xFF MUL NOT AND SWAP1 DUP4 ISZERO ISZERO MUL OR SWAP1 SSTORE POP PUSH1 0x40 DUP3 ADD MLOAD DUP2 PUSH1 0x0 ADD PUSH1 0x15 PUSH2 0x100 EXP DUP2 SLOAD DUP2 PUSH1 0xFF MUL NOT AND SWAP1 DUP4 ISZERO ISZERO MUL OR SWAP1 SSTORE POP PUSH1 0x60 DUP3 ADD MLOAD DUP2 PUSH1 0x0 ADD PUSH1 0x16 PUSH2 0x100 EXP DUP2 SLOAD DUP2 PUSH1 0xFF MUL NOT AND SWAP1 DUP4 ISZERO ISZERO MUL OR SWAP1 SSTORE POP SWAP1 POP POP JUMPDEST JUMP JUMPDEST PUSH2 0x17AC PUSH2 0x19F5 JUMP JUMPDEST PUSH1 0x0 JUMPDEST PUSH1 0x4 DUP1 SLOAD SWAP1 POP DUP2 LT ISZERO PUSH2 0x1900 JUMPI DUP3 PUSH20 0xFFFFFFFFFFFFFFFFFFFFFFFFFFFFFFFFFFFFFFFF AND PUSH1 0x4 DUP3 DUP2 SLOAD DUP2 LT PUSH2 0x17E7 JUMPI PUSH2 0x17E6 PUSH2 0x1E48 JUMP JUMPDEST JUMPDEST SWAP1 PUSH1 0x0 MSTORE PUSH1 0x20 PUSH1 0x0 KECCAK256 ADD PUSH1 0x0 ADD PUSH1 0x0 SWAP1 SLOAD SWAP1 PUSH2 0x100 EXP SWAP1 DIV PUSH20 0xFFFFFFFFFFFFFFFFFFFFFFFFFFFFFFFFFFFFFFFF AND PUSH20 0xFFFFFFFFFFFFFFFFFFFFFFFFFFFFFFFFFFFFFFFF AND SUB PUSH2 0x18ED JUMPI PUSH1 0x4 DUP2 DUP2 SLOAD DUP2 LT PUSH2 0x1844 JUMPI PUSH2 0x1843 PUSH2 0x1E48 JUMP JUMPDEST JUMPDEST SWAP1 PUSH1 0x0 MSTORE PUSH1 0x20 PUSH1 0x0 KECCAK256 ADD PUSH1 0x40 MLOAD DUP1 PUSH1 0x60 ADD PUSH1 0x40 MSTORE SWAP1 DUP2 PUSH1 0x0 DUP3 ADD PUSH1 0x0 SWAP1 SLOAD SWAP1 PUSH2 0x100 EXP SWAP1 DIV PUSH20 0xFFFFFFFFFFFFFFFFFFFFFFFFFFFFFFFFFFFFFFFF AND PUSH20 0xFFFFFFFFFFFFFFFFFFFFFFFFFFFFFFFFFFFFFFFF AND PUSH20 0xFFFFFFFFFFFFFFFFFFFFFFFFFFFFFFFFFFFFFFFF AND DUP2 MSTORE PUSH1 0x20 ADD PUSH1 0x0 DUP3 ADD PUSH1 0x14 SWAP1 SLOAD SWAP1 PUSH2 0x100 EXP SWAP1 DIV PUSH1 0xFF AND ISZERO ISZERO ISZERO ISZERO DUP2 MSTORE PUSH1 0x20 ADD PUSH1 0x0 DUP3 ADD PUSH1 0x15 SWAP1 SLOAD SWAP1 PUSH2 0x100 EXP SWAP1 DIV PUSH1 0xFF AND ISZERO ISZERO ISZERO ISZERO DUP2 MSTORE POP POP SWAP2 POP POP PUSH2 0x193C JUMP JUMPDEST DUP1 DUP1 PUSH2 0x18F8 SWAP1 PUSH2 0x1EA6 JUMP JUMPDEST SWAP2 POP POP PUSH2 0x17AF JUMP JUMPDEST POP PUSH1 0x40 MLOAD DUP1 PUSH1 0x60 ADD PUSH1 0x40 MSTORE DUP1 PUSH1 0x0 PUSH20 0xFFFFFFFFFFFFFFFFFFFFFFFFFFFFFFFFFFFFFFFF AND DUP2 MSTORE PUSH1 0x20 ADD PUSH1 0x0 ISZERO ISZERO DUP2 MSTORE PUSH1 0x20 ADD PUSH1 0x0 ISZERO ISZERO DUP2 MSTORE POP SWAP1 POP JUMPDEST SWAP2 SWAP1 POP JUMP JUMPDEST PUSH1 0x0 DUP1 PUSH1 0x0 SWAP1 POP JUMPDEST PUSH1 0x4 DUP1 SLOAD SWAP1 POP DUP2 LT ISZERO PUSH2 0x19E6 JUMPI DUP3 PUSH20 0xFFFFFFFFFFFFFFFFFFFFFFFFFFFFFFFFFFFFFFFF AND PUSH1 0x4 DUP3 DUP2 SLOAD DUP2 LT PUSH2 0x1981 JUMPI PUSH2 0x1980 PUSH2 0x1E48 JUMP JUMPDEST JUMPDEST SWAP1 PUSH1 0x0 MSTORE PUSH1 0x20 PUSH1 0x0 KECCAK256 ADD PUSH1 0x0 ADD PUSH1 0x0 SWAP1 SLOAD SWAP1 PUSH2 0x100 EXP SWAP1 DIV PUSH20 0xFFFFFFFFFFFFFFFFFFFFFFFFFFFFFFFFFFFFFFFF AND PUSH20 0xFFFFFFFFFFFFFFFFFFFFFFFFFFFFFFFFFFFFFFFF AND SUB PUSH2 0x19D3 JUMPI DUP1 SWAP2 POP POP PUSH2 0x19F0 JUMP JUMPDEST DUP1 DUP1 PUSH2 0x19DE SWAP1 PUSH2 0x1EA6 JUMP JUMPDEST SWAP2 POP POP PUSH2 0x1949 JUMP JUMPDEST POP PUSH1 0x4 DUP1 SLOAD SWAP1 POP SWAP1 POP JUMPDEST SWAP2 SWAP1 POP JUMP JUMPDEST PUSH1 0x40 MLOAD DUP1 PUSH1 0x60 ADD PUSH1 0x40 MSTORE DUP1 PUSH1 0x0 PUSH20 0xFFFFFFFFFFFFFFFFFFFFFFFFFFFFFFFFFFFFFFFF AND DUP2 MSTORE PUSH1 0x20 ADD PUSH1 0x0 ISZERO ISZERO DUP2 MSTORE PUSH1 0x20 ADD PUSH1 0x0 ISZERO ISZERO DUP2 MSTORE POP SWAP1 JUMP JUMPDEST PUSH1 0x0 PUSH1 0x40 MLOAD SWAP1 POP SWAP1 JUMP JUMPDEST PUSH1 0x0 DUP1 REVERT JUMPDEST PUSH1 0x0 DUP1 REVERT JUMPDEST PUSH1 0x0 PUSH20 0xFFFFFFFFFFFFFFFFFFFFFFFFFFFFFFFFFFFFFFFF DUP3 AND SWAP1 POP SWAP2 SWAP1 POP JUMP JUMPDEST PUSH1 0x0 PUSH2 0x1A6F DUP3 PUSH2 0x1A44 JUMP JUMPDEST SWAP1 POP SWAP2 SWAP1 POP JUMP JUMPDEST PUSH2 0x1A7F DUP2 PUSH2 0x1A64 JUMP JUMPDEST DUP2 EQ PUSH2 0x1A8A JUMPI PUSH1 0x0 DUP1 REVERT JUMPDEST POP JUMP JUMPDEST PUSH1 0x0 DUP2 CALLDATALOAD SWAP1 POP PUSH2 0x1A9C DUP2 PUSH2 0x1A76 JUMP JUMPDEST SWAP3 SWAP2 POP POP JUMP JUMPDEST PUSH1 0x0 PUSH1 0x20 DUP3 DUP5 SUB SLT ISZERO PUSH2 0x1AB8 JUMPI PUSH2 0x1AB7 PUSH2 0x1A3A JUMP JUMPDEST JUMPDEST PUSH1 0x0 PUSH2 0x1AC6 DUP5 DUP3 DUP6 ADD PUSH2 0x1A8D JUMP JUMPDEST SWAP2 POP POP SWAP3 SWAP2 POP POP JUMP JUMPDEST PUSH1 0x0 DUP2 SWAP1 POP SWAP2 SWAP1 POP JUMP JUMPDEST PUSH2 0x1AE2 DUP2 PUSH2 0x1ACF JUMP JUMPDEST DUP2 EQ PUSH2 0x1AED JUMPI PUSH1 0x0 DUP1 REVERT JUMPDEST POP JUMP JUMPDEST PUSH1 0x0 DUP2 CALLDATALOAD SWAP1 POP PUSH2 0x1AFF DUP2 PUSH2 0x1AD9 JUMP JUMPDEST SWAP3 SWAP2 POP POP JUMP JUMPDEST PUSH1 0x0 DUP1 REVERT JUMPDEST PUSH1 0x0 DUP1 REVERT JUMPDEST PUSH1 0x0 PUSH1 0x1F NOT PUSH1 0x1F DUP4 ADD AND SWAP1 POP SWAP2 SWAP1 POP JUMP JUMPDEST PUSH32 0x4E487B7100000000000000000000000000000000000000000000000000000000 PUSH1 0x0 MSTORE PUSH1 0x41 PUSH1 0x4 MSTORE PUSH1 0x24 PUSH1 0x0 REVERT JUMPDEST PUSH2 0x1B58 DUP3 PUSH2 0x1B0F JUMP JUMPDEST DUP2 ADD DUP2 DUP2 LT PUSH8 0xFFFFFFFFFFFFFFFF DUP3 GT OR ISZERO PUSH2 0x1B77 JUMPI PUSH2 0x1B76 PUSH2 0x1B20 JUMP JUMPDEST JUMPDEST DUP1 PUSH1 0x40 MSTORE POP POP POP JUMP JUMPDEST PUSH1 0x0 PUSH2 0x1B8A PUSH2 0x1A30 JUMP JUMPDEST SWAP1 POP PUSH2 0x1B96 DUP3 DUP3 PUSH2 0x1B4F JUMP JUMPDEST SWAP2 SWAP1 POP JUMP JUMPDEST PUSH1 0x0 PUSH8 0xFFFFFFFFFFFFFFFF DUP3 GT ISZERO PUSH2 0x1BB6 JUMPI PUSH2 0x1BB5 PUSH2 0x1B20 JUMP JUMPDEST JUMPDEST PUSH2 0x1BBF DUP3 PUSH2 0x1B0F JUMP JUMPDEST SWAP1 POP PUSH1 0x20 DUP2 ADD SWAP1 POP SWAP2 SWAP1 POP JUMP JUMPDEST DUP3 DUP2 DUP4 CALLDATACOPY PUSH1 0x0 DUP4 DUP4 ADD MSTORE POP POP POP JUMP JUMPDEST PUSH1 0x0 PUSH2 0x1BEE PUSH2 0x1BE9 DUP5 PUSH2 0x1B9B JUMP JUMPDEST PUSH2 0x1B80 JUMP JUMPDEST SWAP1 POP DUP3 DUP2 MSTORE PUSH1 0x20 DUP2 ADD DUP5 DUP5 DUP5 ADD GT ISZERO PUSH2 0x1C0A JUMPI PUSH2 0x1C09 PUSH2 0x1B0A JUMP JUMPDEST JUMPDEST PUSH2 0x1C15 DUP5 DUP3 DUP6 PUSH2 0x1BCC JUMP JUMPDEST POP SWAP4 SWAP3 POP POP POP JUMP JUMPDEST PUSH1 0x0 DUP3 PUSH1 0x1F DUP4 ADD SLT PUSH2 0x1C32 JUMPI PUSH2 0x1C31 PUSH2 0x1B05 JUMP JUMPDEST JUMPDEST DUP2 CALLDATALOAD PUSH2 0x1C42 DUP5 DUP3 PUSH1 0x20 DUP7 ADD PUSH2 0x1BDB JUMP JUMPDEST SWAP2 POP POP SWAP3 SWAP2 POP POP JUMP JUMPDEST PUSH1 0x0 DUP1 PUSH1 0x40 DUP4 DUP6 SUB SLT ISZERO PUSH2 0x1C62 JUMPI PUSH2 0x1C61 PUSH2 0x1A3A JUMP JUMPDEST JUMPDEST PUSH1 0x0 PUSH2 0x1C70 DUP6 DUP3 DUP7 ADD PUSH2 0x1AF0 JUMP JUMPDEST SWAP3 POP POP PUSH1 0x20 DUP4 ADD CALLDATALOAD PUSH8 0xFFFFFFFFFFFFFFFF DUP2 GT ISZERO PUSH2 0x1C91 JUMPI PUSH2 0x1C90 PUSH2 0x1A3F JUMP JUMPDEST JUMPDEST PUSH2 0x1C9D DUP6 DUP3 DUP7 ADD PUSH2 0x1C1D JUMP JUMPDEST SWAP2 POP POP SWAP3 POP SWAP3 SWAP1 POP JUMP JUMPDEST PUSH1 0x0 DUP3 DUP3 MSTORE PUSH1 0x20 DUP3 ADD SWAP1 POP SWAP3 SWAP2 POP POP JUMP JUMPDEST PUSH32 0x4F6E6C7920656E67616765642E00000000000000000000000000000000000000 PUSH1 0x0 DUP3 ADD MSTORE POP JUMP JUMPDEST PUSH1 0x0 PUSH2 0x1CEE PUSH1 0xD DUP4 PUSH2 0x1CA7 JUMP JUMPDEST SWAP2 POP PUSH2 0x1CF9 DUP3 PUSH2 0x1CB8 JUMP JUMPDEST PUSH1 0x20 DUP3 ADD SWAP1 POP SWAP2 SWAP1 POP JUMP JUMPDEST PUSH1 0x0 PUSH1 0x20 DUP3 ADD SWAP1 POP DUP2 DUP2 SUB PUSH1 0x0 DUP4 ADD MSTORE PUSH2 0x1D1D DUP2 PUSH2 0x1CE1 JUMP JUMPDEST SWAP1 POP SWAP2 SWAP1 POP JUMP JUMPDEST PUSH32 0x416464726573732031206D757374206167726565206F6E207061727469636970 PUSH1 0x0 DUP3 ADD MSTORE PUSH32 0x616E74732E000000000000000000000000000000000000000000000000000000 PUSH1 0x20 DUP3 ADD MSTORE POP JUMP JUMPDEST PUSH1 0x0 PUSH2 0x1D80 PUSH1 0x25 DUP4 PUSH2 0x1CA7 JUMP JUMPDEST SWAP2 POP PUSH2 0x1D8B DUP3 PUSH2 0x1D24 JUMP JUMPDEST PUSH1 0x40 DUP3 ADD SWAP1 POP SWAP2 SWAP1 POP JUMP JUMPDEST PUSH1 0x0 PUSH1 0x20 DUP3 ADD SWAP1 POP DUP2 DUP2 SUB PUSH1 0x0 DUP4 ADD MSTORE PUSH2 0x1DAF DUP2 PUSH2 0x1D73 JUMP JUMPDEST SWAP1 POP SWAP2 SWAP1 POP JUMP JUMPDEST PUSH32 0x416464726573732032206D757374206167726565206F6E207061727469636970 PUSH1 0x0 DUP3 ADD MSTORE PUSH32 0x616E74732E000000000000000000000000000000000000000000000000000000 PUSH1 0x20 DUP3 ADD MSTORE POP JUMP JUMPDEST PUSH1 0x0 PUSH2 0x1E12 PUSH1 0x25 DUP4 PUSH2 0x1CA7 JUMP JUMPDEST SWAP2 POP PUSH2 0x1E1D DUP3 PUSH2 0x1DB6 JUMP JUMPDEST PUSH1 0x40 DUP3 ADD SWAP1 POP SWAP2 SWAP1 POP JUMP JUMPDEST PUSH1 0x0 PUSH1 0x20 DUP3 ADD SWAP1 POP DUP2 DUP2 SUB PUSH1 0x0 DUP4 ADD MSTORE PUSH2 0x1E41 DUP2 PUSH2 0x1E05 JUMP JUMPDEST SWAP1 POP SWAP2 SWAP1 POP JUMP JUMPDEST PUSH32 0x4E487B7100000000000000000000000000000000000000000000000000000000 PUSH1 0x0 MSTORE PUSH1 0x32 PUSH1 0x4 MSTORE PUSH1 0x24 PUSH1 0x0 REVERT JUMPDEST PUSH32 0x4E487B7100000000000000000000000000000000000000000000000000000000 PUSH1 0x0 MSTORE PUSH1 0x11 PUSH1 0x4 MSTORE PUSH1 0x24 PUSH1 0x0 REVERT JUMPDEST PUSH1 0x0 PUSH2 0x1EB1 DUP3 PUSH2 0x1ACF JUMP JUMPDEST SWAP2 POP PUSH32 0xFFFFFFFFFFFFFFFFFFFFFFFFFFFFFFFFFFFFFFFFFFFFFFFFFFFFFFFFFFFFFFFF DUP3 SUB PUSH2 0x1EE3 JUMPI PUSH2 0x1EE2 PUSH2 0x1E77 JUMP JUMPDEST JUMPDEST PUSH1 0x1 DUP3 ADD SWAP1 POP SWAP2 SWAP1 POP JUMP JUMPDEST PUSH1 0x0 PUSH2 0x1EF9 DUP3 PUSH2 0x1ACF JUMP JUMPDEST SWAP2 POP PUSH2 0x1F04 DUP4 PUSH2 0x1ACF JUMP JUMPDEST SWAP3 POP DUP3 DUP3 MUL PUSH2 0x1F12 DUP2 PUSH2 0x1ACF JUMP JUMPDEST SWAP2 POP DUP3 DUP3 DIV DUP5 EQ DUP4 ISZERO OR PUSH2 0x1F29 JUMPI PUSH2 0x1F28 PUSH2 0x1E77 JUMP JUMPDEST JUMPDEST POP SWAP3 SWAP2 POP POP JUMP JUMPDEST PUSH32 0x48616C6620766F74656420616761696E73742E00000000000000000000000000 PUSH1 0x0 DUP3 ADD MSTORE POP JUMP JUMPDEST PUSH1 0x0 PUSH2 0x1F66 PUSH1 0x13 DUP4 PUSH2 0x1CA7 JUMP JUMPDEST SWAP2 POP PUSH2 0x1F71 DUP3 PUSH2 0x1F30 JUMP JUMPDEST PUSH1 0x20 DUP3 ADD SWAP1 POP SWAP2 SWAP1 POP JUMP JUMPDEST PUSH1 0x0 PUSH1 0x20 DUP3 ADD SWAP1 POP DUP2 DUP2 SUB PUSH1 0x0 DUP4 ADD MSTORE PUSH2 0x1F95 DUP2 PUSH2 0x1F59 JUMP JUMPDEST SWAP1 POP SWAP2 SWAP1 POP JUMP JUMPDEST PUSH32 0x546F6F206561726C792C206D6174652E00000000000000000000000000000000 PUSH1 0x0 DUP3 ADD MSTORE POP JUMP JUMPDEST PUSH1 0x0 PUSH2 0x1FD2 PUSH1 0x10 DUP4 PUSH2 0x1CA7 JUMP JUMPDEST SWAP2 POP PUSH2 0x1FDD DUP3 PUSH2 0x1F9C JUMP JUMPDEST PUSH1 0x20 DUP3 ADD SWAP1 POP SWAP2 SWAP1 POP JUMP JUMPDEST PUSH1 0x0 PUSH1 0x20 DUP3 ADD SWAP1 POP DUP2 DUP2 SUB PUSH1 0x0 DUP4 ADD MSTORE PUSH2 0x2001 DUP2 PUSH2 0x1FC5 JUMP JUMPDEST SWAP1 POP SWAP2 SWAP1 POP JUMP JUMPDEST PUSH32 0x4F6E6C79207061727469636970616E742E000000000000000000000000000000 PUSH1 0x0 DUP3 ADD MSTORE POP JUMP JUMPDEST PUSH1 0x0 PUSH2 0x203E PUSH1 0x11 DUP4 PUSH2 0x1CA7 JUMP JUMPDEST SWAP2 POP PUSH2 0x2049 DUP3 PUSH2 0x2008 JUMP JUMPDEST PUSH1 0x20 DUP3 ADD SWAP1 POP SWAP2 SWAP1 POP JUMP JUMPDEST PUSH1 0x0 PUSH1 0x20 DUP3 ADD SWAP1 POP DUP2 DUP2 SUB PUSH1 0x0 DUP4 ADD MSTORE PUSH2 0x206D DUP2 PUSH2 0x2031 JUMP JUMPDEST SWAP1 POP SWAP2 SWAP1 POP JUMP JUMPDEST PUSH32 0x4F6E6C7920756E7765642E000000000000000000000000000000000000000000 PUSH1 0x0 DUP3 ADD MSTORE POP JUMP JUMPDEST PUSH1 0x0 PUSH2 0x20AA PUSH1 0xB DUP4 PUSH2 0x1CA7 JUMP JUMPDEST SWAP2 POP PUSH2 0x20B5 DUP3 PUSH2 0x2074 JUMP JUMPDEST PUSH1 0x20 DUP3 ADD SWAP1 POP SWAP2 SWAP1 POP JUMP JUMPDEST PUSH1 0x0 PUSH1 0x20 DUP3 ADD SWAP1 POP DUP2 DUP2 SUB PUSH1 0x0 DUP4 ADD MSTORE PUSH2 0x20D9 DUP2 PUSH2 0x209D JUMP JUMPDEST SWAP1 POP SWAP2 SWAP1 POP JUMP JUMPDEST PUSH1 0x0 DUP2 MLOAD SWAP1 POP SWAP2 SWAP1 POP JUMP JUMPDEST PUSH32 0x4E487B7100000000000000000000000000000000000000000000000000000000 PUSH1 0x0 MSTORE PUSH1 0x22 PUSH1 0x4 MSTORE PUSH1 0x24 PUSH1 0x0 REVERT JUMPDEST PUSH1 0x0 PUSH1 0x2 DUP3 DIV SWAP1 POP PUSH1 0x1 DUP3 AND DUP1 PUSH2 0x2132 JUMPI PUSH1 0x7F DUP3 AND SWAP2 POP JUMPDEST PUSH1 0x20 DUP3 LT DUP2 SUB PUSH2 0x2145 JUMPI PUSH2 0x2144 PUSH2 0x20EB JUMP JUMPDEST JUMPDEST POP SWAP2 SWAP1 POP JUMP JUMPDEST PUSH1 0x0 DUP2 SWAP1 POP DUP2 PUSH1 0x0 MSTORE PUSH1 0x20 PUSH1 0x0 KECCAK256 SWAP1 POP SWAP2 SWAP1 POP JUMP JUMPDEST PUSH1 0x0 PUSH1 0x20 PUSH1 0x1F DUP4 ADD DIV SWAP1 POP SWAP2 SWAP1 POP JUMP JUMPDEST PUSH1 0x0 DUP3 DUP3 SHL SWAP1 POP SWAP3 SWAP2 POP POP JUMP JUMPDEST PUSH1 0x0 PUSH1 0x8 DUP4 MUL PUSH2 0x21AD PUSH32 0xFFFFFFFFFFFFFFFFFFFFFFFFFFFFFFFFFFFFFFFFFFFFFFFFFFFFFFFFFFFFFFFF DUP3 PUSH2 0x2170 JUMP JUMPDEST PUSH2 0x21B7 DUP7 DUP4 PUSH2 0x2170 JUMP JUMPDEST SWAP6 POP DUP1 NOT DUP5 AND SWAP4 POP DUP1 DUP7 AND DUP5 OR SWAP3 POP POP POP SWAP4 SWAP3 POP POP POP JUMP JUMPDEST PUSH1 0x0 DUP2 SWAP1 POP SWAP2 SWAP1 POP JUMP JUMPDEST PUSH1 0x0 PUSH2 0x21F4 PUSH2 0x21EF PUSH2 0x21EA DUP5 PUSH2 0x1ACF JUMP JUMPDEST PUSH2 0x21CF JUMP JUMPDEST PUSH2 0x1ACF JUMP JUMPDEST SWAP1 POP SWAP2 SWAP1 POP JUMP JUMPDEST PUSH1 0x0 DUP2 SWAP1 POP SWAP2 SWAP1 POP JUMP JUMPDEST PUSH2 0x220E DUP4 PUSH2 0x21D9 JUMP JUMPDEST PUSH2 0x2222 PUSH2 0x221A DUP3 PUSH2 0x21FB JUMP JUMPDEST DUP5 DUP5 SLOAD PUSH2 0x217D JUMP JUMPDEST DUP3 SSTORE POP POP POP POP JUMP JUMPDEST PUSH1 0x0 SWAP1 JUMP JUMPDEST PUSH2 0x2237 PUSH2 0x222A JUMP JUMPDEST PUSH2 0x2242 DUP2 DUP5 DUP5 PUSH2 0x2205 JUMP JUMPDEST POP POP POP JUMP JUMPDEST JUMPDEST DUP2 DUP2 LT ISZERO PUSH2 0x2266 JUMPI PUSH2 0x225B PUSH1 0x0 DUP3 PUSH2 0x222F JUMP JUMPDEST PUSH1 0x1 DUP2 ADD SWAP1 POP PUSH2 0x2248 JUMP JUMPDEST POP POP JUMP JUMPDEST PUSH1 0x1F DUP3 GT ISZERO PUSH2 0x22AB JUMPI PUSH2 0x227C DUP2 PUSH2 0x214B JUMP JUMPDEST PUSH2 0x2285 DUP5 PUSH2 0x2160 JUMP JUMPDEST DUP2 ADD PUSH1 0x20 DUP6 LT ISZERO PUSH2 0x2294 JUMPI DUP2 SWAP1 POP JUMPDEST PUSH2 0x22A8 PUSH2 0x22A0 DUP6 PUSH2 0x2160 JUMP JUMPDEST DUP4 ADD DUP3 PUSH2 0x2247 JUMP JUMPDEST POP POP JUMPDEST POP POP POP JUMP JUMPDEST PUSH1 0x0 DUP3 DUP3 SHR SWAP1 POP SWAP3 SWAP2 POP POP JUMP JUMPDEST PUSH1 0x0 PUSH2 0x22CE PUSH1 0x0 NOT DUP5 PUSH1 0x8 MUL PUSH2 0x22B0 JUMP JUMPDEST NOT DUP1 DUP4 AND SWAP2 POP POP SWAP3 SWAP2 POP POP JUMP JUMPDEST PUSH1 0x0 PUSH2 0x22E7 DUP4 DUP4 PUSH2 0x22BD JUMP JUMPDEST SWAP2 POP DUP3 PUSH1 0x2 MUL DUP3 OR SWAP1 POP SWAP3 SWAP2 POP POP JUMP JUMPDEST PUSH2 0x2300 DUP3 PUSH2 0x20E0 JUMP JUMPDEST PUSH8 0xFFFFFFFFFFFFFFFF DUP2 GT ISZERO PUSH2 0x2319 JUMPI PUSH2 0x2318 PUSH2 0x1B20 JUMP JUMPDEST JUMPDEST PUSH2 0x2323 DUP3 SLOAD PUSH2 0x211A JUMP JUMPDEST PUSH2 0x232E DUP3 DUP3 DUP6 PUSH2 0x226A JUMP JUMPDEST PUSH1 0x0 PUSH1 0x20 SWAP1 POP PUSH1 0x1F DUP4 GT PUSH1 0x1 DUP2 EQ PUSH2 0x2361 JUMPI PUSH1 0x0 DUP5 ISZERO PUSH2 0x234F JUMPI DUP3 DUP8 ADD MLOAD SWAP1 POP JUMPDEST PUSH2 0x2359 DUP6 DUP3 PUSH2 0x22DB JUMP JUMPDEST DUP7 SSTORE POP PUSH2 0x23C1 JUMP JUMPDEST PUSH1 0x1F NOT DUP5 AND PUSH2 0x236F DUP7 PUSH2 0x214B JUMP JUMPDEST PUSH1 0x0 JUMPDEST DUP3 DUP2 LT ISZERO PUSH2 0x2397 JUMPI DUP5 DUP10 ADD MLOAD DUP3 SSTORE PUSH1 0x1 DUP3 ADD SWAP2 POP PUSH1 0x20 DUP6 ADD SWAP5 POP PUSH1 0x20 DUP2 ADD SWAP1 POP PUSH2 0x2372 JUMP JUMPDEST DUP7 DUP4 LT ISZERO PUSH2 0x23B4 JUMPI DUP5 DUP10 ADD MLOAD PUSH2 0x23B0 PUSH1 0x1F DUP10 AND DUP3 PUSH2 0x22BD JUMP JUMPDEST DUP4 SSTORE POP JUMPDEST PUSH1 0x1 PUSH1 0x2 DUP9 MUL ADD DUP9 SSTORE POP POP POP JUMPDEST POP POP POP POP POP POP JUMP JUMPDEST PUSH32 0x4F6E6C7920636F6E6669726D6564207061727469636970616E74732E00000000 PUSH1 0x0 DUP3 ADD MSTORE POP JUMP JUMPDEST PUSH1 0x0 PUSH2 0x23FF PUSH1 0x1C DUP4 PUSH2 0x1CA7 JUMP JUMPDEST SWAP2 POP PUSH2 0x240A DUP3 PUSH2 0x23C9 JUMP JUMPDEST PUSH1 0x20 DUP3 ADD SWAP1 POP SWAP2 SWAP1 POP JUMP JUMPDEST PUSH1 0x0 PUSH1 0x20 DUP3 ADD SWAP1 POP DUP2 DUP2 SUB PUSH1 0x0 DUP4 ADD MSTORE PUSH2 0x242E DUP2 PUSH2 0x23F2 JUMP JUMPDEST SWAP1 POP SWAP2 SWAP1 POP JUMP INVALID LOG2 PUSH5 0x6970667358 0x22 SLT KECCAK256 EQ 0x4D 0xD7 INVALID 0xB9 CALLCODE PUSH5 0x7D303DFA3C BASEFEE CALLDATALOAD DUP8 0xEF PUSH24 0x3552C0914DBA823F605098001F1C2C64736F6C6343000812 STOP CALLER "
				},
				"gasEstimates": {
					"creation": {
						"codeDepositCost": "1864600",
						"executionCost": "1969",
						"totalCost": "1866569"
					},
					"external": {
						"acceptInvitation()": "infinite",
						"agreeOnParticipants()": "112910",
						"engage(uint256,string)": "infinite",
						"inviteParticipant(address)": "102178",
						"revokeEngagement()": "199357",
						"voteAgainst()": "infinite",
						"wed()": "infinite"
					},
					"internal": {
						"getParticipant(address)": "infinite",
						"getParticipantIndex(address)": "infinite"
					}
				},
				"methodIdentifiers": {
					"acceptInvitation()": "728f1112",
					"agreeOnParticipants()": "a64b959f",
					"engage(uint256,string)": "7bcd97af",
					"inviteParticipant(address)": "266ae81c",
					"revokeEngagement()": "6d955eb5",
					"voteAgainst()": "9f396cff",
					"wed()": "68aee9e8"
				}
			},
			"storageLayout": {
				"storage": [
					{
						"astId": 13,
						"contract": "contracts/Wedding.sol:Wedding",
						"label": "spouse1",
						"offset": 0,
						"slot": "0",
						"type": "t_struct(Spouse)10_storage"
					},
					{
						"astId": 16,
						"contract": "contracts/Wedding.sol:Wedding",
						"label": "spouse2",
						"offset": 0,
						"slot": "1",
						"type": "t_struct(Spouse)10_storage"
					},
					{
						"astId": 18,
						"contract": "contracts/Wedding.sol:Wedding",
						"label": "date",
						"offset": 0,
						"slot": "2",
						"type": "t_uint256"
					},
					{
						"astId": 20,
						"contract": "contracts/Wedding.sol:Wedding",
						"label": "additionalInfo",
						"offset": 0,
						"slot": "3",
						"type": "t_string_storage"
					},
					{
						"astId": 31,
						"contract": "contracts/Wedding.sol:Wedding",
						"label": "participants",
						"offset": 0,
						"slot": "4",
						"type": "t_array(t_struct(Participant)27_storage)dyn_storage"
					}
				],
				"types": {
					"t_address": {
						"encoding": "inplace",
						"label": "address",
						"numberOfBytes": "20"
					},
					"t_array(t_struct(Participant)27_storage)dyn_storage": {
						"base": "t_struct(Participant)27_storage",
						"encoding": "dynamic_array",
						"label": "struct Wedding.Participant[]",
						"numberOfBytes": "32"
					},
					"t_bool": {
						"encoding": "inplace",
						"label": "bool",
						"numberOfBytes": "1"
					},
					"t_string_storage": {
						"encoding": "bytes",
						"label": "string",
						"numberOfBytes": "32"
					},
					"t_struct(Participant)27_storage": {
						"encoding": "inplace",
						"label": "struct Wedding.Participant",
						"members": [
							{
								"astId": 22,
								"contract": "contracts/Wedding.sol:Wedding",
								"label": "addr",
								"offset": 0,
								"slot": "0",
								"type": "t_address"
							},
							{
								"astId": 24,
								"contract": "contracts/Wedding.sol:Wedding",
								"label": "confirmed",
								"offset": 20,
								"slot": "0",
								"type": "t_bool"
							},
							{
								"astId": 26,
								"contract": "contracts/Wedding.sol:Wedding",
								"label": "votedAgainst",
								"offset": 21,
								"slot": "0",
								"type": "t_bool"
							}
						],
						"numberOfBytes": "32"
					},
					"t_struct(Spouse)10_storage": {
						"encoding": "inplace",
						"label": "struct Wedding.Spouse",
						"members": [
							{
								"astId": 3,
								"contract": "contracts/Wedding.sol:Wedding",
								"label": "addr",
								"offset": 0,
								"slot": "0",
								"type": "t_address"
							},
							{
								"astId": 5,
								"contract": "contracts/Wedding.sol:Wedding",
								"label": "isWed",
								"offset": 20,
								"slot": "0",
								"type": "t_bool"
							},
							{
								"astId": 7,
								"contract": "contracts/Wedding.sol:Wedding",
								"label": "agreedOnParticipants",
								"offset": 21,
								"slot": "0",
								"type": "t_bool"
							},
							{
								"astId": 9,
								"contract": "contracts/Wedding.sol:Wedding",
								"label": "agreedOnWedding",
								"offset": 22,
								"slot": "0",
								"type": "t_bool"
							}
						],
						"numberOfBytes": "32"
					},
					"t_uint256": {
						"encoding": "inplace",
						"label": "uint256",
						"numberOfBytes": "32"
					}
				}
			},
			"userdoc": {
				"kind": "user",
				"methods": {},
				"version": 1
			}
		}
	}
}