{
	"data": {
		"bytecode": {
			"linkReferences": {},
			"object": "608060405234801562000010575f80fd5b506040518060400160405280601281526020017f57656464696e67436572746966696361746500000000000000000000000000008152506040518060400160405280600381526020017f5743540000000000000000000000000000000000000000000000000000000000815250815f90816200008d91906200030c565b5080600190816200009f91906200030c565b505050620003f0565b5f81519050919050565b7f4e487b71000000000000000000000000000000000000000000000000000000005f52604160045260245ffd5b7f4e487b71000000000000000000000000000000000000000000000000000000005f52602260045260245ffd5b5f60028204905060018216806200012457607f821691505b6020821081036200013a5762000139620000df565b5b50919050565b5f819050815f5260205f209050919050565b5f6020601f8301049050919050565b5f82821b905092915050565b5f600883026200019e7fffffffffffffffffffffffffffffffffffffffffffffffffffffffffffffffff8262000161565b620001aa868362000161565b95508019841693508086168417925050509392505050565b5f819050919050565b5f819050919050565b5f620001f4620001ee620001e884620001c2565b620001cb565b620001c2565b9050919050565b5f819050919050565b6200020f83620001d4565b620002276200021e82620001fb565b8484546200016d565b825550505050565b5f90565b6200023d6200022f565b6200024a81848462000204565b505050565b5b818110156200027157620002655f8262000233565b60018101905062000250565b5050565b601f821115620002c0576200028a8162000140565b620002958462000152565b81016020851015620002a5578190505b620002bd620002b48562000152565b8301826200024f565b50505b505050565b5f82821c905092915050565b5f620002e25f1984600802620002c5565b1980831691505092915050565b5f620002fc8383620002d1565b9150826002028217905092915050565b6200031782620000a8565b67ffffffffffffffff811115620003335762000332620000b2565b5b6200033f82546200010c565b6200034c82828562000275565b5f60209050601f83116001811462000382575f84156200036d578287015190505b620003798582620002ef565b865550620003e8565b601f198416620003928662000140565b5f5b82811015620003bb5784890151825560018201915060208501945060208101905062000394565b86831015620003db5784890151620003d7601f891682620002d1565b8355505b6001600288020188555050505b505050505050565b6158bd80620003fe5f395ff3fe608060405234801561000f575f80fd5b506004361061012a575f3560e01c806370a08231116100ab578063a22cb4651161006f578063a22cb465146102de578063a64b959f146102fa578063b88d4fde14610304578063c87b56dd14610320578063e985e9c5146103505761012a565b806370a0823114610260578063728f1112146102905780637bcd97af1461029a57806395d89b41146102b65780639f396cff146102d45761012a565b8063266ae81c116100f2578063266ae81c146101e457806342842e0e146102005780636352211e1461021c57806368aee9e81461024c5780636d955eb5146102565761012a565b806301ffc9a71461012e57806306fdde031461015e578063081812fc1461017c578063095ea7b3146101ac57806323b872dd146101c8575b5f80fd5b61014860048036038101906101439190613436565b610380565b604051610155919061347b565b60405180910390f35b6101666103e0565b604051610173919061351e565b60405180910390f35b61019660048036038101906101919190613571565b61046f565b6040516101a391906135db565b60405180910390f35b6101c660048036038101906101c1919061361e565b61048a565b005b6101e260048036038101906101dd919061365c565b6104a0565b005b6101fe60048036038101906101f991906136ac565b61059f565b005b61021a6004803603810190610215919061365c565b610769565b005b61023660048036038101906102319190613571565b610788565b60405161024391906135db565b60405180910390f35b610254610799565b005b61025e610fcf565b005b61027a600480360381019061027591906136ac565b611281565b60405161028791906136e6565b60405180910390f35b610298611337565b005b6102b460048036038101906102af919061382b565b611708565b005b6102be611ac2565b6040516102cb919061351e565b60405180910390f35b6102dc611b52565b005b6102f860048036038101906102f391906138af565b611ca6565b005b610302611cbc565b005b61031e6004803603810190610319919061398b565b612072565b005b61033a60048036038101906103359190613571565b61208f565b604051610347919061351e565b60405180910390f35b61036a60048036038101906103659190613a0b565b61219a565b604051610377919061347b565b60405180910390f35b5f634906490660e01b7bffffffffffffffffffffffffffffffffffffffffffffffffffffffff1916827bffffffffffffffffffffffffffffffffffffffffffffffffffffffff191614806103d957506103d882612228565b5b9050919050565b60605f80546103ee90613a76565b80601f016020809104026020016040519081016040528092919081815260200182805461041a90613a76565b80156104655780601f1061043c57610100808354040283529160200191610465565b820191905f5260205f20905b81548152906001019060200180831161044857829003601f168201915b5050505050905090565b5f61047982612309565b506104838261238f565b9050919050565b61049c82826104976123c8565b6123cf565b5050565b5f73ffffffffffffffffffffffffffffffffffffffff168273ffffffffffffffffffffffffffffffffffffffff1603610510575f6040517f64a0ae9200000000000000000000000000000000000000000000000000000000815260040161050791906135db565b60405180910390fd5b5f610523838361051e6123c8565b6123e1565b90508373ffffffffffffffffffffffffffffffffffffffff168173ffffffffffffffffffffffffffffffffffffffff1614610599578382826040517f64283d7b00000000000000000000000000000000000000000000000000000000815260040161059093929190613aa6565b60405180910390fd5b50505050565b60075f015f9054906101000a900473ffffffffffffffffffffffffffffffffffffffff1673ffffffffffffffffffffffffffffffffffffffff163373ffffffffffffffffffffffffffffffffffffffff16148061064a575060085f015f9054906101000a900473ffffffffffffffffffffffffffffffffffffffff1673ffffffffffffffffffffffffffffffffffffffff163373ffffffffffffffffffffffffffffffffffffffff16145b610689576040517f08c379a000000000000000000000000000000000000000000000000000000000815260040161068090613b25565b60405180910390fd5b600b60405180606001604052808373ffffffffffffffffffffffffffffffffffffffff1681526020015f151581526020015f1515815250908060018154018082558091505060019003905f5260205f20015f909190919091505f820151815f015f6101000a81548173ffffffffffffffffffffffffffffffffffffffff021916908373ffffffffffffffffffffffffffffffffffffffff1602179055506020820151815f0160146101000a81548160ff0219169083151502179055506040820151815f0160156101000a81548160ff021916908315150217905550505050565b61078383838360405180602001604052805f815250612072565b505050565b5f61079282612309565b9050919050565b60075f015f9054906101000a900473ffffffffffffffffffffffffffffffffffffffff1673ffffffffffffffffffffffffffffffffffffffff163373ffffffffffffffffffffffffffffffffffffffff161480610844575060085f015f9054906101000a900473ffffffffffffffffffffffffffffffffffffffff1673ffffffffffffffffffffffffffffffffffffffff163373ffffffffffffffffffffffffffffffffffffffff16145b610883576040517f08c379a000000000000000000000000000000000000000000000000000000000815260040161087a90613b25565b60405180910390fd5b60075f0160159054906101000a900460ff166108d4576040517f08c379a00000000000000000000000000000000000000000000000000000000081526004016108cb90613bb3565b60405180910390fd5b60085f0160159054906101000a900460ff16610925576040517f08c379a000000000000000000000000000000000000000000000000000000000815260040161091c90613c41565b60405180910390fd5b5f805f5b600b805490508110156109c957600b818154811061094a57610949613c5f565b5b905f5260205f20015f0160149054906101000a900460ff16156109b657818061097290613cb9565b925050600b818154811061098957610988613c5f565b5b905f5260205f20015f0160159054906101000a900460ff16156109b55782806109b190613cb9565b9350505b5b80806109c190613cb9565b915050610929565b50806002836109d89190613d00565b10610a18576040517f08c379a0000000000000000000000000000000000000000000000000000000008152600401610a0f90613d8b565b60405180910390fd5b5f4290506009548110158015610a3d575062015180600954610a3a9190613da9565b81105b610a7c576040517f08c379a0000000000000000000000000000000000000000000000000000000008152600401610a7390613e26565b60405180910390fd5b60075f0160169054906101000a900460ff16158015610ae9575060075f015f9054906101000a900473ffffffffffffffffffffffffffffffffffffffff1673ffffffffffffffffffffffffffffffffffffffff163373ffffffffffffffffffffffffffffffffffffffff16145b15610c1c57604051806080016040528060075f015f9054906101000a900473ffffffffffffffffffffffffffffffffffffffff1673ffffffffffffffffffffffffffffffffffffffff16815260200160075f0160149054906101000a900460ff161515815260200160075f0160159054906101000a900460ff16151581526020016001151581525060075f820151815f015f6101000a81548173ffffffffffffffffffffffffffffffffffffffff021916908373ffffffffffffffffffffffffffffffffffffffff1602179055506020820151815f0160146101000a81548160ff0219169083151502179055506040820151815f0160156101000a81548160ff0219169083151502179055506060820151815f0160166101000a81548160ff021916908315150217905550905050610d46565b604051806080016040528060085f015f9054906101000a900473ffffffffffffffffffffffffffffffffffffffff1673ffffffffffffffffffffffffffffffffffffffff16815260200160085f0160149054906101000a900460ff161515815260200160085f0160159054906101000a900460ff16151581526020016001151581525060085f820151815f015f6101000a81548173ffffffffffffffffffffffffffffffffffffffff021916908373ffffffffffffffffffffffffffffffffffffffff1602179055506020820151815f0160146101000a81548160ff0219169083151502179055506040820151815f0160156101000a81548160ff0219169083151502179055506060820151815f0160166101000a81548160ff0219169083151502179055509050505b60075f0160169054906101000a900460ff168015610d72575060085f0160169054906101000a900460ff165b15610fca57604051806080016040528060075f015f9054906101000a900473ffffffffffffffffffffffffffffffffffffffff1673ffffffffffffffffffffffffffffffffffffffff16815260200160011515815260200160075f0160159054906101000a900460ff161515815260200160075f0160169054906101000a900460ff16151581525060075f820151815f015f6101000a81548173ffffffffffffffffffffffffffffffffffffffff021916908373ffffffffffffffffffffffffffffffffffffffff1602179055506020820151815f0160146101000a81548160ff0219169083151502179055506040820151815f0160156101000a81548160ff0219169083151502179055506060820151815f0160166101000a81548160ff021916908315150217905550905050604051806080016040528060085f015f9054906101000a900473ffffffffffffffffffffffffffffffffffffffff1673ffffffffffffffffffffffffffffffffffffffff16815260200160011515815260200160085f0160159054906101000a900460ff161515815260200160085f0160169054906101000a900460ff16151581525060085f820151815f015f6101000a81548173ffffffffffffffffffffffffffffffffffffffff021916908373ffffffffffffffffffffffffffffffffffffffff1602179055506020820151815f0160146101000a81548160ff0219169083151502179055506040820151815f0160156101000a81548160ff0219169083151502179055506060820151815f0160166101000a81548160ff0219169083151502179055509050505b505050565b60075f015f9054906101000a900473ffffffffffffffffffffffffffffffffffffffff1673ffffffffffffffffffffffffffffffffffffffff163373ffffffffffffffffffffffffffffffffffffffff16148061107a575060085f015f9054906101000a900473ffffffffffffffffffffffffffffffffffffffff1673ffffffffffffffffffffffffffffffffffffffff163373ffffffffffffffffffffffffffffffffffffffff16145b6110b9576040517f08c379a00000000000000000000000000000000000000000000000000000000081526004016110b090613b25565b60405180910390fd5b60405180608001604052805f73ffffffffffffffffffffffffffffffffffffffff1681526020015f151581526020015f151581526020015f151581525060075f820151815f015f6101000a81548173ffffffffffffffffffffffffffffffffffffffff021916908373ffffffffffffffffffffffffffffffffffffffff1602179055506020820151815f0160146101000a81548160ff0219169083151502179055506040820151815f0160156101000a81548160ff0219169083151502179055506060820151815f0160166101000a81548160ff02191690831515021790555090505060405180608001604052805f73ffffffffffffffffffffffffffffffffffffffff1681526020015f151581526020015f151581526020015f151581525060085f820151815f015f6101000a81548173ffffffffffffffffffffffffffffffffffffffff021916908373ffffffffffffffffffffffffffffffffffffffff1602179055506020820151815f0160146101000a81548160ff0219169083151502179055506040820151815f0160156101000a81548160ff0219169083151502179055506060820151815f0160166101000a81548160ff021916908315150217905550905050565b5f8073ffffffffffffffffffffffffffffffffffffffff168273ffffffffffffffffffffffffffffffffffffffff16036112f2575f6040517f89c62b640000000000000000000000000000000000000000000000000000000081526004016112e991906135db565b60405180910390fd5b60035f8373ffffffffffffffffffffffffffffffffffffffff1673ffffffffffffffffffffffffffffffffffffffff1681526020019081526020015f20549050919050565b5f73ffffffffffffffffffffffffffffffffffffffff16611357336125ec565b5f015173ffffffffffffffffffffffffffffffffffffffff16036113b0576040517f08c379a00000000000000000000000000000000000000000000000000000000081526004016113a790613e8e565b60405180910390fd5b5f6113ba336125ec565b90505f6113c63361277b565b9050600b80549050811015611704576040518060600160405280835f015173ffffffffffffffffffffffffffffffffffffffff16815260200160011515815260200183604001511515815250600b828154811061142657611425613c5f565b5b905f5260205f20015f820151815f015f6101000a81548173ffffffffffffffffffffffffffffffffffffffff021916908373ffffffffffffffffffffffffffffffffffffffff1602179055506020820151815f0160146101000a81548160ff0219169083151502179055506040820151815f0160156101000a81548160ff021916908315150217905550905050604051806080016040528060075f015f9054906101000a900473ffffffffffffffffffffffffffffffffffffffff1673ffffffffffffffffffffffffffffffffffffffff16815260200160075f0160149054906101000a900460ff16151581526020015f1515815260200160075f0160169054906101000a900460ff16151581525060075f820151815f015f6101000a81548173ffffffffffffffffffffffffffffffffffffffff021916908373ffffffffffffffffffffffffffffffffffffffff1602179055506020820151815f0160146101000a81548160ff0219169083151502179055506040820151815f0160156101000a81548160ff0219169083151502179055506060820151815f0160166101000a81548160ff021916908315150217905550905050604051806080016040528060085f015f9054906101000a900473ffffffffffffffffffffffffffffffffffffffff1673ffffffffffffffffffffffffffffffffffffffff16815260200160085f0160149054906101000a900460ff16151581526020015f1515815260200160085f0160169054906101000a900460ff16151581525060085f820151815f015f6101000a81548173ffffffffffffffffffffffffffffffffffffffff021916908373ffffffffffffffffffffffffffffffffffffffff1602179055506020820151815f0160146101000a81548160ff0219169083151502179055506040820151815f0160156101000a81548160ff0219169083151502179055506060820151815f0160166101000a81548160ff0219169083151502179055509050505b5050565b5f60075f015f9054906101000a900473ffffffffffffffffffffffffffffffffffffffff1673ffffffffffffffffffffffffffffffffffffffff163373ffffffffffffffffffffffffffffffffffffffff16036117785760075f0160149054906101000a900460ff1690506117e4565b60085f015f9054906101000a900473ffffffffffffffffffffffffffffffffffffffff1673ffffffffffffffffffffffffffffffffffffffff163373ffffffffffffffffffffffffffffffffffffffff16036117e35760085f0160149054906101000a900460ff1690505b5b8015611825576040517f08c379a000000000000000000000000000000000000000000000000000000000815260040161181c90613ef6565b60405180910390fd5b5f73ffffffffffffffffffffffffffffffffffffffff1660075f015f9054906101000a900473ffffffffffffffffffffffffffffffffffffffff1673ffffffffffffffffffffffffffffffffffffffff160361197a5760405180608001604052803373ffffffffffffffffffffffffffffffffffffffff1681526020015f151581526020015f151581526020015f151581525060075f820151815f015f6101000a81548173ffffffffffffffffffffffffffffffffffffffff021916908373ffffffffffffffffffffffffffffffffffffffff1602179055506020820151815f0160146101000a81548160ff0219169083151502179055506040820151815f0160156101000a81548160ff0219169083151502179055506060820151815f0160166101000a81548160ff0219169083151502179055509050508260098190555081600a908161197491906140b1565b50611abd565b5f73ffffffffffffffffffffffffffffffffffffffff1660085f015f9054906101000a900473ffffffffffffffffffffffffffffffffffffffff1673ffffffffffffffffffffffffffffffffffffffff1603611abc5760405180608001604052803373ffffffffffffffffffffffffffffffffffffffff1681526020015f151581526020015f151581526020015f151581525060085f820151815f015f6101000a81548173ffffffffffffffffffffffffffffffffffffffff021916908373ffffffffffffffffffffffffffffffffffffffff1602179055506020820151815f0160146101000a81548160ff0219169083151502179055506040820151815f0160156101000a81548160ff0219169083151502179055506060820151815f0160166101000a81548160ff021916908315150217905550905050611abb612829565b5b5b505050565b606060018054611ad190613a76565b80601f0160208091040260200160405190810160405280929190818152602001828054611afd90613a76565b8015611b485780601f10611b1f57610100808354040283529160200191611b48565b820191905f5260205f20905b815481529060010190602001808311611b2b57829003601f168201915b5050505050905090565b611b5b336125ec565b60200151611b9e576040517f08c379a0000000000000000000000000000000000000000000000000000000008152600401611b95906141ca565b60405180910390fd5b5f611ba8336125ec565b90505f611bb43361277b565b9050600b80549050811015611ca2576040518060600160405280835f015173ffffffffffffffffffffffffffffffffffffffff16815260200183602001511515815260200160011515815250600b8281548110611c1457611c13613c5f565b5b905f5260205f20015f820151815f015f6101000a81548173ffffffffffffffffffffffffffffffffffffffff021916908373ffffffffffffffffffffffffffffffffffffffff1602179055506020820151815f0160146101000a81548160ff0219169083151502179055506040820151815f0160156101000a81548160ff0219169083151502179055509050505b5050565b611cb8611cb16123c8565b8383612895565b5050565b60075f015f9054906101000a900473ffffffffffffffffffffffffffffffffffffffff1673ffffffffffffffffffffffffffffffffffffffff163373ffffffffffffffffffffffffffffffffffffffff161480611d67575060085f015f9054906101000a900473ffffffffffffffffffffffffffffffffffffffff1673ffffffffffffffffffffffffffffffffffffffff163373ffffffffffffffffffffffffffffffffffffffff16145b611da6576040517f08c379a0000000000000000000000000000000000000000000000000000000008152600401611d9d90613b25565b60405180910390fd5b60075f0160159054906101000a900460ff16158015611e13575060075f015f9054906101000a900473ffffffffffffffffffffffffffffffffffffffff1673ffffffffffffffffffffffffffffffffffffffff163373ffffffffffffffffffffffffffffffffffffffff16145b15611f4657604051806080016040528060075f015f9054906101000a900473ffffffffffffffffffffffffffffffffffffffff1673ffffffffffffffffffffffffffffffffffffffff16815260200160075f0160149054906101000a900460ff161515815260200160011515815260200160075f0160169054906101000a900460ff16151581525060075f820151815f015f6101000a81548173ffffffffffffffffffffffffffffffffffffffff021916908373ffffffffffffffffffffffffffffffffffffffff1602179055506020820151815f0160146101000a81548160ff0219169083151502179055506040820151815f0160156101000a81548160ff0219169083151502179055506060820151815f0160166101000a81548160ff021916908315150217905550905050612070565b604051806080016040528060085f015f9054906101000a900473ffffffffffffffffffffffffffffffffffffffff1673ffffffffffffffffffffffffffffffffffffffff16815260200160085f0160149054906101000a900460ff161515815260200160011515815260200160085f0160169054906101000a900460ff16151581525060085f820151815f015f6101000a81548173ffffffffffffffffffffffffffffffffffffffff021916908373ffffffffffffffffffffffffffffffffffffffff1602179055506020820151815f0160146101000a81548160ff0219169083151502179055506040820151815f0160156101000a81548160ff0219169083151502179055506060820151815f0160166101000a81548160ff0219169083151502179055509050505b565b61207d8484846104a0565b612089848484846129fe565b50505050565b606061209a82612309565b505f60065f8481526020019081526020015f2080546120b890613a76565b80601f01602080910402602001604051908101604052809291908181526020018280546120e490613a76565b801561212f5780601f106121065761010080835404028352916020019161212f565b820191905f5260205f20905b81548152906001019060200180831161211257829003601f168201915b505050505090505f61213f612bb0565b90505f815103612153578192505050612195565b5f8251111561218757808260405160200161216f929190614222565b60405160208183030381529060405292505050612195565b61219084612bc6565b925050505b919050565b5f60055f8473ffffffffffffffffffffffffffffffffffffffff1673ffffffffffffffffffffffffffffffffffffffff1681526020019081526020015f205f8373ffffffffffffffffffffffffffffffffffffffff1673ffffffffffffffffffffffffffffffffffffffff1681526020019081526020015f205f9054906101000a900460ff16905092915050565b5f7f80ac58cd000000000000000000000000000000000000000000000000000000007bffffffffffffffffffffffffffffffffffffffffffffffffffffffff1916827bffffffffffffffffffffffffffffffffffffffffffffffffffffffff191614806122f257507f5b5e139f000000000000000000000000000000000000000000000000000000007bffffffffffffffffffffffffffffffffffffffffffffffffffffffff1916827bffffffffffffffffffffffffffffffffffffffffffffffffffffffff1916145b80612302575061230182612c2c565b5b9050919050565b5f8061231483612c95565b90505f73ffffffffffffffffffffffffffffffffffffffff168173ffffffffffffffffffffffffffffffffffffffff160361238657826040517f7e27328900000000000000000000000000000000000000000000000000000000815260040161237d91906136e6565b60405180910390fd5b80915050919050565b5f60045f8381526020019081526020015f205f9054906101000a900473ffffffffffffffffffffffffffffffffffffffff169050919050565b5f33905090565b6123dc8383836001612cce565b505050565b5f806123ec84612c95565b90505f73ffffffffffffffffffffffffffffffffffffffff168373ffffffffffffffffffffffffffffffffffffffff161461242d5761242c818486612e8d565b5b5f73ffffffffffffffffffffffffffffffffffffffff168173ffffffffffffffffffffffffffffffffffffffff16146124b85761246c5f855f80612cce565b600160035f8373ffffffffffffffffffffffffffffffffffffffff1673ffffffffffffffffffffffffffffffffffffffff1681526020019081526020015f205f82825403925050819055505b5f73ffffffffffffffffffffffffffffffffffffffff168573ffffffffffffffffffffffffffffffffffffffff161461253757600160035f8773ffffffffffffffffffffffffffffffffffffffff1673ffffffffffffffffffffffffffffffffffffffff1681526020019081526020015f205f82825401925050819055505b8460025f8681526020019081526020015f205f6101000a81548173ffffffffffffffffffffffffffffffffffffffff021916908373ffffffffffffffffffffffffffffffffffffffff160217905550838573ffffffffffffffffffffffffffffffffffffffff168273ffffffffffffffffffffffffffffffffffffffff167fddf252ad1be2c89b69c2b068fc378daa952ba7f163c4a11628f55a4df523b3ef60405160405180910390a4809150509392505050565b6125f4613398565b5f5b600b8054905081101561273d578273ffffffffffffffffffffffffffffffffffffffff16600b828154811061262e5761262d613c5f565b5b905f5260205f20015f015f9054906101000a900473ffffffffffffffffffffffffffffffffffffffff1673ffffffffffffffffffffffffffffffffffffffff160361272a57600b818154811061268757612686613c5f565b5b905f5260205f20016040518060600160405290815f82015f9054906101000a900473ffffffffffffffffffffffffffffffffffffffff1673ffffffffffffffffffffffffffffffffffffffff1673ffffffffffffffffffffffffffffffffffffffff1681526020015f820160149054906101000a900460ff161515151581526020015f820160159054906101000a900460ff161515151581525050915050612776565b808061273590613cb9565b9150506125f6565b5060405180606001604052805f73ffffffffffffffffffffffffffffffffffffffff1681526020015f151581526020015f151581525090505b919050565b5f805f90505b600b8054905081101561281a578273ffffffffffffffffffffffffffffffffffffffff16600b82815481106127b9576127b8613c5f565b5b905f5260205f20015f015f9054906101000a900473ffffffffffffffffffffffffffffffffffffffff1673ffffffffffffffffffffffffffffffffffffffff16036128075780915050612824565b808061281290613cb9565b915050612781565b50600b8054905090505b919050565b612833600c612f50565b5f61283e600c612f64565b905061286d60075f015f9054906101000a900473ffffffffffffffffffffffffffffffffffffffff1682612f70565b6128928160405180611540016040528061151381526020016143756115139139613063565b50565b5f73ffffffffffffffffffffffffffffffffffffffff168273ffffffffffffffffffffffffffffffffffffffff160361290557816040517f5b08ba180000000000000000000000000000000000000000000000000000000081526004016128fc91906135db565b60405180910390fd5b8060055f8573ffffffffffffffffffffffffffffffffffffffff1673ffffffffffffffffffffffffffffffffffffffff1681526020019081526020015f205f8473ffffffffffffffffffffffffffffffffffffffff1673ffffffffffffffffffffffffffffffffffffffff1681526020019081526020015f205f6101000a81548160ff0219169083151502179055508173ffffffffffffffffffffffffffffffffffffffff168373ffffffffffffffffffffffffffffffffffffffff167f17307eab39ab6107e8899845ad3d59bd9653f200f220920489ca2b5937696c31836040516129f1919061347b565b60405180910390a3505050565b5f8373ffffffffffffffffffffffffffffffffffffffff163b1115612baa578273ffffffffffffffffffffffffffffffffffffffff1663150b7a02612a416123c8565b8685856040518563ffffffff1660e01b8152600401612a639493929190614297565b6020604051808303815f875af1925050508015612a9e57506040513d601f19601f82011682018060405250810190612a9b91906142f5565b60015b612b1f573d805f8114612acc576040519150601f19603f3d011682016040523d82523d5f602084013e612ad1565b606091505b505f815103612b1757836040517f64a0ae92000000000000000000000000000000000000000000000000000000008152600401612b0e91906135db565b60405180910390fd5b805181602001fd5b63150b7a0260e01b7bffffffffffffffffffffffffffffffffffffffffffffffffffffffff1916817bffffffffffffffffffffffffffffffffffffffffffffffffffffffff191614612ba857836040517f64a0ae92000000000000000000000000000000000000000000000000000000008152600401612b9f91906135db565b60405180910390fd5b505b50505050565b606060405180602001604052805f815250905090565b6060612bd182612309565b505f612bdb612bb0565b90505f815111612bf95760405180602001604052805f815250612c24565b80612c03846130bd565b604051602001612c14929190614222565b6040516020818303038152906040525b915050919050565b5f7f01ffc9a7000000000000000000000000000000000000000000000000000000007bffffffffffffffffffffffffffffffffffffffffffffffffffffffff1916827bffffffffffffffffffffffffffffffffffffffffffffffffffffffff1916149050919050565b5f60025f8381526020019081526020015f205f9054906101000a900473ffffffffffffffffffffffffffffffffffffffff169050919050565b8080612d0657505f73ffffffffffffffffffffffffffffffffffffffff168273ffffffffffffffffffffffffffffffffffffffff1614155b15612e38575f612d1584612309565b90505f73ffffffffffffffffffffffffffffffffffffffff168373ffffffffffffffffffffffffffffffffffffffff1614158015612d7f57508273ffffffffffffffffffffffffffffffffffffffff168173ffffffffffffffffffffffffffffffffffffffff1614155b8015612d925750612d90818461219a565b155b15612dd457826040517fa9fbf51f000000000000000000000000000000000000000000000000000000008152600401612dcb91906135db565b60405180910390fd5b8115612e3657838573ffffffffffffffffffffffffffffffffffffffff168273ffffffffffffffffffffffffffffffffffffffff167f8c5be1e5ebec7d5bd14f71427d1e84f3dd0314c0f7b2291e5b200ac8c7c3b92560405160405180910390a45b505b8360045f8581526020019081526020015f205f6101000a81548173ffffffffffffffffffffffffffffffffffffffff021916908373ffffffffffffffffffffffffffffffffffffffff16021790555050505050565b612e98838383613187565b612f4b575f73ffffffffffffffffffffffffffffffffffffffff168373ffffffffffffffffffffffffffffffffffffffff1603612f0c57806040517f7e273289000000000000000000000000000000000000000000000000000000008152600401612f0391906136e6565b60405180910390fd5b81816040517f177e802f000000000000000000000000000000000000000000000000000000008152600401612f42929190614320565b60405180910390fd5b505050565b6001815f015f828254019250508190555050565b5f815f01549050919050565b5f73ffffffffffffffffffffffffffffffffffffffff168273ffffffffffffffffffffffffffffffffffffffff1603612fe0575f6040517f64a0ae92000000000000000000000000000000000000000000000000000000008152600401612fd791906135db565b60405180910390fd5b5f612fec83835f6123e1565b90505f73ffffffffffffffffffffffffffffffffffffffff168173ffffffffffffffffffffffffffffffffffffffff161461305e575f6040517f73c6ac6e00000000000000000000000000000000000000000000000000000000815260040161305591906135db565b60405180910390fd5b505050565b8060065f8481526020019081526020015f20908161308191906140b1565b507ff8e1a15aba9398e019f0b49df1a4fde98ee17ae345cb5f6b5e2c27f5033e8ce7826040516130b191906136e6565b60405180910390a15050565b60605f60016130cb84613247565b0190505f8167ffffffffffffffff8111156130e9576130e8613707565b5b6040519080825280601f01601f19166020018201604052801561311b5781602001600182028036833780820191505090505b5090505f82602001820190505b60011561317c578080600190039150507f3031323334353637383961626364656600000000000000000000000000000000600a86061a8153600a858161317157613170614347565b5b0494505f8503613128575b819350505050919050565b5f8073ffffffffffffffffffffffffffffffffffffffff168373ffffffffffffffffffffffffffffffffffffffff161415801561323e57508273ffffffffffffffffffffffffffffffffffffffff168473ffffffffffffffffffffffffffffffffffffffff1614806131ff57506131fe848461219a565b5b8061323d57508273ffffffffffffffffffffffffffffffffffffffff166132258361238f565b73ffffffffffffffffffffffffffffffffffffffff16145b5b90509392505050565b5f805f90507a184f03e93ff9f4daa797ed6e38ed64bf6a1f01000000000000000083106132a3577a184f03e93ff9f4daa797ed6e38ed64bf6a1f010000000000000000838161329957613298614347565b5b0492506040810190505b6d04ee2d6d415b85acef810000000083106132e0576d04ee2d6d415b85acef810000000083816132d6576132d5614347565b5b0492506020810190505b662386f26fc10000831061330f57662386f26fc10000838161330557613304614347565b5b0492506010810190505b6305f5e1008310613338576305f5e100838161332e5761332d614347565b5b0492506008810190505b612710831061335d57612710838161335357613352614347565b5b0492506004810190505b60648310613380576064838161337657613375614347565b5b0492506002810190505b600a831061338f576001810190505b80915050919050565b60405180606001604052805f73ffffffffffffffffffffffffffffffffffffffff1681526020015f151581526020015f151581525090565b5f604051905090565b5f80fd5b5f80fd5b5f7fffffffff0000000000000000000000000000000000000000000000000000000082169050919050565b613415816133e1565b811461341f575f80fd5b50565b5f813590506134308161340c565b92915050565b5f6020828403121561344b5761344a6133d9565b5b5f61345884828501613422565b91505092915050565b5f8115159050919050565b61347581613461565b82525050565b5f60208201905061348e5f83018461346c565b92915050565b5f81519050919050565b5f82825260208201905092915050565b5f5b838110156134cb5780820151818401526020810190506134b0565b5f8484015250505050565b5f601f19601f8301169050919050565b5f6134f082613494565b6134fa818561349e565b935061350a8185602086016134ae565b613513816134d6565b840191505092915050565b5f6020820190508181035f83015261353681846134e6565b905092915050565b5f819050919050565b6135508161353e565b811461355a575f80fd5b50565b5f8135905061356b81613547565b92915050565b5f60208284031215613586576135856133d9565b5b5f6135938482850161355d565b91505092915050565b5f73ffffffffffffffffffffffffffffffffffffffff82169050919050565b5f6135c58261359c565b9050919050565b6135d5816135bb565b82525050565b5f6020820190506135ee5f8301846135cc565b92915050565b6135fd816135bb565b8114613607575f80fd5b50565b5f81359050613618816135f4565b92915050565b5f8060408385031215613634576136336133d9565b5b5f6136418582860161360a565b92505060206136528582860161355d565b9150509250929050565b5f805f60608486031215613673576136726133d9565b5b5f6136808682870161360a565b93505060206136918682870161360a565b92505060406136a28682870161355d565b9150509250925092565b5f602082840312156136c1576136c06133d9565b5b5f6136ce8482850161360a565b91505092915050565b6136e08161353e565b82525050565b5f6020820190506136f95f8301846136d7565b92915050565b5f80fd5b5f80fd5b7f4e487b71000000000000000000000000000000000000000000000000000000005f52604160045260245ffd5b61373d826134d6565b810181811067ffffffffffffffff8211171561375c5761375b613707565b5b80604052505050565b5f61376e6133d0565b905061377a8282613734565b919050565b5f67ffffffffffffffff82111561379957613798613707565b5b6137a2826134d6565b9050602081019050919050565b828183375f83830152505050565b5f6137cf6137ca8461377f565b613765565b9050828152602081018484840111156137eb576137ea613703565b5b6137f68482856137af565b509392505050565b5f82601f830112613812576138116136ff565b5b81356138228482602086016137bd565b91505092915050565b5f8060408385031215613841576138406133d9565b5b5f61384e8582860161355d565b925050602083013567ffffffffffffffff81111561386f5761386e6133dd565b5b61387b858286016137fe565b9150509250929050565b61388e81613461565b8114613898575f80fd5b50565b5f813590506138a981613885565b92915050565b5f80604083850312156138c5576138c46133d9565b5b5f6138d28582860161360a565b92505060206138e38582860161389b565b9150509250929050565b5f67ffffffffffffffff82111561390757613906613707565b5b613910826134d6565b9050602081019050919050565b5f61392f61392a846138ed565b613765565b90508281526020810184848401111561394b5761394a613703565b5b6139568482856137af565b509392505050565b5f82601f830112613972576139716136ff565b5b813561398284826020860161391d565b91505092915050565b5f805f80608085870312156139a3576139a26133d9565b5b5f6139b08782880161360a565b94505060206139c18782880161360a565b93505060406139d28782880161355d565b925050606085013567ffffffffffffffff8111156139f3576139f26133dd565b5b6139ff8782880161395e565b91505092959194509250565b5f8060408385031215613a2157613a206133d9565b5b5f613a2e8582860161360a565b9250506020613a3f8582860161360a565b9150509250929050565b7f4e487b71000000000000000000000000000000000000000000000000000000005f52602260045260245ffd5b5f6002820490506001821680613a8d57607f821691505b602082108103613aa057613a9f613a49565b5b50919050565b5f606082019050613ab95f8301866135cc565b613ac660208301856136d7565b613ad360408301846135cc565b949350505050565b7f4f6e6c7920656e67616765642e000000000000000000000000000000000000005f82015250565b5f613b0f600d8361349e565b9150613b1a82613adb565b602082019050919050565b5f6020820190508181035f830152613b3c81613b03565b9050919050565b7f416464726573732031206d757374206167726565206f6e2070617274696369705f8201527f616e74732e000000000000000000000000000000000000000000000000000000602082015250565b5f613b9d60258361349e565b9150613ba882613b43565b604082019050919050565b5f6020820190508181035f830152613bca81613b91565b9050919050565b7f416464726573732032206d757374206167726565206f6e2070617274696369705f8201527f616e74732e000000000000000000000000000000000000000000000000000000602082015250565b5f613c2b60258361349e565b9150613c3682613bd1565b604082019050919050565b5f6020820190508181035f830152613c5881613c1f565b9050919050565b7f4e487b71000000000000000000000000000000000000000000000000000000005f52603260045260245ffd5b7f4e487b71000000000000000000000000000000000000000000000000000000005f52601160045260245ffd5b5f613cc38261353e565b91507fffffffffffffffffffffffffffffffffffffffffffffffffffffffffffffffff8203613cf557613cf4613c8c565b5b600182019050919050565b5f613d0a8261353e565b9150613d158361353e565b9250828202613d238161353e565b91508282048414831517613d3a57613d39613c8c565b5b5092915050565b7f48616c6620766f74656420616761696e73742e000000000000000000000000005f82015250565b5f613d7560138361349e565b9150613d8082613d41565b602082019050919050565b5f6020820190508181035f830152613da281613d69565b9050919050565b5f613db38261353e565b9150613dbe8361353e565b9250828201905080821115613dd657613dd5613c8c565b5b92915050565b7f546f6f206561726c792c206d6174652e000000000000000000000000000000005f82015250565b5f613e1060108361349e565b9150613e1b82613ddc565b602082019050919050565b5f6020820190508181035f830152613e3d81613e04565b9050919050565b7f4f6e6c79207061727469636970616e742e0000000000000000000000000000005f82015250565b5f613e7860118361349e565b9150613e8382613e44565b602082019050919050565b5f6020820190508181035f830152613ea581613e6c565b9050919050565b7f4f6e6c7920756e7765642e0000000000000000000000000000000000000000005f82015250565b5f613ee0600b8361349e565b9150613eeb82613eac565b602082019050919050565b5f6020820190508181035f830152613f0d81613ed4565b9050919050565b5f819050815f5260205f209050919050565b5f6020601f8301049050919050565b5f82821b905092915050565b5f60088302613f707fffffffffffffffffffffffffffffffffffffffffffffffffffffffffffffffff82613f35565b613f7a8683613f35565b95508019841693508086168417925050509392505050565b5f819050919050565b5f613fb5613fb0613fab8461353e565b613f92565b61353e565b9050919050565b5f819050919050565b613fce83613f9b565b613fe2613fda82613fbc565b848454613f41565b825550505050565b5f90565b613ff6613fea565b614001818484613fc5565b505050565b5b81811015614024576140195f82613fee565b600181019050614007565b5050565b601f8211156140695761403a81613f14565b61404384613f26565b81016020851015614052578190505b61406661405e85613f26565b830182614006565b50505b505050565b5f82821c905092915050565b5f6140895f198460080261406e565b1980831691505092915050565b5f6140a1838361407a565b9150826002028217905092915050565b6140ba82613494565b67ffffffffffffffff8111156140d3576140d2613707565b5b6140dd8254613a76565b6140e8828285614028565b5f60209050601f831160018114614119575f8415614107578287015190505b6141118582614096565b865550614178565b601f19841661412786613f14565b5f5b8281101561414e57848901518255600182019150602085019450602081019050614129565b8683101561416b5784890151614167601f89168261407a565b8355505b6001600288020188555050505b505050505050565b7f4f6e6c7920636f6e6669726d6564207061727469636970616e74732e000000005f82015250565b5f6141b4601c8361349e565b91506141bf82614180565b602082019050919050565b5f6020820190508181035f8301526141e1816141a8565b9050919050565b5f81905092915050565b5f6141fc82613494565b61420681856141e8565b93506142168185602086016134ae565b80840191505092915050565b5f61422d82856141f2565b915061423982846141f2565b91508190509392505050565b5f81519050919050565b5f82825260208201905092915050565b5f61426982614245565b614273818561424f565b93506142838185602086016134ae565b61428c816134d6565b840191505092915050565b5f6080820190506142aa5f8301876135cc565b6142b760208301866135cc565b6142c460408301856136d7565b81810360608301526142d6818461425f565b905095945050505050565b5f815190506142ef8161340c565b92915050565b5f6020828403121561430a576143096133d9565b5b5f614317848285016142e1565b91505092915050565b5f6040820190506143335f8301856135cc565b61434060208301846136d7565b9392505050565b7f4e487b71000000000000000000000000000000000000000000000000000000005f52601260045260245ffdfe646174613a696d6167652f6a7065673b6261736536342c2f396a2f34414151536b5a4a5267414241514141415141424141442f3277434541416b4742784154454255514568415646685556467855564652555846525558465259564668555846685556467855594853676747426f6c48525556495445684a536b724c6934754678387a4f444d744e7967744c69734243676f4b4467304f4768415147693067485355744b7973744c5330744c5330744c5373744c5330744c5330744c5330744c5330744c5330744c5330744c5330744c5330744c5330744e7930744c5373744c5373794c662f4141424549414f454134514d4249674143455145444551482f784141634141454141674d4241514541414141414141414141414141415155434177514742776a2f7841412b45414143415149444251554742415146425145414141414141514944455151684d51555351564668496e47426b614547457a4b78776642436374486846434e5338544e546b714b79466c56696b3949482f38514147514542415145424151454141414141414141414141414141414543417751462f38514149684542415141434167494341674d4141414141414141414141454345514d684d55455355515169457a4a682f396f4144414d4241414952417845415077443475514152556b4141435341774a4941416b45496b414141414944416b42414143435149424a4145414d6741414141414341414b424173414d79435152514141414141414141414141624b4e46794c484459474e394c6b7430736c71746a536b39457a622f414164542b6c6e6f634e68344c68366e5a3775432b47457239477066375872344d35336b626e473868557774526177666c6635476f397a6838644453566e315764752b4d6c64664c716365304e6d305a2f7741784a4b3937754f6a384f444535507376483950496b6c6c69396b54697272744c6731386d75442b387a68334f792b6e362f75644a6475646d6d6f67323134572b2b74766f61696743414141415141444b4141416741415a58467941525569354249416b67414c693541416b3359656735506f595571626b306c784c616d6c484c6b53315a4e6b61436a6c784f3344783363354e52584b79624d59513750764a654858717948556c7248354a2f4d35573764704e4e6c66455548786c357065575270707a7a2f414a645758644a33586d694a536475314250752b386d614a34504e754c307a7353524c7433314d59707071704731534f725755752b4c2b6d686f6869476d374e4f2f4c4b4d2f4468502b787a314a536c5a2f6958487039334e58755a66553171486274705972646c75367865612f38416c3948364d77784e474c6c4a783063623236717a2b567a6a6d32732f746d326a694c76303831597576624e2f316f72307233364a65663841653577546a5975617a535458445638336252664d714b307275357247735761617741615a41415543435341414141676b4143514152514142456b41414353444a4c4d44743266543166544936714e4a74712f654b4355593338444b4d6d326d63363634394c446333704b4c2f4141327375463276374672683850473172493438505a75363552394569306f55326562504a37754c44327a68684b66464746665a394e726b644d61624e697063624d352f4b752f7769705741697332737a5258704a614a467a556f506b636466445752715a66624e776a7a754c6f706c57344e534c2f455539536e786b654a364d4b38504c6a716f6e55576d764d346354484f2f4d364979664d3159755768306a68584b414462414143675141414141414141534141414141414141544855674546746c597a776c584a6f35493165795a344e5a6d4c4853587436665a644a62706559657853624c6c64574c696d2b6834382f4c3666483464385a783547357a7930526f68526b31657873696e70597736734a3175687859702b5233504353655a78596a44744351716c784e4f78535971436161343844306d4c7076645a35584658752b6a50527850462b51305268784f54467650754f716457312f55344a7975376e706a7856694144544941514141414141686753434c6b674141414a49414567676b4141414e6c4f52335948526b6249772b39767531374b4b2f314e7239446f776442715469316e657a58637a4756394f6d474e367230477836626364433071564b6b4d31472f686334354e776a614774764931564669657a3270764a3732363073375a577930504c3572337a716157654832394a50646c43336731387932574b556c6463726e6d4842376b5865626c622b597066436e6e617a6571304f6a5a324a6154526d7830777976745a3752326f34744a636a68707972314a5865556538344b6b7054714e665732583366497778574271536b2f644b616a32643175625454567435326a6b37352b5a5a47637372745a343344326a38575a3544474a377a4c2b644f7247566e4a754c3453656179356c62746543545458553368645678355a75626566786439567a7a3950334f557438565353777a6d31327056466238747066574c4b67394f4c785a545641417a544951414141414558414141414143534351414141456b4143514142632b7a565874797066356d356276684e50354e6c377462414f6c694e397032716472503841713061394c6e6a384a58634b6b5a72384c5450616258727570546a4e79337431713363394833575a77354e7a4c623163566c7731394f334253766b57455953745a5a654a58624856306e7a4c3171436a7653666765612b587677384b5048354b7964337a34493159436d737a64745354756c465754752b6f3254685a79756b73792b6b312b7a676b37564c3963792f7739424f4e3479666355574a6f79336e346c37733746783355354b3130732b41794d664e61385453646a7a57304937306c446e4a4c7a505959717a504d56614b65496a48686d2f4a4d754854484e4f6d6a32316f306f5561554b622b475737344a50373854787836583277717876476d7565393457736c35746e6d6a3163552f56344f65377a434353446f34674141455841414141414141424a424b41676b41415343414a41414174646d625433594f6c4a5833724b4c354f2f486f56524d58784a5a745a6248305059632b776a766263753039466f7671552b786179335953576b73697778744b56757a4a325330584c6d65484c2b7a3633486c2b724b7454336d4b64437243376a6e364d31374a6f5371742f7a6b7258796b6c64575638337979314c326c736e466274307163374b4d724e3266615830372b413159665047714770684a3575547a66426671624b466c6b335a6665525a597a5a56534c765872516774355137504f5362576230344c78504d756a65713471546b6c6274634f5a646254357958706453715a4e4a3358426e6c6472375271557169715174664f4f6175725055394a694c517057537a646f78356e692f61536f76654b463737697a37336d7a58444e31792f4a793169724d52586c4f546e4e3362342f6568714150592b6341414343435751414141414141414145536745416f415342424941414141435545644742776b71733143506533796974583938774c663263787173364d6e6b38313066426e724b5664754f6571795a35324f7871634937363372325762664e70504a5a635474773164724a362f655a3565584757376a323847646b3158624c4371547576752b7665693632593630453147716b6d6c6450544c5331744f575256346158486d576c4935664b76584a4c3663755064575465394b376573724b37563770583549344b4d62535335764e6c6e69436e783039316135695733704d704d5a746a7444484b377163494c646776384179617a5a3461765563704f54316275656e784557344f58424a32367669796176733551746b35703839362f6f30656a69316938484e626c586b67575731646b546f352f4642354b5358486b31775a58486435304545674343444968675141414141414141496b416b4b414141415342424e676b53415062657a327a564368764e6475646e4c6f72646d506b2f4e6c4a374937482f41496e45716e326252572b34752f615566777179666a30506331714c684a335675456c79366d4d71316a4648695a4e30386c6b74314e3962705737376e51734570773550677a6a326f354b617032374b6b70643937763075793532627750507958543138474f353272384a50646535504a7231584d394268713845745376327673395373307379722f6761747372393133386a47706b37664c4c487279764d62587032664d6f4844333152515877782b4a2f5243577a367279647931325868465469387378316a4f6d6263733733345632324b53565064584c364852556c76527931736d766d6174725a3352795966464e714f61756b6f746432575a3234707550507a3956594f4d5a77335a4a4f4d6c5a70385565493270676e5271756e7731692b6358703956344875734f75776e7a56796b39726350656e4372624f4d74312f6c6b73765666376a706a6533437835516779494f6a4b43435142414a415269435259434154594255674141444b4547326b6b32336f6b72743979523230646b3157374f4f37316636494468534a696d335a4b376642612b526530765a36372f414d52322f4b6b2f6d79367757793455316b7539385833737a386f756e6c734e736d724e2f4475726e4b3639466d573247396e594b7a6c4a7936573356364f2f716a306c4b676c774e76753054354c707a374a775734314b6e6144693772645672506e6c72346e71323459754c545559596d4b30306a56533564644f37757a56465165342b6a4f32704336336f757a3154575454576e64597a576f6f4e735964716162566d72786b6e776166376e5a73316146746a6f2f784d4c5374477572576c6b6f31637668664b646e6b2b50797173484c646536303030374e504a7072677a6a79343962656e687a6e686231715363544844306f7332556e6447704a7035486e6a314978464b4b4e556f576962564274335a68696c5a574e447a2b4e563256547772393475724c6d7247374e2b46773663302b4563322b523277743238764a4a707563643157584a493573646756556f7955386b326c48724a4f2f6b74572b434c5630497150766172334b58346636366e536e486c314f48467a64527154696f704b30494c534565585676567337523558697356734b53767553557258796554646e716e6f796f6e427032617331716e71665170554f687734765a304a6646425036654a755a4d36654b7351582b4b32464838446136504e6671565749774653477362726d733061326d6e4943534167515341494173414d7248546773464f6f3375364b313377562f6d7a6e505a624277446a5469704a4a35767862343833617938435736616b3231374d32516f4c4b3933712b50374c6f57304d476c6f6a737055446f68534f6532394b364f487364464f6d646a706f79565078427079704763596d35777339444f50583542476d644b2f55554b72692b5a31786a6b597a6a662b78527054586839434e71345631625649727452566d76784e4c6a666931317a394463714a74696d68425559624831495a4f306c362b5a317832745465556b347671623971594a536936306370525636692f716a707639367976307a4b58645a6634634d2b32707a35346531744861314c6a646542785933484b6677702b5036484e5a38766b464756374c755850794c5078384a3258386e4f394d45704f325236444259474647436e5864355074526f385a32306c506c48545534384e68355161744b30754d6b6b376445326e62765230566f4a586276765057377533337435737a5a4a314764322b5848693630367454666d37742b5559384978584247573564472b4e473262615a4c694563626a5931564b5a31744774774172366c4248504c436443326c45786a446f4630385474725a566d357758656c383055683948786d4876664938567472422b37715a4c4b57666a784e5373324b77476537304d576152414a73414c665a4f7970547847354b4c696f4e4f6165715771692b7230387a33564f6b6c6b754766366c667344444f46464f587854375576704877566b5775472b4c3730346e4f31306b6236555466436e344552686e6f6231424756594e575a4737346d33764565674769564531756d306471487569786c79785a75696c7173784b6a6c6f594b367a394371335269512b56753469465a63664f787453343343497053635a58743061656e4b3363796e327068506431476c384575314438723464366552634d3062516f3739472f347164354c72484a5458796c34506d617875717a6c4e7852324c505a7545744256482b4a74522f4b745a654c793844677739467a6e4743316b3758354c692f42585051564a5234504a4c64697555566b6a6564394d3474436a6250792f59786a432f616671626c4469324a49354e74533535654a7a7a5230546c304d4a494b30714344737552756d7552716c484d4b356e472b5a6e5469374779644d526a3257516331534b346c4a3751625033366253313158656568676c643375615a303769564b2b584e766d794c466e37513444334e64785877767452376e7176422f5139332f77446875437756664556364f4a77394b724e776736587649786b6b6b356236555a5056396c354c68716457487a4c63664c31422b73662b6a396b2f3976776e2f7070666f41506a796a774e6d42576266586e72624935713954317937373548666736646b6b30636e5231515844772b2f5132516a7a5a7254344b2b5a74365741534351714755633941434a58566b4c6f54645a63796f6c7843707132624a6375686a66714269365366426d4b705068633370394348494a7470616b737a62517157616274626a486d754b3855533564544469427862506f7146617647332b477432447338314e35502f53646167754a3056734f6c3779615674355964764f2b6170746163446c692f764974757a544c652b37474d737a4a4d68706b47446a784d667651324d69335144427866496955445a336d456772584e6d4e4f4f566a4f5768464f4f567944565258785a365037314a70787a7a3466663642577331315a6c425779382b3869764b2b334f4776546a55532b47566e33532f6578354c4459757054763775636f4e337a6937504e57666157613844364e3751304e2f4431497066686258657331366f2b5a48544877786c35622f77434d712f3531542f58494767476b66536e3863667a4974714142797263626c7239386d5a554e66766b4142457a4a4146566d5a5131594151675a4c587741434d56716175506941427457686a445664344149376e7050386d482f414f4d7a683473415257426977416a4e614d315430586741426d3966414d6b425930544a772b684943756148782b4c4e7a414d6a546a76384f5835582f77415435476744654c4f514144624c2f396b3da2646970667358221220a095ebb0b2df4381cb48efbbc9104f95d9eea5b65558e41eca353827d90d9f5a64736f6c63430008150033",
			"opcodes": "PUSH1 0x80 PUSH1 0x40 MSTORE CALLVALUE DUP1 ISZERO PUSH3 0x10 JUMPI PUSH0 DUP1 REVERT JUMPDEST POP PUSH1 0x40 MLOAD DUP1 PUSH1 0x40 ADD PUSH1 0x40 MSTORE DUP1 PUSH1 0x12 DUP2 MSTORE PUSH1 0x20 ADD PUSH32 0x57656464696E6743657274696669636174650000000000000000000000000000 DUP2 MSTORE POP PUSH1 0x40 MLOAD DUP1 PUSH1 0x40 ADD PUSH1 0x40 MSTORE DUP1 PUSH1 0x3 DUP2 MSTORE PUSH1 0x20 ADD PUSH32 0x5743540000000000000000000000000000000000000000000000000000000000 DUP2 MSTORE POP DUP2 PUSH0 SWAP1 DUP2 PUSH3 0x8D SWAP2 SWAP1 PUSH3 0x30C JUMP JUMPDEST POP DUP1 PUSH1 0x1 SWAP1 DUP2 PUSH3 0x9F SWAP2 SWAP1 PUSH3 0x30C JUMP JUMPDEST POP POP POP PUSH3 0x3F0 JUMP JUMPDEST PUSH0 DUP2 MLOAD SWAP1 POP SWAP2 SWAP1 POP JUMP JUMPDEST PUSH32 0x4E487B7100000000000000000000000000000000000000000000000000000000 PUSH0 MSTORE PUSH1 0x41 PUSH1 0x4 MSTORE PUSH1 0x24 PUSH0 REVERT JUMPDEST PUSH32 0x4E487B7100000000000000000000000000000000000000000000000000000000 PUSH0 MSTORE PUSH1 0x22 PUSH1 0x4 MSTORE PUSH1 0x24 PUSH0 REVERT JUMPDEST PUSH0 PUSH1 0x2 DUP3 DIV SWAP1 POP PUSH1 0x1 DUP3 AND DUP1 PUSH3 0x124 JUMPI PUSH1 0x7F DUP3 AND SWAP2 POP JUMPDEST PUSH1 0x20 DUP3 LT DUP2 SUB PUSH3 0x13A JUMPI PUSH3 0x139 PUSH3 0xDF JUMP JUMPDEST JUMPDEST POP SWAP2 SWAP1 POP JUMP JUMPDEST PUSH0 DUP2 SWAP1 POP DUP2 PUSH0 MSTORE PUSH1 0x20 PUSH0 KECCAK256 SWAP1 POP SWAP2 SWAP1 POP JUMP JUMPDEST PUSH0 PUSH1 0x20 PUSH1 0x1F DUP4 ADD DIV SWAP1 POP SWAP2 SWAP1 POP JUMP JUMPDEST PUSH0 DUP3 DUP3 SHL SWAP1 POP SWAP3 SWAP2 POP POP JUMP JUMPDEST PUSH0 PUSH1 0x8 DUP4 MUL PUSH3 0x19E PUSH32 0xFFFFFFFFFFFFFFFFFFFFFFFFFFFFFFFFFFFFFFFFFFFFFFFFFFFFFFFFFFFFFFFF DUP3 PUSH3 0x161 JUMP JUMPDEST PUSH3 0x1AA DUP7 DUP4 PUSH3 0x161 JUMP JUMPDEST SWAP6 POP DUP1 NOT DUP5 AND SWAP4 POP DUP1 DUP7 AND DUP5 OR SWAP3 POP POP POP SWAP4 SWAP3 POP POP POP JUMP JUMPDEST PUSH0 DUP2 SWAP1 POP SWAP2 SWAP1 POP JUMP JUMPDEST PUSH0 DUP2 SWAP1 POP SWAP2 SWAP1 POP JUMP JUMPDEST PUSH0 PUSH3 0x1F4 PUSH3 0x1EE PUSH3 0x1E8 DUP5 PUSH3 0x1C2 JUMP JUMPDEST PUSH3 0x1CB JUMP JUMPDEST PUSH3 0x1C2 JUMP JUMPDEST SWAP1 POP SWAP2 SWAP1 POP JUMP JUMPDEST PUSH0 DUP2 SWAP1 POP SWAP2 SWAP1 POP JUMP JUMPDEST PUSH3 0x20F DUP4 PUSH3 0x1D4 JUMP JUMPDEST PUSH3 0x227 PUSH3 0x21E DUP3 PUSH3 0x1FB JUMP JUMPDEST DUP5 DUP5 SLOAD PUSH3 0x16D JUMP JUMPDEST DUP3 SSTORE POP POP POP POP JUMP JUMPDEST PUSH0 SWAP1 JUMP JUMPDEST PUSH3 0x23D PUSH3 0x22F JUMP JUMPDEST PUSH3 0x24A DUP2 DUP5 DUP5 PUSH3 0x204 JUMP JUMPDEST POP POP POP JUMP JUMPDEST JUMPDEST DUP2 DUP2 LT ISZERO PUSH3 0x271 JUMPI PUSH3 0x265 PUSH0 DUP3 PUSH3 0x233 JUMP JUMPDEST PUSH1 0x1 DUP2 ADD SWAP1 POP PUSH3 0x250 JUMP JUMPDEST POP POP JUMP JUMPDEST PUSH1 0x1F DUP3 GT ISZERO PUSH3 0x2C0 JUMPI PUSH3 0x28A DUP2 PUSH3 0x140 JUMP JUMPDEST PUSH3 0x295 DUP5 PUSH3 0x152 JUMP JUMPDEST DUP2 ADD PUSH1 0x20 DUP6 LT ISZERO PUSH3 0x2A5 JUMPI DUP2 SWAP1 POP JUMPDEST PUSH3 0x2BD PUSH3 0x2B4 DUP6 PUSH3 0x152 JUMP JUMPDEST DUP4 ADD DUP3 PUSH3 0x24F JUMP JUMPDEST POP POP JUMPDEST POP POP POP JUMP JUMPDEST PUSH0 DUP3 DUP3 SHR SWAP1 POP SWAP3 SWAP2 POP POP JUMP JUMPDEST PUSH0 PUSH3 0x2E2 PUSH0 NOT DUP5 PUSH1 0x8 MUL PUSH3 0x2C5 JUMP JUMPDEST NOT DUP1 DUP4 AND SWAP2 POP POP SWAP3 SWAP2 POP POP JUMP JUMPDEST PUSH0 PUSH3 0x2FC DUP4 DUP4 PUSH3 0x2D1 JUMP JUMPDEST SWAP2 POP DUP3 PUSH1 0x2 MUL DUP3 OR SWAP1 POP SWAP3 SWAP2 POP POP JUMP JUMPDEST PUSH3 0x317 DUP3 PUSH3 0xA8 JUMP JUMPDEST PUSH8 0xFFFFFFFFFFFFFFFF DUP2 GT ISZERO PUSH3 0x333 JUMPI PUSH3 0x332 PUSH3 0xB2 JUMP JUMPDEST JUMPDEST PUSH3 0x33F DUP3 SLOAD PUSH3 0x10C JUMP JUMPDEST PUSH3 0x34C DUP3 DUP3 DUP6 PUSH3 0x275 JUMP JUMPDEST PUSH0 PUSH1 0x20 SWAP1 POP PUSH1 0x1F DUP4 GT PUSH1 0x1 DUP2 EQ PUSH3 0x382 JUMPI PUSH0 DUP5 ISZERO PUSH3 0x36D JUMPI DUP3 DUP8 ADD MLOAD SWAP1 POP JUMPDEST PUSH3 0x379 DUP6 DUP3 PUSH3 0x2EF JUMP JUMPDEST DUP7 SSTORE POP PUSH3 0x3E8 JUMP JUMPDEST PUSH1 0x1F NOT DUP5 AND PUSH3 0x392 DUP7 PUSH3 0x140 JUMP JUMPDEST PUSH0 JUMPDEST DUP3 DUP2 LT ISZERO PUSH3 0x3BB JUMPI DUP5 DUP10 ADD MLOAD DUP3 SSTORE PUSH1 0x1 DUP3 ADD SWAP2 POP PUSH1 0x20 DUP6 ADD SWAP5 POP PUSH1 0x20 DUP2 ADD SWAP1 POP PUSH3 0x394 JUMP JUMPDEST DUP7 DUP4 LT ISZERO PUSH3 0x3DB JUMPI DUP5 DUP10 ADD MLOAD PUSH3 0x3D7 PUSH1 0x1F DUP10 AND DUP3 PUSH3 0x2D1 JUMP JUMPDEST DUP4 SSTORE POP JUMPDEST PUSH1 0x1 PUSH1 0x2 DUP9 MUL ADD DUP9 SSTORE POP POP POP JUMPDEST POP POP POP POP POP POP JUMP JUMPDEST PUSH2 0x58BD DUP1 PUSH3 0x3FE PUSH0 CODECOPY PUSH0 RETURN INVALID PUSH1 0x80 PUSH1 0x40 MSTORE CALLVALUE DUP1 ISZERO PUSH2 0xF JUMPI PUSH0 DUP1 REVERT JUMPDEST POP PUSH1 0x4 CALLDATASIZE LT PUSH2 0x12A JUMPI PUSH0 CALLDATALOAD PUSH1 0xE0 SHR DUP1 PUSH4 0x70A08231 GT PUSH2 0xAB JUMPI DUP1 PUSH4 0xA22CB465 GT PUSH2 0x6F JUMPI DUP1 PUSH4 0xA22CB465 EQ PUSH2 0x2DE JUMPI DUP1 PUSH4 0xA64B959F EQ PUSH2 0x2FA JUMPI DUP1 PUSH4 0xB88D4FDE EQ PUSH2 0x304 JUMPI DUP1 PUSH4 0xC87B56DD EQ PUSH2 0x320 JUMPI DUP1 PUSH4 0xE985E9C5 EQ PUSH2 0x350 JUMPI PUSH2 0x12A JUMP JUMPDEST DUP1 PUSH4 0x70A08231 EQ PUSH2 0x260 JUMPI DUP1 PUSH4 0x728F1112 EQ PUSH2 0x290 JUMPI DUP1 PUSH4 0x7BCD97AF EQ PUSH2 0x29A JUMPI DUP1 PUSH4 0x95D89B41 EQ PUSH2 0x2B6 JUMPI DUP1 PUSH4 0x9F396CFF EQ PUSH2 0x2D4 JUMPI PUSH2 0x12A JUMP JUMPDEST DUP1 PUSH4 0x266AE81C GT PUSH2 0xF2 JUMPI DUP1 PUSH4 0x266AE81C EQ PUSH2 0x1E4 JUMPI DUP1 PUSH4 0x42842E0E EQ PUSH2 0x200 JUMPI DUP1 PUSH4 0x6352211E EQ PUSH2 0x21C JUMPI DUP1 PUSH4 0x68AEE9E8 EQ PUSH2 0x24C JUMPI DUP1 PUSH4 0x6D955EB5 EQ PUSH2 0x256 JUMPI PUSH2 0x12A JUMP JUMPDEST DUP1 PUSH4 0x1FFC9A7 EQ PUSH2 0x12E JUMPI DUP1 PUSH4 0x6FDDE03 EQ PUSH2 0x15E JUMPI DUP1 PUSH4 0x81812FC EQ PUSH2 0x17C JUMPI DUP1 PUSH4 0x95EA7B3 EQ PUSH2 0x1AC JUMPI DUP1 PUSH4 0x23B872DD EQ PUSH2 0x1C8 JUMPI JUMPDEST PUSH0 DUP1 REVERT JUMPDEST PUSH2 0x148 PUSH1 0x4 DUP1 CALLDATASIZE SUB DUP2 ADD SWAP1 PUSH2 0x143 SWAP2 SWAP1 PUSH2 0x3436 JUMP JUMPDEST PUSH2 0x380 JUMP JUMPDEST PUSH1 0x40 MLOAD PUSH2 0x155 SWAP2 SWAP1 PUSH2 0x347B JUMP JUMPDEST PUSH1 0x40 MLOAD DUP1 SWAP2 SUB SWAP1 RETURN JUMPDEST PUSH2 0x166 PUSH2 0x3E0 JUMP JUMPDEST PUSH1 0x40 MLOAD PUSH2 0x173 SWAP2 SWAP1 PUSH2 0x351E JUMP JUMPDEST PUSH1 0x40 MLOAD DUP1 SWAP2 SUB SWAP1 RETURN JUMPDEST PUSH2 0x196 PUSH1 0x4 DUP1 CALLDATASIZE SUB DUP2 ADD SWAP1 PUSH2 0x191 SWAP2 SWAP1 PUSH2 0x3571 JUMP JUMPDEST PUSH2 0x46F JUMP JUMPDEST PUSH1 0x40 MLOAD PUSH2 0x1A3 SWAP2 SWAP1 PUSH2 0x35DB JUMP JUMPDEST PUSH1 0x40 MLOAD DUP1 SWAP2 SUB SWAP1 RETURN JUMPDEST PUSH2 0x1C6 PUSH1 0x4 DUP1 CALLDATASIZE SUB DUP2 ADD SWAP1 PUSH2 0x1C1 SWAP2 SWAP1 PUSH2 0x361E JUMP JUMPDEST PUSH2 0x48A JUMP JUMPDEST STOP JUMPDEST PUSH2 0x1E2 PUSH1 0x4 DUP1 CALLDATASIZE SUB DUP2 ADD SWAP1 PUSH2 0x1DD SWAP2 SWAP1 PUSH2 0x365C JUMP JUMPDEST PUSH2 0x4A0 JUMP JUMPDEST STOP JUMPDEST PUSH2 0x1FE PUSH1 0x4 DUP1 CALLDATASIZE SUB DUP2 ADD SWAP1 PUSH2 0x1F9 SWAP2 SWAP1 PUSH2 0x36AC JUMP JUMPDEST PUSH2 0x59F JUMP JUMPDEST STOP JUMPDEST PUSH2 0x21A PUSH1 0x4 DUP1 CALLDATASIZE SUB DUP2 ADD SWAP1 PUSH2 0x215 SWAP2 SWAP1 PUSH2 0x365C JUMP JUMPDEST PUSH2 0x769 JUMP JUMPDEST STOP JUMPDEST PUSH2 0x236 PUSH1 0x4 DUP1 CALLDATASIZE SUB DUP2 ADD SWAP1 PUSH2 0x231 SWAP2 SWAP1 PUSH2 0x3571 JUMP JUMPDEST PUSH2 0x788 JUMP JUMPDEST PUSH1 0x40 MLOAD PUSH2 0x243 SWAP2 SWAP1 PUSH2 0x35DB JUMP JUMPDEST PUSH1 0x40 MLOAD DUP1 SWAP2 SUB SWAP1 RETURN JUMPDEST PUSH2 0x254 PUSH2 0x799 JUMP JUMPDEST STOP JUMPDEST PUSH2 0x25E PUSH2 0xFCF JUMP JUMPDEST STOP JUMPDEST PUSH2 0x27A PUSH1 0x4 DUP1 CALLDATASIZE SUB DUP2 ADD SWAP1 PUSH2 0x275 SWAP2 SWAP1 PUSH2 0x36AC JUMP JUMPDEST PUSH2 0x1281 JUMP JUMPDEST PUSH1 0x40 MLOAD PUSH2 0x287 SWAP2 SWAP1 PUSH2 0x36E6 JUMP JUMPDEST PUSH1 0x40 MLOAD DUP1 SWAP2 SUB SWAP1 RETURN JUMPDEST PUSH2 0x298 PUSH2 0x1337 JUMP JUMPDEST STOP JUMPDEST PUSH2 0x2B4 PUSH1 0x4 DUP1 CALLDATASIZE SUB DUP2 ADD SWAP1 PUSH2 0x2AF SWAP2 SWAP1 PUSH2 0x382B JUMP JUMPDEST PUSH2 0x1708 JUMP JUMPDEST STOP JUMPDEST PUSH2 0x2BE PUSH2 0x1AC2 JUMP JUMPDEST PUSH1 0x40 MLOAD PUSH2 0x2CB SWAP2 SWAP1 PUSH2 0x351E JUMP JUMPDEST PUSH1 0x40 MLOAD DUP1 SWAP2 SUB SWAP1 RETURN JUMPDEST PUSH2 0x2DC PUSH2 0x1B52 JUMP JUMPDEST STOP JUMPDEST PUSH2 0x2F8 PUSH1 0x4 DUP1 CALLDATASIZE SUB DUP2 ADD SWAP1 PUSH2 0x2F3 SWAP2 SWAP1 PUSH2 0x38AF JUMP JUMPDEST PUSH2 0x1CA6 JUMP JUMPDEST STOP JUMPDEST PUSH2 0x302 PUSH2 0x1CBC JUMP JUMPDEST STOP JUMPDEST PUSH2 0x31E PUSH1 0x4 DUP1 CALLDATASIZE SUB DUP2 ADD SWAP1 PUSH2 0x319 SWAP2 SWAP1 PUSH2 0x398B JUMP JUMPDEST PUSH2 0x2072 JUMP JUMPDEST STOP JUMPDEST PUSH2 0x33A PUSH1 0x4 DUP1 CALLDATASIZE SUB DUP2 ADD SWAP1 PUSH2 0x335 SWAP2 SWAP1 PUSH2 0x3571 JUMP JUMPDEST PUSH2 0x208F JUMP JUMPDEST PUSH1 0x40 MLOAD PUSH2 0x347 SWAP2 SWAP1 PUSH2 0x351E JUMP JUMPDEST PUSH1 0x40 MLOAD DUP1 SWAP2 SUB SWAP1 RETURN JUMPDEST PUSH2 0x36A PUSH1 0x4 DUP1 CALLDATASIZE SUB DUP2 ADD SWAP1 PUSH2 0x365 SWAP2 SWAP1 PUSH2 0x3A0B JUMP JUMPDEST PUSH2 0x219A JUMP JUMPDEST PUSH1 0x40 MLOAD PUSH2 0x377 SWAP2 SWAP1 PUSH2 0x347B JUMP JUMPDEST PUSH1 0x40 MLOAD DUP1 SWAP2 SUB SWAP1 RETURN JUMPDEST PUSH0 PUSH4 0x49064906 PUSH1 0xE0 SHL PUSH28 0xFFFFFFFFFFFFFFFFFFFFFFFFFFFFFFFFFFFFFFFFFFFFFFFFFFFFFFFF NOT AND DUP3 PUSH28 0xFFFFFFFFFFFFFFFFFFFFFFFFFFFFFFFFFFFFFFFFFFFFFFFFFFFFFFFF NOT AND EQ DUP1 PUSH2 0x3D9 JUMPI POP PUSH2 0x3D8 DUP3 PUSH2 0x2228 JUMP JUMPDEST JUMPDEST SWAP1 POP SWAP2 SWAP1 POP JUMP JUMPDEST PUSH1 0x60 PUSH0 DUP1 SLOAD PUSH2 0x3EE SWAP1 PUSH2 0x3A76 JUMP JUMPDEST DUP1 PUSH1 0x1F ADD PUSH1 0x20 DUP1 SWAP2 DIV MUL PUSH1 0x20 ADD PUSH1 0x40 MLOAD SWAP1 DUP2 ADD PUSH1 0x40 MSTORE DUP1 SWAP3 SWAP2 SWAP1 DUP2 DUP2 MSTORE PUSH1 0x20 ADD DUP3 DUP1 SLOAD PUSH2 0x41A SWAP1 PUSH2 0x3A76 JUMP JUMPDEST DUP1 ISZERO PUSH2 0x465 JUMPI DUP1 PUSH1 0x1F LT PUSH2 0x43C JUMPI PUSH2 0x100 DUP1 DUP4 SLOAD DIV MUL DUP4 MSTORE SWAP2 PUSH1 0x20 ADD SWAP2 PUSH2 0x465 JUMP JUMPDEST DUP3 ADD SWAP2 SWAP1 PUSH0 MSTORE PUSH1 0x20 PUSH0 KECCAK256 SWAP1 JUMPDEST DUP2 SLOAD DUP2 MSTORE SWAP1 PUSH1 0x1 ADD SWAP1 PUSH1 0x20 ADD DUP1 DUP4 GT PUSH2 0x448 JUMPI DUP3 SWAP1 SUB PUSH1 0x1F AND DUP3 ADD SWAP2 JUMPDEST POP POP POP POP POP SWAP1 POP SWAP1 JUMP JUMPDEST PUSH0 PUSH2 0x479 DUP3 PUSH2 0x2309 JUMP JUMPDEST POP PUSH2 0x483 DUP3 PUSH2 0x238F JUMP JUMPDEST SWAP1 POP SWAP2 SWAP1 POP JUMP JUMPDEST PUSH2 0x49C DUP3 DUP3 PUSH2 0x497 PUSH2 0x23C8 JUMP JUMPDEST PUSH2 0x23CF JUMP JUMPDEST POP POP JUMP JUMPDEST PUSH0 PUSH20 0xFFFFFFFFFFFFFFFFFFFFFFFFFFFFFFFFFFFFFFFF AND DUP3 PUSH20 0xFFFFFFFFFFFFFFFFFFFFFFFFFFFFFFFFFFFFFFFF AND SUB PUSH2 0x510 JUMPI PUSH0 PUSH1 0x40 MLOAD PUSH32 0x64A0AE9200000000000000000000000000000000000000000000000000000000 DUP2 MSTORE PUSH1 0x4 ADD PUSH2 0x507 SWAP2 SWAP1 PUSH2 0x35DB JUMP JUMPDEST PUSH1 0x40 MLOAD DUP1 SWAP2 SUB SWAP1 REVERT JUMPDEST PUSH0 PUSH2 0x523 DUP4 DUP4 PUSH2 0x51E PUSH2 0x23C8 JUMP JUMPDEST PUSH2 0x23E1 JUMP JUMPDEST SWAP1 POP DUP4 PUSH20 0xFFFFFFFFFFFFFFFFFFFFFFFFFFFFFFFFFFFFFFFF AND DUP2 PUSH20 0xFFFFFFFFFFFFFFFFFFFFFFFFFFFFFFFFFFFFFFFF AND EQ PUSH2 0x599 JUMPI DUP4 DUP3 DUP3 PUSH1 0x40 MLOAD PUSH32 0x64283D7B00000000000000000000000000000000000000000000000000000000 DUP2 MSTORE PUSH1 0x4 ADD PUSH2 0x590 SWAP4 SWAP3 SWAP2 SWAP1 PUSH2 0x3AA6 JUMP JUMPDEST PUSH1 0x40 MLOAD DUP1 SWAP2 SUB SWAP1 REVERT JUMPDEST POP POP POP POP JUMP JUMPDEST PUSH1 0x7 PUSH0 ADD PUSH0 SWAP1 SLOAD SWAP1 PUSH2 0x100 EXP SWAP1 DIV PUSH20 0xFFFFFFFFFFFFFFFFFFFFFFFFFFFFFFFFFFFFFFFF AND PUSH20 0xFFFFFFFFFFFFFFFFFFFFFFFFFFFFFFFFFFFFFFFF AND CALLER PUSH20 0xFFFFFFFFFFFFFFFFFFFFFFFFFFFFFFFFFFFFFFFF AND EQ DUP1 PUSH2 0x64A JUMPI POP PUSH1 0x8 PUSH0 ADD PUSH0 SWAP1 SLOAD SWAP1 PUSH2 0x100 EXP SWAP1 DIV PUSH20 0xFFFFFFFFFFFFFFFFFFFFFFFFFFFFFFFFFFFFFFFF AND PUSH20 0xFFFFFFFFFFFFFFFFFFFFFFFFFFFFFFFFFFFFFFFF AND CALLER PUSH20 0xFFFFFFFFFFFFFFFFFFFFFFFFFFFFFFFFFFFFFFFF AND EQ JUMPDEST PUSH2 0x689 JUMPI PUSH1 0x40 MLOAD PUSH32 0x8C379A000000000000000000000000000000000000000000000000000000000 DUP2 MSTORE PUSH1 0x4 ADD PUSH2 0x680 SWAP1 PUSH2 0x3B25 JUMP JUMPDEST PUSH1 0x40 MLOAD DUP1 SWAP2 SUB SWAP1 REVERT JUMPDEST PUSH1 0xB PUSH1 0x40 MLOAD DUP1 PUSH1 0x60 ADD PUSH1 0x40 MSTORE DUP1 DUP4 PUSH20 0xFFFFFFFFFFFFFFFFFFFFFFFFFFFFFFFFFFFFFFFF AND DUP2 MSTORE PUSH1 0x20 ADD PUSH0 ISZERO ISZERO DUP2 MSTORE PUSH1 0x20 ADD PUSH0 ISZERO ISZERO DUP2 MSTORE POP SWAP1 DUP1 PUSH1 0x1 DUP2 SLOAD ADD DUP1 DUP3 SSTORE DUP1 SWAP2 POP POP PUSH1 0x1 SWAP1 SUB SWAP1 PUSH0 MSTORE PUSH1 0x20 PUSH0 KECCAK256 ADD PUSH0 SWAP1 SWAP2 SWAP1 SWAP2 SWAP1 SWAP2 POP PUSH0 DUP3 ADD MLOAD DUP2 PUSH0 ADD PUSH0 PUSH2 0x100 EXP DUP2 SLOAD DUP2 PUSH20 0xFFFFFFFFFFFFFFFFFFFFFFFFFFFFFFFFFFFFFFFF MUL NOT AND SWAP1 DUP4 PUSH20 0xFFFFFFFFFFFFFFFFFFFFFFFFFFFFFFFFFFFFFFFF AND MUL OR SWAP1 SSTORE POP PUSH1 0x20 DUP3 ADD MLOAD DUP2 PUSH0 ADD PUSH1 0x14 PUSH2 0x100 EXP DUP2 SLOAD DUP2 PUSH1 0xFF MUL NOT AND SWAP1 DUP4 ISZERO ISZERO MUL OR SWAP1 SSTORE POP PUSH1 0x40 DUP3 ADD MLOAD DUP2 PUSH0 ADD PUSH1 0x15 PUSH2 0x100 EXP DUP2 SLOAD DUP2 PUSH1 0xFF MUL NOT AND SWAP1 DUP4 ISZERO ISZERO MUL OR SWAP1 SSTORE POP POP POP POP JUMP JUMPDEST PUSH2 0x783 DUP4 DUP4 DUP4 PUSH1 0x40 MLOAD DUP1 PUSH1 0x20 ADD PUSH1 0x40 MSTORE DUP1 PUSH0 DUP2 MSTORE POP PUSH2 0x2072 JUMP JUMPDEST POP POP POP JUMP JUMPDEST PUSH0 PUSH2 0x792 DUP3 PUSH2 0x2309 JUMP JUMPDEST SWAP1 POP SWAP2 SWAP1 POP JUMP JUMPDEST PUSH1 0x7 PUSH0 ADD PUSH0 SWAP1 SLOAD SWAP1 PUSH2 0x100 EXP SWAP1 DIV PUSH20 0xFFFFFFFFFFFFFFFFFFFFFFFFFFFFFFFFFFFFFFFF AND PUSH20 0xFFFFFFFFFFFFFFFFFFFFFFFFFFFFFFFFFFFFFFFF AND CALLER PUSH20 0xFFFFFFFFFFFFFFFFFFFFFFFFFFFFFFFFFFFFFFFF AND EQ DUP1 PUSH2 0x844 JUMPI POP PUSH1 0x8 PUSH0 ADD PUSH0 SWAP1 SLOAD SWAP1 PUSH2 0x100 EXP SWAP1 DIV PUSH20 0xFFFFFFFFFFFFFFFFFFFFFFFFFFFFFFFFFFFFFFFF AND PUSH20 0xFFFFFFFFFFFFFFFFFFFFFFFFFFFFFFFFFFFFFFFF AND CALLER PUSH20 0xFFFFFFFFFFFFFFFFFFFFFFFFFFFFFFFFFFFFFFFF AND EQ JUMPDEST PUSH2 0x883 JUMPI PUSH1 0x40 MLOAD PUSH32 0x8C379A000000000000000000000000000000000000000000000000000000000 DUP2 MSTORE PUSH1 0x4 ADD PUSH2 0x87A SWAP1 PUSH2 0x3B25 JUMP JUMPDEST PUSH1 0x40 MLOAD DUP1 SWAP2 SUB SWAP1 REVERT JUMPDEST PUSH1 0x7 PUSH0 ADD PUSH1 0x15 SWAP1 SLOAD SWAP1 PUSH2 0x100 EXP SWAP1 DIV PUSH1 0xFF AND PUSH2 0x8D4 JUMPI PUSH1 0x40 MLOAD PUSH32 0x8C379A000000000000000000000000000000000000000000000000000000000 DUP2 MSTORE PUSH1 0x4 ADD PUSH2 0x8CB SWAP1 PUSH2 0x3BB3 JUMP JUMPDEST PUSH1 0x40 MLOAD DUP1 SWAP2 SUB SWAP1 REVERT JUMPDEST PUSH1 0x8 PUSH0 ADD PUSH1 0x15 SWAP1 SLOAD SWAP1 PUSH2 0x100 EXP SWAP1 DIV PUSH1 0xFF AND PUSH2 0x925 JUMPI PUSH1 0x40 MLOAD PUSH32 0x8C379A000000000000000000000000000000000000000000000000000000000 DUP2 MSTORE PUSH1 0x4 ADD PUSH2 0x91C SWAP1 PUSH2 0x3C41 JUMP JUMPDEST PUSH1 0x40 MLOAD DUP1 SWAP2 SUB SWAP1 REVERT JUMPDEST PUSH0 DUP1 PUSH0 JUMPDEST PUSH1 0xB DUP1 SLOAD SWAP1 POP DUP2 LT ISZERO PUSH2 0x9C9 JUMPI PUSH1 0xB DUP2 DUP2 SLOAD DUP2 LT PUSH2 0x94A JUMPI PUSH2 0x949 PUSH2 0x3C5F JUMP JUMPDEST JUMPDEST SWAP1 PUSH0 MSTORE PUSH1 0x20 PUSH0 KECCAK256 ADD PUSH0 ADD PUSH1 0x14 SWAP1 SLOAD SWAP1 PUSH2 0x100 EXP SWAP1 DIV PUSH1 0xFF AND ISZERO PUSH2 0x9B6 JUMPI DUP2 DUP1 PUSH2 0x972 SWAP1 PUSH2 0x3CB9 JUMP JUMPDEST SWAP3 POP POP PUSH1 0xB DUP2 DUP2 SLOAD DUP2 LT PUSH2 0x989 JUMPI PUSH2 0x988 PUSH2 0x3C5F JUMP JUMPDEST JUMPDEST SWAP1 PUSH0 MSTORE PUSH1 0x20 PUSH0 KECCAK256 ADD PUSH0 ADD PUSH1 0x15 SWAP1 SLOAD SWAP1 PUSH2 0x100 EXP SWAP1 DIV PUSH1 0xFF AND ISZERO PUSH2 0x9B5 JUMPI DUP3 DUP1 PUSH2 0x9B1 SWAP1 PUSH2 0x3CB9 JUMP JUMPDEST SWAP4 POP POP JUMPDEST JUMPDEST DUP1 DUP1 PUSH2 0x9C1 SWAP1 PUSH2 0x3CB9 JUMP JUMPDEST SWAP2 POP POP PUSH2 0x929 JUMP JUMPDEST POP DUP1 PUSH1 0x2 DUP4 PUSH2 0x9D8 SWAP2 SWAP1 PUSH2 0x3D00 JUMP JUMPDEST LT PUSH2 0xA18 JUMPI PUSH1 0x40 MLOAD PUSH32 0x8C379A000000000000000000000000000000000000000000000000000000000 DUP2 MSTORE PUSH1 0x4 ADD PUSH2 0xA0F SWAP1 PUSH2 0x3D8B JUMP JUMPDEST PUSH1 0x40 MLOAD DUP1 SWAP2 SUB SWAP1 REVERT JUMPDEST PUSH0 TIMESTAMP SWAP1 POP PUSH1 0x9 SLOAD DUP2 LT ISZERO DUP1 ISZERO PUSH2 0xA3D JUMPI POP PUSH3 0x15180 PUSH1 0x9 SLOAD PUSH2 0xA3A SWAP2 SWAP1 PUSH2 0x3DA9 JUMP JUMPDEST DUP2 LT JUMPDEST PUSH2 0xA7C JUMPI PUSH1 0x40 MLOAD PUSH32 0x8C379A000000000000000000000000000000000000000000000000000000000 DUP2 MSTORE PUSH1 0x4 ADD PUSH2 0xA73 SWAP1 PUSH2 0x3E26 JUMP JUMPDEST PUSH1 0x40 MLOAD DUP1 SWAP2 SUB SWAP1 REVERT JUMPDEST PUSH1 0x7 PUSH0 ADD PUSH1 0x16 SWAP1 SLOAD SWAP1 PUSH2 0x100 EXP SWAP1 DIV PUSH1 0xFF AND ISZERO DUP1 ISZERO PUSH2 0xAE9 JUMPI POP PUSH1 0x7 PUSH0 ADD PUSH0 SWAP1 SLOAD SWAP1 PUSH2 0x100 EXP SWAP1 DIV PUSH20 0xFFFFFFFFFFFFFFFFFFFFFFFFFFFFFFFFFFFFFFFF AND PUSH20 0xFFFFFFFFFFFFFFFFFFFFFFFFFFFFFFFFFFFFFFFF AND CALLER PUSH20 0xFFFFFFFFFFFFFFFFFFFFFFFFFFFFFFFFFFFFFFFF AND EQ JUMPDEST ISZERO PUSH2 0xC1C JUMPI PUSH1 0x40 MLOAD DUP1 PUSH1 0x80 ADD PUSH1 0x40 MSTORE DUP1 PUSH1 0x7 PUSH0 ADD PUSH0 SWAP1 SLOAD SWAP1 PUSH2 0x100 EXP SWAP1 DIV PUSH20 0xFFFFFFFFFFFFFFFFFFFFFFFFFFFFFFFFFFFFFFFF AND PUSH20 0xFFFFFFFFFFFFFFFFFFFFFFFFFFFFFFFFFFFFFFFF AND DUP2 MSTORE PUSH1 0x20 ADD PUSH1 0x7 PUSH0 ADD PUSH1 0x14 SWAP1 SLOAD SWAP1 PUSH2 0x100 EXP SWAP1 DIV PUSH1 0xFF AND ISZERO ISZERO DUP2 MSTORE PUSH1 0x20 ADD PUSH1 0x7 PUSH0 ADD PUSH1 0x15 SWAP1 SLOAD SWAP1 PUSH2 0x100 EXP SWAP1 DIV PUSH1 0xFF AND ISZERO ISZERO DUP2 MSTORE PUSH1 0x20 ADD PUSH1 0x1 ISZERO ISZERO DUP2 MSTORE POP PUSH1 0x7 PUSH0 DUP3 ADD MLOAD DUP2 PUSH0 ADD PUSH0 PUSH2 0x100 EXP DUP2 SLOAD DUP2 PUSH20 0xFFFFFFFFFFFFFFFFFFFFFFFFFFFFFFFFFFFFFFFF MUL NOT AND SWAP1 DUP4 PUSH20 0xFFFFFFFFFFFFFFFFFFFFFFFFFFFFFFFFFFFFFFFF AND MUL OR SWAP1 SSTORE POP PUSH1 0x20 DUP3 ADD MLOAD DUP2 PUSH0 ADD PUSH1 0x14 PUSH2 0x100 EXP DUP2 SLOAD DUP2 PUSH1 0xFF MUL NOT AND SWAP1 DUP4 ISZERO ISZERO MUL OR SWAP1 SSTORE POP PUSH1 0x40 DUP3 ADD MLOAD DUP2 PUSH0 ADD PUSH1 0x15 PUSH2 0x100 EXP DUP2 SLOAD DUP2 PUSH1 0xFF MUL NOT AND SWAP1 DUP4 ISZERO ISZERO MUL OR SWAP1 SSTORE POP PUSH1 0x60 DUP3 ADD MLOAD DUP2 PUSH0 ADD PUSH1 0x16 PUSH2 0x100 EXP DUP2 SLOAD DUP2 PUSH1 0xFF MUL NOT AND SWAP1 DUP4 ISZERO ISZERO MUL OR SWAP1 SSTORE POP SWAP1 POP POP PUSH2 0xD46 JUMP JUMPDEST PUSH1 0x40 MLOAD DUP1 PUSH1 0x80 ADD PUSH1 0x40 MSTORE DUP1 PUSH1 0x8 PUSH0 ADD PUSH0 SWAP1 SLOAD SWAP1 PUSH2 0x100 EXP SWAP1 DIV PUSH20 0xFFFFFFFFFFFFFFFFFFFFFFFFFFFFFFFFFFFFFFFF AND PUSH20 0xFFFFFFFFFFFFFFFFFFFFFFFFFFFFFFFFFFFFFFFF AND DUP2 MSTORE PUSH1 0x20 ADD PUSH1 0x8 PUSH0 ADD PUSH1 0x14 SWAP1 SLOAD SWAP1 PUSH2 0x100 EXP SWAP1 DIV PUSH1 0xFF AND ISZERO ISZERO DUP2 MSTORE PUSH1 0x20 ADD PUSH1 0x8 PUSH0 ADD PUSH1 0x15 SWAP1 SLOAD SWAP1 PUSH2 0x100 EXP SWAP1 DIV PUSH1 0xFF AND ISZERO ISZERO DUP2 MSTORE PUSH1 0x20 ADD PUSH1 0x1 ISZERO ISZERO DUP2 MSTORE POP PUSH1 0x8 PUSH0 DUP3 ADD MLOAD DUP2 PUSH0 ADD PUSH0 PUSH2 0x100 EXP DUP2 SLOAD DUP2 PUSH20 0xFFFFFFFFFFFFFFFFFFFFFFFFFFFFFFFFFFFFFFFF MUL NOT AND SWAP1 DUP4 PUSH20 0xFFFFFFFFFFFFFFFFFFFFFFFFFFFFFFFFFFFFFFFF AND MUL OR SWAP1 SSTORE POP PUSH1 0x20 DUP3 ADD MLOAD DUP2 PUSH0 ADD PUSH1 0x14 PUSH2 0x100 EXP DUP2 SLOAD DUP2 PUSH1 0xFF MUL NOT AND SWAP1 DUP4 ISZERO ISZERO MUL OR SWAP1 SSTORE POP PUSH1 0x40 DUP3 ADD MLOAD DUP2 PUSH0 ADD PUSH1 0x15 PUSH2 0x100 EXP DUP2 SLOAD DUP2 PUSH1 0xFF MUL NOT AND SWAP1 DUP4 ISZERO ISZERO MUL OR SWAP1 SSTORE POP PUSH1 0x60 DUP3 ADD MLOAD DUP2 PUSH0 ADD PUSH1 0x16 PUSH2 0x100 EXP DUP2 SLOAD DUP2 PUSH1 0xFF MUL NOT AND SWAP1 DUP4 ISZERO ISZERO MUL OR SWAP1 SSTORE POP SWAP1 POP POP JUMPDEST PUSH1 0x7 PUSH0 ADD PUSH1 0x16 SWAP1 SLOAD SWAP1 PUSH2 0x100 EXP SWAP1 DIV PUSH1 0xFF AND DUP1 ISZERO PUSH2 0xD72 JUMPI POP PUSH1 0x8 PUSH0 ADD PUSH1 0x16 SWAP1 SLOAD SWAP1 PUSH2 0x100 EXP SWAP1 DIV PUSH1 0xFF AND JUMPDEST ISZERO PUSH2 0xFCA JUMPI PUSH1 0x40 MLOAD DUP1 PUSH1 0x80 ADD PUSH1 0x40 MSTORE DUP1 PUSH1 0x7 PUSH0 ADD PUSH0 SWAP1 SLOAD SWAP1 PUSH2 0x100 EXP SWAP1 DIV PUSH20 0xFFFFFFFFFFFFFFFFFFFFFFFFFFFFFFFFFFFFFFFF AND PUSH20 0xFFFFFFFFFFFFFFFFFFFFFFFFFFFFFFFFFFFFFFFF AND DUP2 MSTORE PUSH1 0x20 ADD PUSH1 0x1 ISZERO ISZERO DUP2 MSTORE PUSH1 0x20 ADD PUSH1 0x7 PUSH0 ADD PUSH1 0x15 SWAP1 SLOAD SWAP1 PUSH2 0x100 EXP SWAP1 DIV PUSH1 0xFF AND ISZERO ISZERO DUP2 MSTORE PUSH1 0x20 ADD PUSH1 0x7 PUSH0 ADD PUSH1 0x16 SWAP1 SLOAD SWAP1 PUSH2 0x100 EXP SWAP1 DIV PUSH1 0xFF AND ISZERO ISZERO DUP2 MSTORE POP PUSH1 0x7 PUSH0 DUP3 ADD MLOAD DUP2 PUSH0 ADD PUSH0 PUSH2 0x100 EXP DUP2 SLOAD DUP2 PUSH20 0xFFFFFFFFFFFFFFFFFFFFFFFFFFFFFFFFFFFFFFFF MUL NOT AND SWAP1 DUP4 PUSH20 0xFFFFFFFFFFFFFFFFFFFFFFFFFFFFFFFFFFFFFFFF AND MUL OR SWAP1 SSTORE POP PUSH1 0x20 DUP3 ADD MLOAD DUP2 PUSH0 ADD PUSH1 0x14 PUSH2 0x100 EXP DUP2 SLOAD DUP2 PUSH1 0xFF MUL NOT AND SWAP1 DUP4 ISZERO ISZERO MUL OR SWAP1 SSTORE POP PUSH1 0x40 DUP3 ADD MLOAD DUP2 PUSH0 ADD PUSH1 0x15 PUSH2 0x100 EXP DUP2 SLOAD DUP2 PUSH1 0xFF MUL NOT AND SWAP1 DUP4 ISZERO ISZERO MUL OR SWAP1 SSTORE POP PUSH1 0x60 DUP3 ADD MLOAD DUP2 PUSH0 ADD PUSH1 0x16 PUSH2 0x100 EXP DUP2 SLOAD DUP2 PUSH1 0xFF MUL NOT AND SWAP1 DUP4 ISZERO ISZERO MUL OR SWAP1 SSTORE POP SWAP1 POP POP PUSH1 0x40 MLOAD DUP1 PUSH1 0x80 ADD PUSH1 0x40 MSTORE DUP1 PUSH1 0x8 PUSH0 ADD PUSH0 SWAP1 SLOAD SWAP1 PUSH2 0x100 EXP SWAP1 DIV PUSH20 0xFFFFFFFFFFFFFFFFFFFFFFFFFFFFFFFFFFFFFFFF AND PUSH20 0xFFFFFFFFFFFFFFFFFFFFFFFFFFFFFFFFFFFFFFFF AND DUP2 MSTORE PUSH1 0x20 ADD PUSH1 0x1 ISZERO ISZERO DUP2 MSTORE PUSH1 0x20 ADD PUSH1 0x8 PUSH0 ADD PUSH1 0x15 SWAP1 SLOAD SWAP1 PUSH2 0x100 EXP SWAP1 DIV PUSH1 0xFF AND ISZERO ISZERO DUP2 MSTORE PUSH1 0x20 ADD PUSH1 0x8 PUSH0 ADD PUSH1 0x16 SWAP1 SLOAD SWAP1 PUSH2 0x100 EXP SWAP1 DIV PUSH1 0xFF AND ISZERO ISZERO DUP2 MSTORE POP PUSH1 0x8 PUSH0 DUP3 ADD MLOAD DUP2 PUSH0 ADD PUSH0 PUSH2 0x100 EXP DUP2 SLOAD DUP2 PUSH20 0xFFFFFFFFFFFFFFFFFFFFFFFFFFFFFFFFFFFFFFFF MUL NOT AND SWAP1 DUP4 PUSH20 0xFFFFFFFFFFFFFFFFFFFFFFFFFFFFFFFFFFFFFFFF AND MUL OR SWAP1 SSTORE POP PUSH1 0x20 DUP3 ADD MLOAD DUP2 PUSH0 ADD PUSH1 0x14 PUSH2 0x100 EXP DUP2 SLOAD DUP2 PUSH1 0xFF MUL NOT AND SWAP1 DUP4 ISZERO ISZERO MUL OR SWAP1 SSTORE POP PUSH1 0x40 DUP3 ADD MLOAD DUP2 PUSH0 ADD PUSH1 0x15 PUSH2 0x100 EXP DUP2 SLOAD DUP2 PUSH1 0xFF MUL NOT AND SWAP1 DUP4 ISZERO ISZERO MUL OR SWAP1 SSTORE POP PUSH1 0x60 DUP3 ADD MLOAD DUP2 PUSH0 ADD PUSH1 0x16 PUSH2 0x100 EXP DUP2 SLOAD DUP2 PUSH1 0xFF MUL NOT AND SWAP1 DUP4 ISZERO ISZERO MUL OR SWAP1 SSTORE POP SWAP1 POP POP JUMPDEST POP POP POP JUMP JUMPDEST PUSH1 0x7 PUSH0 ADD PUSH0 SWAP1 SLOAD SWAP1 PUSH2 0x100 EXP SWAP1 DIV PUSH20 0xFFFFFFFFFFFFFFFFFFFFFFFFFFFFFFFFFFFFFFFF AND PUSH20 0xFFFFFFFFFFFFFFFFFFFFFFFFFFFFFFFFFFFFFFFF AND CALLER PUSH20 0xFFFFFFFFFFFFFFFFFFFFFFFFFFFFFFFFFFFFFFFF AND EQ DUP1 PUSH2 0x107A JUMPI POP PUSH1 0x8 PUSH0 ADD PUSH0 SWAP1 SLOAD SWAP1 PUSH2 0x100 EXP SWAP1 DIV PUSH20 0xFFFFFFFFFFFFFFFFFFFFFFFFFFFFFFFFFFFFFFFF AND PUSH20 0xFFFFFFFFFFFFFFFFFFFFFFFFFFFFFFFFFFFFFFFF AND CALLER PUSH20 0xFFFFFFFFFFFFFFFFFFFFFFFFFFFFFFFFFFFFFFFF AND EQ JUMPDEST PUSH2 0x10B9 JUMPI PUSH1 0x40 MLOAD PUSH32 0x8C379A000000000000000000000000000000000000000000000000000000000 DUP2 MSTORE PUSH1 0x4 ADD PUSH2 0x10B0 SWAP1 PUSH2 0x3B25 JUMP JUMPDEST PUSH1 0x40 MLOAD DUP1 SWAP2 SUB SWAP1 REVERT JUMPDEST PUSH1 0x40 MLOAD DUP1 PUSH1 0x80 ADD PUSH1 0x40 MSTORE DUP1 PUSH0 PUSH20 0xFFFFFFFFFFFFFFFFFFFFFFFFFFFFFFFFFFFFFFFF AND DUP2 MSTORE PUSH1 0x20 ADD PUSH0 ISZERO ISZERO DUP2 MSTORE PUSH1 0x20 ADD PUSH0 ISZERO ISZERO DUP2 MSTORE PUSH1 0x20 ADD PUSH0 ISZERO ISZERO DUP2 MSTORE POP PUSH1 0x7 PUSH0 DUP3 ADD MLOAD DUP2 PUSH0 ADD PUSH0 PUSH2 0x100 EXP DUP2 SLOAD DUP2 PUSH20 0xFFFFFFFFFFFFFFFFFFFFFFFFFFFFFFFFFFFFFFFF MUL NOT AND SWAP1 DUP4 PUSH20 0xFFFFFFFFFFFFFFFFFFFFFFFFFFFFFFFFFFFFFFFF AND MUL OR SWAP1 SSTORE POP PUSH1 0x20 DUP3 ADD MLOAD DUP2 PUSH0 ADD PUSH1 0x14 PUSH2 0x100 EXP DUP2 SLOAD DUP2 PUSH1 0xFF MUL NOT AND SWAP1 DUP4 ISZERO ISZERO MUL OR SWAP1 SSTORE POP PUSH1 0x40 DUP3 ADD MLOAD DUP2 PUSH0 ADD PUSH1 0x15 PUSH2 0x100 EXP DUP2 SLOAD DUP2 PUSH1 0xFF MUL NOT AND SWAP1 DUP4 ISZERO ISZERO MUL OR SWAP1 SSTORE POP PUSH1 0x60 DUP3 ADD MLOAD DUP2 PUSH0 ADD PUSH1 0x16 PUSH2 0x100 EXP DUP2 SLOAD DUP2 PUSH1 0xFF MUL NOT AND SWAP1 DUP4 ISZERO ISZERO MUL OR SWAP1 SSTORE POP SWAP1 POP POP PUSH1 0x40 MLOAD DUP1 PUSH1 0x80 ADD PUSH1 0x40 MSTORE DUP1 PUSH0 PUSH20 0xFFFFFFFFFFFFFFFFFFFFFFFFFFFFFFFFFFFFFFFF AND DUP2 MSTORE PUSH1 0x20 ADD PUSH0 ISZERO ISZERO DUP2 MSTORE PUSH1 0x20 ADD PUSH0 ISZERO ISZERO DUP2 MSTORE PUSH1 0x20 ADD PUSH0 ISZERO ISZERO DUP2 MSTORE POP PUSH1 0x8 PUSH0 DUP3 ADD MLOAD DUP2 PUSH0 ADD PUSH0 PUSH2 0x100 EXP DUP2 SLOAD DUP2 PUSH20 0xFFFFFFFFFFFFFFFFFFFFFFFFFFFFFFFFFFFFFFFF MUL NOT AND SWAP1 DUP4 PUSH20 0xFFFFFFFFFFFFFFFFFFFFFFFFFFFFFFFFFFFFFFFF AND MUL OR SWAP1 SSTORE POP PUSH1 0x20 DUP3 ADD MLOAD DUP2 PUSH0 ADD PUSH1 0x14 PUSH2 0x100 EXP DUP2 SLOAD DUP2 PUSH1 0xFF MUL NOT AND SWAP1 DUP4 ISZERO ISZERO MUL OR SWAP1 SSTORE POP PUSH1 0x40 DUP3 ADD MLOAD DUP2 PUSH0 ADD PUSH1 0x15 PUSH2 0x100 EXP DUP2 SLOAD DUP2 PUSH1 0xFF MUL NOT AND SWAP1 DUP4 ISZERO ISZERO MUL OR SWAP1 SSTORE POP PUSH1 0x60 DUP3 ADD MLOAD DUP2 PUSH0 ADD PUSH1 0x16 PUSH2 0x100 EXP DUP2 SLOAD DUP2 PUSH1 0xFF MUL NOT AND SWAP1 DUP4 ISZERO ISZERO MUL OR SWAP1 SSTORE POP SWAP1 POP POP JUMP JUMPDEST PUSH0 DUP1 PUSH20 0xFFFFFFFFFFFFFFFFFFFFFFFFFFFFFFFFFFFFFFFF AND DUP3 PUSH20 0xFFFFFFFFFFFFFFFFFFFFFFFFFFFFFFFFFFFFFFFF AND SUB PUSH2 0x12F2 JUMPI PUSH0 PUSH1 0x40 MLOAD PUSH32 0x89C62B6400000000000000000000000000000000000000000000000000000000 DUP2 MSTORE PUSH1 0x4 ADD PUSH2 0x12E9 SWAP2 SWAP1 PUSH2 0x35DB JUMP JUMPDEST PUSH1 0x40 MLOAD DUP1 SWAP2 SUB SWAP1 REVERT JUMPDEST PUSH1 0x3 PUSH0 DUP4 PUSH20 0xFFFFFFFFFFFFFFFFFFFFFFFFFFFFFFFFFFFFFFFF AND PUSH20 0xFFFFFFFFFFFFFFFFFFFFFFFFFFFFFFFFFFFFFFFF AND DUP2 MSTORE PUSH1 0x20 ADD SWAP1 DUP2 MSTORE PUSH1 0x20 ADD PUSH0 KECCAK256 SLOAD SWAP1 POP SWAP2 SWAP1 POP JUMP JUMPDEST PUSH0 PUSH20 0xFFFFFFFFFFFFFFFFFFFFFFFFFFFFFFFFFFFFFFFF AND PUSH2 0x1357 CALLER PUSH2 0x25EC JUMP JUMPDEST PUSH0 ADD MLOAD PUSH20 0xFFFFFFFFFFFFFFFFFFFFFFFFFFFFFFFFFFFFFFFF AND SUB PUSH2 0x13B0 JUMPI PUSH1 0x40 MLOAD PUSH32 0x8C379A000000000000000000000000000000000000000000000000000000000 DUP2 MSTORE PUSH1 0x4 ADD PUSH2 0x13A7 SWAP1 PUSH2 0x3E8E JUMP JUMPDEST PUSH1 0x40 MLOAD DUP1 SWAP2 SUB SWAP1 REVERT JUMPDEST PUSH0 PUSH2 0x13BA CALLER PUSH2 0x25EC JUMP JUMPDEST SWAP1 POP PUSH0 PUSH2 0x13C6 CALLER PUSH2 0x277B JUMP JUMPDEST SWAP1 POP PUSH1 0xB DUP1 SLOAD SWAP1 POP DUP2 LT ISZERO PUSH2 0x1704 JUMPI PUSH1 0x40 MLOAD DUP1 PUSH1 0x60 ADD PUSH1 0x40 MSTORE DUP1 DUP4 PUSH0 ADD MLOAD PUSH20 0xFFFFFFFFFFFFFFFFFFFFFFFFFFFFFFFFFFFFFFFF AND DUP2 MSTORE PUSH1 0x20 ADD PUSH1 0x1 ISZERO ISZERO DUP2 MSTORE PUSH1 0x20 ADD DUP4 PUSH1 0x40 ADD MLOAD ISZERO ISZERO DUP2 MSTORE POP PUSH1 0xB DUP3 DUP2 SLOAD DUP2 LT PUSH2 0x1426 JUMPI PUSH2 0x1425 PUSH2 0x3C5F JUMP JUMPDEST JUMPDEST SWAP1 PUSH0 MSTORE PUSH1 0x20 PUSH0 KECCAK256 ADD PUSH0 DUP3 ADD MLOAD DUP2 PUSH0 ADD PUSH0 PUSH2 0x100 EXP DUP2 SLOAD DUP2 PUSH20 0xFFFFFFFFFFFFFFFFFFFFFFFFFFFFFFFFFFFFFFFF MUL NOT AND SWAP1 DUP4 PUSH20 0xFFFFFFFFFFFFFFFFFFFFFFFFFFFFFFFFFFFFFFFF AND MUL OR SWAP1 SSTORE POP PUSH1 0x20 DUP3 ADD MLOAD DUP2 PUSH0 ADD PUSH1 0x14 PUSH2 0x100 EXP DUP2 SLOAD DUP2 PUSH1 0xFF MUL NOT AND SWAP1 DUP4 ISZERO ISZERO MUL OR SWAP1 SSTORE POP PUSH1 0x40 DUP3 ADD MLOAD DUP2 PUSH0 ADD PUSH1 0x15 PUSH2 0x100 EXP DUP2 SLOAD DUP2 PUSH1 0xFF MUL NOT AND SWAP1 DUP4 ISZERO ISZERO MUL OR SWAP1 SSTORE POP SWAP1 POP POP PUSH1 0x40 MLOAD DUP1 PUSH1 0x80 ADD PUSH1 0x40 MSTORE DUP1 PUSH1 0x7 PUSH0 ADD PUSH0 SWAP1 SLOAD SWAP1 PUSH2 0x100 EXP SWAP1 DIV PUSH20 0xFFFFFFFFFFFFFFFFFFFFFFFFFFFFFFFFFFFFFFFF AND PUSH20 0xFFFFFFFFFFFFFFFFFFFFFFFFFFFFFFFFFFFFFFFF AND DUP2 MSTORE PUSH1 0x20 ADD PUSH1 0x7 PUSH0 ADD PUSH1 0x14 SWAP1 SLOAD SWAP1 PUSH2 0x100 EXP SWAP1 DIV PUSH1 0xFF AND ISZERO ISZERO DUP2 MSTORE PUSH1 0x20 ADD PUSH0 ISZERO ISZERO DUP2 MSTORE PUSH1 0x20 ADD PUSH1 0x7 PUSH0 ADD PUSH1 0x16 SWAP1 SLOAD SWAP1 PUSH2 0x100 EXP SWAP1 DIV PUSH1 0xFF AND ISZERO ISZERO DUP2 MSTORE POP PUSH1 0x7 PUSH0 DUP3 ADD MLOAD DUP2 PUSH0 ADD PUSH0 PUSH2 0x100 EXP DUP2 SLOAD DUP2 PUSH20 0xFFFFFFFFFFFFFFFFFFFFFFFFFFFFFFFFFFFFFFFF MUL NOT AND SWAP1 DUP4 PUSH20 0xFFFFFFFFFFFFFFFFFFFFFFFFFFFFFFFFFFFFFFFF AND MUL OR SWAP1 SSTORE POP PUSH1 0x20 DUP3 ADD MLOAD DUP2 PUSH0 ADD PUSH1 0x14 PUSH2 0x100 EXP DUP2 SLOAD DUP2 PUSH1 0xFF MUL NOT AND SWAP1 DUP4 ISZERO ISZERO MUL OR SWAP1 SSTORE POP PUSH1 0x40 DUP3 ADD MLOAD DUP2 PUSH0 ADD PUSH1 0x15 PUSH2 0x100 EXP DUP2 SLOAD DUP2 PUSH1 0xFF MUL NOT AND SWAP1 DUP4 ISZERO ISZERO MUL OR SWAP1 SSTORE POP PUSH1 0x60 DUP3 ADD MLOAD DUP2 PUSH0 ADD PUSH1 0x16 PUSH2 0x100 EXP DUP2 SLOAD DUP2 PUSH1 0xFF MUL NOT AND SWAP1 DUP4 ISZERO ISZERO MUL OR SWAP1 SSTORE POP SWAP1 POP POP PUSH1 0x40 MLOAD DUP1 PUSH1 0x80 ADD PUSH1 0x40 MSTORE DUP1 PUSH1 0x8 PUSH0 ADD PUSH0 SWAP1 SLOAD SWAP1 PUSH2 0x100 EXP SWAP1 DIV PUSH20 0xFFFFFFFFFFFFFFFFFFFFFFFFFFFFFFFFFFFFFFFF AND PUSH20 0xFFFFFFFFFFFFFFFFFFFFFFFFFFFFFFFFFFFFFFFF AND DUP2 MSTORE PUSH1 0x20 ADD PUSH1 0x8 PUSH0 ADD PUSH1 0x14 SWAP1 SLOAD SWAP1 PUSH2 0x100 EXP SWAP1 DIV PUSH1 0xFF AND ISZERO ISZERO DUP2 MSTORE PUSH1 0x20 ADD PUSH0 ISZERO ISZERO DUP2 MSTORE PUSH1 0x20 ADD PUSH1 0x8 PUSH0 ADD PUSH1 0x16 SWAP1 SLOAD SWAP1 PUSH2 0x100 EXP SWAP1 DIV PUSH1 0xFF AND ISZERO ISZERO DUP2 MSTORE POP PUSH1 0x8 PUSH0 DUP3 ADD MLOAD DUP2 PUSH0 ADD PUSH0 PUSH2 0x100 EXP DUP2 SLOAD DUP2 PUSH20 0xFFFFFFFFFFFFFFFFFFFFFFFFFFFFFFFFFFFFFFFF MUL NOT AND SWAP1 DUP4 PUSH20 0xFFFFFFFFFFFFFFFFFFFFFFFFFFFFFFFFFFFFFFFF AND MUL OR SWAP1 SSTORE POP PUSH1 0x20 DUP3 ADD MLOAD DUP2 PUSH0 ADD PUSH1 0x14 PUSH2 0x100 EXP DUP2 SLOAD DUP2 PUSH1 0xFF MUL NOT AND SWAP1 DUP4 ISZERO ISZERO MUL OR SWAP1 SSTORE POP PUSH1 0x40 DUP3 ADD MLOAD DUP2 PUSH0 ADD PUSH1 0x15 PUSH2 0x100 EXP DUP2 SLOAD DUP2 PUSH1 0xFF MUL NOT AND SWAP1 DUP4 ISZERO ISZERO MUL OR SWAP1 SSTORE POP PUSH1 0x60 DUP3 ADD MLOAD DUP2 PUSH0 ADD PUSH1 0x16 PUSH2 0x100 EXP DUP2 SLOAD DUP2 PUSH1 0xFF MUL NOT AND SWAP1 DUP4 ISZERO ISZERO MUL OR SWAP1 SSTORE POP SWAP1 POP POP JUMPDEST POP POP JUMP JUMPDEST PUSH0 PUSH1 0x7 PUSH0 ADD PUSH0 SWAP1 SLOAD SWAP1 PUSH2 0x100 EXP SWAP1 DIV PUSH20 0xFFFFFFFFFFFFFFFFFFFFFFFFFFFFFFFFFFFFFFFF AND PUSH20 0xFFFFFFFFFFFFFFFFFFFFFFFFFFFFFFFFFFFFFFFF AND CALLER PUSH20 0xFFFFFFFFFFFFFFFFFFFFFFFFFFFFFFFFFFFFFFFF AND SUB PUSH2 0x1778 JUMPI PUSH1 0x7 PUSH0 ADD PUSH1 0x14 SWAP1 SLOAD SWAP1 PUSH2 0x100 EXP SWAP1 DIV PUSH1 0xFF AND SWAP1 POP PUSH2 0x17E4 JUMP JUMPDEST PUSH1 0x8 PUSH0 ADD PUSH0 SWAP1 SLOAD SWAP1 PUSH2 0x100 EXP SWAP1 DIV PUSH20 0xFFFFFFFFFFFFFFFFFFFFFFFFFFFFFFFFFFFFFFFF AND PUSH20 0xFFFFFFFFFFFFFFFFFFFFFFFFFFFFFFFFFFFFFFFF AND CALLER PUSH20 0xFFFFFFFFFFFFFFFFFFFFFFFFFFFFFFFFFFFFFFFF AND SUB PUSH2 0x17E3 JUMPI PUSH1 0x8 PUSH0 ADD PUSH1 0x14 SWAP1 SLOAD SWAP1 PUSH2 0x100 EXP SWAP1 DIV PUSH1 0xFF AND SWAP1 POP JUMPDEST JUMPDEST DUP1 ISZERO PUSH2 0x1825 JUMPI PUSH1 0x40 MLOAD PUSH32 0x8C379A000000000000000000000000000000000000000000000000000000000 DUP2 MSTORE PUSH1 0x4 ADD PUSH2 0x181C SWAP1 PUSH2 0x3EF6 JUMP JUMPDEST PUSH1 0x40 MLOAD DUP1 SWAP2 SUB SWAP1 REVERT JUMPDEST PUSH0 PUSH20 0xFFFFFFFFFFFFFFFFFFFFFFFFFFFFFFFFFFFFFFFF AND PUSH1 0x7 PUSH0 ADD PUSH0 SWAP1 SLOAD SWAP1 PUSH2 0x100 EXP SWAP1 DIV PUSH20 0xFFFFFFFFFFFFFFFFFFFFFFFFFFFFFFFFFFFFFFFF AND PUSH20 0xFFFFFFFFFFFFFFFFFFFFFFFFFFFFFFFFFFFFFFFF AND SUB PUSH2 0x197A JUMPI PUSH1 0x40 MLOAD DUP1 PUSH1 0x80 ADD PUSH1 0x40 MSTORE DUP1 CALLER PUSH20 0xFFFFFFFFFFFFFFFFFFFFFFFFFFFFFFFFFFFFFFFF AND DUP2 MSTORE PUSH1 0x20 ADD PUSH0 ISZERO ISZERO DUP2 MSTORE PUSH1 0x20 ADD PUSH0 ISZERO ISZERO DUP2 MSTORE PUSH1 0x20 ADD PUSH0 ISZERO ISZERO DUP2 MSTORE POP PUSH1 0x7 PUSH0 DUP3 ADD MLOAD DUP2 PUSH0 ADD PUSH0 PUSH2 0x100 EXP DUP2 SLOAD DUP2 PUSH20 0xFFFFFFFFFFFFFFFFFFFFFFFFFFFFFFFFFFFFFFFF MUL NOT AND SWAP1 DUP4 PUSH20 0xFFFFFFFFFFFFFFFFFFFFFFFFFFFFFFFFFFFFFFFF AND MUL OR SWAP1 SSTORE POP PUSH1 0x20 DUP3 ADD MLOAD DUP2 PUSH0 ADD PUSH1 0x14 PUSH2 0x100 EXP DUP2 SLOAD DUP2 PUSH1 0xFF MUL NOT AND SWAP1 DUP4 ISZERO ISZERO MUL OR SWAP1 SSTORE POP PUSH1 0x40 DUP3 ADD MLOAD DUP2 PUSH0 ADD PUSH1 0x15 PUSH2 0x100 EXP DUP2 SLOAD DUP2 PUSH1 0xFF MUL NOT AND SWAP1 DUP4 ISZERO ISZERO MUL OR SWAP1 SSTORE POP PUSH1 0x60 DUP3 ADD MLOAD DUP2 PUSH0 ADD PUSH1 0x16 PUSH2 0x100 EXP DUP2 SLOAD DUP2 PUSH1 0xFF MUL NOT AND SWAP1 DUP4 ISZERO ISZERO MUL OR SWAP1 SSTORE POP SWAP1 POP POP DUP3 PUSH1 0x9 DUP2 SWAP1 SSTORE POP DUP2 PUSH1 0xA SWAP1 DUP2 PUSH2 0x1974 SWAP2 SWAP1 PUSH2 0x40B1 JUMP JUMPDEST POP PUSH2 0x1ABD JUMP JUMPDEST PUSH0 PUSH20 0xFFFFFFFFFFFFFFFFFFFFFFFFFFFFFFFFFFFFFFFF AND PUSH1 0x8 PUSH0 ADD PUSH0 SWAP1 SLOAD SWAP1 PUSH2 0x100 EXP SWAP1 DIV PUSH20 0xFFFFFFFFFFFFFFFFFFFFFFFFFFFFFFFFFFFFFFFF AND PUSH20 0xFFFFFFFFFFFFFFFFFFFFFFFFFFFFFFFFFFFFFFFF AND SUB PUSH2 0x1ABC JUMPI PUSH1 0x40 MLOAD DUP1 PUSH1 0x80 ADD PUSH1 0x40 MSTORE DUP1 CALLER PUSH20 0xFFFFFFFFFFFFFFFFFFFFFFFFFFFFFFFFFFFFFFFF AND DUP2 MSTORE PUSH1 0x20 ADD PUSH0 ISZERO ISZERO DUP2 MSTORE PUSH1 0x20 ADD PUSH0 ISZERO ISZERO DUP2 MSTORE PUSH1 0x20 ADD PUSH0 ISZERO ISZERO DUP2 MSTORE POP PUSH1 0x8 PUSH0 DUP3 ADD MLOAD DUP2 PUSH0 ADD PUSH0 PUSH2 0x100 EXP DUP2 SLOAD DUP2 PUSH20 0xFFFFFFFFFFFFFFFFFFFFFFFFFFFFFFFFFFFFFFFF MUL NOT AND SWAP1 DUP4 PUSH20 0xFFFFFFFFFFFFFFFFFFFFFFFFFFFFFFFFFFFFFFFF AND MUL OR SWAP1 SSTORE POP PUSH1 0x20 DUP3 ADD MLOAD DUP2 PUSH0 ADD PUSH1 0x14 PUSH2 0x100 EXP DUP2 SLOAD DUP2 PUSH1 0xFF MUL NOT AND SWAP1 DUP4 ISZERO ISZERO MUL OR SWAP1 SSTORE POP PUSH1 0x40 DUP3 ADD MLOAD DUP2 PUSH0 ADD PUSH1 0x15 PUSH2 0x100 EXP DUP2 SLOAD DUP2 PUSH1 0xFF MUL NOT AND SWAP1 DUP4 ISZERO ISZERO MUL OR SWAP1 SSTORE POP PUSH1 0x60 DUP3 ADD MLOAD DUP2 PUSH0 ADD PUSH1 0x16 PUSH2 0x100 EXP DUP2 SLOAD DUP2 PUSH1 0xFF MUL NOT AND SWAP1 DUP4 ISZERO ISZERO MUL OR SWAP1 SSTORE POP SWAP1 POP POP PUSH2 0x1ABB PUSH2 0x2829 JUMP JUMPDEST JUMPDEST JUMPDEST POP POP POP JUMP JUMPDEST PUSH1 0x60 PUSH1 0x1 DUP1 SLOAD PUSH2 0x1AD1 SWAP1 PUSH2 0x3A76 JUMP JUMPDEST DUP1 PUSH1 0x1F ADD PUSH1 0x20 DUP1 SWAP2 DIV MUL PUSH1 0x20 ADD PUSH1 0x40 MLOAD SWAP1 DUP2 ADD PUSH1 0x40 MSTORE DUP1 SWAP3 SWAP2 SWAP1 DUP2 DUP2 MSTORE PUSH1 0x20 ADD DUP3 DUP1 SLOAD PUSH2 0x1AFD SWAP1 PUSH2 0x3A76 JUMP JUMPDEST DUP1 ISZERO PUSH2 0x1B48 JUMPI DUP1 PUSH1 0x1F LT PUSH2 0x1B1F JUMPI PUSH2 0x100 DUP1 DUP4 SLOAD DIV MUL DUP4 MSTORE SWAP2 PUSH1 0x20 ADD SWAP2 PUSH2 0x1B48 JUMP JUMPDEST DUP3 ADD SWAP2 SWAP1 PUSH0 MSTORE PUSH1 0x20 PUSH0 KECCAK256 SWAP1 JUMPDEST DUP2 SLOAD DUP2 MSTORE SWAP1 PUSH1 0x1 ADD SWAP1 PUSH1 0x20 ADD DUP1 DUP4 GT PUSH2 0x1B2B JUMPI DUP3 SWAP1 SUB PUSH1 0x1F AND DUP3 ADD SWAP2 JUMPDEST POP POP POP POP POP SWAP1 POP SWAP1 JUMP JUMPDEST PUSH2 0x1B5B CALLER PUSH2 0x25EC JUMP JUMPDEST PUSH1 0x20 ADD MLOAD PUSH2 0x1B9E JUMPI PUSH1 0x40 MLOAD PUSH32 0x8C379A000000000000000000000000000000000000000000000000000000000 DUP2 MSTORE PUSH1 0x4 ADD PUSH2 0x1B95 SWAP1 PUSH2 0x41CA JUMP JUMPDEST PUSH1 0x40 MLOAD DUP1 SWAP2 SUB SWAP1 REVERT JUMPDEST PUSH0 PUSH2 0x1BA8 CALLER PUSH2 0x25EC JUMP JUMPDEST SWAP1 POP PUSH0 PUSH2 0x1BB4 CALLER PUSH2 0x277B JUMP JUMPDEST SWAP1 POP PUSH1 0xB DUP1 SLOAD SWAP1 POP DUP2 LT ISZERO PUSH2 0x1CA2 JUMPI PUSH1 0x40 MLOAD DUP1 PUSH1 0x60 ADD PUSH1 0x40 MSTORE DUP1 DUP4 PUSH0 ADD MLOAD PUSH20 0xFFFFFFFFFFFFFFFFFFFFFFFFFFFFFFFFFFFFFFFF AND DUP2 MSTORE PUSH1 0x20 ADD DUP4 PUSH1 0x20 ADD MLOAD ISZERO ISZERO DUP2 MSTORE PUSH1 0x20 ADD PUSH1 0x1 ISZERO ISZERO DUP2 MSTORE POP PUSH1 0xB DUP3 DUP2 SLOAD DUP2 LT PUSH2 0x1C14 JUMPI PUSH2 0x1C13 PUSH2 0x3C5F JUMP JUMPDEST JUMPDEST SWAP1 PUSH0 MSTORE PUSH1 0x20 PUSH0 KECCAK256 ADD PUSH0 DUP3 ADD MLOAD DUP2 PUSH0 ADD PUSH0 PUSH2 0x100 EXP DUP2 SLOAD DUP2 PUSH20 0xFFFFFFFFFFFFFFFFFFFFFFFFFFFFFFFFFFFFFFFF MUL NOT AND SWAP1 DUP4 PUSH20 0xFFFFFFFFFFFFFFFFFFFFFFFFFFFFFFFFFFFFFFFF AND MUL OR SWAP1 SSTORE POP PUSH1 0x20 DUP3 ADD MLOAD DUP2 PUSH0 ADD PUSH1 0x14 PUSH2 0x100 EXP DUP2 SLOAD DUP2 PUSH1 0xFF MUL NOT AND SWAP1 DUP4 ISZERO ISZERO MUL OR SWAP1 SSTORE POP PUSH1 0x40 DUP3 ADD MLOAD DUP2 PUSH0 ADD PUSH1 0x15 PUSH2 0x100 EXP DUP2 SLOAD DUP2 PUSH1 0xFF MUL NOT AND SWAP1 DUP4 ISZERO ISZERO MUL OR SWAP1 SSTORE POP SWAP1 POP POP JUMPDEST POP POP JUMP JUMPDEST PUSH2 0x1CB8 PUSH2 0x1CB1 PUSH2 0x23C8 JUMP JUMPDEST DUP4 DUP4 PUSH2 0x2895 JUMP JUMPDEST POP POP JUMP JUMPDEST PUSH1 0x7 PUSH0 ADD PUSH0 SWAP1 SLOAD SWAP1 PUSH2 0x100 EXP SWAP1 DIV PUSH20 0xFFFFFFFFFFFFFFFFFFFFFFFFFFFFFFFFFFFFFFFF AND PUSH20 0xFFFFFFFFFFFFFFFFFFFFFFFFFFFFFFFFFFFFFFFF AND CALLER PUSH20 0xFFFFFFFFFFFFFFFFFFFFFFFFFFFFFFFFFFFFFFFF AND EQ DUP1 PUSH2 0x1D67 JUMPI POP PUSH1 0x8 PUSH0 ADD PUSH0 SWAP1 SLOAD SWAP1 PUSH2 0x100 EXP SWAP1 DIV PUSH20 0xFFFFFFFFFFFFFFFFFFFFFFFFFFFFFFFFFFFFFFFF AND PUSH20 0xFFFFFFFFFFFFFFFFFFFFFFFFFFFFFFFFFFFFFFFF AND CALLER PUSH20 0xFFFFFFFFFFFFFFFFFFFFFFFFFFFFFFFFFFFFFFFF AND EQ JUMPDEST PUSH2 0x1DA6 JUMPI PUSH1 0x40 MLOAD PUSH32 0x8C379A000000000000000000000000000000000000000000000000000000000 DUP2 MSTORE PUSH1 0x4 ADD PUSH2 0x1D9D SWAP1 PUSH2 0x3B25 JUMP JUMPDEST PUSH1 0x40 MLOAD DUP1 SWAP2 SUB SWAP1 REVERT JUMPDEST PUSH1 0x7 PUSH0 ADD PUSH1 0x15 SWAP1 SLOAD SWAP1 PUSH2 0x100 EXP SWAP1 DIV PUSH1 0xFF AND ISZERO DUP1 ISZERO PUSH2 0x1E13 JUMPI POP PUSH1 0x7 PUSH0 ADD PUSH0 SWAP1 SLOAD SWAP1 PUSH2 0x100 EXP SWAP1 DIV PUSH20 0xFFFFFFFFFFFFFFFFFFFFFFFFFFFFFFFFFFFFFFFF AND PUSH20 0xFFFFFFFFFFFFFFFFFFFFFFFFFFFFFFFFFFFFFFFF AND CALLER PUSH20 0xFFFFFFFFFFFFFFFFFFFFFFFFFFFFFFFFFFFFFFFF AND EQ JUMPDEST ISZERO PUSH2 0x1F46 JUMPI PUSH1 0x40 MLOAD DUP1 PUSH1 0x80 ADD PUSH1 0x40 MSTORE DUP1 PUSH1 0x7 PUSH0 ADD PUSH0 SWAP1 SLOAD SWAP1 PUSH2 0x100 EXP SWAP1 DIV PUSH20 0xFFFFFFFFFFFFFFFFFFFFFFFFFFFFFFFFFFFFFFFF AND PUSH20 0xFFFFFFFFFFFFFFFFFFFFFFFFFFFFFFFFFFFFFFFF AND DUP2 MSTORE PUSH1 0x20 ADD PUSH1 0x7 PUSH0 ADD PUSH1 0x14 SWAP1 SLOAD SWAP1 PUSH2 0x100 EXP SWAP1 DIV PUSH1 0xFF AND ISZERO ISZERO DUP2 MSTORE PUSH1 0x20 ADD PUSH1 0x1 ISZERO ISZERO DUP2 MSTORE PUSH1 0x20 ADD PUSH1 0x7 PUSH0 ADD PUSH1 0x16 SWAP1 SLOAD SWAP1 PUSH2 0x100 EXP SWAP1 DIV PUSH1 0xFF AND ISZERO ISZERO DUP2 MSTORE POP PUSH1 0x7 PUSH0 DUP3 ADD MLOAD DUP2 PUSH0 ADD PUSH0 PUSH2 0x100 EXP DUP2 SLOAD DUP2 PUSH20 0xFFFFFFFFFFFFFFFFFFFFFFFFFFFFFFFFFFFFFFFF MUL NOT AND SWAP1 DUP4 PUSH20 0xFFFFFFFFFFFFFFFFFFFFFFFFFFFFFFFFFFFFFFFF AND MUL OR SWAP1 SSTORE POP PUSH1 0x20 DUP3 ADD MLOAD DUP2 PUSH0 ADD PUSH1 0x14 PUSH2 0x100 EXP DUP2 SLOAD DUP2 PUSH1 0xFF MUL NOT AND SWAP1 DUP4 ISZERO ISZERO MUL OR SWAP1 SSTORE POP PUSH1 0x40 DUP3 ADD MLOAD DUP2 PUSH0 ADD PUSH1 0x15 PUSH2 0x100 EXP DUP2 SLOAD DUP2 PUSH1 0xFF MUL NOT AND SWAP1 DUP4 ISZERO ISZERO MUL OR SWAP1 SSTORE POP PUSH1 0x60 DUP3 ADD MLOAD DUP2 PUSH0 ADD PUSH1 0x16 PUSH2 0x100 EXP DUP2 SLOAD DUP2 PUSH1 0xFF MUL NOT AND SWAP1 DUP4 ISZERO ISZERO MUL OR SWAP1 SSTORE POP SWAP1 POP POP PUSH2 0x2070 JUMP JUMPDEST PUSH1 0x40 MLOAD DUP1 PUSH1 0x80 ADD PUSH1 0x40 MSTORE DUP1 PUSH1 0x8 PUSH0 ADD PUSH0 SWAP1 SLOAD SWAP1 PUSH2 0x100 EXP SWAP1 DIV PUSH20 0xFFFFFFFFFFFFFFFFFFFFFFFFFFFFFFFFFFFFFFFF AND PUSH20 0xFFFFFFFFFFFFFFFFFFFFFFFFFFFFFFFFFFFFFFFF AND DUP2 MSTORE PUSH1 0x20 ADD PUSH1 0x8 PUSH0 ADD PUSH1 0x14 SWAP1 SLOAD SWAP1 PUSH2 0x100 EXP SWAP1 DIV PUSH1 0xFF AND ISZERO ISZERO DUP2 MSTORE PUSH1 0x20 ADD PUSH1 0x1 ISZERO ISZERO DUP2 MSTORE PUSH1 0x20 ADD PUSH1 0x8 PUSH0 ADD PUSH1 0x16 SWAP1 SLOAD SWAP1 PUSH2 0x100 EXP SWAP1 DIV PUSH1 0xFF AND ISZERO ISZERO DUP2 MSTORE POP PUSH1 0x8 PUSH0 DUP3 ADD MLOAD DUP2 PUSH0 ADD PUSH0 PUSH2 0x100 EXP DUP2 SLOAD DUP2 PUSH20 0xFFFFFFFFFFFFFFFFFFFFFFFFFFFFFFFFFFFFFFFF MUL NOT AND SWAP1 DUP4 PUSH20 0xFFFFFFFFFFFFFFFFFFFFFFFFFFFFFFFFFFFFFFFF AND MUL OR SWAP1 SSTORE POP PUSH1 0x20 DUP3 ADD MLOAD DUP2 PUSH0 ADD PUSH1 0x14 PUSH2 0x100 EXP DUP2 SLOAD DUP2 PUSH1 0xFF MUL NOT AND SWAP1 DUP4 ISZERO ISZERO MUL OR SWAP1 SSTORE POP PUSH1 0x40 DUP3 ADD MLOAD DUP2 PUSH0 ADD PUSH1 0x15 PUSH2 0x100 EXP DUP2 SLOAD DUP2 PUSH1 0xFF MUL NOT AND SWAP1 DUP4 ISZERO ISZERO MUL OR SWAP1 SSTORE POP PUSH1 0x60 DUP3 ADD MLOAD DUP2 PUSH0 ADD PUSH1 0x16 PUSH2 0x100 EXP DUP2 SLOAD DUP2 PUSH1 0xFF MUL NOT AND SWAP1 DUP4 ISZERO ISZERO MUL OR SWAP1 SSTORE POP SWAP1 POP POP JUMPDEST JUMP JUMPDEST PUSH2 0x207D DUP5 DUP5 DUP5 PUSH2 0x4A0 JUMP JUMPDEST PUSH2 0x2089 DUP5 DUP5 DUP5 DUP5 PUSH2 0x29FE JUMP JUMPDEST POP POP POP POP JUMP JUMPDEST PUSH1 0x60 PUSH2 0x209A DUP3 PUSH2 0x2309 JUMP JUMPDEST POP PUSH0 PUSH1 0x6 PUSH0 DUP5 DUP2 MSTORE PUSH1 0x20 ADD SWAP1 DUP2 MSTORE PUSH1 0x20 ADD PUSH0 KECCAK256 DUP1 SLOAD PUSH2 0x20B8 SWAP1 PUSH2 0x3A76 JUMP JUMPDEST DUP1 PUSH1 0x1F ADD PUSH1 0x20 DUP1 SWAP2 DIV MUL PUSH1 0x20 ADD PUSH1 0x40 MLOAD SWAP1 DUP2 ADD PUSH1 0x40 MSTORE DUP1 SWAP3 SWAP2 SWAP1 DUP2 DUP2 MSTORE PUSH1 0x20 ADD DUP3 DUP1 SLOAD PUSH2 0x20E4 SWAP1 PUSH2 0x3A76 JUMP JUMPDEST DUP1 ISZERO PUSH2 0x212F JUMPI DUP1 PUSH1 0x1F LT PUSH2 0x2106 JUMPI PUSH2 0x100 DUP1 DUP4 SLOAD DIV MUL DUP4 MSTORE SWAP2 PUSH1 0x20 ADD SWAP2 PUSH2 0x212F JUMP JUMPDEST DUP3 ADD SWAP2 SWAP1 PUSH0 MSTORE PUSH1 0x20 PUSH0 KECCAK256 SWAP1 JUMPDEST DUP2 SLOAD DUP2 MSTORE SWAP1 PUSH1 0x1 ADD SWAP1 PUSH1 0x20 ADD DUP1 DUP4 GT PUSH2 0x2112 JUMPI DUP3 SWAP1 SUB PUSH1 0x1F AND DUP3 ADD SWAP2 JUMPDEST POP POP POP POP POP SWAP1 POP PUSH0 PUSH2 0x213F PUSH2 0x2BB0 JUMP JUMPDEST SWAP1 POP PUSH0 DUP2 MLOAD SUB PUSH2 0x2153 JUMPI DUP2 SWAP3 POP POP POP PUSH2 0x2195 JUMP JUMPDEST PUSH0 DUP3 MLOAD GT ISZERO PUSH2 0x2187 JUMPI DUP1 DUP3 PUSH1 0x40 MLOAD PUSH1 0x20 ADD PUSH2 0x216F SWAP3 SWAP2 SWAP1 PUSH2 0x4222 JUMP JUMPDEST PUSH1 0x40 MLOAD PUSH1 0x20 DUP2 DUP4 SUB SUB DUP2 MSTORE SWAP1 PUSH1 0x40 MSTORE SWAP3 POP POP POP PUSH2 0x2195 JUMP JUMPDEST PUSH2 0x2190 DUP5 PUSH2 0x2BC6 JUMP JUMPDEST SWAP3 POP POP POP JUMPDEST SWAP2 SWAP1 POP JUMP JUMPDEST PUSH0 PUSH1 0x5 PUSH0 DUP5 PUSH20 0xFFFFFFFFFFFFFFFFFFFFFFFFFFFFFFFFFFFFFFFF AND PUSH20 0xFFFFFFFFFFFFFFFFFFFFFFFFFFFFFFFFFFFFFFFF AND DUP2 MSTORE PUSH1 0x20 ADD SWAP1 DUP2 MSTORE PUSH1 0x20 ADD PUSH0 KECCAK256 PUSH0 DUP4 PUSH20 0xFFFFFFFFFFFFFFFFFFFFFFFFFFFFFFFFFFFFFFFF AND PUSH20 0xFFFFFFFFFFFFFFFFFFFFFFFFFFFFFFFFFFFFFFFF AND DUP2 MSTORE PUSH1 0x20 ADD SWAP1 DUP2 MSTORE PUSH1 0x20 ADD PUSH0 KECCAK256 PUSH0 SWAP1 SLOAD SWAP1 PUSH2 0x100 EXP SWAP1 DIV PUSH1 0xFF AND SWAP1 POP SWAP3 SWAP2 POP POP JUMP JUMPDEST PUSH0 PUSH32 0x80AC58CD00000000000000000000000000000000000000000000000000000000 PUSH28 0xFFFFFFFFFFFFFFFFFFFFFFFFFFFFFFFFFFFFFFFFFFFFFFFFFFFFFFFF NOT AND DUP3 PUSH28 0xFFFFFFFFFFFFFFFFFFFFFFFFFFFFFFFFFFFFFFFFFFFFFFFFFFFFFFFF NOT AND EQ DUP1 PUSH2 0x22F2 JUMPI POP PUSH32 0x5B5E139F00000000000000000000000000000000000000000000000000000000 PUSH28 0xFFFFFFFFFFFFFFFFFFFFFFFFFFFFFFFFFFFFFFFFFFFFFFFFFFFFFFFF NOT AND DUP3 PUSH28 0xFFFFFFFFFFFFFFFFFFFFFFFFFFFFFFFFFFFFFFFFFFFFFFFFFFFFFFFF NOT AND EQ JUMPDEST DUP1 PUSH2 0x2302 JUMPI POP PUSH2 0x2301 DUP3 PUSH2 0x2C2C JUMP JUMPDEST JUMPDEST SWAP1 POP SWAP2 SWAP1 POP JUMP JUMPDEST PUSH0 DUP1 PUSH2 0x2314 DUP4 PUSH2 0x2C95 JUMP JUMPDEST SWAP1 POP PUSH0 PUSH20 0xFFFFFFFFFFFFFFFFFFFFFFFFFFFFFFFFFFFFFFFF AND DUP2 PUSH20 0xFFFFFFFFFFFFFFFFFFFFFFFFFFFFFFFFFFFFFFFF AND SUB PUSH2 0x2386 JUMPI DUP3 PUSH1 0x40 MLOAD PUSH32 0x7E27328900000000000000000000000000000000000000000000000000000000 DUP2 MSTORE PUSH1 0x4 ADD PUSH2 0x237D SWAP2 SWAP1 PUSH2 0x36E6 JUMP JUMPDEST PUSH1 0x40 MLOAD DUP1 SWAP2 SUB SWAP1 REVERT JUMPDEST DUP1 SWAP2 POP POP SWAP2 SWAP1 POP JUMP JUMPDEST PUSH0 PUSH1 0x4 PUSH0 DUP4 DUP2 MSTORE PUSH1 0x20 ADD SWAP1 DUP2 MSTORE PUSH1 0x20 ADD PUSH0 KECCAK256 PUSH0 SWAP1 SLOAD SWAP1 PUSH2 0x100 EXP SWAP1 DIV PUSH20 0xFFFFFFFFFFFFFFFFFFFFFFFFFFFFFFFFFFFFFFFF AND SWAP1 POP SWAP2 SWAP1 POP JUMP JUMPDEST PUSH0 CALLER SWAP1 POP SWAP1 JUMP JUMPDEST PUSH2 0x23DC DUP4 DUP4 DUP4 PUSH1 0x1 PUSH2 0x2CCE JUMP JUMPDEST POP POP POP JUMP JUMPDEST PUSH0 DUP1 PUSH2 0x23EC DUP5 PUSH2 0x2C95 JUMP JUMPDEST SWAP1 POP PUSH0 PUSH20 0xFFFFFFFFFFFFFFFFFFFFFFFFFFFFFFFFFFFFFFFF AND DUP4 PUSH20 0xFFFFFFFFFFFFFFFFFFFFFFFFFFFFFFFFFFFFFFFF AND EQ PUSH2 0x242D JUMPI PUSH2 0x242C DUP2 DUP5 DUP7 PUSH2 0x2E8D JUMP JUMPDEST JUMPDEST PUSH0 PUSH20 0xFFFFFFFFFFFFFFFFFFFFFFFFFFFFFFFFFFFFFFFF AND DUP2 PUSH20 0xFFFFFFFFFFFFFFFFFFFFFFFFFFFFFFFFFFFFFFFF AND EQ PUSH2 0x24B8 JUMPI PUSH2 0x246C PUSH0 DUP6 PUSH0 DUP1 PUSH2 0x2CCE JUMP JUMPDEST PUSH1 0x1 PUSH1 0x3 PUSH0 DUP4 PUSH20 0xFFFFFFFFFFFFFFFFFFFFFFFFFFFFFFFFFFFFFFFF AND PUSH20 0xFFFFFFFFFFFFFFFFFFFFFFFFFFFFFFFFFFFFFFFF AND DUP2 MSTORE PUSH1 0x20 ADD SWAP1 DUP2 MSTORE PUSH1 0x20 ADD PUSH0 KECCAK256 PUSH0 DUP3 DUP3 SLOAD SUB SWAP3 POP POP DUP2 SWAP1 SSTORE POP JUMPDEST PUSH0 PUSH20 0xFFFFFFFFFFFFFFFFFFFFFFFFFFFFFFFFFFFFFFFF AND DUP6 PUSH20 0xFFFFFFFFFFFFFFFFFFFFFFFFFFFFFFFFFFFFFFFF AND EQ PUSH2 0x2537 JUMPI PUSH1 0x1 PUSH1 0x3 PUSH0 DUP8 PUSH20 0xFFFFFFFFFFFFFFFFFFFFFFFFFFFFFFFFFFFFFFFF AND PUSH20 0xFFFFFFFFFFFFFFFFFFFFFFFFFFFFFFFFFFFFFFFF AND DUP2 MSTORE PUSH1 0x20 ADD SWAP1 DUP2 MSTORE PUSH1 0x20 ADD PUSH0 KECCAK256 PUSH0 DUP3 DUP3 SLOAD ADD SWAP3 POP POP DUP2 SWAP1 SSTORE POP JUMPDEST DUP5 PUSH1 0x2 PUSH0 DUP7 DUP2 MSTORE PUSH1 0x20 ADD SWAP1 DUP2 MSTORE PUSH1 0x20 ADD PUSH0 KECCAK256 PUSH0 PUSH2 0x100 EXP DUP2 SLOAD DUP2 PUSH20 0xFFFFFFFFFFFFFFFFFFFFFFFFFFFFFFFFFFFFFFFF MUL NOT AND SWAP1 DUP4 PUSH20 0xFFFFFFFFFFFFFFFFFFFFFFFFFFFFFFFFFFFFFFFF AND MUL OR SWAP1 SSTORE POP DUP4 DUP6 PUSH20 0xFFFFFFFFFFFFFFFFFFFFFFFFFFFFFFFFFFFFFFFF AND DUP3 PUSH20 0xFFFFFFFFFFFFFFFFFFFFFFFFFFFFFFFFFFFFFFFF AND PUSH32 0xDDF252AD1BE2C89B69C2B068FC378DAA952BA7F163C4A11628F55A4DF523B3EF PUSH1 0x40 MLOAD PUSH1 0x40 MLOAD DUP1 SWAP2 SUB SWAP1 LOG4 DUP1 SWAP2 POP POP SWAP4 SWAP3 POP POP POP JUMP JUMPDEST PUSH2 0x25F4 PUSH2 0x3398 JUMP JUMPDEST PUSH0 JUMPDEST PUSH1 0xB DUP1 SLOAD SWAP1 POP DUP2 LT ISZERO PUSH2 0x273D JUMPI DUP3 PUSH20 0xFFFFFFFFFFFFFFFFFFFFFFFFFFFFFFFFFFFFFFFF AND PUSH1 0xB DUP3 DUP2 SLOAD DUP2 LT PUSH2 0x262E JUMPI PUSH2 0x262D PUSH2 0x3C5F JUMP JUMPDEST JUMPDEST SWAP1 PUSH0 MSTORE PUSH1 0x20 PUSH0 KECCAK256 ADD PUSH0 ADD PUSH0 SWAP1 SLOAD SWAP1 PUSH2 0x100 EXP SWAP1 DIV PUSH20 0xFFFFFFFFFFFFFFFFFFFFFFFFFFFFFFFFFFFFFFFF AND PUSH20 0xFFFFFFFFFFFFFFFFFFFFFFFFFFFFFFFFFFFFFFFF AND SUB PUSH2 0x272A JUMPI PUSH1 0xB DUP2 DUP2 SLOAD DUP2 LT PUSH2 0x2687 JUMPI PUSH2 0x2686 PUSH2 0x3C5F JUMP JUMPDEST JUMPDEST SWAP1 PUSH0 MSTORE PUSH1 0x20 PUSH0 KECCAK256 ADD PUSH1 0x40 MLOAD DUP1 PUSH1 0x60 ADD PUSH1 0x40 MSTORE SWAP1 DUP2 PUSH0 DUP3 ADD PUSH0 SWAP1 SLOAD SWAP1 PUSH2 0x100 EXP SWAP1 DIV PUSH20 0xFFFFFFFFFFFFFFFFFFFFFFFFFFFFFFFFFFFFFFFF AND PUSH20 0xFFFFFFFFFFFFFFFFFFFFFFFFFFFFFFFFFFFFFFFF AND PUSH20 0xFFFFFFFFFFFFFFFFFFFFFFFFFFFFFFFFFFFFFFFF AND DUP2 MSTORE PUSH1 0x20 ADD PUSH0 DUP3 ADD PUSH1 0x14 SWAP1 SLOAD SWAP1 PUSH2 0x100 EXP SWAP1 DIV PUSH1 0xFF AND ISZERO ISZERO ISZERO ISZERO DUP2 MSTORE PUSH1 0x20 ADD PUSH0 DUP3 ADD PUSH1 0x15 SWAP1 SLOAD SWAP1 PUSH2 0x100 EXP SWAP1 DIV PUSH1 0xFF AND ISZERO ISZERO ISZERO ISZERO DUP2 MSTORE POP POP SWAP2 POP POP PUSH2 0x2776 JUMP JUMPDEST DUP1 DUP1 PUSH2 0x2735 SWAP1 PUSH2 0x3CB9 JUMP JUMPDEST SWAP2 POP POP PUSH2 0x25F6 JUMP JUMPDEST POP PUSH1 0x40 MLOAD DUP1 PUSH1 0x60 ADD PUSH1 0x40 MSTORE DUP1 PUSH0 PUSH20 0xFFFFFFFFFFFFFFFFFFFFFFFFFFFFFFFFFFFFFFFF AND DUP2 MSTORE PUSH1 0x20 ADD PUSH0 ISZERO ISZERO DUP2 MSTORE PUSH1 0x20 ADD PUSH0 ISZERO ISZERO DUP2 MSTORE POP SWAP1 POP JUMPDEST SWAP2 SWAP1 POP JUMP JUMPDEST PUSH0 DUP1 PUSH0 SWAP1 POP JUMPDEST PUSH1 0xB DUP1 SLOAD SWAP1 POP DUP2 LT ISZERO PUSH2 0x281A JUMPI DUP3 PUSH20 0xFFFFFFFFFFFFFFFFFFFFFFFFFFFFFFFFFFFFFFFF AND PUSH1 0xB DUP3 DUP2 SLOAD DUP2 LT PUSH2 0x27B9 JUMPI PUSH2 0x27B8 PUSH2 0x3C5F JUMP JUMPDEST JUMPDEST SWAP1 PUSH0 MSTORE PUSH1 0x20 PUSH0 KECCAK256 ADD PUSH0 ADD PUSH0 SWAP1 SLOAD SWAP1 PUSH2 0x100 EXP SWAP1 DIV PUSH20 0xFFFFFFFFFFFFFFFFFFFFFFFFFFFFFFFFFFFFFFFF AND PUSH20 0xFFFFFFFFFFFFFFFFFFFFFFFFFFFFFFFFFFFFFFFF AND SUB PUSH2 0x2807 JUMPI DUP1 SWAP2 POP POP PUSH2 0x2824 JUMP JUMPDEST DUP1 DUP1 PUSH2 0x2812 SWAP1 PUSH2 0x3CB9 JUMP JUMPDEST SWAP2 POP POP PUSH2 0x2781 JUMP JUMPDEST POP PUSH1 0xB DUP1 SLOAD SWAP1 POP SWAP1 POP JUMPDEST SWAP2 SWAP1 POP JUMP JUMPDEST PUSH2 0x2833 PUSH1 0xC PUSH2 0x2F50 JUMP JUMPDEST PUSH0 PUSH2 0x283E PUSH1 0xC PUSH2 0x2F64 JUMP JUMPDEST SWAP1 POP PUSH2 0x286D PUSH1 0x7 PUSH0 ADD PUSH0 SWAP1 SLOAD SWAP1 PUSH2 0x100 EXP SWAP1 DIV PUSH20 0xFFFFFFFFFFFFFFFFFFFFFFFFFFFFFFFFFFFFFFFF AND DUP3 PUSH2 0x2F70 JUMP JUMPDEST PUSH2 0x2892 DUP2 PUSH1 0x40 MLOAD DUP1 PUSH2 0x1540 ADD PUSH1 0x40 MSTORE DUP1 PUSH2 0x1513 DUP2 MSTORE PUSH1 0x20 ADD PUSH2 0x4375 PUSH2 0x1513 SWAP2 CODECOPY PUSH2 0x3063 JUMP JUMPDEST POP JUMP JUMPDEST PUSH0 PUSH20 0xFFFFFFFFFFFFFFFFFFFFFFFFFFFFFFFFFFFFFFFF AND DUP3 PUSH20 0xFFFFFFFFFFFFFFFFFFFFFFFFFFFFFFFFFFFFFFFF AND SUB PUSH2 0x2905 JUMPI DUP2 PUSH1 0x40 MLOAD PUSH32 0x5B08BA1800000000000000000000000000000000000000000000000000000000 DUP2 MSTORE PUSH1 0x4 ADD PUSH2 0x28FC SWAP2 SWAP1 PUSH2 0x35DB JUMP JUMPDEST PUSH1 0x40 MLOAD DUP1 SWAP2 SUB SWAP1 REVERT JUMPDEST DUP1 PUSH1 0x5 PUSH0 DUP6 PUSH20 0xFFFFFFFFFFFFFFFFFFFFFFFFFFFFFFFFFFFFFFFF AND PUSH20 0xFFFFFFFFFFFFFFFFFFFFFFFFFFFFFFFFFFFFFFFF AND DUP2 MSTORE PUSH1 0x20 ADD SWAP1 DUP2 MSTORE PUSH1 0x20 ADD PUSH0 KECCAK256 PUSH0 DUP5 PUSH20 0xFFFFFFFFFFFFFFFFFFFFFFFFFFFFFFFFFFFFFFFF AND PUSH20 0xFFFFFFFFFFFFFFFFFFFFFFFFFFFFFFFFFFFFFFFF AND DUP2 MSTORE PUSH1 0x20 ADD SWAP1 DUP2 MSTORE PUSH1 0x20 ADD PUSH0 KECCAK256 PUSH0 PUSH2 0x100 EXP DUP2 SLOAD DUP2 PUSH1 0xFF MUL NOT AND SWAP1 DUP4 ISZERO ISZERO MUL OR SWAP1 SSTORE POP DUP2 PUSH20 0xFFFFFFFFFFFFFFFFFFFFFFFFFFFFFFFFFFFFFFFF AND DUP4 PUSH20 0xFFFFFFFFFFFFFFFFFFFFFFFFFFFFFFFFFFFFFFFF AND PUSH32 0x17307EAB39AB6107E8899845AD3D59BD9653F200F220920489CA2B5937696C31 DUP4 PUSH1 0x40 MLOAD PUSH2 0x29F1 SWAP2 SWAP1 PUSH2 0x347B JUMP JUMPDEST PUSH1 0x40 MLOAD DUP1 SWAP2 SUB SWAP1 LOG3 POP POP POP JUMP JUMPDEST PUSH0 DUP4 PUSH20 0xFFFFFFFFFFFFFFFFFFFFFFFFFFFFFFFFFFFFFFFF AND EXTCODESIZE GT ISZERO PUSH2 0x2BAA JUMPI DUP3 PUSH20 0xFFFFFFFFFFFFFFFFFFFFFFFFFFFFFFFFFFFFFFFF AND PUSH4 0x150B7A02 PUSH2 0x2A41 PUSH2 0x23C8 JUMP JUMPDEST DUP7 DUP6 DUP6 PUSH1 0x40 MLOAD DUP6 PUSH4 0xFFFFFFFF AND PUSH1 0xE0 SHL DUP2 MSTORE PUSH1 0x4 ADD PUSH2 0x2A63 SWAP5 SWAP4 SWAP3 SWAP2 SWAP1 PUSH2 0x4297 JUMP JUMPDEST PUSH1 0x20 PUSH1 0x40 MLOAD DUP1 DUP4 SUB DUP2 PUSH0 DUP8 GAS CALL SWAP3 POP POP POP DUP1 ISZERO PUSH2 0x2A9E JUMPI POP PUSH1 0x40 MLOAD RETURNDATASIZE PUSH1 0x1F NOT PUSH1 0x1F DUP3 ADD AND DUP3 ADD DUP1 PUSH1 0x40 MSTORE POP DUP2 ADD SWAP1 PUSH2 0x2A9B SWAP2 SWAP1 PUSH2 0x42F5 JUMP JUMPDEST PUSH1 0x1 JUMPDEST PUSH2 0x2B1F JUMPI RETURNDATASIZE DUP1 PUSH0 DUP2 EQ PUSH2 0x2ACC JUMPI PUSH1 0x40 MLOAD SWAP2 POP PUSH1 0x1F NOT PUSH1 0x3F RETURNDATASIZE ADD AND DUP3 ADD PUSH1 0x40 MSTORE RETURNDATASIZE DUP3 MSTORE RETURNDATASIZE PUSH0 PUSH1 0x20 DUP5 ADD RETURNDATACOPY PUSH2 0x2AD1 JUMP JUMPDEST PUSH1 0x60 SWAP2 POP JUMPDEST POP PUSH0 DUP2 MLOAD SUB PUSH2 0x2B17 JUMPI DUP4 PUSH1 0x40 MLOAD PUSH32 0x64A0AE9200000000000000000000000000000000000000000000000000000000 DUP2 MSTORE PUSH1 0x4 ADD PUSH2 0x2B0E SWAP2 SWAP1 PUSH2 0x35DB JUMP JUMPDEST PUSH1 0x40 MLOAD DUP1 SWAP2 SUB SWAP1 REVERT JUMPDEST DUP1 MLOAD DUP2 PUSH1 0x20 ADD REVERT JUMPDEST PUSH4 0x150B7A02 PUSH1 0xE0 SHL PUSH28 0xFFFFFFFFFFFFFFFFFFFFFFFFFFFFFFFFFFFFFFFFFFFFFFFFFFFFFFFF NOT AND DUP2 PUSH28 0xFFFFFFFFFFFFFFFFFFFFFFFFFFFFFFFFFFFFFFFFFFFFFFFFFFFFFFFF NOT AND EQ PUSH2 0x2BA8 JUMPI DUP4 PUSH1 0x40 MLOAD PUSH32 0x64A0AE9200000000000000000000000000000000000000000000000000000000 DUP2 MSTORE PUSH1 0x4 ADD PUSH2 0x2B9F SWAP2 SWAP1 PUSH2 0x35DB JUMP JUMPDEST PUSH1 0x40 MLOAD DUP1 SWAP2 SUB SWAP1 REVERT JUMPDEST POP JUMPDEST POP POP POP POP JUMP JUMPDEST PUSH1 0x60 PUSH1 0x40 MLOAD DUP1 PUSH1 0x20 ADD PUSH1 0x40 MSTORE DUP1 PUSH0 DUP2 MSTORE POP SWAP1 POP SWAP1 JUMP JUMPDEST PUSH1 0x60 PUSH2 0x2BD1 DUP3 PUSH2 0x2309 JUMP JUMPDEST POP PUSH0 PUSH2 0x2BDB PUSH2 0x2BB0 JUMP JUMPDEST SWAP1 POP PUSH0 DUP2 MLOAD GT PUSH2 0x2BF9 JUMPI PUSH1 0x40 MLOAD DUP1 PUSH1 0x20 ADD PUSH1 0x40 MSTORE DUP1 PUSH0 DUP2 MSTORE POP PUSH2 0x2C24 JUMP JUMPDEST DUP1 PUSH2 0x2C03 DUP5 PUSH2 0x30BD JUMP JUMPDEST PUSH1 0x40 MLOAD PUSH1 0x20 ADD PUSH2 0x2C14 SWAP3 SWAP2 SWAP1 PUSH2 0x4222 JUMP JUMPDEST PUSH1 0x40 MLOAD PUSH1 0x20 DUP2 DUP4 SUB SUB DUP2 MSTORE SWAP1 PUSH1 0x40 MSTORE JUMPDEST SWAP2 POP POP SWAP2 SWAP1 POP JUMP JUMPDEST PUSH0 PUSH32 0x1FFC9A700000000000000000000000000000000000000000000000000000000 PUSH28 0xFFFFFFFFFFFFFFFFFFFFFFFFFFFFFFFFFFFFFFFFFFFFFFFFFFFFFFFF NOT AND DUP3 PUSH28 0xFFFFFFFFFFFFFFFFFFFFFFFFFFFFFFFFFFFFFFFFFFFFFFFFFFFFFFFF NOT AND EQ SWAP1 POP SWAP2 SWAP1 POP JUMP JUMPDEST PUSH0 PUSH1 0x2 PUSH0 DUP4 DUP2 MSTORE PUSH1 0x20 ADD SWAP1 DUP2 MSTORE PUSH1 0x20 ADD PUSH0 KECCAK256 PUSH0 SWAP1 SLOAD SWAP1 PUSH2 0x100 EXP SWAP1 DIV PUSH20 0xFFFFFFFFFFFFFFFFFFFFFFFFFFFFFFFFFFFFFFFF AND SWAP1 POP SWAP2 SWAP1 POP JUMP JUMPDEST DUP1 DUP1 PUSH2 0x2D06 JUMPI POP PUSH0 PUSH20 0xFFFFFFFFFFFFFFFFFFFFFFFFFFFFFFFFFFFFFFFF AND DUP3 PUSH20 0xFFFFFFFFFFFFFFFFFFFFFFFFFFFFFFFFFFFFFFFF AND EQ ISZERO JUMPDEST ISZERO PUSH2 0x2E38 JUMPI PUSH0 PUSH2 0x2D15 DUP5 PUSH2 0x2309 JUMP JUMPDEST SWAP1 POP PUSH0 PUSH20 0xFFFFFFFFFFFFFFFFFFFFFFFFFFFFFFFFFFFFFFFF AND DUP4 PUSH20 0xFFFFFFFFFFFFFFFFFFFFFFFFFFFFFFFFFFFFFFFF AND EQ ISZERO DUP1 ISZERO PUSH2 0x2D7F JUMPI POP DUP3 PUSH20 0xFFFFFFFFFFFFFFFFFFFFFFFFFFFFFFFFFFFFFFFF AND DUP2 PUSH20 0xFFFFFFFFFFFFFFFFFFFFFFFFFFFFFFFFFFFFFFFF AND EQ ISZERO JUMPDEST DUP1 ISZERO PUSH2 0x2D92 JUMPI POP PUSH2 0x2D90 DUP2 DUP5 PUSH2 0x219A JUMP JUMPDEST ISZERO JUMPDEST ISZERO PUSH2 0x2DD4 JUMPI DUP3 PUSH1 0x40 MLOAD PUSH32 0xA9FBF51F00000000000000000000000000000000000000000000000000000000 DUP2 MSTORE PUSH1 0x4 ADD PUSH2 0x2DCB SWAP2 SWAP1 PUSH2 0x35DB JUMP JUMPDEST PUSH1 0x40 MLOAD DUP1 SWAP2 SUB SWAP1 REVERT JUMPDEST DUP2 ISZERO PUSH2 0x2E36 JUMPI DUP4 DUP6 PUSH20 0xFFFFFFFFFFFFFFFFFFFFFFFFFFFFFFFFFFFFFFFF AND DUP3 PUSH20 0xFFFFFFFFFFFFFFFFFFFFFFFFFFFFFFFFFFFFFFFF AND PUSH32 0x8C5BE1E5EBEC7D5BD14F71427D1E84F3DD0314C0F7B2291E5B200AC8C7C3B925 PUSH1 0x40 MLOAD PUSH1 0x40 MLOAD DUP1 SWAP2 SUB SWAP1 LOG4 JUMPDEST POP JUMPDEST DUP4 PUSH1 0x4 PUSH0 DUP6 DUP2 MSTORE PUSH1 0x20 ADD SWAP1 DUP2 MSTORE PUSH1 0x20 ADD PUSH0 KECCAK256 PUSH0 PUSH2 0x100 EXP DUP2 SLOAD DUP2 PUSH20 0xFFFFFFFFFFFFFFFFFFFFFFFFFFFFFFFFFFFFFFFF MUL NOT AND SWAP1 DUP4 PUSH20 0xFFFFFFFFFFFFFFFFFFFFFFFFFFFFFFFFFFFFFFFF AND MUL OR SWAP1 SSTORE POP POP POP POP POP JUMP JUMPDEST PUSH2 0x2E98 DUP4 DUP4 DUP4 PUSH2 0x3187 JUMP JUMPDEST PUSH2 0x2F4B JUMPI PUSH0 PUSH20 0xFFFFFFFFFFFFFFFFFFFFFFFFFFFFFFFFFFFFFFFF AND DUP4 PUSH20 0xFFFFFFFFFFFFFFFFFFFFFFFFFFFFFFFFFFFFFFFF AND SUB PUSH2 0x2F0C JUMPI DUP1 PUSH1 0x40 MLOAD PUSH32 0x7E27328900000000000000000000000000000000000000000000000000000000 DUP2 MSTORE PUSH1 0x4 ADD PUSH2 0x2F03 SWAP2 SWAP1 PUSH2 0x36E6 JUMP JUMPDEST PUSH1 0x40 MLOAD DUP1 SWAP2 SUB SWAP1 REVERT JUMPDEST DUP2 DUP2 PUSH1 0x40 MLOAD PUSH32 0x177E802F00000000000000000000000000000000000000000000000000000000 DUP2 MSTORE PUSH1 0x4 ADD PUSH2 0x2F42 SWAP3 SWAP2 SWAP1 PUSH2 0x4320 JUMP JUMPDEST PUSH1 0x40 MLOAD DUP1 SWAP2 SUB SWAP1 REVERT JUMPDEST POP POP POP JUMP JUMPDEST PUSH1 0x1 DUP2 PUSH0 ADD PUSH0 DUP3 DUP3 SLOAD ADD SWAP3 POP POP DUP2 SWAP1 SSTORE POP POP JUMP JUMPDEST PUSH0 DUP2 PUSH0 ADD SLOAD SWAP1 POP SWAP2 SWAP1 POP JUMP JUMPDEST PUSH0 PUSH20 0xFFFFFFFFFFFFFFFFFFFFFFFFFFFFFFFFFFFFFFFF AND DUP3 PUSH20 0xFFFFFFFFFFFFFFFFFFFFFFFFFFFFFFFFFFFFFFFF AND SUB PUSH2 0x2FE0 JUMPI PUSH0 PUSH1 0x40 MLOAD PUSH32 0x64A0AE9200000000000000000000000000000000000000000000000000000000 DUP2 MSTORE PUSH1 0x4 ADD PUSH2 0x2FD7 SWAP2 SWAP1 PUSH2 0x35DB JUMP JUMPDEST PUSH1 0x40 MLOAD DUP1 SWAP2 SUB SWAP1 REVERT JUMPDEST PUSH0 PUSH2 0x2FEC DUP4 DUP4 PUSH0 PUSH2 0x23E1 JUMP JUMPDEST SWAP1 POP PUSH0 PUSH20 0xFFFFFFFFFFFFFFFFFFFFFFFFFFFFFFFFFFFFFFFF AND DUP2 PUSH20 0xFFFFFFFFFFFFFFFFFFFFFFFFFFFFFFFFFFFFFFFF AND EQ PUSH2 0x305E JUMPI PUSH0 PUSH1 0x40 MLOAD PUSH32 0x73C6AC6E00000000000000000000000000000000000000000000000000000000 DUP2 MSTORE PUSH1 0x4 ADD PUSH2 0x3055 SWAP2 SWAP1 PUSH2 0x35DB JUMP JUMPDEST PUSH1 0x40 MLOAD DUP1 SWAP2 SUB SWAP1 REVERT JUMPDEST POP POP POP JUMP JUMPDEST DUP1 PUSH1 0x6 PUSH0 DUP5 DUP2 MSTORE PUSH1 0x20 ADD SWAP1 DUP2 MSTORE PUSH1 0x20 ADD PUSH0 KECCAK256 SWAP1 DUP2 PUSH2 0x3081 SWAP2 SWAP1 PUSH2 0x40B1 JUMP JUMPDEST POP PUSH32 0xF8E1A15ABA9398E019F0B49DF1A4FDE98EE17AE345CB5F6B5E2C27F5033E8CE7 DUP3 PUSH1 0x40 MLOAD PUSH2 0x30B1 SWAP2 SWAP1 PUSH2 0x36E6 JUMP JUMPDEST PUSH1 0x40 MLOAD DUP1 SWAP2 SUB SWAP1 LOG1 POP POP JUMP JUMPDEST PUSH1 0x60 PUSH0 PUSH1 0x1 PUSH2 0x30CB DUP5 PUSH2 0x3247 JUMP JUMPDEST ADD SWAP1 POP PUSH0 DUP2 PUSH8 0xFFFFFFFFFFFFFFFF DUP2 GT ISZERO PUSH2 0x30E9 JUMPI PUSH2 0x30E8 PUSH2 0x3707 JUMP JUMPDEST JUMPDEST PUSH1 0x40 MLOAD SWAP1 DUP1 DUP3 MSTORE DUP1 PUSH1 0x1F ADD PUSH1 0x1F NOT AND PUSH1 0x20 ADD DUP3 ADD PUSH1 0x40 MSTORE DUP1 ISZERO PUSH2 0x311B JUMPI DUP2 PUSH1 0x20 ADD PUSH1 0x1 DUP3 MUL DUP1 CALLDATASIZE DUP4 CALLDATACOPY DUP1 DUP3 ADD SWAP2 POP POP SWAP1 POP JUMPDEST POP SWAP1 POP PUSH0 DUP3 PUSH1 0x20 ADD DUP3 ADD SWAP1 POP JUMPDEST PUSH1 0x1 ISZERO PUSH2 0x317C JUMPI DUP1 DUP1 PUSH1 0x1 SWAP1 SUB SWAP2 POP POP PUSH32 0x3031323334353637383961626364656600000000000000000000000000000000 PUSH1 0xA DUP7 MOD BYTE DUP2 MSTORE8 PUSH1 0xA DUP6 DUP2 PUSH2 0x3171 JUMPI PUSH2 0x3170 PUSH2 0x4347 JUMP JUMPDEST JUMPDEST DIV SWAP5 POP PUSH0 DUP6 SUB PUSH2 0x3128 JUMPI JUMPDEST DUP2 SWAP4 POP POP POP POP SWAP2 SWAP1 POP JUMP JUMPDEST PUSH0 DUP1 PUSH20 0xFFFFFFFFFFFFFFFFFFFFFFFFFFFFFFFFFFFFFFFF AND DUP4 PUSH20 0xFFFFFFFFFFFFFFFFFFFFFFFFFFFFFFFFFFFFFFFF AND EQ ISZERO DUP1 ISZERO PUSH2 0x323E JUMPI POP DUP3 PUSH20 0xFFFFFFFFFFFFFFFFFFFFFFFFFFFFFFFFFFFFFFFF AND DUP5 PUSH20 0xFFFFFFFFFFFFFFFFFFFFFFFFFFFFFFFFFFFFFFFF AND EQ DUP1 PUSH2 0x31FF JUMPI POP PUSH2 0x31FE DUP5 DUP5 PUSH2 0x219A JUMP JUMPDEST JUMPDEST DUP1 PUSH2 0x323D JUMPI POP DUP3 PUSH20 0xFFFFFFFFFFFFFFFFFFFFFFFFFFFFFFFFFFFFFFFF AND PUSH2 0x3225 DUP4 PUSH2 0x238F JUMP JUMPDEST PUSH20 0xFFFFFFFFFFFFFFFFFFFFFFFFFFFFFFFFFFFFFFFF AND EQ JUMPDEST JUMPDEST SWAP1 POP SWAP4 SWAP3 POP POP POP JUMP JUMPDEST PUSH0 DUP1 PUSH0 SWAP1 POP PUSH27 0x184F03E93FF9F4DAA797ED6E38ED64BF6A1F010000000000000000 DUP4 LT PUSH2 0x32A3 JUMPI PUSH27 0x184F03E93FF9F4DAA797ED6E38ED64BF6A1F010000000000000000 DUP4 DUP2 PUSH2 0x3299 JUMPI PUSH2 0x3298 PUSH2 0x4347 JUMP JUMPDEST JUMPDEST DIV SWAP3 POP PUSH1 0x40 DUP2 ADD SWAP1 POP JUMPDEST PUSH14 0x4EE2D6D415B85ACEF8100000000 DUP4 LT PUSH2 0x32E0 JUMPI PUSH14 0x4EE2D6D415B85ACEF8100000000 DUP4 DUP2 PUSH2 0x32D6 JUMPI PUSH2 0x32D5 PUSH2 0x4347 JUMP JUMPDEST JUMPDEST DIV SWAP3 POP PUSH1 0x20 DUP2 ADD SWAP1 POP JUMPDEST PUSH7 0x2386F26FC10000 DUP4 LT PUSH2 0x330F JUMPI PUSH7 0x2386F26FC10000 DUP4 DUP2 PUSH2 0x3305 JUMPI PUSH2 0x3304 PUSH2 0x4347 JUMP JUMPDEST JUMPDEST DIV SWAP3 POP PUSH1 0x10 DUP2 ADD SWAP1 POP JUMPDEST PUSH4 0x5F5E100 DUP4 LT PUSH2 0x3338 JUMPI PUSH4 0x5F5E100 DUP4 DUP2 PUSH2 0x332E JUMPI PUSH2 0x332D PUSH2 0x4347 JUMP JUMPDEST JUMPDEST DIV SWAP3 POP PUSH1 0x8 DUP2 ADD SWAP1 POP JUMPDEST PUSH2 0x2710 DUP4 LT PUSH2 0x335D JUMPI PUSH2 0x2710 DUP4 DUP2 PUSH2 0x3353 JUMPI PUSH2 0x3352 PUSH2 0x4347 JUMP JUMPDEST JUMPDEST DIV SWAP3 POP PUSH1 0x4 DUP2 ADD SWAP1 POP JUMPDEST PUSH1 0x64 DUP4 LT PUSH2 0x3380 JUMPI PUSH1 0x64 DUP4 DUP2 PUSH2 0x3376 JUMPI PUSH2 0x3375 PUSH2 0x4347 JUMP JUMPDEST JUMPDEST DIV SWAP3 POP PUSH1 0x2 DUP2 ADD SWAP1 POP JUMPDEST PUSH1 0xA DUP4 LT PUSH2 0x338F JUMPI PUSH1 0x1 DUP2 ADD SWAP1 POP JUMPDEST DUP1 SWAP2 POP POP SWAP2 SWAP1 POP JUMP JUMPDEST PUSH1 0x40 MLOAD DUP1 PUSH1 0x60 ADD PUSH1 0x40 MSTORE DUP1 PUSH0 PUSH20 0xFFFFFFFFFFFFFFFFFFFFFFFFFFFFFFFFFFFFFFFF AND DUP2 MSTORE PUSH1 0x20 ADD PUSH0 ISZERO ISZERO DUP2 MSTORE PUSH1 0x20 ADD PUSH0 ISZERO ISZERO DUP2 MSTORE POP SWAP1 JUMP JUMPDEST PUSH0 PUSH1 0x40 MLOAD SWAP1 POP SWAP1 JUMP JUMPDEST PUSH0 DUP1 REVERT JUMPDEST PUSH0 DUP1 REVERT JUMPDEST PUSH0 PUSH32 0xFFFFFFFF00000000000000000000000000000000000000000000000000000000 DUP3 AND SWAP1 POP SWAP2 SWAP1 POP JUMP JUMPDEST PUSH2 0x3415 DUP2 PUSH2 0x33E1 JUMP JUMPDEST DUP2 EQ PUSH2 0x341F JUMPI PUSH0 DUP1 REVERT JUMPDEST POP JUMP JUMPDEST PUSH0 DUP2 CALLDATALOAD SWAP1 POP PUSH2 0x3430 DUP2 PUSH2 0x340C JUMP JUMPDEST SWAP3 SWAP2 POP POP JUMP JUMPDEST PUSH0 PUSH1 0x20 DUP3 DUP5 SUB SLT ISZERO PUSH2 0x344B JUMPI PUSH2 0x344A PUSH2 0x33D9 JUMP JUMPDEST JUMPDEST PUSH0 PUSH2 0x3458 DUP5 DUP3 DUP6 ADD PUSH2 0x3422 JUMP JUMPDEST SWAP2 POP POP SWAP3 SWAP2 POP POP JUMP JUMPDEST PUSH0 DUP2 ISZERO ISZERO SWAP1 POP SWAP2 SWAP1 POP JUMP JUMPDEST PUSH2 0x3475 DUP2 PUSH2 0x3461 JUMP JUMPDEST DUP3 MSTORE POP POP JUMP JUMPDEST PUSH0 PUSH1 0x20 DUP3 ADD SWAP1 POP PUSH2 0x348E PUSH0 DUP4 ADD DUP5 PUSH2 0x346C JUMP JUMPDEST SWAP3 SWAP2 POP POP JUMP JUMPDEST PUSH0 DUP2 MLOAD SWAP1 POP SWAP2 SWAP1 POP JUMP JUMPDEST PUSH0 DUP3 DUP3 MSTORE PUSH1 0x20 DUP3 ADD SWAP1 POP SWAP3 SWAP2 POP POP JUMP JUMPDEST PUSH0 JUMPDEST DUP4 DUP2 LT ISZERO PUSH2 0x34CB JUMPI DUP1 DUP3 ADD MLOAD DUP2 DUP5 ADD MSTORE PUSH1 0x20 DUP2 ADD SWAP1 POP PUSH2 0x34B0 JUMP JUMPDEST PUSH0 DUP5 DUP5 ADD MSTORE POP POP POP POP JUMP JUMPDEST PUSH0 PUSH1 0x1F NOT PUSH1 0x1F DUP4 ADD AND SWAP1 POP SWAP2 SWAP1 POP JUMP JUMPDEST PUSH0 PUSH2 0x34F0 DUP3 PUSH2 0x3494 JUMP JUMPDEST PUSH2 0x34FA DUP2 DUP6 PUSH2 0x349E JUMP JUMPDEST SWAP4 POP PUSH2 0x350A DUP2 DUP6 PUSH1 0x20 DUP7 ADD PUSH2 0x34AE JUMP JUMPDEST PUSH2 0x3513 DUP2 PUSH2 0x34D6 JUMP JUMPDEST DUP5 ADD SWAP2 POP POP SWAP3 SWAP2 POP POP JUMP JUMPDEST PUSH0 PUSH1 0x20 DUP3 ADD SWAP1 POP DUP2 DUP2 SUB PUSH0 DUP4 ADD MSTORE PUSH2 0x3536 DUP2 DUP5 PUSH2 0x34E6 JUMP JUMPDEST SWAP1 POP SWAP3 SWAP2 POP POP JUMP JUMPDEST PUSH0 DUP2 SWAP1 POP SWAP2 SWAP1 POP JUMP JUMPDEST PUSH2 0x3550 DUP2 PUSH2 0x353E JUMP JUMPDEST DUP2 EQ PUSH2 0x355A JUMPI PUSH0 DUP1 REVERT JUMPDEST POP JUMP JUMPDEST PUSH0 DUP2 CALLDATALOAD SWAP1 POP PUSH2 0x356B DUP2 PUSH2 0x3547 JUMP JUMPDEST SWAP3 SWAP2 POP POP JUMP JUMPDEST PUSH0 PUSH1 0x20 DUP3 DUP5 SUB SLT ISZERO PUSH2 0x3586 JUMPI PUSH2 0x3585 PUSH2 0x33D9 JUMP JUMPDEST JUMPDEST PUSH0 PUSH2 0x3593 DUP5 DUP3 DUP6 ADD PUSH2 0x355D JUMP JUMPDEST SWAP2 POP POP SWAP3 SWAP2 POP POP JUMP JUMPDEST PUSH0 PUSH20 0xFFFFFFFFFFFFFFFFFFFFFFFFFFFFFFFFFFFFFFFF DUP3 AND SWAP1 POP SWAP2 SWAP1 POP JUMP JUMPDEST PUSH0 PUSH2 0x35C5 DUP3 PUSH2 0x359C JUMP JUMPDEST SWAP1 POP SWAP2 SWAP1 POP JUMP JUMPDEST PUSH2 0x35D5 DUP2 PUSH2 0x35BB JUMP JUMPDEST DUP3 MSTORE POP POP JUMP JUMPDEST PUSH0 PUSH1 0x20 DUP3 ADD SWAP1 POP PUSH2 0x35EE PUSH0 DUP4 ADD DUP5 PUSH2 0x35CC JUMP JUMPDEST SWAP3 SWAP2 POP POP JUMP JUMPDEST PUSH2 0x35FD DUP2 PUSH2 0x35BB JUMP JUMPDEST DUP2 EQ PUSH2 0x3607 JUMPI PUSH0 DUP1 REVERT JUMPDEST POP JUMP JUMPDEST PUSH0 DUP2 CALLDATALOAD SWAP1 POP PUSH2 0x3618 DUP2 PUSH2 0x35F4 JUMP JUMPDEST SWAP3 SWAP2 POP POP JUMP JUMPDEST PUSH0 DUP1 PUSH1 0x40 DUP4 DUP6 SUB SLT ISZERO PUSH2 0x3634 JUMPI PUSH2 0x3633 PUSH2 0x33D9 JUMP JUMPDEST JUMPDEST PUSH0 PUSH2 0x3641 DUP6 DUP3 DUP7 ADD PUSH2 0x360A JUMP JUMPDEST SWAP3 POP POP PUSH1 0x20 PUSH2 0x3652 DUP6 DUP3 DUP7 ADD PUSH2 0x355D JUMP JUMPDEST SWAP2 POP POP SWAP3 POP SWAP3 SWAP1 POP JUMP JUMPDEST PUSH0 DUP1 PUSH0 PUSH1 0x60 DUP5 DUP7 SUB SLT ISZERO PUSH2 0x3673 JUMPI PUSH2 0x3672 PUSH2 0x33D9 JUMP JUMPDEST JUMPDEST PUSH0 PUSH2 0x3680 DUP7 DUP3 DUP8 ADD PUSH2 0x360A JUMP JUMPDEST SWAP4 POP POP PUSH1 0x20 PUSH2 0x3691 DUP7 DUP3 DUP8 ADD PUSH2 0x360A JUMP JUMPDEST SWAP3 POP POP PUSH1 0x40 PUSH2 0x36A2 DUP7 DUP3 DUP8 ADD PUSH2 0x355D JUMP JUMPDEST SWAP2 POP POP SWAP3 POP SWAP3 POP SWAP3 JUMP JUMPDEST PUSH0 PUSH1 0x20 DUP3 DUP5 SUB SLT ISZERO PUSH2 0x36C1 JUMPI PUSH2 0x36C0 PUSH2 0x33D9 JUMP JUMPDEST JUMPDEST PUSH0 PUSH2 0x36CE DUP5 DUP3 DUP6 ADD PUSH2 0x360A JUMP JUMPDEST SWAP2 POP POP SWAP3 SWAP2 POP POP JUMP JUMPDEST PUSH2 0x36E0 DUP2 PUSH2 0x353E JUMP JUMPDEST DUP3 MSTORE POP POP JUMP JUMPDEST PUSH0 PUSH1 0x20 DUP3 ADD SWAP1 POP PUSH2 0x36F9 PUSH0 DUP4 ADD DUP5 PUSH2 0x36D7 JUMP JUMPDEST SWAP3 SWAP2 POP POP JUMP JUMPDEST PUSH0 DUP1 REVERT JUMPDEST PUSH0 DUP1 REVERT JUMPDEST PUSH32 0x4E487B7100000000000000000000000000000000000000000000000000000000 PUSH0 MSTORE PUSH1 0x41 PUSH1 0x4 MSTORE PUSH1 0x24 PUSH0 REVERT JUMPDEST PUSH2 0x373D DUP3 PUSH2 0x34D6 JUMP JUMPDEST DUP2 ADD DUP2 DUP2 LT PUSH8 0xFFFFFFFFFFFFFFFF DUP3 GT OR ISZERO PUSH2 0x375C JUMPI PUSH2 0x375B PUSH2 0x3707 JUMP JUMPDEST JUMPDEST DUP1 PUSH1 0x40 MSTORE POP POP POP JUMP JUMPDEST PUSH0 PUSH2 0x376E PUSH2 0x33D0 JUMP JUMPDEST SWAP1 POP PUSH2 0x377A DUP3 DUP3 PUSH2 0x3734 JUMP JUMPDEST SWAP2 SWAP1 POP JUMP JUMPDEST PUSH0 PUSH8 0xFFFFFFFFFFFFFFFF DUP3 GT ISZERO PUSH2 0x3799 JUMPI PUSH2 0x3798 PUSH2 0x3707 JUMP JUMPDEST JUMPDEST PUSH2 0x37A2 DUP3 PUSH2 0x34D6 JUMP JUMPDEST SWAP1 POP PUSH1 0x20 DUP2 ADD SWAP1 POP SWAP2 SWAP1 POP JUMP JUMPDEST DUP3 DUP2 DUP4 CALLDATACOPY PUSH0 DUP4 DUP4 ADD MSTORE POP POP POP JUMP JUMPDEST PUSH0 PUSH2 0x37CF PUSH2 0x37CA DUP5 PUSH2 0x377F JUMP JUMPDEST PUSH2 0x3765 JUMP JUMPDEST SWAP1 POP DUP3 DUP2 MSTORE PUSH1 0x20 DUP2 ADD DUP5 DUP5 DUP5 ADD GT ISZERO PUSH2 0x37EB JUMPI PUSH2 0x37EA PUSH2 0x3703 JUMP JUMPDEST JUMPDEST PUSH2 0x37F6 DUP5 DUP3 DUP6 PUSH2 0x37AF JUMP JUMPDEST POP SWAP4 SWAP3 POP POP POP JUMP JUMPDEST PUSH0 DUP3 PUSH1 0x1F DUP4 ADD SLT PUSH2 0x3812 JUMPI PUSH2 0x3811 PUSH2 0x36FF JUMP JUMPDEST JUMPDEST DUP2 CALLDATALOAD PUSH2 0x3822 DUP5 DUP3 PUSH1 0x20 DUP7 ADD PUSH2 0x37BD JUMP JUMPDEST SWAP2 POP POP SWAP3 SWAP2 POP POP JUMP JUMPDEST PUSH0 DUP1 PUSH1 0x40 DUP4 DUP6 SUB SLT ISZERO PUSH2 0x3841 JUMPI PUSH2 0x3840 PUSH2 0x33D9 JUMP JUMPDEST JUMPDEST PUSH0 PUSH2 0x384E DUP6 DUP3 DUP7 ADD PUSH2 0x355D JUMP JUMPDEST SWAP3 POP POP PUSH1 0x20 DUP4 ADD CALLDATALOAD PUSH8 0xFFFFFFFFFFFFFFFF DUP2 GT ISZERO PUSH2 0x386F JUMPI PUSH2 0x386E PUSH2 0x33DD JUMP JUMPDEST JUMPDEST PUSH2 0x387B DUP6 DUP3 DUP7 ADD PUSH2 0x37FE JUMP JUMPDEST SWAP2 POP POP SWAP3 POP SWAP3 SWAP1 POP JUMP JUMPDEST PUSH2 0x388E DUP2 PUSH2 0x3461 JUMP JUMPDEST DUP2 EQ PUSH2 0x3898 JUMPI PUSH0 DUP1 REVERT JUMPDEST POP JUMP JUMPDEST PUSH0 DUP2 CALLDATALOAD SWAP1 POP PUSH2 0x38A9 DUP2 PUSH2 0x3885 JUMP JUMPDEST SWAP3 SWAP2 POP POP JUMP JUMPDEST PUSH0 DUP1 PUSH1 0x40 DUP4 DUP6 SUB SLT ISZERO PUSH2 0x38C5 JUMPI PUSH2 0x38C4 PUSH2 0x33D9 JUMP JUMPDEST JUMPDEST PUSH0 PUSH2 0x38D2 DUP6 DUP3 DUP7 ADD PUSH2 0x360A JUMP JUMPDEST SWAP3 POP POP PUSH1 0x20 PUSH2 0x38E3 DUP6 DUP3 DUP7 ADD PUSH2 0x389B JUMP JUMPDEST SWAP2 POP POP SWAP3 POP SWAP3 SWAP1 POP JUMP JUMPDEST PUSH0 PUSH8 0xFFFFFFFFFFFFFFFF DUP3 GT ISZERO PUSH2 0x3907 JUMPI PUSH2 0x3906 PUSH2 0x3707 JUMP JUMPDEST JUMPDEST PUSH2 0x3910 DUP3 PUSH2 0x34D6 JUMP JUMPDEST SWAP1 POP PUSH1 0x20 DUP2 ADD SWAP1 POP SWAP2 SWAP1 POP JUMP JUMPDEST PUSH0 PUSH2 0x392F PUSH2 0x392A DUP5 PUSH2 0x38ED JUMP JUMPDEST PUSH2 0x3765 JUMP JUMPDEST SWAP1 POP DUP3 DUP2 MSTORE PUSH1 0x20 DUP2 ADD DUP5 DUP5 DUP5 ADD GT ISZERO PUSH2 0x394B JUMPI PUSH2 0x394A PUSH2 0x3703 JUMP JUMPDEST JUMPDEST PUSH2 0x3956 DUP5 DUP3 DUP6 PUSH2 0x37AF JUMP JUMPDEST POP SWAP4 SWAP3 POP POP POP JUMP JUMPDEST PUSH0 DUP3 PUSH1 0x1F DUP4 ADD SLT PUSH2 0x3972 JUMPI PUSH2 0x3971 PUSH2 0x36FF JUMP JUMPDEST JUMPDEST DUP2 CALLDATALOAD PUSH2 0x3982 DUP5 DUP3 PUSH1 0x20 DUP7 ADD PUSH2 0x391D JUMP JUMPDEST SWAP2 POP POP SWAP3 SWAP2 POP POP JUMP JUMPDEST PUSH0 DUP1 PUSH0 DUP1 PUSH1 0x80 DUP6 DUP8 SUB SLT ISZERO PUSH2 0x39A3 JUMPI PUSH2 0x39A2 PUSH2 0x33D9 JUMP JUMPDEST JUMPDEST PUSH0 PUSH2 0x39B0 DUP8 DUP3 DUP9 ADD PUSH2 0x360A JUMP JUMPDEST SWAP5 POP POP PUSH1 0x20 PUSH2 0x39C1 DUP8 DUP3 DUP9 ADD PUSH2 0x360A JUMP JUMPDEST SWAP4 POP POP PUSH1 0x40 PUSH2 0x39D2 DUP8 DUP3 DUP9 ADD PUSH2 0x355D JUMP JUMPDEST SWAP3 POP POP PUSH1 0x60 DUP6 ADD CALLDATALOAD PUSH8 0xFFFFFFFFFFFFFFFF DUP2 GT ISZERO PUSH2 0x39F3 JUMPI PUSH2 0x39F2 PUSH2 0x33DD JUMP JUMPDEST JUMPDEST PUSH2 0x39FF DUP8 DUP3 DUP9 ADD PUSH2 0x395E JUMP JUMPDEST SWAP2 POP POP SWAP3 SWAP6 SWAP2 SWAP5 POP SWAP3 POP JUMP JUMPDEST PUSH0 DUP1 PUSH1 0x40 DUP4 DUP6 SUB SLT ISZERO PUSH2 0x3A21 JUMPI PUSH2 0x3A20 PUSH2 0x33D9 JUMP JUMPDEST JUMPDEST PUSH0 PUSH2 0x3A2E DUP6 DUP3 DUP7 ADD PUSH2 0x360A JUMP JUMPDEST SWAP3 POP POP PUSH1 0x20 PUSH2 0x3A3F DUP6 DUP3 DUP7 ADD PUSH2 0x360A JUMP JUMPDEST SWAP2 POP POP SWAP3 POP SWAP3 SWAP1 POP JUMP JUMPDEST PUSH32 0x4E487B7100000000000000000000000000000000000000000000000000000000 PUSH0 MSTORE PUSH1 0x22 PUSH1 0x4 MSTORE PUSH1 0x24 PUSH0 REVERT JUMPDEST PUSH0 PUSH1 0x2 DUP3 DIV SWAP1 POP PUSH1 0x1 DUP3 AND DUP1 PUSH2 0x3A8D JUMPI PUSH1 0x7F DUP3 AND SWAP2 POP JUMPDEST PUSH1 0x20 DUP3 LT DUP2 SUB PUSH2 0x3AA0 JUMPI PUSH2 0x3A9F PUSH2 0x3A49 JUMP JUMPDEST JUMPDEST POP SWAP2 SWAP1 POP JUMP JUMPDEST PUSH0 PUSH1 0x60 DUP3 ADD SWAP1 POP PUSH2 0x3AB9 PUSH0 DUP4 ADD DUP7 PUSH2 0x35CC JUMP JUMPDEST PUSH2 0x3AC6 PUSH1 0x20 DUP4 ADD DUP6 PUSH2 0x36D7 JUMP JUMPDEST PUSH2 0x3AD3 PUSH1 0x40 DUP4 ADD DUP5 PUSH2 0x35CC JUMP JUMPDEST SWAP5 SWAP4 POP POP POP POP JUMP JUMPDEST PUSH32 0x4F6E6C7920656E67616765642E00000000000000000000000000000000000000 PUSH0 DUP3 ADD MSTORE POP JUMP JUMPDEST PUSH0 PUSH2 0x3B0F PUSH1 0xD DUP4 PUSH2 0x349E JUMP JUMPDEST SWAP2 POP PUSH2 0x3B1A DUP3 PUSH2 0x3ADB JUMP JUMPDEST PUSH1 0x20 DUP3 ADD SWAP1 POP SWAP2 SWAP1 POP JUMP JUMPDEST PUSH0 PUSH1 0x20 DUP3 ADD SWAP1 POP DUP2 DUP2 SUB PUSH0 DUP4 ADD MSTORE PUSH2 0x3B3C DUP2 PUSH2 0x3B03 JUMP JUMPDEST SWAP1 POP SWAP2 SWAP1 POP JUMP JUMPDEST PUSH32 0x416464726573732031206D757374206167726565206F6E207061727469636970 PUSH0 DUP3 ADD MSTORE PUSH32 0x616E74732E000000000000000000000000000000000000000000000000000000 PUSH1 0x20 DUP3 ADD MSTORE POP JUMP JUMPDEST PUSH0 PUSH2 0x3B9D PUSH1 0x25 DUP4 PUSH2 0x349E JUMP JUMPDEST SWAP2 POP PUSH2 0x3BA8 DUP3 PUSH2 0x3B43 JUMP JUMPDEST PUSH1 0x40 DUP3 ADD SWAP1 POP SWAP2 SWAP1 POP JUMP JUMPDEST PUSH0 PUSH1 0x20 DUP3 ADD SWAP1 POP DUP2 DUP2 SUB PUSH0 DUP4 ADD MSTORE PUSH2 0x3BCA DUP2 PUSH2 0x3B91 JUMP JUMPDEST SWAP1 POP SWAP2 SWAP1 POP JUMP JUMPDEST PUSH32 0x416464726573732032206D757374206167726565206F6E207061727469636970 PUSH0 DUP3 ADD MSTORE PUSH32 0x616E74732E000000000000000000000000000000000000000000000000000000 PUSH1 0x20 DUP3 ADD MSTORE POP JUMP JUMPDEST PUSH0 PUSH2 0x3C2B PUSH1 0x25 DUP4 PUSH2 0x349E JUMP JUMPDEST SWAP2 POP PUSH2 0x3C36 DUP3 PUSH2 0x3BD1 JUMP JUMPDEST PUSH1 0x40 DUP3 ADD SWAP1 POP SWAP2 SWAP1 POP JUMP JUMPDEST PUSH0 PUSH1 0x20 DUP3 ADD SWAP1 POP DUP2 DUP2 SUB PUSH0 DUP4 ADD MSTORE PUSH2 0x3C58 DUP2 PUSH2 0x3C1F JUMP JUMPDEST SWAP1 POP SWAP2 SWAP1 POP JUMP JUMPDEST PUSH32 0x4E487B7100000000000000000000000000000000000000000000000000000000 PUSH0 MSTORE PUSH1 0x32 PUSH1 0x4 MSTORE PUSH1 0x24 PUSH0 REVERT JUMPDEST PUSH32 0x4E487B7100000000000000000000000000000000000000000000000000000000 PUSH0 MSTORE PUSH1 0x11 PUSH1 0x4 MSTORE PUSH1 0x24 PUSH0 REVERT JUMPDEST PUSH0 PUSH2 0x3CC3 DUP3 PUSH2 0x353E JUMP JUMPDEST SWAP2 POP PUSH32 0xFFFFFFFFFFFFFFFFFFFFFFFFFFFFFFFFFFFFFFFFFFFFFFFFFFFFFFFFFFFFFFFF DUP3 SUB PUSH2 0x3CF5 JUMPI PUSH2 0x3CF4 PUSH2 0x3C8C JUMP JUMPDEST JUMPDEST PUSH1 0x1 DUP3 ADD SWAP1 POP SWAP2 SWAP1 POP JUMP JUMPDEST PUSH0 PUSH2 0x3D0A DUP3 PUSH2 0x353E JUMP JUMPDEST SWAP2 POP PUSH2 0x3D15 DUP4 PUSH2 0x353E JUMP JUMPDEST SWAP3 POP DUP3 DUP3 MUL PUSH2 0x3D23 DUP2 PUSH2 0x353E JUMP JUMPDEST SWAP2 POP DUP3 DUP3 DIV DUP5 EQ DUP4 ISZERO OR PUSH2 0x3D3A JUMPI PUSH2 0x3D39 PUSH2 0x3C8C JUMP JUMPDEST JUMPDEST POP SWAP3 SWAP2 POP POP JUMP JUMPDEST PUSH32 0x48616C6620766F74656420616761696E73742E00000000000000000000000000 PUSH0 DUP3 ADD MSTORE POP JUMP JUMPDEST PUSH0 PUSH2 0x3D75 PUSH1 0x13 DUP4 PUSH2 0x349E JUMP JUMPDEST SWAP2 POP PUSH2 0x3D80 DUP3 PUSH2 0x3D41 JUMP JUMPDEST PUSH1 0x20 DUP3 ADD SWAP1 POP SWAP2 SWAP1 POP JUMP JUMPDEST PUSH0 PUSH1 0x20 DUP3 ADD SWAP1 POP DUP2 DUP2 SUB PUSH0 DUP4 ADD MSTORE PUSH2 0x3DA2 DUP2 PUSH2 0x3D69 JUMP JUMPDEST SWAP1 POP SWAP2 SWAP1 POP JUMP JUMPDEST PUSH0 PUSH2 0x3DB3 DUP3 PUSH2 0x353E JUMP JUMPDEST SWAP2 POP PUSH2 0x3DBE DUP4 PUSH2 0x353E JUMP JUMPDEST SWAP3 POP DUP3 DUP3 ADD SWAP1 POP DUP1 DUP3 GT ISZERO PUSH2 0x3DD6 JUMPI PUSH2 0x3DD5 PUSH2 0x3C8C JUMP JUMPDEST JUMPDEST SWAP3 SWAP2 POP POP JUMP JUMPDEST PUSH32 0x546F6F206561726C792C206D6174652E00000000000000000000000000000000 PUSH0 DUP3 ADD MSTORE POP JUMP JUMPDEST PUSH0 PUSH2 0x3E10 PUSH1 0x10 DUP4 PUSH2 0x349E JUMP JUMPDEST SWAP2 POP PUSH2 0x3E1B DUP3 PUSH2 0x3DDC JUMP JUMPDEST PUSH1 0x20 DUP3 ADD SWAP1 POP SWAP2 SWAP1 POP JUMP JUMPDEST PUSH0 PUSH1 0x20 DUP3 ADD SWAP1 POP DUP2 DUP2 SUB PUSH0 DUP4 ADD MSTORE PUSH2 0x3E3D DUP2 PUSH2 0x3E04 JUMP JUMPDEST SWAP1 POP SWAP2 SWAP1 POP JUMP JUMPDEST PUSH32 0x4F6E6C79207061727469636970616E742E000000000000000000000000000000 PUSH0 DUP3 ADD MSTORE POP JUMP JUMPDEST PUSH0 PUSH2 0x3E78 PUSH1 0x11 DUP4 PUSH2 0x349E JUMP JUMPDEST SWAP2 POP PUSH2 0x3E83 DUP3 PUSH2 0x3E44 JUMP JUMPDEST PUSH1 0x20 DUP3 ADD SWAP1 POP SWAP2 SWAP1 POP JUMP JUMPDEST PUSH0 PUSH1 0x20 DUP3 ADD SWAP1 POP DUP2 DUP2 SUB PUSH0 DUP4 ADD MSTORE PUSH2 0x3EA5 DUP2 PUSH2 0x3E6C JUMP JUMPDEST SWAP1 POP SWAP2 SWAP1 POP JUMP JUMPDEST PUSH32 0x4F6E6C7920756E7765642E000000000000000000000000000000000000000000 PUSH0 DUP3 ADD MSTORE POP JUMP JUMPDEST PUSH0 PUSH2 0x3EE0 PUSH1 0xB DUP4 PUSH2 0x349E JUMP JUMPDEST SWAP2 POP PUSH2 0x3EEB DUP3 PUSH2 0x3EAC JUMP JUMPDEST PUSH1 0x20 DUP3 ADD SWAP1 POP SWAP2 SWAP1 POP JUMP JUMPDEST PUSH0 PUSH1 0x20 DUP3 ADD SWAP1 POP DUP2 DUP2 SUB PUSH0 DUP4 ADD MSTORE PUSH2 0x3F0D DUP2 PUSH2 0x3ED4 JUMP JUMPDEST SWAP1 POP SWAP2 SWAP1 POP JUMP JUMPDEST PUSH0 DUP2 SWAP1 POP DUP2 PUSH0 MSTORE PUSH1 0x20 PUSH0 KECCAK256 SWAP1 POP SWAP2 SWAP1 POP JUMP JUMPDEST PUSH0 PUSH1 0x20 PUSH1 0x1F DUP4 ADD DIV SWAP1 POP SWAP2 SWAP1 POP JUMP JUMPDEST PUSH0 DUP3 DUP3 SHL SWAP1 POP SWAP3 SWAP2 POP POP JUMP JUMPDEST PUSH0 PUSH1 0x8 DUP4 MUL PUSH2 0x3F70 PUSH32 0xFFFFFFFFFFFFFFFFFFFFFFFFFFFFFFFFFFFFFFFFFFFFFFFFFFFFFFFFFFFFFFFF DUP3 PUSH2 0x3F35 JUMP JUMPDEST PUSH2 0x3F7A DUP7 DUP4 PUSH2 0x3F35 JUMP JUMPDEST SWAP6 POP DUP1 NOT DUP5 AND SWAP4 POP DUP1 DUP7 AND DUP5 OR SWAP3 POP POP POP SWAP4 SWAP3 POP POP POP JUMP JUMPDEST PUSH0 DUP2 SWAP1 POP SWAP2 SWAP1 POP JUMP JUMPDEST PUSH0 PUSH2 0x3FB5 PUSH2 0x3FB0 PUSH2 0x3FAB DUP5 PUSH2 0x353E JUMP JUMPDEST PUSH2 0x3F92 JUMP JUMPDEST PUSH2 0x353E JUMP JUMPDEST SWAP1 POP SWAP2 SWAP1 POP JUMP JUMPDEST PUSH0 DUP2 SWAP1 POP SWAP2 SWAP1 POP JUMP JUMPDEST PUSH2 0x3FCE DUP4 PUSH2 0x3F9B JUMP JUMPDEST PUSH2 0x3FE2 PUSH2 0x3FDA DUP3 PUSH2 0x3FBC JUMP JUMPDEST DUP5 DUP5 SLOAD PUSH2 0x3F41 JUMP JUMPDEST DUP3 SSTORE POP POP POP POP JUMP JUMPDEST PUSH0 SWAP1 JUMP JUMPDEST PUSH2 0x3FF6 PUSH2 0x3FEA JUMP JUMPDEST PUSH2 0x4001 DUP2 DUP5 DUP5 PUSH2 0x3FC5 JUMP JUMPDEST POP POP POP JUMP JUMPDEST JUMPDEST DUP2 DUP2 LT ISZERO PUSH2 0x4024 JUMPI PUSH2 0x4019 PUSH0 DUP3 PUSH2 0x3FEE JUMP JUMPDEST PUSH1 0x1 DUP2 ADD SWAP1 POP PUSH2 0x4007 JUMP JUMPDEST POP POP JUMP JUMPDEST PUSH1 0x1F DUP3 GT ISZERO PUSH2 0x4069 JUMPI PUSH2 0x403A DUP2 PUSH2 0x3F14 JUMP JUMPDEST PUSH2 0x4043 DUP5 PUSH2 0x3F26 JUMP JUMPDEST DUP2 ADD PUSH1 0x20 DUP6 LT ISZERO PUSH2 0x4052 JUMPI DUP2 SWAP1 POP JUMPDEST PUSH2 0x4066 PUSH2 0x405E DUP6 PUSH2 0x3F26 JUMP JUMPDEST DUP4 ADD DUP3 PUSH2 0x4006 JUMP JUMPDEST POP POP JUMPDEST POP POP POP JUMP JUMPDEST PUSH0 DUP3 DUP3 SHR SWAP1 POP SWAP3 SWAP2 POP POP JUMP JUMPDEST PUSH0 PUSH2 0x4089 PUSH0 NOT DUP5 PUSH1 0x8 MUL PUSH2 0x406E JUMP JUMPDEST NOT DUP1 DUP4 AND SWAP2 POP POP SWAP3 SWAP2 POP POP JUMP JUMPDEST PUSH0 PUSH2 0x40A1 DUP4 DUP4 PUSH2 0x407A JUMP JUMPDEST SWAP2 POP DUP3 PUSH1 0x2 MUL DUP3 OR SWAP1 POP SWAP3 SWAP2 POP POP JUMP JUMPDEST PUSH2 0x40BA DUP3 PUSH2 0x3494 JUMP JUMPDEST PUSH8 0xFFFFFFFFFFFFFFFF DUP2 GT ISZERO PUSH2 0x40D3 JUMPI PUSH2 0x40D2 PUSH2 0x3707 JUMP JUMPDEST JUMPDEST PUSH2 0x40DD DUP3 SLOAD PUSH2 0x3A76 JUMP JUMPDEST PUSH2 0x40E8 DUP3 DUP3 DUP6 PUSH2 0x4028 JUMP JUMPDEST PUSH0 PUSH1 0x20 SWAP1 POP PUSH1 0x1F DUP4 GT PUSH1 0x1 DUP2 EQ PUSH2 0x4119 JUMPI PUSH0 DUP5 ISZERO PUSH2 0x4107 JUMPI DUP3 DUP8 ADD MLOAD SWAP1 POP JUMPDEST PUSH2 0x4111 DUP6 DUP3 PUSH2 0x4096 JUMP JUMPDEST DUP7 SSTORE POP PUSH2 0x4178 JUMP JUMPDEST PUSH1 0x1F NOT DUP5 AND PUSH2 0x4127 DUP7 PUSH2 0x3F14 JUMP JUMPDEST PUSH0 JUMPDEST DUP3 DUP2 LT ISZERO PUSH2 0x414E JUMPI DUP5 DUP10 ADD MLOAD DUP3 SSTORE PUSH1 0x1 DUP3 ADD SWAP2 POP PUSH1 0x20 DUP6 ADD SWAP5 POP PUSH1 0x20 DUP2 ADD SWAP1 POP PUSH2 0x4129 JUMP JUMPDEST DUP7 DUP4 LT ISZERO PUSH2 0x416B JUMPI DUP5 DUP10 ADD MLOAD PUSH2 0x4167 PUSH1 0x1F DUP10 AND DUP3 PUSH2 0x407A JUMP JUMPDEST DUP4 SSTORE POP JUMPDEST PUSH1 0x1 PUSH1 0x2 DUP9 MUL ADD DUP9 SSTORE POP POP POP JUMPDEST POP POP POP POP POP POP JUMP JUMPDEST PUSH32 0x4F6E6C7920636F6E6669726D6564207061727469636970616E74732E00000000 PUSH0 DUP3 ADD MSTORE POP JUMP JUMPDEST PUSH0 PUSH2 0x41B4 PUSH1 0x1C DUP4 PUSH2 0x349E JUMP JUMPDEST SWAP2 POP PUSH2 0x41BF DUP3 PUSH2 0x4180 JUMP JUMPDEST PUSH1 0x20 DUP3 ADD SWAP1 POP SWAP2 SWAP1 POP JUMP JUMPDEST PUSH0 PUSH1 0x20 DUP3 ADD SWAP1 POP DUP2 DUP2 SUB PUSH0 DUP4 ADD MSTORE PUSH2 0x41E1 DUP2 PUSH2 0x41A8 JUMP JUMPDEST SWAP1 POP SWAP2 SWAP1 POP JUMP JUMPDEST PUSH0 DUP2 SWAP1 POP SWAP3 SWAP2 POP POP JUMP JUMPDEST PUSH0 PUSH2 0x41FC DUP3 PUSH2 0x3494 JUMP JUMPDEST PUSH2 0x4206 DUP2 DUP6 PUSH2 0x41E8 JUMP JUMPDEST SWAP4 POP PUSH2 0x4216 DUP2 DUP6 PUSH1 0x20 DUP7 ADD PUSH2 0x34AE JUMP JUMPDEST DUP1 DUP5 ADD SWAP2 POP POP SWAP3 SWAP2 POP POP JUMP JUMPDEST PUSH0 PUSH2 0x422D DUP3 DUP6 PUSH2 0x41F2 JUMP JUMPDEST SWAP2 POP PUSH2 0x4239 DUP3 DUP5 PUSH2 0x41F2 JUMP JUMPDEST SWAP2 POP DUP2 SWAP1 POP SWAP4 SWAP3 POP POP POP JUMP JUMPDEST PUSH0 DUP2 MLOAD SWAP1 POP SWAP2 SWAP1 POP JUMP JUMPDEST PUSH0 DUP3 DUP3 MSTORE PUSH1 0x20 DUP3 ADD SWAP1 POP SWAP3 SWAP2 POP POP JUMP JUMPDEST PUSH0 PUSH2 0x4269 DUP3 PUSH2 0x4245 JUMP JUMPDEST PUSH2 0x4273 DUP2 DUP6 PUSH2 0x424F JUMP JUMPDEST SWAP4 POP PUSH2 0x4283 DUP2 DUP6 PUSH1 0x20 DUP7 ADD PUSH2 0x34AE JUMP JUMPDEST PUSH2 0x428C DUP2 PUSH2 0x34D6 JUMP JUMPDEST DUP5 ADD SWAP2 POP POP SWAP3 SWAP2 POP POP JUMP JUMPDEST PUSH0 PUSH1 0x80 DUP3 ADD SWAP1 POP PUSH2 0x42AA PUSH0 DUP4 ADD DUP8 PUSH2 0x35CC JUMP JUMPDEST PUSH2 0x42B7 PUSH1 0x20 DUP4 ADD DUP7 PUSH2 0x35CC JUMP JUMPDEST PUSH2 0x42C4 PUSH1 0x40 DUP4 ADD DUP6 PUSH2 0x36D7 JUMP JUMPDEST DUP2 DUP2 SUB PUSH1 0x60 DUP4 ADD MSTORE PUSH2 0x42D6 DUP2 DUP5 PUSH2 0x425F JUMP JUMPDEST SWAP1 POP SWAP6 SWAP5 POP POP POP POP POP JUMP JUMPDEST PUSH0 DUP2 MLOAD SWAP1 POP PUSH2 0x42EF DUP2 PUSH2 0x340C JUMP JUMPDEST SWAP3 SWAP2 POP POP JUMP JUMPDEST PUSH0 PUSH1 0x20 DUP3 DUP5 SUB SLT ISZERO PUSH2 0x430A JUMPI PUSH2 0x4309 PUSH2 0x33D9 JUMP JUMPDEST JUMPDEST PUSH0 PUSH2 0x4317 DUP5 DUP3 DUP6 ADD PUSH2 0x42E1 JUMP JUMPDEST SWAP2 POP POP SWAP3 SWAP2 POP POP JUMP JUMPDEST PUSH0 PUSH1 0x40 DUP3 ADD SWAP1 POP PUSH2 0x4333 PUSH0 DUP4 ADD DUP6 PUSH2 0x35CC JUMP JUMPDEST PUSH2 0x4340 PUSH1 0x20 DUP4 ADD DUP5 PUSH2 0x36D7 JUMP JUMPDEST SWAP4 SWAP3 POP POP POP JUMP JUMPDEST PUSH32 0x4E487B7100000000000000000000000000000000000000000000000000000000 PUSH0 MSTORE PUSH1 0x12 PUSH1 0x4 MSTORE PUSH1 0x24 PUSH0 REVERT INVALID PUSH5 0x6174613A69 PUSH14 0x6167652F6A7065673B6261736536 CALLVALUE 0x2C 0x2F CODECOPY PUSH11 0x2F34414151536B5A4A5267 COINBASE TIMESTAMP COINBASE MLOAD COINBASE COINBASE COINBASE MLOAD COINBASE TIMESTAMP COINBASE COINBASE PREVRANDAO 0x2F ORIGIN PUSH24 0x434541416B47427841544542555145684156466855564678 SSTORE JUMP CHAINID MSTORE SSTORE PC CHAINID MSTORE SSTORE PC CHAINID MSTORE MSIZE JUMP CHAINID PUSH9 0x555846685556467855 MSIZE BASEFEE MSTORE8 PUSH8 0x6747426F6C485255 JUMP 0x49 SLOAD GASLIMIT PUSH9 0x4A536B724C69347546 PUSH25 0x387A4F444D744E7967744C69734243676F4B4467304F476841 MLOAD SELFBALANCE PUSH10 0x3067485355744B797374 0x4C MSTORE8 ADDRESS PUSH21 0x4C5330744C5373744C5330744C5330744C5330744C MSTORE8 ADDRESS PUSH21 0x4C5330744C5330744C5330744C5330744C5330744E PUSH26 0x30744C5373744C5373794C662F4141424549414F454134514D42 0x49 PUSH8 0x4143455145444551 BASEFEE 0x2F PUSH25 0x4141634141454141674D424151454141414141414141414141 COINBASE COINBASE COINBASE MLOAD SSTORE NUMBER COINBASE PUSH24 0x514742776A2F7841412B4541414341514944425155474241 MLOAD CHAINID TIMESTAMP MLOAD GASLIMIT COINBASE COINBASE COINBASE COINBASE COINBASE COINBASE MLOAD 0x49 PREVRANDAO GASLIMIT MLOAD MLOAD PUSH9 0x4D5155535156466849 PUSH15 0x47426B614547457A4B787766424363 PUSH21 0x486846434E5338544E546B714B79466C56696B3949 BASEFEE 0x2F CODESIZE MLOAD COINBASE SELFBALANCE MLOAD GASLIMIT TIMESTAMP COINBASE MLOAD GASLIMIT TIMESTAMP COINBASE MLOAD GASLIMIT COINBASE COINBASE COINBASE COINBASE COINBASE COINBASE COINBASE COINBASE COINBASE COINBASE COINBASE COINBASE COINBASE COINBASE COINBASE GASLIMIT NUMBER COINBASE PUSH24 0x51462F38514149684542415141434167494341674D414141 COINBASE COINBASE COINBASE COINBASE COINBASE COINBASE COINBASE COINBASE GASLIMIT NUMBER GASLIMIT MLOAD 0x4D PUSH9 0x4D5545535551516945 PUSH27 0x4A682F396F4144414D424141495241784541507744347551415255 PUSH12 0x4141435341774A4941416B45 0x49 PUSH12 0x414141414944416B42414143 NUMBER MLOAD 0x49 TIMESTAMP 0x4A COINBASE GASLIMIT COINBASE 0x4D PUSH8 0x4141414141434141 0x4B TIMESTAMP COINBASE PUSH20 0x414D79435152514141414141414141414141624B 0x4E CHAINID PUSH26 0x4C484459474E394C6B7430736C71746A536B39457A622F414164 SLOAD 0x2B PUSH13 0x6E6F634E68344C68366E5A3775 NUMBER 0x2B SELFBALANCE GASLIMIT PUSH19 0x39477066375872344D35336B626E4738685577 PUSH21 0x526177666C6635476F397A6838644453566E315764 PUSH22 0x2B4D6C64664C716365304E6D305A2F7741784A4B3937 PUSH22 0x4F6A384F444535507376483950496B6C6C69396B5469 PUSH19 0x72744C6731386D75442B387A68334F792B6E36 0x2F PUSH22 0x644A6475646D6D6F67323134572B2B74766F61696743 COINBASE COINBASE COINBASE COINBASE MLOAD COINBASE PREVRANDAO 0x4B COINBASE COINBASE COINBASE PUSH8 0x41415A5846794152 SSTORE PUSH10 0x354249416B67414C6935 COINBASE COINBASE PUSH12 0x3359656735506F595571626B ADDRESS PUSH13 0x784C616D6C484C6B53315A4E6B PUSH2 0x436A PUSH13 0x784F3344783363354E52584B79 PUSH3 0x4D5951 CALLDATACOPY POP PUSH23 0x4A654858717948556C7248354A2F4D35573764704E4E6C PUSH7 0x455548786C3570 PUSH6 0x575270707A7A 0x2F COINBASE 0x4A PUSH5 0x5758644A33 PC PUSH14 0x694A536475314250752B386D614A CALLVALUE POP 0x4E PUSH22 0x4C307A7353524C7433314D59707071704731534F7257 SSTORE PUSH22 0x2B4C2B6D686F6869476D374E4F2F4C4B4D2F4468502B PUSH25 0x7A314A536C5A2F6958487039334E58755A6655317148627470 MSIZE PUSH19 0x646C75367865612F38416C3948364D77784E47 0x4C PUSH13 0x4A783063623236717A2B567A6A PUSH14 0x32732F746D326A694C7630383159 PUSH22 0x76624E2F316F72307233364A65663841653577546A59 PUSH22 0x617A535458445638336252664D714B30727535724773 JUMPI PUSH2 0x6177 COINBASE PUSH2 0x5A41 COINBASE SSTORE NUMBER NUMBER MSTORE8 COINBASE COINBASE COINBASE COINBASE PUSH8 0x6B41435141525141 TIMESTAMP GASLIMIT PUSH12 0x41414353444A4C4D44743266 SLOAD BALANCE PUSH7 0x544936714E4A74 PUSH18 0x2F654B4355593338444B4D6D326D63363634 CODECOPY 0x4C PREVRANDAO PUSH4 0x33704B4C 0x2F COINBASE COINBASE ORIGIN PUSH20 0x75463276374672683850473172493438505A7536 CALLDATALOAD MSTORE CODECOPY GASLIMIT PUSH10 0x306F55326562504A3775 0x4C PREVRANDAO ORIGIN PUSH27 0x68684B66464746665A394E726B644D61624E697063624D352F4B75 0x2F PUSH24 0x69705741697332737A5258704A614A467A556F506B636466 PREVRANDAO JUMPI MSTORE PUSH18 0x5A66624E776A7A754C6F706C57344E534C2F GASLIMIT SSTORE CODECOPY MSTORE8 PUSH15 0x786B654A364D4B38504C6A716F6E55 JUMPI PUSH14 0x764D346354484F2F4D364979664D BALANCE MSIZE PUSH22 0x5768306A68584B414462414143675141414141414141 MSTORE8 COINBASE COINBASE COINBASE COINBASE COINBASE COINBASE COINBASE COINBASE SLOAD BASEFEE SSTORE PUSH8 0x4546746C597A776C PC 0x4A PUSH16 0x35493165795A344E5A6D4C4853587436 PUSH7 0x5A644A62706559 PUSH6 0x7853624C6C64 JUMPI 0x4C PUSH10 0x6D2B6834382F4C366648 CALLVALUE PUSH5 0x385A783547 CALLDATALOAD PUSH27 0x7930526F68526B31657873696E70597736734A3175687859702B52 CALLER POP NUMBER MSTORE8 PUSH6 0x5A78596A4474 NUMBER MLOAD PUSH18 0x6C784E4F78535971436161343844306D4C70 PUSH23 0x645A35584658752B6A50527850462B51305268784F5446 PUSH23 0x50754F716457312F55344A7975376E706A785669414454 0x49 COINBASE MLOAD COINBASE COINBASE COINBASE COINBASE COINBASE PUSH9 0x6753434C6B67414141 0x4A 0x49 COINBASE GASLIMIT PUSH8 0x676B4141414E6C4F MSTORE CALLER MSIZE BASEFEE MSTORE PUSH12 0x6249772B39767531374B4B2F BALANCE 0x4E PUSH19 0x39446F776442715469316E657A58637A475639 0x4F PUSH14 0x474E367230477836626364433071 JUMP 0x4B PUSH12 0x4D31472F686334354E776A61 SELFBALANCE PUSH21 0x764931564669657A3270764A3732363073375A5779 ADDRESS POP 0x4C CALLDATALOAD PUSH19 0x337A716157654832394A50646C433367313879 ORIGIN JUMPI 0x4B SSTORE PUSH13 0x6463726E6D4842376B5865626C PUSH3 0x2B5970 PUSH7 0x436E6E617A6571 ADDRESS 0x4F PUSH11 0x5A324A6154526D78307779 PUSH23 0x745A3752326F34744A636A68707972314A586555653834 0x4B PUSH12 0x7054714E6657325833664977 PUSH25 0x574271536B2F644B616A32643175625454567435326A6B3735 0x2B GAS GAS SELFBALANCE PUSH4 0x7372745A CALLVALUE CALLER PREVRANDAO ORIGIN PUSH11 0x38575A3544474A377A4C2B PUSH5 0x4F7247566E 0x4A PUSH22 0x4C3453656179356C6274654354545855336864567835 GAS PUSH22 0x626566786439567A7A3950334F557438565353777A6D BALANCE ORIGIN PUSH17 0x56466238747066574C4B67394F4C785A54 JUMP COINBASE COINBASE PUSH27 0x544951414141414558414141414143534351414141456B41435141 TIMESTAMP PUSH4 0x2B7A5658 PUSH21 0x797066356D356276684E50354E6C377462414F6C69 0x4E CODECOPY PUSH17 0x32716472503841713061394C6E6A384A58 PUSH4 0x4B6B5A72 CODESIZE 0x4C SLOAD POP PUSH2 0x6258 PUSH19 0x7570546A4E79337431713363394833575A7735 0x4E PUSH27 0x4C623163566C7731394F334253766B57455953745A5A654A586248 JUMP ADDRESS PUSH15 0x7A4C3171436A7653666765612B5876 PUSH24 0x384B5048354B7964337A34493159436D737A64745354756C CHAINID JUMPI SLOAD PUSH22 0x2B6F3254685A79756B73792B6B312B7A676B37564C39 PUSH4 0x792F7739 TIMESTAMP 0x4F 0x4E CALLVALUE PUSH26 0x666355574A6F79336E346C37733746783355354B3130732B4179 0x4D PUSH7 0x4E61385453646A PUSH27 0x57304937306C446E4A4C7A505959717A504D56614B65496A48686D 0x2F 0x4A 0x4D PUSH22 0x4854484E4F6D6A32316F306F5561554B622B47573734 0x4A POP CALLDATACOPY CODESIZE SLOAD PUSH25 0x7836583277717876476D7565393457736C35746E6D6A316355 0x2F JUMP CALLVALUE 0x4F PUSH6 0x377A43435344 PUSH16 0x34674141455841414141414141424A42 0x4B COINBASE PUSH8 0x6B41415343414A41 COINBASE COINBASE PUSH21 0x646D625433594F6C4A5833724B4C354F2F486F5652 0x4D PC PUSH25 0x4A5A745A6248305059632B776A766263753039466F7671552B PUSH25 0x6179335953576B73697778744B56757A4A325330584C6D6548 0x4C 0x2B PUSH27 0x3633486C2B724B7454336D4B64437243376A6E364D31374A6F5371 PUSH21 0x2F7A6B7258796B6C64575638337979314C326C736E CHAINID PUSH3 0x743071 PUSH4 0x374B4D72 0x4E ORIGIN PUSH7 0x615830372B4131 MSIZE PUSH7 0x5047714770684A CALLDATALOAD PUSH22 0x547A66426671624B466C6B335A6665525A597A5A5653 0x4C PUSH23 0x5872516774355137504F5362576230344C78504D756A65 PUSH18 0x3471546B6C6274634F5A6462543579587064 MSTORE8 PUSH18 0x5A4E4A3358426E6C64723752715571697151 PUSH21 0x664F4F6175725055394A694C517057537A646F7835 PUSH15 0x692F61536F76654B463737697A3733 PUSH14 0x7A58444E31792F4A793169724D52 PC PUSH13 0x4F546E4E3362342F6568714150 MSIZE 0x2B PUSH4 0x41414343 NUMBER JUMPI MLOAD COINBASE COINBASE COINBASE COINBASE COINBASE COINBASE COINBASE COINBASE GASLIMIT MSTORE8 PUSH8 0x45416F4153424249 COINBASE COINBASE COINBASE COINBASE NUMBER SSTORE GASLIMIT PUSH5 0x4742776B71 PUSH20 0x3143506533796974583938774C66326378717336 0x4D PUSH15 0x6B38313066426E724B5664754F6571 PUSH26 0x5A35324F7871634937363372325762664E70504A5A6354747731 PUSH5 0x724A362F65 GAS CALLDATALOAD PUSH6 0x584757376A32 CODESIZE SELFBALANCE PUSH5 0x6B3158624C NUMBER PUSH18 0x547576752B7665693632593630453147716B PUSH14 0x6C6450544C5331744F5752563461 PC BASEFEE PUSH14 0x576C4935664B76584A4C36637550 PUSH5 0x575465394B CALLDATACOPY PUSH6 0x73724B375637 PUSH17 0x583549344B4D62535335764E6C6E69436E PUSH25 0x3039316135695733704D704D5A746A7444484B377163494C64 PUSH8 0x76384179617A5A34 PUSH2 0x7655 PUSH4 0x704F5431 PUSH3 0x75656E PUSH25 0x4557344F58424A32367669796176733551746B35703839362F PUSH16 0x30656A69316938484E626C586B675757 BALANCE PUSH5 0x6B546F352F CHAINID TIMESTAMP CALLDATALOAD 0x4B MSTORE8 PC BASEFEE PUSH12 0x31775A584864353045456743 NUMBER PREVRANDAO 0x49 PUSH9 0x675141414141414141 0x49 PUSH12 0x416B4B414141415342424E67 PUSH12 0x53415062657A327A56436876 0x4E PUSH5 0x75646E4C6F PUSH19 0x646D506B2F4E6C4A374937482F41496E45716E ORIGIN PUSH3 0x52572B CALLVALUE PUSH22 0x2F615566777179666A30506331714C684A335675456C PUSH26 0x366D4D71316A4648695A4E30386C6B74314E3962705737376E51 PUSH20 0x4570773550677A6A326F354B617032374B6B7064 CODECOPY CALLDATACOPY PUSH23 0x3075793532627750507958543138474F353272384A5064 PUSH6 0x35504A723158 0x4D CODECOPY TIMESTAMP PUSH9 0x713845745376327673 CODECOPY MSTORE8 PUSH20 0x307379722F6761747372393133386A47706B3766 0x4C 0x4C BASEFEE PUSH19 0x79764D62587032664D6F484433315251587778 0x2B 0x4A 0x2F MSTORE NUMBER JUMPI PUSH27 0x367279647931325868465469387378316A4F6D6263733733345632 ORIGIN 0x4B MSTORE8 JUMP POP PUSH5 0x584C364852 SSTORE PUSH13 0x76527931736D766D6174725A33 MSTORE PUSH26 0x5966464E714F61756B6F746432575A3234707550507A3956594F 0x4D GAS PUSH24 0x335A4A4F4D6C5A70385565493270676E5271756E7731692B PUSH4 0x58703956 CALLVALUE BASEFEE PUSH22 0x734F75776E7A56796B39726350656E4372624F4D7431 0x2F PUSH13 0x6B73765666376A706A65334378 CALLDATALOAD MLOAD PUSH8 0x79494F6A4B434351 TIMESTAMP COINBASE 0x4A COINBASE MSTORE PUSH10 0x43525943415459425567 COINBASE COINBASE PREVRANDAO 0x4B GASLIMIT SELFBALANCE ORIGIN PUSH12 0x6B32336F6B72743979523230 PUSH5 0x6B3157374F 0x4F CALLDATACOPY BALANCE PUSH7 0x36494468534A69 PUSH14 0x335A4B376642612B526530765A36 CALLDATACOPY 0x2F COINBASE 0x4D MSTORE ORIGIN 0x2F 0x4B PUSH12 0x2F6D79367757793455316B75 CODECOPY CODESIZE PC CALLER PUSH20 0x7A386F756E6C734E736D724E2F4475726E4B3639 CHAINID PUSH14 0x573247396E594B7A6C4A79365733 JUMP CALLDATASIZE 0x4F 0x2F PUSH18 0x6A306C4B676C774E76753054354C707A374A PUSH24 0x5734314B6E6144693772645672506E6C72346E7132345975 0x4C SLOAD SSTORE MSIZE MSIZE PUSH14 0x4B30306A56533564644F37757A56 CHAINID MLOAD PUSH6 0x342B6A4F3270 NUMBER CALLDATASIZE CALLER PUSH16 0x757A3154575454576E64597A576F6F4E PUSH20 0x5964716162566D72786B6E776166376E5A733161 CHAINID PUSH21 0x6A6F2F784D4C5374477572576C6B6F31637668664B PUSH5 0x6E6B2B5079 PUSH18 0x73484C646536303030374E504A7072677A6A PUSH26 0x343962656E687A6E686231715363544844306F7332556E644770 0x4A PUSH17 0x35486E6A314978464B4B4E556F57696256 TIMESTAMP PUSH21 0x335A68696C5A574E447A2B4E563256547772393475 PUSH19 0x4C6D7247374E2B46773663302B4563322B5232 PUSH24 0x743238764A4A707563643157584A493573646756556F7955 CODESIZE PUSH12 0x326C48724A4F2F6B74572B43 0x4C JUMP ADDRESS 0x49 PUSH18 0x50766172334B58346636366E536E486C314F BASEFEE CHAINID PUSH27 0x64527154696F704B30494C53456558567656733752355869735673 0x4B MSTORE8 PUSH23 0x7553557258796554646E716E6F796F6E42703261733171 PUSH15 0x71665170554F687734765A304A6646 TIMESTAMP POP CALLDATASIZE PUSH6 0x4A755A4D3665 0x4B PUSH20 0x51582B4B32464838446136504E66715657497746 MSTORE8 SELFBALANCE PUSH20 0x62726D733061326D6E4943534167515341494173 COINBASE 0x4D PUSH19 0x48546773464F6F3375364B313377562F6D7A6E POP GAS PUSH3 0x427744 PUSH11 0x5469704A4A357678623438 CALLER PUSH2 0x7938 NUMBER JUMPI CALLDATASIZE PUSH2 0x6B32 BALANCE CALLDATACOPY 0x4D ORIGIN MLOAD PUSH16 0x4C4B3933712B50374C6F57304D476C6F PUSH11 0x737055446F68534F653239 0x4B CALLDATASIZE 0x4F BASEFEE PUSH20 0x64464F6D646A706F79565078427079704763596D CALLDATALOAD PUSH24 0x7339444F50583542476D644B2F55554B72692B5A31786A6B MSIZE PUSH27 0x6A662B78527054586839434E71345631625649727452566D76784E 0x4C PUSH11 0x666931317A394463714A74 PUSH10 0x6D68425559624831495A 0x4F ADDRESS PUSH13 0x362B5A317832745465556B3476 PUSH18 0x623971594A536936306370525636692F716A PUSH17 0x7639367976307A4B58645A6634634D2B32 PUSH17 0x7A35346531744861314C6A646542785933 BASEFEE 0x4B PUSH7 0x77702B5036484E GAS CODESIZE PUSH23 0x6B464756374C755850794C5078384A3258386E4F394D45 PUSH17 0x4F325236444259474647436E5864355074 MSTORE PUSH16 0x385A32306C506C48545534384E683551 PUSH2 0x744B ADDRESS PUSH22 0x4D6B6B376445326E62765230566F4A58627676505737 PUSH22 0x33337435737A5A4A314764322B584869363036745466 PUSH14 0x37742B5559384978584247573564 SELFBALANCE 0x2B 0x4E SELFBALANCE ORIGIN PUSH3 0x615A4C PUSH10 0x4563626A5931564B5A31 PUSH21 0x4774774172366C4248504C436443326C45786A446F CHAINID ADDRESS CODESIZE SLOAD PUSH21 0x725A566D357758656C383055683948786D48766649 CODESIZE JUMP PUSH21 0x72422B37715A4C4B57666A784E5373324B77476537 ADDRESS 0x4D JUMPI PUSH2 0x5241 0x4A PUSH20 0x414C665A4F7970547847354B4C696F4E4F616571 JUMPI PUSH18 0x692B7230387A33564F6B6C6B754766366C66 PUSH20 0x44444F46464F587854375576704877566B577547 0x2B 0x4C CALLDATACOPY ADDRESS CALLVALUE PUSH15 0x4F31306B6236555466436E34455268 PUSH15 0x6F6231424756594E575A4737346D33 PUSH23 0x4565674769564531756D306471487569786C79785A7569 PUSH13 0x7173784B6A6C6F594B367A3943 PUSH18 0x335269512B56753469465A63664F78745334 CALLER NUMBER 0x49 PUSH17 0x53635A58743061656E4B3363796E327068 POP PUSH5 0x31476C3845 PUSH22 0x314438723464366552634D3062516F3739472F347164 CALLDATALOAD 0x4C PUSH19 0x484A5458796C34506D617875717A6C4E785232 0x4C POP GAS PUSH22 0x45744256482B4A74522F4B745A654C79384467773946 PUSH27 0x6E4743316B3758354C692F42585051564A5234504A4C6469755556 PUSH12 0x6A6564394D3474436A625079 0x2F MSIZE PUSH25 0x6A432F616671626C4469324A49354E74533535654A7A7A5230 SLOAD PUSH13 0x304D4A494B3071434473755275 PUSH14 0x7552716C484D4B356E472B5A6E54 PUSH10 0x374779644D526A325751 PUSH4 0x31534B34 PUSH13 0x4A375162503336625331315865 PUSH6 0x68676C643375 PUSH2 0x5A30 CALLDATACOPY PUSH10 0x564B2B584E766D794C46 PUSH15 0x37513444334E64785877767452376E PUSH18 0x76422F5139332F7744687543775666455636 0x4F 0x4A PUSH24 0x394B724E776736587649786B6B6B356236555A5056396C35 0x4C PUSH9 0x716457487A4C63664C BALANCE TIMESTAMP 0x2B PUSH20 0x662B6A396B2F3976776E2F7070666F41506A796A PUSH24 0x4E6D42576266586E72624935713954317937373548666736 PUSH5 0x6B6B30636E MSTORE BALANCE MLOAD PC PREVRANDAO PUSH24 0x2B2F5132516A7A5A7254344B2B5A74365741534351714755 PUSH4 0x3941434A PC JUMP PUSH12 0x4C6F54645A63796F6C784370 PUSH18 0x32624A6375686A66714269365366426D4B70 POP PUSH9 0x633370394348494A74 PUSH17 0x616B737A62517157616274626A486D754B CODESIZE SSTORE MSTORE8 CALLDATALOAD PUSH5 0x5444694278 PUSH3 0x506F71 CHAINID PUSH2 0x7647 CALLER 0x2B SELFBALANCE PUSH21 0x32447338314E35502F53646167754A3056734F6C37 PUSH26 0x615674355964764F2B6170746163446C692F764974757A544C65 0x2B CALLDATACOPY SELFBALANCE 0x4D PUSH20 0x7A4A4D68706B47446A784D667651324D69335144 TIMESTAMP PUSH25 0x66496955445A336D456772584E6D4E4F4F566A4F5768464F4F JUMP PUSH26 0x44565258785A365037314A70787A7A3466663642577331315A6C TIMESTAMP JUMPI PUSH26 0x382B3869764B2B334F4776546A55532B47566E33532F6578354C PREVRANDAO MSIZE PUSH22 0x7054763775636F4E337A6937504E5766615761384436 0x4E CALLDATACOPY MLOAD ADDRESS 0x4E 0x2F PREVRANDAO BALANCE 0x49 PUSH17 0x66686258657331366F2B5A48544877786C CALLDATALOAD PUSH3 0x2F7743 0x4D PUSH18 0x2F3531542F58494767476B66536E3863667A 0x49 PUSH21 0x714142797263626C7239386D5A554E66766B414245 PUSH27 0x4A4146566D5A5131594151675A4C587741434D5671617550694142 PUSH21 0x57686A445664344149376E7050386D482F414F4D7A PUSH9 0x347341525742697741 PUSH11 0x4E614D315430586741426D CODECOPY PUSH7 0x414D6B42593054 0x4A PUSH24 0x2B684943756148782B4C4E7A414D6A546A76384F5835582F PUSH24 0x415435476744654C4F514144624C2F396B3DA26469706673 PC 0x22 SLT KECCAK256 LOG0 SWAP6 0xEB 0xB0 0xB2 0xDF NUMBER DUP2 0xCB BASEFEE 0xEF 0xBB 0xC9 LT 0x4F SWAP6 0xD9 0xEE 0xA5 0xB6 SSTORE PC 0xE4 0x1E 0xCA CALLDATALOAD CODESIZE 0x27 0xD9 0xD SWAP16 GAS PUSH5 0x736F6C6343 STOP ADDMOD ISZERO STOP CALLER "
		},
		"gasEstimates": {
			"creation": {
				"codeDepositCost": "4543400",
				"executionCost": "infinite",
				"totalCost": "infinite"
			},
			"external": {
				"acceptInvitation()": "infinite",
				"agreeOnParticipants()": "112870",
				"approve(address,uint256)": "infinite",
				"balanceOf(address)": "infinite",
				"engage(uint256,string)": "infinite",
				"getApproved(uint256)": "infinite",
				"inviteParticipant(address)": "102180",
				"isApprovedForAll(address,address)": "infinite",
				"name()": "infinite",
				"ownerOf(uint256)": "infinite",
				"revokeEngagement()": "199398",
				"safeTransferFrom(address,address,uint256)": "infinite",
				"safeTransferFrom(address,address,uint256,bytes)": "infinite",
				"setApprovalForAll(address,bool)": "infinite",
				"supportsInterface(bytes4)": "881",
				"symbol()": "infinite",
				"tokenURI(uint256)": "infinite",
				"transferFrom(address,address,uint256)": "infinite",
				"voteAgainst()": "infinite",
				"wed()": "infinite"
			},
			"internal": {
				"getParticipant(address)": "infinite",
				"getParticipantIndex(address)": "infinite",
				"mintCertificate()": "infinite"
			}
		},
		"methodIdentifiers": {
			"acceptInvitation()": "728f1112",
			"agreeOnParticipants()": "a64b959f",
			"approve(address,uint256)": "095ea7b3",
			"balanceOf(address)": "70a08231",
			"engage(uint256,string)": "7bcd97af",
			"getApproved(uint256)": "081812fc",
			"inviteParticipant(address)": "266ae81c",
			"isApprovedForAll(address,address)": "e985e9c5",
			"name()": "06fdde03",
			"ownerOf(uint256)": "6352211e",
			"revokeEngagement()": "6d955eb5",
			"safeTransferFrom(address,address,uint256)": "42842e0e",
			"safeTransferFrom(address,address,uint256,bytes)": "b88d4fde",
			"setApprovalForAll(address,bool)": "a22cb465",
			"supportsInterface(bytes4)": "01ffc9a7",
			"symbol()": "95d89b41",
			"tokenURI(uint256)": "c87b56dd",
			"transferFrom(address,address,uint256)": "23b872dd",
			"voteAgainst()": "9f396cff",
			"wed()": "68aee9e8"
		}
	},
	"abi": [
		{
			"inputs": [],
			"stateMutability": "nonpayable",
			"type": "constructor"
		},
		{
			"inputs": [
				{
					"internalType": "address",
					"name": "sender",
					"type": "address"
				},
				{
					"internalType": "uint256",
					"name": "tokenId",
					"type": "uint256"
				},
				{
					"internalType": "address",
					"name": "owner",
					"type": "address"
				}
			],
			"name": "ERC721IncorrectOwner",
			"type": "error"
		},
		{
			"inputs": [
				{
					"internalType": "address",
					"name": "operator",
					"type": "address"
				},
				{
					"internalType": "uint256",
					"name": "tokenId",
					"type": "uint256"
				}
			],
			"name": "ERC721InsufficientApproval",
			"type": "error"
		},
		{
			"inputs": [
				{
					"internalType": "address",
					"name": "approver",
					"type": "address"
				}
			],
			"name": "ERC721InvalidApprover",
			"type": "error"
		},
		{
			"inputs": [
				{
					"internalType": "address",
					"name": "operator",
					"type": "address"
				}
			],
			"name": "ERC721InvalidOperator",
			"type": "error"
		},
		{
			"inputs": [
				{
					"internalType": "address",
					"name": "owner",
					"type": "address"
				}
			],
			"name": "ERC721InvalidOwner",
			"type": "error"
		},
		{
			"inputs": [
				{
					"internalType": "address",
					"name": "receiver",
					"type": "address"
				}
			],
			"name": "ERC721InvalidReceiver",
			"type": "error"
		},
		{
			"inputs": [
				{
					"internalType": "address",
					"name": "sender",
					"type": "address"
				}
			],
			"name": "ERC721InvalidSender",
			"type": "error"
		},
		{
			"inputs": [
				{
					"internalType": "uint256",
					"name": "tokenId",
					"type": "uint256"
				}
			],
			"name": "ERC721NonexistentToken",
			"type": "error"
		},
		{
			"anonymous": false,
			"inputs": [
				{
					"indexed": true,
					"internalType": "address",
					"name": "owner",
					"type": "address"
				},
				{
					"indexed": true,
					"internalType": "address",
					"name": "approved",
					"type": "address"
				},
				{
					"indexed": true,
					"internalType": "uint256",
					"name": "tokenId",
					"type": "uint256"
				}
			],
			"name": "Approval",
			"type": "event"
		},
		{
			"anonymous": false,
			"inputs": [
				{
					"indexed": true,
					"internalType": "address",
					"name": "owner",
					"type": "address"
				},
				{
					"indexed": true,
					"internalType": "address",
					"name": "operator",
					"type": "address"
				},
				{
					"indexed": false,
					"internalType": "bool",
					"name": "approved",
					"type": "bool"
				}
			],
			"name": "ApprovalForAll",
			"type": "event"
		},
		{
			"anonymous": false,
			"inputs": [
				{
					"indexed": false,
					"internalType": "uint256",
					"name": "_fromTokenId",
					"type": "uint256"
				},
				{
					"indexed": false,
					"internalType": "uint256",
					"name": "_toTokenId",
					"type": "uint256"
				}
			],
			"name": "BatchMetadataUpdate",
			"type": "event"
		},
		{
			"anonymous": false,
			"inputs": [
				{
					"indexed": false,
					"internalType": "uint256",
					"name": "_tokenId",
					"type": "uint256"
				}
			],
			"name": "MetadataUpdate",
			"type": "event"
		},
		{
			"anonymous": false,
			"inputs": [
				{
					"indexed": true,
					"internalType": "address",
					"name": "from",
					"type": "address"
				},
				{
					"indexed": true,
					"internalType": "address",
					"name": "to",
					"type": "address"
				},
				{
					"indexed": true,
					"internalType": "uint256",
					"name": "tokenId",
					"type": "uint256"
				}
			],
			"name": "Transfer",
			"type": "event"
		},
		{
			"inputs": [],
			"name": "acceptInvitation",
			"outputs": [],
			"stateMutability": "nonpayable",
			"type": "function"
		},
		{
			"inputs": [],
			"name": "agreeOnParticipants",
			"outputs": [],
			"stateMutability": "nonpayable",
			"type": "function"
		},
		{
			"inputs": [
				{
					"internalType": "address",
					"name": "to",
					"type": "address"
				},
				{
					"internalType": "uint256",
					"name": "tokenId",
					"type": "uint256"
				}
			],
			"name": "approve",
			"outputs": [],
			"stateMutability": "nonpayable",
			"type": "function"
		},
		{
			"inputs": [
				{
					"internalType": "address",
					"name": "owner",
					"type": "address"
				}
			],
			"name": "balanceOf",
			"outputs": [
				{
					"internalType": "uint256",
					"name": "",
					"type": "uint256"
				}
			],
			"stateMutability": "view",
			"type": "function"
		},
		{
			"inputs": [
				{
					"internalType": "uint256",
					"name": "_dateTime",
					"type": "uint256"
				},
				{
					"internalType": "string",
					"name": "_additionalInfo",
					"type": "string"
				}
			],
			"name": "engage",
			"outputs": [],
			"stateMutability": "nonpayable",
			"type": "function"
		},
		{
			"inputs": [
				{
					"internalType": "uint256",
					"name": "tokenId",
					"type": "uint256"
				}
			],
			"name": "getApproved",
			"outputs": [
				{
					"internalType": "address",
					"name": "",
					"type": "address"
				}
			],
			"stateMutability": "view",
			"type": "function"
		},
		{
			"inputs": [
				{
					"internalType": "address",
					"name": "_addr",
					"type": "address"
				}
			],
			"name": "inviteParticipant",
			"outputs": [],
			"stateMutability": "nonpayable",
			"type": "function"
		},
		{
			"inputs": [
				{
					"internalType": "address",
					"name": "owner",
					"type": "address"
				},
				{
					"internalType": "address",
					"name": "operator",
					"type": "address"
				}
			],
			"name": "isApprovedForAll",
			"outputs": [
				{
					"internalType": "bool",
					"name": "",
					"type": "bool"
				}
			],
			"stateMutability": "view",
			"type": "function"
		},
		{
			"inputs": [],
			"name": "name",
			"outputs": [
				{
					"internalType": "string",
					"name": "",
					"type": "string"
				}
			],
			"stateMutability": "view",
			"type": "function"
		},
		{
			"inputs": [
				{
					"internalType": "uint256",
					"name": "tokenId",
					"type": "uint256"
				}
			],
			"name": "ownerOf",
			"outputs": [
				{
					"internalType": "address",
					"name": "",
					"type": "address"
				}
			],
			"stateMutability": "view",
			"type": "function"
		},
		{
			"inputs": [],
			"name": "revokeEngagement",
			"outputs": [],
			"stateMutability": "nonpayable",
			"type": "function"
		},
		{
			"inputs": [
				{
					"internalType": "address",
					"name": "from",
					"type": "address"
				},
				{
					"internalType": "address",
					"name": "to",
					"type": "address"
				},
				{
					"internalType": "uint256",
					"name": "tokenId",
					"type": "uint256"
				}
			],
			"name": "safeTransferFrom",
			"outputs": [],
			"stateMutability": "nonpayable",
			"type": "function"
		},
		{
			"inputs": [
				{
					"internalType": "address",
					"name": "from",
					"type": "address"
				},
				{
					"internalType": "address",
					"name": "to",
					"type": "address"
				},
				{
					"internalType": "uint256",
					"name": "tokenId",
					"type": "uint256"
				},
				{
					"internalType": "bytes",
					"name": "data",
					"type": "bytes"
				}
			],
			"name": "safeTransferFrom",
			"outputs": [],
			"stateMutability": "nonpayable",
			"type": "function"
		},
		{
			"inputs": [
				{
					"internalType": "address",
					"name": "operator",
					"type": "address"
				},
				{
					"internalType": "bool",
					"name": "approved",
					"type": "bool"
				}
			],
			"name": "setApprovalForAll",
			"outputs": [],
			"stateMutability": "nonpayable",
			"type": "function"
		},
		{
			"inputs": [
				{
					"internalType": "bytes4",
					"name": "interfaceId",
					"type": "bytes4"
				}
			],
			"name": "supportsInterface",
			"outputs": [
				{
					"internalType": "bool",
					"name": "",
					"type": "bool"
				}
			],
			"stateMutability": "view",
			"type": "function"
		},
		{
			"inputs": [],
			"name": "symbol",
			"outputs": [
				{
					"internalType": "string",
					"name": "",
					"type": "string"
				}
			],
			"stateMutability": "view",
			"type": "function"
		},
		{
			"inputs": [
				{
					"internalType": "uint256",
					"name": "tokenId",
					"type": "uint256"
				}
			],
			"name": "tokenURI",
			"outputs": [
				{
					"internalType": "string",
					"name": "",
					"type": "string"
				}
			],
			"stateMutability": "view",
			"type": "function"
		},
		{
			"inputs": [
				{
					"internalType": "address",
					"name": "from",
					"type": "address"
				},
				{
					"internalType": "address",
					"name": "to",
					"type": "address"
				},
				{
					"internalType": "uint256",
					"name": "tokenId",
					"type": "uint256"
				}
			],
			"name": "transferFrom",
			"outputs": [],
			"stateMutability": "nonpayable",
			"type": "function"
		},
		{
			"inputs": [],
			"name": "voteAgainst",
			"outputs": [],
			"stateMutability": "nonpayable",
			"type": "function"
		},
		{
			"inputs": [],
			"name": "wed",
			"outputs": [],
			"stateMutability": "nonpayable",
			"type": "function"
		}
	]
}